{
  "contracts/Blackjack.sol": {
    "Blackjack": {
      "abi": [
        {
          "inputs": [],
          "stateMutability": "nonpayable",
          "type": "constructor"
        },
        {
          "anonymous": false,
          "inputs": [
            {
              "indexed": true,
              "internalType": "address",
              "name": "player",
              "type": "address"
            },
            {
              "indexed": false,
              "internalType": "uint256",
              "name": "finalHandValue",
              "type": "uint256"
            }
          ],
          "name": "DealerBust",
          "type": "event"
        },
        {
          "anonymous": false,
          "inputs": [
            {
              "indexed": true,
              "internalType": "address",
              "name": "player",
              "type": "address"
            },
            {
              "indexed": false,
              "internalType": "uint8",
              "name": "card",
              "type": "uint8"
            },
            {
              "indexed": false,
              "internalType": "uint256",
              "name": "handValue",
              "type": "uint256"
            }
          ],
          "name": "DealerCardDealt",
          "type": "event"
        },
        {
          "anonymous": false,
          "inputs": [
            {
              "indexed": true,
              "internalType": "address",
              "name": "player",
              "type": "address"
            },
            {
              "indexed": false,
              "internalType": "uint256",
              "name": "newBet",
              "type": "uint256"
            },
            {
              "indexed": false,
              "internalType": "uint8",
              "name": "handId",
              "type": "uint8"
            }
          ],
          "name": "DoubleDown",
          "type": "event"
        },
        {
          "anonymous": false,
          "inputs": [
            {
              "indexed": true,
              "internalType": "address",
              "name": "player",
              "type": "address"
            }
          ],
          "name": "GameReset",
          "type": "event"
        },
        {
          "anonymous": false,
          "inputs": [
            {
              "indexed": true,
              "internalType": "address",
              "name": "player",
              "type": "address"
            },
            {
              "indexed": false,
              "internalType": "string",
              "name": "result",
              "type": "string"
            },
            {
              "indexed": false,
              "internalType": "uint256",
              "name": "winnings",
              "type": "uint256"
            }
          ],
          "name": "GameResult",
          "type": "event"
        },
        {
          "anonymous": false,
          "inputs": [
            {
              "indexed": true,
              "internalType": "address",
              "name": "player",
              "type": "address"
            },
            {
              "indexed": false,
              "internalType": "uint256",
              "name": "betAmount",
              "type": "uint256"
            }
          ],
          "name": "GameStarted",
          "type": "event"
        },
        {
          "anonymous": false,
          "inputs": [
            {
              "indexed": true,
              "internalType": "address",
              "name": "player",
              "type": "address"
            },
            {
              "indexed": false,
              "internalType": "uint256",
              "name": "amount",
              "type": "uint256"
            }
          ],
          "name": "InsuranceTaken",
          "type": "event"
        },
        {
          "anonymous": false,
          "inputs": [
            {
              "indexed": true,
              "internalType": "address",
              "name": "player",
              "type": "address"
            },
            {
              "indexed": false,
              "internalType": "uint256",
              "name": "finalHandValue",
              "type": "uint256"
            },
            {
              "indexed": false,
              "internalType": "uint8",
              "name": "handId",
              "type": "uint8"
            }
          ],
          "name": "PlayerBust",
          "type": "event"
        },
        {
          "anonymous": false,
          "inputs": [
            {
              "indexed": true,
              "internalType": "address",
              "name": "player",
              "type": "address"
            },
            {
              "indexed": false,
              "internalType": "uint8",
              "name": "card",
              "type": "uint8"
            },
            {
              "indexed": false,
              "internalType": "uint256",
              "name": "handValue",
              "type": "uint256"
            },
            {
              "indexed": false,
              "internalType": "uint8",
              "name": "handId",
              "type": "uint8"
            }
          ],
          "name": "PlayerCardDealt",
          "type": "event"
        },
        {
          "anonymous": false,
          "inputs": [
            {
              "indexed": true,
              "internalType": "address",
              "name": "player",
              "type": "address"
            },
            {
              "indexed": false,
              "internalType": "uint8",
              "name": "handId",
              "type": "uint8"
            }
          ],
          "name": "PlayerStood",
          "type": "event"
        },
        {
          "anonymous": false,
          "inputs": [
            {
              "indexed": true,
              "internalType": "address",
              "name": "player",
              "type": "address"
            },
            {
              "indexed": false,
              "internalType": "uint256",
              "name": "betAmount",
              "type": "uint256"
            }
          ],
          "name": "Split",
          "type": "event"
        },
        {
          "inputs": [],
          "name": "dealInitialCards",
          "outputs": [],
          "stateMutability": "nonpayable",
          "type": "function"
        },
        {
          "inputs": [
            {
              "internalType": "uint8",
              "name": "_handId",
              "type": "uint8"
            }
          ],
          "name": "doubleDown",
          "outputs": [],
          "stateMutability": "payable",
          "type": "function"
        },
        {
          "inputs": [
            {
              "internalType": "address",
              "name": "_player",
              "type": "address"
            }
          ],
          "name": "getDealerHand",
          "outputs": [
            {
              "internalType": "uint8[]",
              "name": "",
              "type": "uint8[]"
            }
          ],
          "stateMutability": "view",
          "type": "function"
        },
        {
          "inputs": [
            {
              "internalType": "address",
              "name": "_player",
              "type": "address"
            }
          ],
          "name": "getGameState",
          "outputs": [
            {
              "internalType": "enum Blackjack.GameState",
              "name": "",
              "type": "uint8"
            }
          ],
          "stateMutability": "view",
          "type": "function"
        },
        {
          "inputs": [
            {
              "internalType": "address",
              "name": "_player",
              "type": "address"
            },
            {
              "internalType": "bool",
              "name": "_isPlayerHand",
              "type": "bool"
            }
          ],
          "name": "getHandValue",
          "outputs": [
            {
              "internalType": "uint256",
              "name": "",
              "type": "uint256"
            }
          ],
          "stateMutability": "view",
          "type": "function"
        },
        {
          "inputs": [
            {
              "internalType": "address",
              "name": "_player",
              "type": "address"
            }
          ],
          "name": "getHandValue2",
          "outputs": [
            {
              "internalType": "uint256",
              "name": "",
              "type": "uint256"
            }
          ],
          "stateMutability": "view",
          "type": "function"
        },
        {
          "inputs": [
            {
              "internalType": "address",
              "name": "_player",
              "type": "address"
            }
          ],
          "name": "getPlayerHand",
          "outputs": [
            {
              "internalType": "uint8[]",
              "name": "",
              "type": "uint8[]"
            }
          ],
          "stateMutability": "view",
          "type": "function"
        },
        {
          "inputs": [
            {
              "internalType": "address",
              "name": "_player",
              "type": "address"
            }
          ],
          "name": "getPlayerHand2",
          "outputs": [
            {
              "internalType": "uint8[]",
              "name": "",
              "type": "uint8[]"
            }
          ],
          "stateMutability": "view",
          "type": "function"
        },
        {
          "inputs": [
            {
              "internalType": "uint8",
              "name": "_numHits",
              "type": "uint8"
            },
            {
              "internalType": "uint8",
              "name": "_handId",
              "type": "uint8"
            }
          ],
          "name": "hitMultiple",
          "outputs": [],
          "stateMutability": "nonpayable",
          "type": "function"
        },
        {
          "inputs": [],
          "name": "placeBet",
          "outputs": [],
          "stateMutability": "payable",
          "type": "function"
        },
        {
          "inputs": [
            {
              "internalType": "address",
              "name": "",
              "type": "address"
            }
          ],
          "name": "playerGames",
          "outputs": [
            {
              "internalType": "uint256",
              "name": "bet",
              "type": "uint256"
            },
            {
              "internalType": "enum Blackjack.GameState",
              "name": "state",
              "type": "uint8"
            },
            {
              "internalType": "uint256",
              "name": "lastBlockNumber",
              "type": "uint256"
            },
            {
              "internalType": "bool",
              "name": "playerStood",
              "type": "bool"
            },
            {
              "internalType": "uint256",
              "name": "bet2",
              "type": "uint256"
            },
            {
              "internalType": "bool",
              "name": "hasSplit",
              "type": "bool"
            },
            {
              "internalType": "bool",
              "name": "playerHand1Done",
              "type": "bool"
            },
            {
              "internalType": "bool",
              "name": "hasDoubledDownHand1",
              "type": "bool"
            },
            {
              "internalType": "bool",
              "name": "hasDoubledDownHand2",
              "type": "bool"
            },
            {
              "internalType": "uint256",
              "name": "insuranceBet",
              "type": "uint256"
            },
            {
              "internalType": "bool",
              "name": "insuranceTaken",
              "type": "bool"
            },
            {
              "internalType": "bool",
              "name": "dealerHasAce",
              "type": "bool"
            }
          ],
          "stateMutability": "view",
          "type": "function"
        },
        {
          "inputs": [],
          "name": "resetGame",
          "outputs": [],
          "stateMutability": "nonpayable",
          "type": "function"
        },
        {
          "inputs": [],
          "name": "split",
          "outputs": [],
          "stateMutability": "payable",
          "type": "function"
        },
        {
          "inputs": [
            {
              "internalType": "uint8",
              "name": "_handId",
              "type": "uint8"
            }
          ],
          "name": "stand",
          "outputs": [],
          "stateMutability": "nonpayable",
          "type": "function"
        },
        {
          "inputs": [],
          "name": "takeInsurance",
          "outputs": [],
          "stateMutability": "payable",
          "type": "function"
        },
        {
          "inputs": [],
          "name": "withdrawAll",
          "outputs": [],
          "stateMutability": "nonpayable",
          "type": "function"
        },
        {
          "stateMutability": "payable",
          "type": "receive"
        }
      ],
      "evm": {
        "bytecode": {
          "linkReferences": {},
          "object": "608060405234801561001057600080fd5b50615bbe80620000216000396000f3fe6080604052600436106100f75760003560e01c8063b9ad583d1161008a578063d9d60b5211610059578063d9d60b5214610322578063f58bb0c91461035f578063f765417614610376578063f90f456014610380576100fe565b8063b9ad583d14610254578063bb47221914610291578063cece2fa0146102a8578063d06e5c06146102e5576100fe565b8063720d984e116100c6578063720d984e146101da578063853828b6146101f6578063963661db1461020d578063b0ca596214610217576100fe565b80630a2d343a146101035780631949e58b1461012c57806335d17c61146101555780634005650514610192576100fe565b366100fe57005b600080fd5b34801561010f57600080fd5b5061012a60048036038101906101259190614010565b61038a565b005b34801561013857600080fd5b50610153600480360381019061014e919061403d565b6107d8565b005b34801561016157600080fd5b5061017c600480360381019061017791906140db565b610fc3565b60405161018991906141c6565b60405180910390f35b34801561019e57600080fd5b506101b960048036038101906101b491906140db565b611082565b6040516101d19c9b9a99989796959493929190614293565b60405180910390f35b6101f460048036038101906101ef9190614010565b61114a565b005b34801561020257600080fd5b5061020b61199e565b005b6102156119e7565b005b34801561022357600080fd5b5061023e60048036038101906102399190614379565b611c4c565b60405161024b91906143b9565b60405180910390f35b34801561026057600080fd5b5061027b600480360381019061027691906140db565b611de0565b60405161028891906141c6565b60405180910390f35b34801561029d57600080fd5b506102a6611e9f565b005b3480156102b457600080fd5b506102cf60048036038101906102ca91906140db565b612264565b6040516102dc91906141c6565b60405180910390f35b3480156102f157600080fd5b5061030c600480360381019061030791906140db565b612323565b60405161031991906143b9565b60405180910390f35b34801561032e57600080fd5b50610349600480360381019061034491906140db565b6123ea565b60405161035691906143d4565b60405180910390f35b34801561036b57600080fd5b50610374612442565b005b61037e612689565b005b610388612a69565b005b600280600481111561039f5761039e614201565b5b6000803373ffffffffffffffffffffffffffffffffffffffff1673ffffffffffffffffffffffffffffffffffffffff16815260200190815260200160002060030160009054906101000a900460ff166004811115610400576103ff614201565b5b14610440576040517f08c379a000000000000000000000000000000000000000000000000000000000815260040161043790614472565b60405180910390fd5b60008060003373ffffffffffffffffffffffffffffffffffffffff1673ffffffffffffffffffffffffffffffffffffffff16815260200190815260200160002090508060080160029054906101000a900460ff161580156104b057508060080160039054906101000a900460ff16155b6104ef576040517f08c379a00000000000000000000000000000000000000000000000000000000081526004016104e690614504565b60405180910390fd5b60018360ff1603610696578060080160019054906101000a900460ff161561054c576040517f08c379a000000000000000000000000000000000000000000000000000000000815260040161054390614570565b60405180910390fd5b60018160080160016101000a81548160ff0219169083151502179055503373ffffffffffffffffffffffffffffffffffffffff167fcf9491c50952c181187e767c568b4a5ba558d5b1d35f47d6307fa1d7709c511060016040516105b091906145d5565b60405180910390a28060080160009054906101000a900460ff168015610656575060006106548260070180548060200260200160405190810160405280929190818152602001828054801561064a57602002820191906000526020600020906000905b82829054906101000a900460ff1660ff16815260200190600101906020826000010492830192600103820291508084116106135790505b5050505050612eb4565b115b6106915760038160030160006101000a81548160ff0219169083600481111561068257610681614201565b5b021790555061069033612f91565b5b6107d3565b60028360ff161480156106b757508060080160009054906101000a900460ff165b15610797578060080160019054906101000a900460ff1661070d576040517f08c379a000000000000000000000000000000000000000000000000000000000815260040161070490614662565b60405180910390fd5b3373ffffffffffffffffffffffffffffffffffffffff167fcf9491c50952c181187e767c568b4a5ba558d5b1d35f47d6307fa1d7709c5110600260405161075491906146bd565b60405180910390a260038160030160006101000a81548160ff0219169083600481111561078457610783614201565b5b021790555061079233612f91565b6107d2565b6040517f08c379a00000000000000000000000000000000000000000000000000000000081526004016107c99061474a565b60405180910390fd5b5b505050565b60028060048111156107ed576107ec614201565b5b6000803373ffffffffffffffffffffffffffffffffffffffff1673ffffffffffffffffffffffffffffffffffffffff16815260200190815260200160002060030160009054906101000a900460ff16600481111561084e5761084d614201565b5b1461088e576040517f08c379a000000000000000000000000000000000000000000000000000000000815260040161088590614472565b60405180910390fd5b60008060003373ffffffffffffffffffffffffffffffffffffffff1673ffffffffffffffffffffffffffffffffffffffff168152602001908152602001600020905060008460ff1611610916576040517f08c379a000000000000000000000000000000000000000000000000000000000815260040161090d906147b6565b60405180910390fd5b8060080160029054906101000a900460ff1615801561094457508060080160039054906101000a900460ff16155b610983576040517f08c379a000000000000000000000000000000000000000000000000000000000815260040161097a90614822565b60405180910390fd5b60008060018560ff1603610a02578260080160019054906101000a900460ff16156109e3576040517f08c379a00000000000000000000000000000000000000000000000000000000081526004016109da90614570565b60405180910390fd5b8260010191508260080160029054906101000a900460ff169050610ad4565b60028560ff16148015610a2357508260080160009054906101000a900460ff165b15610a98578260080160019054906101000a900460ff16610a79576040517f08c379a0000000000000000000000000000000000000000000000000000000008152600401610a7090614662565b60405180910390fd5b8260070191508260080160039054906101000a900460ff169050610ad3565b6040517f08c379a0000000000000000000000000000000000000000000000000000000008152600401610aca9061488e565b60405180910390fd5b5b8015610b15576040517f08c379a0000000000000000000000000000000000000000000000000000000008152600401610b0c90614920565b60405180910390fd5b60005b8660ff168160ff161015610fb957610b3233600188613306565b506000610bb384805480602002602001604051908101604052809291908181526020018280548015610ba957602002820191906000526020600020906000905b82829054906101000a900460ff1660ff1681526020019060010190602082600001049283019260010382029150808411610b725790505b5050505050612eb4565b90506015811115610db4573373ffffffffffffffffffffffffffffffffffffffff167f44ef28e569839e28c1269b483e0d38e7accd6ca7c0a5b8855cc8fbb91c48f5b08289604051610c0692919061494f565b60405180910390a28460080160009054906101000a900460ff1615610d685760018760ff1603610d2c5760018560080160016101000a81548160ff0219169083151502179055506000610cd086600701805480602002602001604051908101604052809291908181526020018280548015610cc657602002820191906000526020600020906000905b82829054906101000a900460ff1660ff1681526020019060010190602082600001049283019260010382029150808411610c8f5790505b5050505050612eb4565b118015610cec57508460080160039054906101000a900460ff16155b610d275760038560030160006101000a81548160ff02191690836004811115610d1857610d17614201565b5b0217905550610d2633612f91565b5b610d63565b60038560030160006101000a81548160ff02191690836004811115610d5457610d53614201565b5b0217905550610d6233612f91565b5b610daa565b610da9336040518060400160405280600c81526020017f506c6179657220427573747300000000000000000000000000000000000000008152506000613778565b5b5050505050610fbe565b60158103610fa5573373ffffffffffffffffffffffffffffffffffffffff167fcf9491c50952c181187e767c568b4a5ba558d5b1d35f47d6307fa1d7709c511088604051610e029190614978565b60405180910390a28460080160009054906101000a900460ff1615610f645760018760ff1603610f285760018560080160016101000a81548160ff0219169083151502179055506000610ecc86600701805480602002602001604051908101604052809291908181526020018280548015610ec257602002820191906000526020600020906000905b82829054906101000a900460ff1660ff1681526020019060010190602082600001049283019260010382029150808411610e8b5790505b5050505050612eb4565b118015610ee857508460080160039054906101000a900460ff16155b610f235760038560030160006101000a81548160ff02191690836004811115610f1457610f13614201565b5b0217905550610f2233612f91565b5b610f5f565b60038560030160006101000a81548160ff02191690836004811115610f5057610f4f614201565b5b0217905550610f5e33612f91565b5b610f9b565b60038560030160006101000a81548160ff02191690836004811115610f8c57610f8b614201565b5b0217905550610f9a33612f91565b5b5050505050610fbe565b508080610fb1906149c2565b915050610b18565b505050505b505050565b60606000808373ffffffffffffffffffffffffffffffffffffffff1673ffffffffffffffffffffffffffffffffffffffff16815260200190815260200160002060020180548060200260200160405190810160405280929190818152602001828054801561107657602002820191906000526020600020906000905b82829054906101000a900460ff1660ff168152602001906001019060208260000104928301926001038202915080841161103f5790505b50505050509050919050565b60006020528060005260406000206000915090508060000154908060030160009054906101000a900460ff16908060040154908060050160009054906101000a900460ff16908060060154908060080160009054906101000a900460ff16908060080160019054906101000a900460ff16908060080160029054906101000a900460ff16908060080160039054906101000a900460ff169080600901549080600a0160009054906101000a900460ff169080600a0160019054906101000a900460ff1690508c565b600280600481111561115f5761115e614201565b5b6000803373ffffffffffffffffffffffffffffffffffffffff1673ffffffffffffffffffffffffffffffffffffffff16815260200190815260200160002060030160009054906101000a900460ff1660048111156111c0576111bf614201565b5b14611200576040517f08c379a00000000000000000000000000000000000000000000000000000000081526004016111f790614472565b60405180910390fd5b60008060003373ffffffffffffffffffffffffffffffffffffffff1673ffffffffffffffffffffffffffffffffffffffff16815260200190815260200160002090508060080160029054906101000a900460ff1615801561127057508060080160039054906101000a900460ff16155b6112af576040517f08c379a00000000000000000000000000000000000000000000000000000000081526004016112a690614a37565b60405180910390fd5b600060018460ff160361138f576002826001018054905014611306576040517f08c379a00000000000000000000000000000000000000000000000000000000081526004016112fd90614ac9565b60405180910390fd5b8160000154341461134c576040517f08c379a000000000000000000000000000000000000000000000000000000000815260040161134390614b5b565b60405180910390fd5b348260000160008282546113609190614b7b565b9250508190555060018260080160026101000a81548160ff0219169083151502179055508160010190506114c4565b60028460ff161480156113b057508160080160009054906101000a900460ff165b156114885760028260070180549050146113ff576040517f08c379a00000000000000000000000000000000000000000000000000000000081526004016113f690614c21565b60405180910390fd5b81600601543414611445576040517f08c379a000000000000000000000000000000000000000000000000000000000815260040161143c90614cb3565b60405180910390fd5b348260060160008282546114599190614b7b565b9250508190555060018260080160036101000a81548160ff0219169083151502179055508160070190506114c3565b6040517f08c379a00000000000000000000000000000000000000000000000000000000081526004016114ba90614d45565b60405180910390fd5b5b6114d033600186613306565b503373ffffffffffffffffffffffffffffffffffffffff167f34a9fc4139a8845993518f8f647735dcafc9dd04cec976cef471de6067a2a4e560018660ff161461151e578360060154611524565b83600001545b8660405161153392919061494f565b60405180910390a260006115bb828054806020026020016040519081016040528092919081815260200182805480156115b157602002820191906000526020600020906000905b82829054906101000a900460ff1660ff168152602001906001019060208260000104928301926001038202915080841161157a5790505b5050505050612eb4565b905060158111156117b7573373ffffffffffffffffffffffffffffffffffffffff167f44ef28e569839e28c1269b483e0d38e7accd6ca7c0a5b8855cc8fbb91c48f5b0828760405161160e92919061494f565b60405180910390a28260080160009054906101000a900460ff16156117705760018560ff16036117345760018360080160016101000a81548160ff02191690831515021790555060006116d8846007018054806020026020016040519081016040528092919081815260200182805480156116ce57602002820191906000526020600020906000905b82829054906101000a900460ff1660ff16815260200190600101906020826000010492830192600103820291508084116116975790505b5050505050612eb4565b1180156116f457508260080160039054906101000a900460ff16155b61172f5760038360030160006101000a81548160ff021916908360048111156117205761171f614201565b5b021790555061172e33612f91565b5b61176b565b60038360030160006101000a81548160ff0219169083600481111561175c5761175b614201565b5b021790555061176a33612f91565b5b6117b2565b6117b1336040518060400160405280600c81526020017f506c6179657220427573747300000000000000000000000000000000000000008152506000613778565b5b611997565b3373ffffffffffffffffffffffffffffffffffffffff167fcf9491c50952c181187e767c568b4a5ba558d5b1d35f47d6307fa1d7709c5110866040516117fd9190614978565b60405180910390a28260080160009054906101000a900460ff161561195f5760018560ff16036119235760018360080160016101000a81548160ff02191690831515021790555060006118c7846007018054806020026020016040519081016040528092919081815260200182805480156118bd57602002820191906000526020600020906000905b82829054906101000a900460ff1660ff16815260200190600101906020826000010492830192600103820291508084116118865790505b5050505050612eb4565b1180156118e357508260080160039054906101000a900460ff16155b61191e5760038360030160006101000a81548160ff0219169083600481111561190f5761190e614201565b5b021790555061191d33612f91565b5b61195a565b60038360030160006101000a81548160ff0219169083600481111561194b5761194a614201565b5b021790555061195933612f91565b5b611996565b60038360030160006101000a81548160ff0219169083600481111561198757611986614201565b5b021790555061199533612f91565b5b5b5050505050565b3373ffffffffffffffffffffffffffffffffffffffff166108fc479081150290604051600060405180830381858888f193505050501580156119e4573d6000803e3d6000fd5b50565b60028060048111156119fc576119fb614201565b5b6000803373ffffffffffffffffffffffffffffffffffffffff1673ffffffffffffffffffffffffffffffffffffffff16815260200190815260200160002060030160009054906101000a900460ff166004811115611a5d57611a5c614201565b5b14611a9d576040517f08c379a0000000000000000000000000000000000000000000000000000000008152600401611a9490614472565b60405180910390fd5b60008060003373ffffffffffffffffffffffffffffffffffffffff1673ffffffffffffffffffffffffffffffffffffffff168152602001908152602001600020905080600a0160019054906101000a900460ff16611b30576040517f08c379a0000000000000000000000000000000000000000000000000000000008152600401611b2790614dd7565b60405180910390fd5b80600a0160009054906101000a900460ff1615611b82576040517f08c379a0000000000000000000000000000000000000000000000000000000008152600401611b7990614e43565b60405180910390fd5b60028160000154611b939190614e92565b3414611bd4576040517f08c379a0000000000000000000000000000000000000000000000000000000008152600401611bcb90614f35565b60405180910390fd5b348160090181905550600181600a0160006101000a81548160ff0219169083151502179055503373ffffffffffffffffffffffffffffffffffffffff167f4624b7adec753826941d16f639ff48026f4cb0cdeb0be0a59b6d57147f48bced34604051611c4091906143b9565b60405180910390a25050565b60008115611d1957611d126000808573ffffffffffffffffffffffffffffffffffffffff1673ffffffffffffffffffffffffffffffffffffffff168152602001908152602001600020600101805480602002602001604051908101604052809291908181526020018280548015611d0857602002820191906000526020600020906000905b82829054906101000a900460ff1660ff1681526020019060010190602082600001049283019260010382029150808411611cd15790505b5050505050612eb4565b9050611dda565b611dd76000808573ffffffffffffffffffffffffffffffffffffffff1673ffffffffffffffffffffffffffffffffffffffff168152602001908152602001600020600201805480602002602001604051908101604052809291908181526020018280548015611dcd57602002820191906000526020600020906000905b82829054906101000a900460ff1660ff1681526020019060010190602082600001049283019260010382029150808411611d965790505b5050505050612eb4565b90505b92915050565b60606000808373ffffffffffffffffffffffffffffffffffffffff1673ffffffffffffffffffffffffffffffffffffffff168152602001908152602001600020600701805480602002602001604051908101604052809291908181526020018280548015611e9357602002820191906000526020600020906000905b82829054906101000a900460ff1660ff1681526020019060010190602082600001049283019260010382029150808411611e5c5790505b50505050509050919050565b60008060003373ffffffffffffffffffffffffffffffffffffffff1673ffffffffffffffffffffffffffffffffffffffff168152602001908152602001600020905060006004811115611ef557611ef4614201565b5b8160030160009054906101000a900460ff166004811115611f1957611f18614201565b5b1480611f595750600480811115611f3357611f32614201565b5b8160030160009054906101000a900460ff166004811115611f5757611f56614201565b5b145b80611f99575060016004811115611f7357611f72614201565b5b8160030160009054906101000a900460ff166004811115611f9757611f96614201565b5b145b611fd8576040517f08c379a0000000000000000000000000000000000000000000000000000000008152600401611fcf90614fed565b60405180910390fd5b60008160000181905550600067ffffffffffffffff811115611ffd57611ffc61500d565b5b60405190808252806020026020018201604052801561202b5781602001602082028036833780820191505090505b50816001019080519060200190612043929190613f0e565b50600067ffffffffffffffff81111561205f5761205e61500d565b5b60405190808252806020026020018201604052801561208d5781602001602082028036833780820191505090505b508160020190805190602001906120a5929190613f0e565b5060008160030160006101000a81548160ff021916908360048111156120ce576120cd614201565b5b021790555060008160050160006101000a81548160ff0219169083151502179055506000816004018190555060008160060181905550600067ffffffffffffffff81111561211f5761211e61500d565b5b60405190808252806020026020018201604052801561214d5781602001602082028036833780820191505090505b50816007019080519060200190612165929190613f0e565b5060008160080160006101000a81548160ff02191690831515021790555060008160080160016101000a81548160ff02191690831515021790555060008160080160026101000a81548160ff02191690831515021790555060008160080160036101000a81548160ff02191690831515021790555060008160090181905550600081600a0160006101000a81548160ff021916908315150217905550600081600a0160016101000a81548160ff0219169083151502179055503373ffffffffffffffffffffffffffffffffffffffff167f5c5242c86e1c99f381866c8c3d6542c0f9691ec890edfe6699def7dafa9a34f660405160405180910390a250565b60606000808373ffffffffffffffffffffffffffffffffffffffff1673ffffffffffffffffffffffffffffffffffffffff16815260200190815260200160002060010180548060200260200160405190810160405280929190818152602001828054801561231757602002820191906000526020600020906000905b82829054906101000a900460ff1660ff16815260200190600101906020826000010492830192600103820291508084116122e05790505b50505050509050919050565b60006123e36000808473ffffffffffffffffffffffffffffffffffffffff1673ffffffffffffffffffffffffffffffffffffffff1681526020019081526020016000206007018054806020026020016040519081016040528092919081815260200182805480156123d957602002820191906000526020600020906000905b82829054906101000a900460ff1660ff16815260200190600101906020826000010492830192600103820291508084116123a25790505b5050505050612eb4565b9050919050565b60008060008373ffffffffffffffffffffffffffffffffffffffff1673ffffffffffffffffffffffffffffffffffffffff16815260200190815260200160002060030160009054906101000a900460ff169050919050565b600180600481111561245757612456614201565b5b6000803373ffffffffffffffffffffffffffffffffffffffff1673ffffffffffffffffffffffffffffffffffffffff16815260200190815260200160002060030160009054906101000a900460ff1660048111156124b8576124b7614201565b5b146124f8576040517f08c379a00000000000000000000000000000000000000000000000000000000081526004016124ef90614472565b60405180910390fd5b60008060003373ffffffffffffffffffffffffffffffffffffffff1673ffffffffffffffffffffffffffffffffffffffff168152602001908152602001600020905061254633600180613306565b50600061255533600080613306565b905061256333600180613306565b5060018160ff160361258d57600182600a0160016101000a81548160ff0219169083151502179055505b60006126108360010180548060200260200160405190810160405280929190818152602001828054801561260657602002820191906000526020600020906000905b82829054906101000a900460ff1660ff16815260200190600101906020826000010492830192600103820291508084116125cf5790505b5050505050612eb4565b9050601581036126555760038360030160006101000a81548160ff0219169083600481111561264257612641614201565b5b021790555061265033612f91565b612683565b60028360030160006101000a81548160ff0219169083600481111561267d5761267c614201565b5b02179055505b50505050565b600280600481111561269e5761269d614201565b5b6000803373ffffffffffffffffffffffffffffffffffffffff1673ffffffffffffffffffffffffffffffffffffffff16815260200190815260200160002060030160009054906101000a900460ff1660048111156126ff576126fe614201565b5b1461273f576040517f08c379a000000000000000000000000000000000000000000000000000000000815260040161273690614472565b60405180910390fd5b60008060003373ffffffffffffffffffffffffffffffffffffffff1673ffffffffffffffffffffffffffffffffffffffff16815260200190815260200160002090508060080160009054906101000a900460ff16156127d3576040517f08c379a00000000000000000000000000000000000000000000000000000000081526004016127ca90615088565b60405180910390fd5b600281600101805490501461281d576040517f08c379a00000000000000000000000000000000000000000000000000000000081526004016128149061511a565b60405180910390fd5b806001016001815481106128345761283361513a565b5b90600052602060002090602091828204019190069054906101000a900460ff1660ff168160010160008154811061286e5761286d61513a565b5b90600052602060002090602091828204019190069054906101000a900460ff1660ff16146128d1576040517f08c379a00000000000000000000000000000000000000000000000000000000081526004016128c8906151db565b60405180910390fd5b80600001543414612917576040517f08c379a000000000000000000000000000000000000000000000000000000000815260040161290e9061526d565b60405180910390fd5b60018160080160006101000a81548160ff02191690831515021790555034816006018190555080600701816001016001815481106129585761295761513a565b5b90600052602060002090602091828204019190069054906101000a900460ff1690806001815401808255809150506001900390600052602060002090602091828204019190069091909190916101000a81548160ff021916908360ff160217905550806001018054806129ce576129cd61528d565b5b60019003818190600052602060002090602091828204019190066101000a81549060ff02191690559055612a0433600180613306565b50612a123360016002613306565b503373ffffffffffffffffffffffffffffffffffffffff167fe1665329182bc1dab50c9b04ea6bd37107b73ed7c585951d808b02cd9b6596278260000154604051612a5d91906143b9565b60405180910390a25050565b60006004811115612a7d57612a7c614201565b5b6000803373ffffffffffffffffffffffffffffffffffffffff1673ffffffffffffffffffffffffffffffffffffffff16815260200190815260200160002060030160009054906101000a900460ff166004811115612ade57612add614201565b5b1480612b5b5750600480811115612af857612af7614201565b5b6000803373ffffffffffffffffffffffffffffffffffffffff1673ffffffffffffffffffffffffffffffffffffffff16815260200190815260200160002060030160009054906101000a900460ff166004811115612b5957612b58614201565b5b145b612b9a576040517f08c379a0000000000000000000000000000000000000000000000000000000008152600401612b9190615354565b60405180910390fd5b60003411612bdd576040517f08c379a0000000000000000000000000000000000000000000000000000000008152600401612bd4906153e6565b60405180910390fd5b60008060003373ffffffffffffffffffffffffffffffffffffffff1673ffffffffffffffffffffffffffffffffffffffff1681526020019081526020016000209050348160000181905550600067ffffffffffffffff811115612c4357612c4261500d565b5b604051908082528060200260200182016040528015612c715781602001602082028036833780820191505090505b50816001019080519060200190612c89929190613f0e565b50600067ffffffffffffffff811115612ca557612ca461500d565b5b604051908082528060200260200182016040528015612cd35781602001602082028036833780820191505090505b50816002019080519060200190612ceb929190613f0e565b5060018160030160006101000a81548160ff02191690836004811115612d1457612d13614201565b5b021790555060008160050160006101000a81548160ff02191690831515021790555043816004018190555060008160060181905550600067ffffffffffffffff811115612d6457612d6361500d565b5b604051908082528060200260200182016040528015612d925781602001602082028036833780820191505090505b50816007019080519060200190612daa929190613f0e565b5060008160080160006101000a81548160ff02191690831515021790555060008160080160016101000a81548160ff02191690831515021790555060008160080160026101000a81548160ff02191690831515021790555060008160080160036101000a81548160ff02191690831515021790555060008160090181905550600081600a0160006101000a81548160ff021916908315150217905550600081600a0160016101000a81548160ff0219169083151502179055503373ffffffffffffffffffffffffffffffffffffffff167fea32a03505fd9f04d664676d72295a86c5fb0465e69654751907ca305bc1d1c734604051612ea991906143b9565b60405180910390a250565b600080600090506000805b8451811015612f4e576001858281518110612edd57612edc61513a565b5b602002602001015160ff1603612f0f578180612ef890615406565b925050600b83612f089190614b7b565b9250612f3b565b848181518110612f2257612f2161513a565b5b602002602001015160ff1683612f389190614b7b565b92505b8080612f4690615406565b915050612ebf565b505b601582118015612f605750600081115b15612f8757600a82612f72919061544e565b91508080612f7f90615482565b915050612f50565b8192505050919050565b60008060008373ffffffffffffffffffffffffffffffffffffffff1673ffffffffffffffffffffffffffffffffffffffff168152602001908152602001600020905060006130568260020180548060200260200160405190810160405280929190818152602001828054801561304c57602002820191906000526020600020906000905b82829054906101000a900460ff1660ff16815260200190600101906020826000010492830192600103820291508084116130155790505b5050505050612eb4565b905060018260020180549050036130f85761307333600080613306565b506130f5826002018054806020026020016040519081016040528092919081815260200182805480156130eb57602002820191906000526020600020906000905b82829054906101000a900460ff1660ff16815260200190600101906020826000010492830192600103820291508084116130b45790505b5050505050612eb4565b90505b81600a0160009054906101000a900460ff16156131ef57601581148015613126575060028260020180549050145b156131ed5760003373ffffffffffffffffffffffffffffffffffffffff166003846009015461315591906154ab565b6040516131619061551e565b60006040518083038185875af1925050503d806000811461319e576040519150601f19603f3d011682016040523d82523d6000602084013e6131a3565b606091505b50509050806131e7576040517f08c379a00000000000000000000000000000000000000000000000000000000081526004016131de906155a5565b60405180910390fd5b506131ee565b5b5b5b601181101561328e5761320533600080613306565b506132878260020180548060200260200160405190810160405280929190818152602001828054801561327d57602002820191906000526020600020906000905b82829054906101000a900460ff1660ff16815260200190600101906020826000010492830192600103820291508084116132465790505b5050505050612eb4565b90506131f0565b60158111156132f5578273ffffffffffffffffffffffffffffffffffffffff167f4bbd2278c3b9557e7ddf4e738c92e4bda30d174adaf84ecddbfc99412bf8ba19826040516132dd91906143b9565b60405180910390a26132f08360016138f4565b613301565b6133008360006138f4565b5b505050565b6000806000808673ffffffffffffffffffffffffffffffffffffffff1673ffffffffffffffffffffffffffffffffffffffff168152602001908152602001600020905060004244338460040154604051602001613366949392919061562e565b6040516020818303038152906040528051906020012060001c905043826004018190555060006001600d8361339b919061567c565b6133a59190614b7b565b9050600a8160ff1611156133b857600a90505b85156136535760018560ff16036134e857826001018190806001815401808255809150506001900390600052602060002090602091828204019190069091909190916101000a81548160ff021916908360ff1602179055508673ffffffffffffffffffffffffffffffffffffffff167f7d87dd80630649d4aa92025481d68bb751a5b1f79e61f1088a799af0c76fb4b4826134ca866001018054806020026020016040519081016040528092919081815260200182805480156134c057602002820191906000526020600020906000905b82829054906101000a900460ff1660ff16815260200190600101906020826000010492830192600103820291508084116134895790505b5050505050612eb4565b60016040516134db939291906156ad565b60405180910390a261364e565b60028560ff160361361257826007018190806001815401808255809150506001900390600052602060002090602091828204019190069091909190916101000a81548160ff021916908360ff1602179055508673ffffffffffffffffffffffffffffffffffffffff167f7d87dd80630649d4aa92025481d68bb751a5b1f79e61f1088a799af0c76fb4b4826135f4866007018054806020026020016040519081016040528092919081815260200182805480156135ea57602002820191906000526020600020906000905b82829054906101000a900460ff1660ff16815260200190600101906020826000010492830192600103820291508084116135b35790505b5050505050612eb4565b6002604051613605939291906156e4565b60405180910390a261364d565b6040517f08c379a00000000000000000000000000000000000000000000000000000000081526004016136449061578d565b60405180910390fd5b5b61376b565b826002018190806001815401808255809150506001900390600052602060002090602091828204019190069091909190916101000a81548160ff021916908360ff1602179055508673ffffffffffffffffffffffffffffffffffffffff167fc534ee2eedb919439a8cc001f81c772938e9de503140e68a0a1ab20fee8ed137826137548660020180548060200260200160405190810160405280929190818152602001828054801561374a57602002820191906000526020600020906000905b82829054906101000a900460ff1660ff16815260200190600101906020826000010492830192600103820291508084116137135790505b5050505050612eb4565b6040516137629291906157ad565b60405180910390a25b8093505050509392505050565b60008060008573ffffffffffffffffffffffffffffffffffffffff1673ffffffffffffffffffffffffffffffffffffffff168152602001908152602001600020905060048160030160006101000a81548160ff021916908360048111156137e2576137e1614201565b5b0217905550600082111561389e5760003373ffffffffffffffffffffffffffffffffffffffff16836040516138169061551e565b60006040518083038185875af1925050503d8060008114613853576040519150601f19603f3d011682016040523d82523d6000602084013e613858565b606091505b505090508061389c576040517f08c379a000000000000000000000000000000000000000000000000000000000815260040161389390615822565b60405180910390fd5b505b8373ffffffffffffffffffffffffffffffffffffffff167f79e3a2f58098f8de6628c96c4444e59e851c17fd85c2139cb27ca031f7246d7a84846040516138e69291906158c1565b60405180910390a250505050565b60008060008473ffffffffffffffffffffffffffffffffffffffff1673ffffffffffffffffffffffffffffffffffffffff168152602001908152602001600020905060006139b9826002018054806020026020016040519081016040528092919081815260200182805480156139af57602002820191906000526020600020906000905b82829054906101000a900460ff1660ff16815260200190600101906020826000010492830192600103820291508084116139785790505b5050505050612eb4565b9050613a468483600101805480602002602001604051908101604052809291908181526020018280548015613a3357602002820191906000526020600020906000905b82829054906101000a900460ff1660ff16815260200190600101906020826000010492830192600103820291508084116139fc5790505b5050505050846000015460018588613b1c565b8160080160009054906101000a900460ff1615613ae957613ae88483600701805480602002602001604051908101604052809291908181526020018280548015613ad557602002820191906000526020600020906000905b82829054906101000a900460ff1660ff1681526020019060010190602082600001049283019260010382029150808411613a9e5790505b5050505050846006015460028588613b1c565b5b60048260030160006101000a81548160ff02191690836004811115613b1157613b10614201565b5b021790555050505050565b6000613b2786612eb4565b9050606060006015831115613b6957613b3f86613d9c565b604051602001613b4f9190615979565b604051602081830303815290604052915060009050613c5f565b8315613bad57613b7886613d9c565b604051602001613b8891906159d4565b6040516020818303038152906040529150600287613ba691906154ab565b9050613c5e565b84831115613bf357613bbe86613d9c565b604051602001613bce9190615a2f565b6040516020818303038152906040529150600287613bec91906154ab565b9050613c5d565b84831015613c2e57613c0486613d9c565b604051602001613c149190615a8a565b604051602081830303815290604052915060009050613c5c565b613c3786613d9c565b604051602001613c479190615ae5565b60405160208183030381529060405291508690505b5b5b5b6000811115613d415760008973ffffffffffffffffffffffffffffffffffffffff1682604051613c8e9061551e565b60006040518083038185875af1925050503d8060008114613ccb576040519150601f19603f3d011682016040523d82523d6000602084013e613cd0565b606091505b5050905080613cde88613d9c565b604051602001613cee9190615b40565b60405160208183030381529060405290613d3e576040517f08c379a0000000000000000000000000000000000000000000000000000000008152600401613d359190615b66565b60405180910390fd5b50505b8873ffffffffffffffffffffffffffffffffffffffff167f79e3a2f58098f8de6628c96c4444e59e851c17fd85c2139cb27ca031f7246d7a8383604051613d899291906158c1565b60405180910390a2505050505050505050565b606060008260ff1603613de6576040518060400160405280600181526020017f30000000000000000000000000000000000000000000000000000000000000008152509050613f09565b60008260ff1690506000808290505b6000811115613e2057600a81613e0b9190614e92565b90508180613e1890615406565b925050613df5565b60008267ffffffffffffffff811115613e3c57613e3b61500d565b5b6040519080825280601f01601f191660200182016040528015613e6e5781602001600182028036833780820191505090505b50905060008390505b6000851115613f00578080613e8b90615482565b915050600a85613e9b919061567c565b6030613ea79190614b7b565b60f81b828281518110613ebd57613ebc61513a565b5b60200101907effffffffffffffffffffffffffffffffffffffffffffffffffffffffffffff1916908160001a905350600a85613ef99190614e92565b9450613e77565b81955050505050505b919050565b82805482825590600052602060002090601f01602090048101928215613fa45791602002820160005b83821115613f7557835183826101000a81548160ff021916908360ff1602179055509260200192600101602081600001049283019260010302613f37565b8015613fa25782816101000a81549060ff0219169055600101602081600001049283019260010302613f75565b505b509050613fb19190613fb5565b5090565b5b80821115613fce576000816000905550600101613fb6565b5090565b600080fd5b600060ff82169050919050565b613fed81613fd7565b8114613ff857600080fd5b50565b60008135905061400a81613fe4565b92915050565b60006020828403121561402657614025613fd2565b5b600061403484828501613ffb565b91505092915050565b6000806040838503121561405457614053613fd2565b5b600061406285828601613ffb565b925050602061407385828601613ffb565b9150509250929050565b600073ffffffffffffffffffffffffffffffffffffffff82169050919050565b60006140a88261407d565b9050919050565b6140b88161409d565b81146140c357600080fd5b50565b6000813590506140d5816140af565b92915050565b6000602082840312156140f1576140f0613fd2565b5b60006140ff848285016140c6565b91505092915050565b600081519050919050565b600082825260208201905092915050565b6000819050602082019050919050565b61413d81613fd7565b82525050565b600061414f8383614134565b60208301905092915050565b6000602082019050919050565b600061417382614108565b61417d8185614113565b935061418883614124565b8060005b838110156141b95781516141a08882614143565b97506141ab8361415b565b92505060018101905061418c565b5085935050505092915050565b600060208201905081810360008301526141e08184614168565b905092915050565b6000819050919050565b6141fb816141e8565b82525050565b7f4e487b7100000000000000000000000000000000000000000000000000000000600052602160045260246000fd5b6005811061424157614240614201565b5b50565b600081905061425282614230565b919050565b600061426282614244565b9050919050565b61427281614257565b82525050565b60008115159050919050565b61428d81614278565b82525050565b6000610180820190506142a9600083018f6141f2565b6142b6602083018e614269565b6142c3604083018d6141f2565b6142d0606083018c614284565b6142dd608083018b6141f2565b6142ea60a083018a614284565b6142f760c0830189614284565b61430460e0830188614284565b614312610100830187614284565b6143206101208301866141f2565b61432e610140830185614284565b61433c610160830184614284565b9d9c50505050505050505050505050565b61435681614278565b811461436157600080fd5b50565b6000813590506143738161434d565b92915050565b600080604083850312156143905761438f613fd2565b5b600061439e858286016140c6565b92505060206143af85828601614364565b9150509250929050565b60006020820190506143ce60008301846141f2565b92915050565b60006020820190506143e96000830184614269565b92915050565b600082825260208201905092915050565b7f496e76616c69642067616d6520737461746520666f722074686973206163746960008201527f6f6e2e0000000000000000000000000000000000000000000000000000000000602082015250565b600061445c6023836143ef565b915061446782614400565b604082019050919050565b6000602082019050818103600083015261448b8161444f565b9050919050565b7f43616e6e6f74207374616e6420616674657220646f75626c696e6720646f776e60008201527f2e00000000000000000000000000000000000000000000000000000000000000602082015250565b60006144ee6021836143ef565b91506144f982614492565b604082019050919050565b6000602082019050818103600083015261451d816144e1565b9050919050565b7f48616e64203120697320616c726561647920646f6e652e000000000000000000600082015250565b600061455a6017836143ef565b915061456582614524565b602082019050919050565b600060208201905081810360008301526145898161454d565b9050919050565b6000819050919050565b6000819050919050565b60006145bf6145ba6145b584614590565b61459a565b613fd7565b9050919050565b6145cf816145a4565b82525050565b60006020820190506145ea60008301846145c6565b92915050565b7f48616e642031206d75737420626520646f6e65206265666f726520706c61796960008201527f6e672048616e6420322e00000000000000000000000000000000000000000000602082015250565b600061464c602a836143ef565b9150614657826145f0565b604082019050919050565b6000602082019050818103600083015261467b8161463f565b9050919050565b6000819050919050565b60006146a76146a261469d84614682565b61459a565b613fd7565b9050919050565b6146b78161468c565b82525050565b60006020820190506146d260008301846146ae565b92915050565b7f496e76616c69642068616e64204944206f72206e6f2073706c69742068616e6460008201527f20746f207374616e64206f6e2e00000000000000000000000000000000000000602082015250565b6000614734602d836143ef565b915061473f826146d8565b604082019050919050565b6000602082019050818103600083015261476381614727565b9050919050565b7f4d75737420686974206174206c65617374206f6e6520636172642e0000000000600082015250565b60006147a0601b836143ef565b91506147ab8261476a565b602082019050919050565b600060208201905081810360008301526147cf81614793565b9050919050565b7f43616e6e6f742068697420616674657220646f75626c696e6720646f776e2e00600082015250565b600061480c601f836143ef565b9150614817826147d6565b602082019050919050565b6000602082019050818103600083015261483b816147ff565b9050919050565b7f496e76616c69642068616e642049442e00000000000000000000000000000000600082015250565b60006148786010836143ef565b915061488382614842565b602082019050919050565b600060208201905081810360008301526148a78161486b565b9050919050565b7f43616e6e6f742068697420616674657220646f75626c696e6720646f776e206f60008201527f6e20746869732068616e642e0000000000000000000000000000000000000000602082015250565b600061490a602c836143ef565b9150614915826148ae565b604082019050919050565b60006020820190508181036000830152614939816148fd565b9050919050565b61494981613fd7565b82525050565b600060408201905061496460008301856141f2565b6149716020830184614940565b9392505050565b600060208201905061498d6000830184614940565b92915050565b7f4e487b7100000000000000000000000000000000000000000000000000000000600052601160045260246000fd5b60006149cd82613fd7565b915060ff82036149e0576149df614993565b5b600182019050919050565b7f416c726561647920646f75626c656420646f776e206f6e20612068616e642e00600082015250565b6000614a21601f836143ef565b9150614a2c826149eb565b602082019050919050565b60006020820190508181036000830152614a5081614a14565b9050919050565b7f43616e206f6e6c7920646f75626c6520646f776e206f6e20696e697469616c2060008201527f74776f2063617264732e00000000000000000000000000000000000000000000602082015250565b6000614ab3602a836143ef565b9150614abe82614a57565b604082019050919050565b60006020820190508181036000830152614ae281614aa6565b9050919050565b7f4d75737420646f75626c6520746865206f726967696e616c2062657420666f7260008201527f2068616e6420312e000000000000000000000000000000000000000000000000602082015250565b6000614b456028836143ef565b9150614b5082614ae9565b604082019050919050565b60006020820190508181036000830152614b7481614b38565b9050919050565b6000614b86826141e8565b9150614b91836141e8565b9250828201905080821115614ba957614ba8614993565b5b92915050565b7f43616e206f6e6c7920646f75626c6520646f776e206f6e20696e697469616c2060008201527f74776f20636172647320666f722073706c69742068616e642e00000000000000602082015250565b6000614c0b6039836143ef565b9150614c1682614baf565b604082019050919050565b60006020820190508181036000830152614c3a81614bfe565b9050919050565b7f4d75737420646f75626c6520746865206f726967696e616c2062657420666f7260008201527f2068616e6420322e000000000000000000000000000000000000000000000000602082015250565b6000614c9d6028836143ef565b9150614ca882614c41565b604082019050919050565b60006020820190508181036000830152614ccc81614c90565b9050919050565b7f496e76616c69642068616e64204944206f72206e6f2073706c69742068616e6460008201527f20746f20646f75626c6520646f776e206f6e2e00000000000000000000000000602082015250565b6000614d2f6033836143ef565b9150614d3a82614cd3565b604082019050919050565b60006020820190508181036000830152614d5e81614d22565b9050919050565b7f496e737572616e63652063616e206f6e6c792062652074616b656e206966206460008201527f65616c65722073686f777320616e204163652e00000000000000000000000000602082015250565b6000614dc16033836143ef565b9150614dcc82614d65565b604082019050919050565b60006020820190508181036000830152614df081614db4565b9050919050565b7f496e737572616e636520616c72656164792074616b656e2e0000000000000000600082015250565b6000614e2d6018836143ef565b9150614e3882614df7565b602082019050919050565b60006020820190508181036000830152614e5c81614e20565b9050919050565b7f4e487b7100000000000000000000000000000000000000000000000000000000600052601260045260246000fd5b6000614e9d826141e8565b9150614ea8836141e8565b925082614eb857614eb7614e63565b5b828204905092915050565b7f496e737572616e636520626574206d7573742062652068616c66206f6620746860008201527f65206f726967696e616c206265742e0000000000000000000000000000000000602082015250565b6000614f1f602f836143ef565b9150614f2a82614ec3565b604082019050919050565b60006020820190508181036000830152614f4e81614f12565b9050919050565b7f43616e6e6f742072657365742067616d6520696e2063757272656e742061637460008201527f69766520706c6179696e672073746174652e2046696e6973682074686520726f60208201527f756e64206f72207761697420666f7220697420746f20636f6e636c7564652e00604082015250565b6000614fd7605f836143ef565b9150614fe282614f55565b606082019050919050565b6000602082019050818103600083015261500681614fca565b9050919050565b7f4e487b7100000000000000000000000000000000000000000000000000000000600052604160045260246000fd5b7f506c617965722068617320616c72656164792073706c69742e00000000000000600082015250565b60006150726019836143ef565b915061507d8261503c565b602082019050919050565b600060208201905081810360008301526150a181615065565b9050919050565b7f43616e206f6e6c792073706c697420696e697469616c2074776f20636172647360008201527f2e00000000000000000000000000000000000000000000000000000000000000602082015250565b60006151046021836143ef565b915061510f826150a8565b604082019050919050565b60006020820190508181036000830152615133816150f7565b9050919050565b7f4e487b7100000000000000000000000000000000000000000000000000000000600052603260045260246000fd5b7f4361726473206d757374206265206f66207468652073616d652072616e6b207460008201527f6f2073706c69742e000000000000000000000000000000000000000000000000602082015250565b60006151c56028836143ef565b91506151d082615169565b604082019050919050565b600060208201905081810360008301526151f4816151b8565b9050919050565b7f4d75737420706c61636520616e20657175616c2062657420666f72207468652060008201527f7365636f6e642068616e642e0000000000000000000000000000000000000000602082015250565b6000615257602c836143ef565b9150615262826151fb565b604082019050919050565b600060208201905081810360008301526152868161524a565b9050919050565b7f4e487b7100000000000000000000000000000000000000000000000000000000600052603160045260246000fd5b7f43616e6e6f7420706c616365206265743a20412067616d6520697320616c726560008201527f61647920696e2070726f6772657373206f72206e6f7420696e2061207265736560208201527f747461626c652073746174652e00000000000000000000000000000000000000604082015250565b600061533e604d836143ef565b9150615349826152bc565b606082019050919050565b6000602082019050818103600083015261536d81615331565b9050919050565b7f42657420616d6f756e74206d7573742062652067726561746572207468616e2060008201527f7a65726f2e000000000000000000000000000000000000000000000000000000602082015250565b60006153d06025836143ef565b91506153db82615374565b604082019050919050565b600060208201905081810360008301526153ff816153c3565b9050919050565b6000615411826141e8565b91507fffffffffffffffffffffffffffffffffffffffffffffffffffffffffffffffff820361544357615442614993565b5b600182019050919050565b6000615459826141e8565b9150615464836141e8565b925082820390508181111561547c5761547b614993565b5b92915050565b600061548d826141e8565b9150600082036154a05761549f614993565b5b600182039050919050565b60006154b6826141e8565b91506154c1836141e8565b92508282026154cf816141e8565b915082820484148315176154e6576154e5614993565b5b5092915050565b600081905092915050565b50565b60006155086000836154ed565b9150615513826154f8565b600082019050919050565b6000615529826154fb565b9150819050919050565b7f4661696c656420746f2073656e6420696e737572616e63652077696e6e696e6760008201527f732e000000000000000000000000000000000000000000000000000000000000602082015250565b600061558f6022836143ef565b915061559a82615533565b604082019050919050565b600060208201905081810360008301526155be81615582565b9050919050565b6000819050919050565b6155e06155db826141e8565b6155c5565b82525050565b60008160601b9050919050565b60006155fe826155e6565b9050919050565b6000615610826155f3565b9050919050565b6156286156238261409d565b615605565b82525050565b600061563a82876155cf565b60208201915061564a82866155cf565b60208201915061565a8285615617565b60148201915061566a82846155cf565b60208201915081905095945050505050565b6000615687826141e8565b9150615692836141e8565b9250826156a2576156a1614e63565b5b828206905092915050565b60006060820190506156c26000830186614940565b6156cf60208301856141f2565b6156dc60408301846145c6565b949350505050565b60006060820190506156f96000830186614940565b61570660208301856141f2565b61571360408301846146ae565b949350505050565b7f496e76616c696420706c617965722068616e6420494420666f72206465616c6960008201527f6e672e0000000000000000000000000000000000000000000000000000000000602082015250565b60006157776023836143ef565b91506157828261571b565b604082019050919050565b600060208201905081810360008301526157a68161576a565b9050919050565b60006040820190506157c26000830185614940565b6157cf60208301846141f2565b9392505050565b7f4661696c656420746f2073656e642045746865722e0000000000000000000000600082015250565b600061580c6015836143ef565b9150615817826157d6565b602082019050919050565b6000602082019050818103600083015261583b816157ff565b9050919050565b600081519050919050565b60005b8381101561586b578082015181840152602081019050615850565b60008484015250505050565b6000601f19601f8301169050919050565b600061589382615842565b61589d81856143ef565b93506158ad81856020860161584d565b6158b681615877565b840191505092915050565b600060408201905081810360008301526158db8185615888565b90506158ea60208301846141f2565b9392505050565b7f48616e6420000000000000000000000000000000000000000000000000000000815250565b600081905092915050565b600061592d82615842565b6159378185615917565b935061594781856020860161584d565b80840191505092915050565b7f3a20506c61796572204275737473000000000000000000000000000000000000815250565b6000615984826158f1565b6005820191506159948284615922565b915061599f82615953565b600e8201915081905092915050565b7f3a204465616c65722042757374732120596f752057696e210000000000000000815250565b60006159df826158f1565b6005820191506159ef8284615922565b91506159fa826159ae565b60188201915081905092915050565b7f3a20596f752057696e2100000000000000000000000000000000000000000000815250565b6000615a3a826158f1565b600582019150615a4a8284615922565b9150615a5582615a09565b600a8201915081905092915050565b7f3a204465616c65722057696e7300000000000000000000000000000000000000815250565b6000615a95826158f1565b600582019150615aa58284615922565b9150615ab082615a64565b600d8201915081905092915050565b7f3a20507573682028497427732061205469652900000000000000000000000000815250565b6000615af0826158f1565b600582019150615b008284615922565b9150615b0b82615abf565b60138201915081905092915050565b7f4661696c656420746f2073656e6420457468657220666f722048616e64200000815250565b6000615b4b82615b1a565b601e82019150615b5b8284615922565b915081905092915050565b60006020820190508181036000830152615b808184615888565b90509291505056fea2646970667358221220d4ad8b393376716701e199464b7de492f6c4a331b0101dcc13213807fe5a3e3b64736f6c63430008140033",
          "opcodes": "PUSH1 0x80 PUSH1 0x40 MSTORE CALLVALUE DUP1 ISZERO PUSH2 0x10 JUMPI PUSH1 0x0 DUP1 REVERT JUMPDEST POP PUSH2 0x5BBE DUP1 PUSH3 0x21 PUSH1 0x0 CODECOPY PUSH1 0x0 RETURN INVALID PUSH1 0x80 PUSH1 0x40 MSTORE PUSH1 0x4 CALLDATASIZE LT PUSH2 0xF7 JUMPI PUSH1 0x0 CALLDATALOAD PUSH1 0xE0 SHR DUP1 PUSH4 0xB9AD583D GT PUSH2 0x8A JUMPI DUP1 PUSH4 0xD9D60B52 GT PUSH2 0x59 JUMPI DUP1 PUSH4 0xD9D60B52 EQ PUSH2 0x322 JUMPI DUP1 PUSH4 0xF58BB0C9 EQ PUSH2 0x35F JUMPI DUP1 PUSH4 0xF7654176 EQ PUSH2 0x376 JUMPI DUP1 PUSH4 0xF90F4560 EQ PUSH2 0x380 JUMPI PUSH2 0xFE JUMP JUMPDEST DUP1 PUSH4 0xB9AD583D EQ PUSH2 0x254 JUMPI DUP1 PUSH4 0xBB472219 EQ PUSH2 0x291 JUMPI DUP1 PUSH4 0xCECE2FA0 EQ PUSH2 0x2A8 JUMPI DUP1 PUSH4 0xD06E5C06 EQ PUSH2 0x2E5 JUMPI PUSH2 0xFE JUMP JUMPDEST DUP1 PUSH4 0x720D984E GT PUSH2 0xC6 JUMPI DUP1 PUSH4 0x720D984E EQ PUSH2 0x1DA JUMPI DUP1 PUSH4 0x853828B6 EQ PUSH2 0x1F6 JUMPI DUP1 PUSH4 0x963661DB EQ PUSH2 0x20D JUMPI DUP1 PUSH4 0xB0CA5962 EQ PUSH2 0x217 JUMPI PUSH2 0xFE JUMP JUMPDEST DUP1 PUSH4 0xA2D343A EQ PUSH2 0x103 JUMPI DUP1 PUSH4 0x1949E58B EQ PUSH2 0x12C JUMPI DUP1 PUSH4 0x35D17C61 EQ PUSH2 0x155 JUMPI DUP1 PUSH4 0x40056505 EQ PUSH2 0x192 JUMPI PUSH2 0xFE JUMP JUMPDEST CALLDATASIZE PUSH2 0xFE JUMPI STOP JUMPDEST PUSH1 0x0 DUP1 REVERT JUMPDEST CALLVALUE DUP1 ISZERO PUSH2 0x10F JUMPI PUSH1 0x0 DUP1 REVERT JUMPDEST POP PUSH2 0x12A PUSH1 0x4 DUP1 CALLDATASIZE SUB DUP2 ADD SWAP1 PUSH2 0x125 SWAP2 SWAP1 PUSH2 0x4010 JUMP JUMPDEST PUSH2 0x38A JUMP JUMPDEST STOP JUMPDEST CALLVALUE DUP1 ISZERO PUSH2 0x138 JUMPI PUSH1 0x0 DUP1 REVERT JUMPDEST POP PUSH2 0x153 PUSH1 0x4 DUP1 CALLDATASIZE SUB DUP2 ADD SWAP1 PUSH2 0x14E SWAP2 SWAP1 PUSH2 0x403D JUMP JUMPDEST PUSH2 0x7D8 JUMP JUMPDEST STOP JUMPDEST CALLVALUE DUP1 ISZERO PUSH2 0x161 JUMPI PUSH1 0x0 DUP1 REVERT JUMPDEST POP PUSH2 0x17C PUSH1 0x4 DUP1 CALLDATASIZE SUB DUP2 ADD SWAP1 PUSH2 0x177 SWAP2 SWAP1 PUSH2 0x40DB JUMP JUMPDEST PUSH2 0xFC3 JUMP JUMPDEST PUSH1 0x40 MLOAD PUSH2 0x189 SWAP2 SWAP1 PUSH2 0x41C6 JUMP JUMPDEST PUSH1 0x40 MLOAD DUP1 SWAP2 SUB SWAP1 RETURN JUMPDEST CALLVALUE DUP1 ISZERO PUSH2 0x19E JUMPI PUSH1 0x0 DUP1 REVERT JUMPDEST POP PUSH2 0x1B9 PUSH1 0x4 DUP1 CALLDATASIZE SUB DUP2 ADD SWAP1 PUSH2 0x1B4 SWAP2 SWAP1 PUSH2 0x40DB JUMP JUMPDEST PUSH2 0x1082 JUMP JUMPDEST PUSH1 0x40 MLOAD PUSH2 0x1D1 SWAP13 SWAP12 SWAP11 SWAP10 SWAP9 SWAP8 SWAP7 SWAP6 SWAP5 SWAP4 SWAP3 SWAP2 SWAP1 PUSH2 0x4293 JUMP JUMPDEST PUSH1 0x40 MLOAD DUP1 SWAP2 SUB SWAP1 RETURN JUMPDEST PUSH2 0x1F4 PUSH1 0x4 DUP1 CALLDATASIZE SUB DUP2 ADD SWAP1 PUSH2 0x1EF SWAP2 SWAP1 PUSH2 0x4010 JUMP JUMPDEST PUSH2 0x114A JUMP JUMPDEST STOP JUMPDEST CALLVALUE DUP1 ISZERO PUSH2 0x202 JUMPI PUSH1 0x0 DUP1 REVERT JUMPDEST POP PUSH2 0x20B PUSH2 0x199E JUMP JUMPDEST STOP JUMPDEST PUSH2 0x215 PUSH2 0x19E7 JUMP JUMPDEST STOP JUMPDEST CALLVALUE DUP1 ISZERO PUSH2 0x223 JUMPI PUSH1 0x0 DUP1 REVERT JUMPDEST POP PUSH2 0x23E PUSH1 0x4 DUP1 CALLDATASIZE SUB DUP2 ADD SWAP1 PUSH2 0x239 SWAP2 SWAP1 PUSH2 0x4379 JUMP JUMPDEST PUSH2 0x1C4C JUMP JUMPDEST PUSH1 0x40 MLOAD PUSH2 0x24B SWAP2 SWAP1 PUSH2 0x43B9 JUMP JUMPDEST PUSH1 0x40 MLOAD DUP1 SWAP2 SUB SWAP1 RETURN JUMPDEST CALLVALUE DUP1 ISZERO PUSH2 0x260 JUMPI PUSH1 0x0 DUP1 REVERT JUMPDEST POP PUSH2 0x27B PUSH1 0x4 DUP1 CALLDATASIZE SUB DUP2 ADD SWAP1 PUSH2 0x276 SWAP2 SWAP1 PUSH2 0x40DB JUMP JUMPDEST PUSH2 0x1DE0 JUMP JUMPDEST PUSH1 0x40 MLOAD PUSH2 0x288 SWAP2 SWAP1 PUSH2 0x41C6 JUMP JUMPDEST PUSH1 0x40 MLOAD DUP1 SWAP2 SUB SWAP1 RETURN JUMPDEST CALLVALUE DUP1 ISZERO PUSH2 0x29D JUMPI PUSH1 0x0 DUP1 REVERT JUMPDEST POP PUSH2 0x2A6 PUSH2 0x1E9F JUMP JUMPDEST STOP JUMPDEST CALLVALUE DUP1 ISZERO PUSH2 0x2B4 JUMPI PUSH1 0x0 DUP1 REVERT JUMPDEST POP PUSH2 0x2CF PUSH1 0x4 DUP1 CALLDATASIZE SUB DUP2 ADD SWAP1 PUSH2 0x2CA SWAP2 SWAP1 PUSH2 0x40DB JUMP JUMPDEST PUSH2 0x2264 JUMP JUMPDEST PUSH1 0x40 MLOAD PUSH2 0x2DC SWAP2 SWAP1 PUSH2 0x41C6 JUMP JUMPDEST PUSH1 0x40 MLOAD DUP1 SWAP2 SUB SWAP1 RETURN JUMPDEST CALLVALUE DUP1 ISZERO PUSH2 0x2F1 JUMPI PUSH1 0x0 DUP1 REVERT JUMPDEST POP PUSH2 0x30C PUSH1 0x4 DUP1 CALLDATASIZE SUB DUP2 ADD SWAP1 PUSH2 0x307 SWAP2 SWAP1 PUSH2 0x40DB JUMP JUMPDEST PUSH2 0x2323 JUMP JUMPDEST PUSH1 0x40 MLOAD PUSH2 0x319 SWAP2 SWAP1 PUSH2 0x43B9 JUMP JUMPDEST PUSH1 0x40 MLOAD DUP1 SWAP2 SUB SWAP1 RETURN JUMPDEST CALLVALUE DUP1 ISZERO PUSH2 0x32E JUMPI PUSH1 0x0 DUP1 REVERT JUMPDEST POP PUSH2 0x349 PUSH1 0x4 DUP1 CALLDATASIZE SUB DUP2 ADD SWAP1 PUSH2 0x344 SWAP2 SWAP1 PUSH2 0x40DB JUMP JUMPDEST PUSH2 0x23EA JUMP JUMPDEST PUSH1 0x40 MLOAD PUSH2 0x356 SWAP2 SWAP1 PUSH2 0x43D4 JUMP JUMPDEST PUSH1 0x40 MLOAD DUP1 SWAP2 SUB SWAP1 RETURN JUMPDEST CALLVALUE DUP1 ISZERO PUSH2 0x36B JUMPI PUSH1 0x0 DUP1 REVERT JUMPDEST POP PUSH2 0x374 PUSH2 0x2442 JUMP JUMPDEST STOP JUMPDEST PUSH2 0x37E PUSH2 0x2689 JUMP JUMPDEST STOP JUMPDEST PUSH2 0x388 PUSH2 0x2A69 JUMP JUMPDEST STOP JUMPDEST PUSH1 0x2 DUP1 PUSH1 0x4 DUP2 GT ISZERO PUSH2 0x39F JUMPI PUSH2 0x39E PUSH2 0x4201 JUMP JUMPDEST JUMPDEST PUSH1 0x0 DUP1 CALLER PUSH20 0xFFFFFFFFFFFFFFFFFFFFFFFFFFFFFFFFFFFFFFFF AND PUSH20 0xFFFFFFFFFFFFFFFFFFFFFFFFFFFFFFFFFFFFFFFF AND DUP2 MSTORE PUSH1 0x20 ADD SWAP1 DUP2 MSTORE PUSH1 0x20 ADD PUSH1 0x0 KECCAK256 PUSH1 0x3 ADD PUSH1 0x0 SWAP1 SLOAD SWAP1 PUSH2 0x100 EXP SWAP1 DIV PUSH1 0xFF AND PUSH1 0x4 DUP2 GT ISZERO PUSH2 0x400 JUMPI PUSH2 0x3FF PUSH2 0x4201 JUMP JUMPDEST JUMPDEST EQ PUSH2 0x440 JUMPI PUSH1 0x40 MLOAD PUSH32 0x8C379A000000000000000000000000000000000000000000000000000000000 DUP2 MSTORE PUSH1 0x4 ADD PUSH2 0x437 SWAP1 PUSH2 0x4472 JUMP JUMPDEST PUSH1 0x40 MLOAD DUP1 SWAP2 SUB SWAP1 REVERT JUMPDEST PUSH1 0x0 DUP1 PUSH1 0x0 CALLER PUSH20 0xFFFFFFFFFFFFFFFFFFFFFFFFFFFFFFFFFFFFFFFF AND PUSH20 0xFFFFFFFFFFFFFFFFFFFFFFFFFFFFFFFFFFFFFFFF AND DUP2 MSTORE PUSH1 0x20 ADD SWAP1 DUP2 MSTORE PUSH1 0x20 ADD PUSH1 0x0 KECCAK256 SWAP1 POP DUP1 PUSH1 0x8 ADD PUSH1 0x2 SWAP1 SLOAD SWAP1 PUSH2 0x100 EXP SWAP1 DIV PUSH1 0xFF AND ISZERO DUP1 ISZERO PUSH2 0x4B0 JUMPI POP DUP1 PUSH1 0x8 ADD PUSH1 0x3 SWAP1 SLOAD SWAP1 PUSH2 0x100 EXP SWAP1 DIV PUSH1 0xFF AND ISZERO JUMPDEST PUSH2 0x4EF JUMPI PUSH1 0x40 MLOAD PUSH32 0x8C379A000000000000000000000000000000000000000000000000000000000 DUP2 MSTORE PUSH1 0x4 ADD PUSH2 0x4E6 SWAP1 PUSH2 0x4504 JUMP JUMPDEST PUSH1 0x40 MLOAD DUP1 SWAP2 SUB SWAP1 REVERT JUMPDEST PUSH1 0x1 DUP4 PUSH1 0xFF AND SUB PUSH2 0x696 JUMPI DUP1 PUSH1 0x8 ADD PUSH1 0x1 SWAP1 SLOAD SWAP1 PUSH2 0x100 EXP SWAP1 DIV PUSH1 0xFF AND ISZERO PUSH2 0x54C JUMPI PUSH1 0x40 MLOAD PUSH32 0x8C379A000000000000000000000000000000000000000000000000000000000 DUP2 MSTORE PUSH1 0x4 ADD PUSH2 0x543 SWAP1 PUSH2 0x4570 JUMP JUMPDEST PUSH1 0x40 MLOAD DUP1 SWAP2 SUB SWAP1 REVERT JUMPDEST PUSH1 0x1 DUP2 PUSH1 0x8 ADD PUSH1 0x1 PUSH2 0x100 EXP DUP2 SLOAD DUP2 PUSH1 0xFF MUL NOT AND SWAP1 DUP4 ISZERO ISZERO MUL OR SWAP1 SSTORE POP CALLER PUSH20 0xFFFFFFFFFFFFFFFFFFFFFFFFFFFFFFFFFFFFFFFF AND PUSH32 0xCF9491C50952C181187E767C568B4A5BA558D5B1D35F47D6307FA1D7709C5110 PUSH1 0x1 PUSH1 0x40 MLOAD PUSH2 0x5B0 SWAP2 SWAP1 PUSH2 0x45D5 JUMP JUMPDEST PUSH1 0x40 MLOAD DUP1 SWAP2 SUB SWAP1 LOG2 DUP1 PUSH1 0x8 ADD PUSH1 0x0 SWAP1 SLOAD SWAP1 PUSH2 0x100 EXP SWAP1 DIV PUSH1 0xFF AND DUP1 ISZERO PUSH2 0x656 JUMPI POP PUSH1 0x0 PUSH2 0x654 DUP3 PUSH1 0x7 ADD DUP1 SLOAD DUP1 PUSH1 0x20 MUL PUSH1 0x20 ADD PUSH1 0x40 MLOAD SWAP1 DUP2 ADD PUSH1 0x40 MSTORE DUP1 SWAP3 SWAP2 SWAP1 DUP2 DUP2 MSTORE PUSH1 0x20 ADD DUP3 DUP1 SLOAD DUP1 ISZERO PUSH2 0x64A JUMPI PUSH1 0x20 MUL DUP3 ADD SWAP2 SWAP1 PUSH1 0x0 MSTORE PUSH1 0x20 PUSH1 0x0 KECCAK256 SWAP1 PUSH1 0x0 SWAP1 JUMPDEST DUP3 DUP3 SWAP1 SLOAD SWAP1 PUSH2 0x100 EXP SWAP1 DIV PUSH1 0xFF AND PUSH1 0xFF AND DUP2 MSTORE PUSH1 0x20 ADD SWAP1 PUSH1 0x1 ADD SWAP1 PUSH1 0x20 DUP3 PUSH1 0x0 ADD DIV SWAP3 DUP4 ADD SWAP3 PUSH1 0x1 SUB DUP3 MUL SWAP2 POP DUP1 DUP5 GT PUSH2 0x613 JUMPI SWAP1 POP JUMPDEST POP POP POP POP POP PUSH2 0x2EB4 JUMP JUMPDEST GT JUMPDEST PUSH2 0x691 JUMPI PUSH1 0x3 DUP2 PUSH1 0x3 ADD PUSH1 0x0 PUSH2 0x100 EXP DUP2 SLOAD DUP2 PUSH1 0xFF MUL NOT AND SWAP1 DUP4 PUSH1 0x4 DUP2 GT ISZERO PUSH2 0x682 JUMPI PUSH2 0x681 PUSH2 0x4201 JUMP JUMPDEST JUMPDEST MUL OR SWAP1 SSTORE POP PUSH2 0x690 CALLER PUSH2 0x2F91 JUMP JUMPDEST JUMPDEST PUSH2 0x7D3 JUMP JUMPDEST PUSH1 0x2 DUP4 PUSH1 0xFF AND EQ DUP1 ISZERO PUSH2 0x6B7 JUMPI POP DUP1 PUSH1 0x8 ADD PUSH1 0x0 SWAP1 SLOAD SWAP1 PUSH2 0x100 EXP SWAP1 DIV PUSH1 0xFF AND JUMPDEST ISZERO PUSH2 0x797 JUMPI DUP1 PUSH1 0x8 ADD PUSH1 0x1 SWAP1 SLOAD SWAP1 PUSH2 0x100 EXP SWAP1 DIV PUSH1 0xFF AND PUSH2 0x70D JUMPI PUSH1 0x40 MLOAD PUSH32 0x8C379A000000000000000000000000000000000000000000000000000000000 DUP2 MSTORE PUSH1 0x4 ADD PUSH2 0x704 SWAP1 PUSH2 0x4662 JUMP JUMPDEST PUSH1 0x40 MLOAD DUP1 SWAP2 SUB SWAP1 REVERT JUMPDEST CALLER PUSH20 0xFFFFFFFFFFFFFFFFFFFFFFFFFFFFFFFFFFFFFFFF AND PUSH32 0xCF9491C50952C181187E767C568B4A5BA558D5B1D35F47D6307FA1D7709C5110 PUSH1 0x2 PUSH1 0x40 MLOAD PUSH2 0x754 SWAP2 SWAP1 PUSH2 0x46BD JUMP JUMPDEST PUSH1 0x40 MLOAD DUP1 SWAP2 SUB SWAP1 LOG2 PUSH1 0x3 DUP2 PUSH1 0x3 ADD PUSH1 0x0 PUSH2 0x100 EXP DUP2 SLOAD DUP2 PUSH1 0xFF MUL NOT AND SWAP1 DUP4 PUSH1 0x4 DUP2 GT ISZERO PUSH2 0x784 JUMPI PUSH2 0x783 PUSH2 0x4201 JUMP JUMPDEST JUMPDEST MUL OR SWAP1 SSTORE POP PUSH2 0x792 CALLER PUSH2 0x2F91 JUMP JUMPDEST PUSH2 0x7D2 JUMP JUMPDEST PUSH1 0x40 MLOAD PUSH32 0x8C379A000000000000000000000000000000000000000000000000000000000 DUP2 MSTORE PUSH1 0x4 ADD PUSH2 0x7C9 SWAP1 PUSH2 0x474A JUMP JUMPDEST PUSH1 0x40 MLOAD DUP1 SWAP2 SUB SWAP1 REVERT JUMPDEST JUMPDEST POP POP POP JUMP JUMPDEST PUSH1 0x2 DUP1 PUSH1 0x4 DUP2 GT ISZERO PUSH2 0x7ED JUMPI PUSH2 0x7EC PUSH2 0x4201 JUMP JUMPDEST JUMPDEST PUSH1 0x0 DUP1 CALLER PUSH20 0xFFFFFFFFFFFFFFFFFFFFFFFFFFFFFFFFFFFFFFFF AND PUSH20 0xFFFFFFFFFFFFFFFFFFFFFFFFFFFFFFFFFFFFFFFF AND DUP2 MSTORE PUSH1 0x20 ADD SWAP1 DUP2 MSTORE PUSH1 0x20 ADD PUSH1 0x0 KECCAK256 PUSH1 0x3 ADD PUSH1 0x0 SWAP1 SLOAD SWAP1 PUSH2 0x100 EXP SWAP1 DIV PUSH1 0xFF AND PUSH1 0x4 DUP2 GT ISZERO PUSH2 0x84E JUMPI PUSH2 0x84D PUSH2 0x4201 JUMP JUMPDEST JUMPDEST EQ PUSH2 0x88E JUMPI PUSH1 0x40 MLOAD PUSH32 0x8C379A000000000000000000000000000000000000000000000000000000000 DUP2 MSTORE PUSH1 0x4 ADD PUSH2 0x885 SWAP1 PUSH2 0x4472 JUMP JUMPDEST PUSH1 0x40 MLOAD DUP1 SWAP2 SUB SWAP1 REVERT JUMPDEST PUSH1 0x0 DUP1 PUSH1 0x0 CALLER PUSH20 0xFFFFFFFFFFFFFFFFFFFFFFFFFFFFFFFFFFFFFFFF AND PUSH20 0xFFFFFFFFFFFFFFFFFFFFFFFFFFFFFFFFFFFFFFFF AND DUP2 MSTORE PUSH1 0x20 ADD SWAP1 DUP2 MSTORE PUSH1 0x20 ADD PUSH1 0x0 KECCAK256 SWAP1 POP PUSH1 0x0 DUP5 PUSH1 0xFF AND GT PUSH2 0x916 JUMPI PUSH1 0x40 MLOAD PUSH32 0x8C379A000000000000000000000000000000000000000000000000000000000 DUP2 MSTORE PUSH1 0x4 ADD PUSH2 0x90D SWAP1 PUSH2 0x47B6 JUMP JUMPDEST PUSH1 0x40 MLOAD DUP1 SWAP2 SUB SWAP1 REVERT JUMPDEST DUP1 PUSH1 0x8 ADD PUSH1 0x2 SWAP1 SLOAD SWAP1 PUSH2 0x100 EXP SWAP1 DIV PUSH1 0xFF AND ISZERO DUP1 ISZERO PUSH2 0x944 JUMPI POP DUP1 PUSH1 0x8 ADD PUSH1 0x3 SWAP1 SLOAD SWAP1 PUSH2 0x100 EXP SWAP1 DIV PUSH1 0xFF AND ISZERO JUMPDEST PUSH2 0x983 JUMPI PUSH1 0x40 MLOAD PUSH32 0x8C379A000000000000000000000000000000000000000000000000000000000 DUP2 MSTORE PUSH1 0x4 ADD PUSH2 0x97A SWAP1 PUSH2 0x4822 JUMP JUMPDEST PUSH1 0x40 MLOAD DUP1 SWAP2 SUB SWAP1 REVERT JUMPDEST PUSH1 0x0 DUP1 PUSH1 0x1 DUP6 PUSH1 0xFF AND SUB PUSH2 0xA02 JUMPI DUP3 PUSH1 0x8 ADD PUSH1 0x1 SWAP1 SLOAD SWAP1 PUSH2 0x100 EXP SWAP1 DIV PUSH1 0xFF AND ISZERO PUSH2 0x9E3 JUMPI PUSH1 0x40 MLOAD PUSH32 0x8C379A000000000000000000000000000000000000000000000000000000000 DUP2 MSTORE PUSH1 0x4 ADD PUSH2 0x9DA SWAP1 PUSH2 0x4570 JUMP JUMPDEST PUSH1 0x40 MLOAD DUP1 SWAP2 SUB SWAP1 REVERT JUMPDEST DUP3 PUSH1 0x1 ADD SWAP2 POP DUP3 PUSH1 0x8 ADD PUSH1 0x2 SWAP1 SLOAD SWAP1 PUSH2 0x100 EXP SWAP1 DIV PUSH1 0xFF AND SWAP1 POP PUSH2 0xAD4 JUMP JUMPDEST PUSH1 0x2 DUP6 PUSH1 0xFF AND EQ DUP1 ISZERO PUSH2 0xA23 JUMPI POP DUP3 PUSH1 0x8 ADD PUSH1 0x0 SWAP1 SLOAD SWAP1 PUSH2 0x100 EXP SWAP1 DIV PUSH1 0xFF AND JUMPDEST ISZERO PUSH2 0xA98 JUMPI DUP3 PUSH1 0x8 ADD PUSH1 0x1 SWAP1 SLOAD SWAP1 PUSH2 0x100 EXP SWAP1 DIV PUSH1 0xFF AND PUSH2 0xA79 JUMPI PUSH1 0x40 MLOAD PUSH32 0x8C379A000000000000000000000000000000000000000000000000000000000 DUP2 MSTORE PUSH1 0x4 ADD PUSH2 0xA70 SWAP1 PUSH2 0x4662 JUMP JUMPDEST PUSH1 0x40 MLOAD DUP1 SWAP2 SUB SWAP1 REVERT JUMPDEST DUP3 PUSH1 0x7 ADD SWAP2 POP DUP3 PUSH1 0x8 ADD PUSH1 0x3 SWAP1 SLOAD SWAP1 PUSH2 0x100 EXP SWAP1 DIV PUSH1 0xFF AND SWAP1 POP PUSH2 0xAD3 JUMP JUMPDEST PUSH1 0x40 MLOAD PUSH32 0x8C379A000000000000000000000000000000000000000000000000000000000 DUP2 MSTORE PUSH1 0x4 ADD PUSH2 0xACA SWAP1 PUSH2 0x488E JUMP JUMPDEST PUSH1 0x40 MLOAD DUP1 SWAP2 SUB SWAP1 REVERT JUMPDEST JUMPDEST DUP1 ISZERO PUSH2 0xB15 JUMPI PUSH1 0x40 MLOAD PUSH32 0x8C379A000000000000000000000000000000000000000000000000000000000 DUP2 MSTORE PUSH1 0x4 ADD PUSH2 0xB0C SWAP1 PUSH2 0x4920 JUMP JUMPDEST PUSH1 0x40 MLOAD DUP1 SWAP2 SUB SWAP1 REVERT JUMPDEST PUSH1 0x0 JUMPDEST DUP7 PUSH1 0xFF AND DUP2 PUSH1 0xFF AND LT ISZERO PUSH2 0xFB9 JUMPI PUSH2 0xB32 CALLER PUSH1 0x1 DUP9 PUSH2 0x3306 JUMP JUMPDEST POP PUSH1 0x0 PUSH2 0xBB3 DUP5 DUP1 SLOAD DUP1 PUSH1 0x20 MUL PUSH1 0x20 ADD PUSH1 0x40 MLOAD SWAP1 DUP2 ADD PUSH1 0x40 MSTORE DUP1 SWAP3 SWAP2 SWAP1 DUP2 DUP2 MSTORE PUSH1 0x20 ADD DUP3 DUP1 SLOAD DUP1 ISZERO PUSH2 0xBA9 JUMPI PUSH1 0x20 MUL DUP3 ADD SWAP2 SWAP1 PUSH1 0x0 MSTORE PUSH1 0x20 PUSH1 0x0 KECCAK256 SWAP1 PUSH1 0x0 SWAP1 JUMPDEST DUP3 DUP3 SWAP1 SLOAD SWAP1 PUSH2 0x100 EXP SWAP1 DIV PUSH1 0xFF AND PUSH1 0xFF AND DUP2 MSTORE PUSH1 0x20 ADD SWAP1 PUSH1 0x1 ADD SWAP1 PUSH1 0x20 DUP3 PUSH1 0x0 ADD DIV SWAP3 DUP4 ADD SWAP3 PUSH1 0x1 SUB DUP3 MUL SWAP2 POP DUP1 DUP5 GT PUSH2 0xB72 JUMPI SWAP1 POP JUMPDEST POP POP POP POP POP PUSH2 0x2EB4 JUMP JUMPDEST SWAP1 POP PUSH1 0x15 DUP2 GT ISZERO PUSH2 0xDB4 JUMPI CALLER PUSH20 0xFFFFFFFFFFFFFFFFFFFFFFFFFFFFFFFFFFFFFFFF AND PUSH32 0x44EF28E569839E28C1269B483E0D38E7ACCD6CA7C0A5B8855CC8FBB91C48F5B0 DUP3 DUP10 PUSH1 0x40 MLOAD PUSH2 0xC06 SWAP3 SWAP2 SWAP1 PUSH2 0x494F JUMP JUMPDEST PUSH1 0x40 MLOAD DUP1 SWAP2 SUB SWAP1 LOG2 DUP5 PUSH1 0x8 ADD PUSH1 0x0 SWAP1 SLOAD SWAP1 PUSH2 0x100 EXP SWAP1 DIV PUSH1 0xFF AND ISZERO PUSH2 0xD68 JUMPI PUSH1 0x1 DUP8 PUSH1 0xFF AND SUB PUSH2 0xD2C JUMPI PUSH1 0x1 DUP6 PUSH1 0x8 ADD PUSH1 0x1 PUSH2 0x100 EXP DUP2 SLOAD DUP2 PUSH1 0xFF MUL NOT AND SWAP1 DUP4 ISZERO ISZERO MUL OR SWAP1 SSTORE POP PUSH1 0x0 PUSH2 0xCD0 DUP7 PUSH1 0x7 ADD DUP1 SLOAD DUP1 PUSH1 0x20 MUL PUSH1 0x20 ADD PUSH1 0x40 MLOAD SWAP1 DUP2 ADD PUSH1 0x40 MSTORE DUP1 SWAP3 SWAP2 SWAP1 DUP2 DUP2 MSTORE PUSH1 0x20 ADD DUP3 DUP1 SLOAD DUP1 ISZERO PUSH2 0xCC6 JUMPI PUSH1 0x20 MUL DUP3 ADD SWAP2 SWAP1 PUSH1 0x0 MSTORE PUSH1 0x20 PUSH1 0x0 KECCAK256 SWAP1 PUSH1 0x0 SWAP1 JUMPDEST DUP3 DUP3 SWAP1 SLOAD SWAP1 PUSH2 0x100 EXP SWAP1 DIV PUSH1 0xFF AND PUSH1 0xFF AND DUP2 MSTORE PUSH1 0x20 ADD SWAP1 PUSH1 0x1 ADD SWAP1 PUSH1 0x20 DUP3 PUSH1 0x0 ADD DIV SWAP3 DUP4 ADD SWAP3 PUSH1 0x1 SUB DUP3 MUL SWAP2 POP DUP1 DUP5 GT PUSH2 0xC8F JUMPI SWAP1 POP JUMPDEST POP POP POP POP POP PUSH2 0x2EB4 JUMP JUMPDEST GT DUP1 ISZERO PUSH2 0xCEC JUMPI POP DUP5 PUSH1 0x8 ADD PUSH1 0x3 SWAP1 SLOAD SWAP1 PUSH2 0x100 EXP SWAP1 DIV PUSH1 0xFF AND ISZERO JUMPDEST PUSH2 0xD27 JUMPI PUSH1 0x3 DUP6 PUSH1 0x3 ADD PUSH1 0x0 PUSH2 0x100 EXP DUP2 SLOAD DUP2 PUSH1 0xFF MUL NOT AND SWAP1 DUP4 PUSH1 0x4 DUP2 GT ISZERO PUSH2 0xD18 JUMPI PUSH2 0xD17 PUSH2 0x4201 JUMP JUMPDEST JUMPDEST MUL OR SWAP1 SSTORE POP PUSH2 0xD26 CALLER PUSH2 0x2F91 JUMP JUMPDEST JUMPDEST PUSH2 0xD63 JUMP JUMPDEST PUSH1 0x3 DUP6 PUSH1 0x3 ADD PUSH1 0x0 PUSH2 0x100 EXP DUP2 SLOAD DUP2 PUSH1 0xFF MUL NOT AND SWAP1 DUP4 PUSH1 0x4 DUP2 GT ISZERO PUSH2 0xD54 JUMPI PUSH2 0xD53 PUSH2 0x4201 JUMP JUMPDEST JUMPDEST MUL OR SWAP1 SSTORE POP PUSH2 0xD62 CALLER PUSH2 0x2F91 JUMP JUMPDEST JUMPDEST PUSH2 0xDAA JUMP JUMPDEST PUSH2 0xDA9 CALLER PUSH1 0x40 MLOAD DUP1 PUSH1 0x40 ADD PUSH1 0x40 MSTORE DUP1 PUSH1 0xC DUP2 MSTORE PUSH1 0x20 ADD PUSH32 0x506C617965722042757374730000000000000000000000000000000000000000 DUP2 MSTORE POP PUSH1 0x0 PUSH2 0x3778 JUMP JUMPDEST JUMPDEST POP POP POP POP POP PUSH2 0xFBE JUMP JUMPDEST PUSH1 0x15 DUP2 SUB PUSH2 0xFA5 JUMPI CALLER PUSH20 0xFFFFFFFFFFFFFFFFFFFFFFFFFFFFFFFFFFFFFFFF AND PUSH32 0xCF9491C50952C181187E767C568B4A5BA558D5B1D35F47D6307FA1D7709C5110 DUP9 PUSH1 0x40 MLOAD PUSH2 0xE02 SWAP2 SWAP1 PUSH2 0x4978 JUMP JUMPDEST PUSH1 0x40 MLOAD DUP1 SWAP2 SUB SWAP1 LOG2 DUP5 PUSH1 0x8 ADD PUSH1 0x0 SWAP1 SLOAD SWAP1 PUSH2 0x100 EXP SWAP1 DIV PUSH1 0xFF AND ISZERO PUSH2 0xF64 JUMPI PUSH1 0x1 DUP8 PUSH1 0xFF AND SUB PUSH2 0xF28 JUMPI PUSH1 0x1 DUP6 PUSH1 0x8 ADD PUSH1 0x1 PUSH2 0x100 EXP DUP2 SLOAD DUP2 PUSH1 0xFF MUL NOT AND SWAP1 DUP4 ISZERO ISZERO MUL OR SWAP1 SSTORE POP PUSH1 0x0 PUSH2 0xECC DUP7 PUSH1 0x7 ADD DUP1 SLOAD DUP1 PUSH1 0x20 MUL PUSH1 0x20 ADD PUSH1 0x40 MLOAD SWAP1 DUP2 ADD PUSH1 0x40 MSTORE DUP1 SWAP3 SWAP2 SWAP1 DUP2 DUP2 MSTORE PUSH1 0x20 ADD DUP3 DUP1 SLOAD DUP1 ISZERO PUSH2 0xEC2 JUMPI PUSH1 0x20 MUL DUP3 ADD SWAP2 SWAP1 PUSH1 0x0 MSTORE PUSH1 0x20 PUSH1 0x0 KECCAK256 SWAP1 PUSH1 0x0 SWAP1 JUMPDEST DUP3 DUP3 SWAP1 SLOAD SWAP1 PUSH2 0x100 EXP SWAP1 DIV PUSH1 0xFF AND PUSH1 0xFF AND DUP2 MSTORE PUSH1 0x20 ADD SWAP1 PUSH1 0x1 ADD SWAP1 PUSH1 0x20 DUP3 PUSH1 0x0 ADD DIV SWAP3 DUP4 ADD SWAP3 PUSH1 0x1 SUB DUP3 MUL SWAP2 POP DUP1 DUP5 GT PUSH2 0xE8B JUMPI SWAP1 POP JUMPDEST POP POP POP POP POP PUSH2 0x2EB4 JUMP JUMPDEST GT DUP1 ISZERO PUSH2 0xEE8 JUMPI POP DUP5 PUSH1 0x8 ADD PUSH1 0x3 SWAP1 SLOAD SWAP1 PUSH2 0x100 EXP SWAP1 DIV PUSH1 0xFF AND ISZERO JUMPDEST PUSH2 0xF23 JUMPI PUSH1 0x3 DUP6 PUSH1 0x3 ADD PUSH1 0x0 PUSH2 0x100 EXP DUP2 SLOAD DUP2 PUSH1 0xFF MUL NOT AND SWAP1 DUP4 PUSH1 0x4 DUP2 GT ISZERO PUSH2 0xF14 JUMPI PUSH2 0xF13 PUSH2 0x4201 JUMP JUMPDEST JUMPDEST MUL OR SWAP1 SSTORE POP PUSH2 0xF22 CALLER PUSH2 0x2F91 JUMP JUMPDEST JUMPDEST PUSH2 0xF5F JUMP JUMPDEST PUSH1 0x3 DUP6 PUSH1 0x3 ADD PUSH1 0x0 PUSH2 0x100 EXP DUP2 SLOAD DUP2 PUSH1 0xFF MUL NOT AND SWAP1 DUP4 PUSH1 0x4 DUP2 GT ISZERO PUSH2 0xF50 JUMPI PUSH2 0xF4F PUSH2 0x4201 JUMP JUMPDEST JUMPDEST MUL OR SWAP1 SSTORE POP PUSH2 0xF5E CALLER PUSH2 0x2F91 JUMP JUMPDEST JUMPDEST PUSH2 0xF9B JUMP JUMPDEST PUSH1 0x3 DUP6 PUSH1 0x3 ADD PUSH1 0x0 PUSH2 0x100 EXP DUP2 SLOAD DUP2 PUSH1 0xFF MUL NOT AND SWAP1 DUP4 PUSH1 0x4 DUP2 GT ISZERO PUSH2 0xF8C JUMPI PUSH2 0xF8B PUSH2 0x4201 JUMP JUMPDEST JUMPDEST MUL OR SWAP1 SSTORE POP PUSH2 0xF9A CALLER PUSH2 0x2F91 JUMP JUMPDEST JUMPDEST POP POP POP POP POP PUSH2 0xFBE JUMP JUMPDEST POP DUP1 DUP1 PUSH2 0xFB1 SWAP1 PUSH2 0x49C2 JUMP JUMPDEST SWAP2 POP POP PUSH2 0xB18 JUMP JUMPDEST POP POP POP POP JUMPDEST POP POP POP JUMP JUMPDEST PUSH1 0x60 PUSH1 0x0 DUP1 DUP4 PUSH20 0xFFFFFFFFFFFFFFFFFFFFFFFFFFFFFFFFFFFFFFFF AND PUSH20 0xFFFFFFFFFFFFFFFFFFFFFFFFFFFFFFFFFFFFFFFF AND DUP2 MSTORE PUSH1 0x20 ADD SWAP1 DUP2 MSTORE PUSH1 0x20 ADD PUSH1 0x0 KECCAK256 PUSH1 0x2 ADD DUP1 SLOAD DUP1 PUSH1 0x20 MUL PUSH1 0x20 ADD PUSH1 0x40 MLOAD SWAP1 DUP2 ADD PUSH1 0x40 MSTORE DUP1 SWAP3 SWAP2 SWAP1 DUP2 DUP2 MSTORE PUSH1 0x20 ADD DUP3 DUP1 SLOAD DUP1 ISZERO PUSH2 0x1076 JUMPI PUSH1 0x20 MUL DUP3 ADD SWAP2 SWAP1 PUSH1 0x0 MSTORE PUSH1 0x20 PUSH1 0x0 KECCAK256 SWAP1 PUSH1 0x0 SWAP1 JUMPDEST DUP3 DUP3 SWAP1 SLOAD SWAP1 PUSH2 0x100 EXP SWAP1 DIV PUSH1 0xFF AND PUSH1 0xFF AND DUP2 MSTORE PUSH1 0x20 ADD SWAP1 PUSH1 0x1 ADD SWAP1 PUSH1 0x20 DUP3 PUSH1 0x0 ADD DIV SWAP3 DUP4 ADD SWAP3 PUSH1 0x1 SUB DUP3 MUL SWAP2 POP DUP1 DUP5 GT PUSH2 0x103F JUMPI SWAP1 POP JUMPDEST POP POP POP POP POP SWAP1 POP SWAP2 SWAP1 POP JUMP JUMPDEST PUSH1 0x0 PUSH1 0x20 MSTORE DUP1 PUSH1 0x0 MSTORE PUSH1 0x40 PUSH1 0x0 KECCAK256 PUSH1 0x0 SWAP2 POP SWAP1 POP DUP1 PUSH1 0x0 ADD SLOAD SWAP1 DUP1 PUSH1 0x3 ADD PUSH1 0x0 SWAP1 SLOAD SWAP1 PUSH2 0x100 EXP SWAP1 DIV PUSH1 0xFF AND SWAP1 DUP1 PUSH1 0x4 ADD SLOAD SWAP1 DUP1 PUSH1 0x5 ADD PUSH1 0x0 SWAP1 SLOAD SWAP1 PUSH2 0x100 EXP SWAP1 DIV PUSH1 0xFF AND SWAP1 DUP1 PUSH1 0x6 ADD SLOAD SWAP1 DUP1 PUSH1 0x8 ADD PUSH1 0x0 SWAP1 SLOAD SWAP1 PUSH2 0x100 EXP SWAP1 DIV PUSH1 0xFF AND SWAP1 DUP1 PUSH1 0x8 ADD PUSH1 0x1 SWAP1 SLOAD SWAP1 PUSH2 0x100 EXP SWAP1 DIV PUSH1 0xFF AND SWAP1 DUP1 PUSH1 0x8 ADD PUSH1 0x2 SWAP1 SLOAD SWAP1 PUSH2 0x100 EXP SWAP1 DIV PUSH1 0xFF AND SWAP1 DUP1 PUSH1 0x8 ADD PUSH1 0x3 SWAP1 SLOAD SWAP1 PUSH2 0x100 EXP SWAP1 DIV PUSH1 0xFF AND SWAP1 DUP1 PUSH1 0x9 ADD SLOAD SWAP1 DUP1 PUSH1 0xA ADD PUSH1 0x0 SWAP1 SLOAD SWAP1 PUSH2 0x100 EXP SWAP1 DIV PUSH1 0xFF AND SWAP1 DUP1 PUSH1 0xA ADD PUSH1 0x1 SWAP1 SLOAD SWAP1 PUSH2 0x100 EXP SWAP1 DIV PUSH1 0xFF AND SWAP1 POP DUP13 JUMP JUMPDEST PUSH1 0x2 DUP1 PUSH1 0x4 DUP2 GT ISZERO PUSH2 0x115F JUMPI PUSH2 0x115E PUSH2 0x4201 JUMP JUMPDEST JUMPDEST PUSH1 0x0 DUP1 CALLER PUSH20 0xFFFFFFFFFFFFFFFFFFFFFFFFFFFFFFFFFFFFFFFF AND PUSH20 0xFFFFFFFFFFFFFFFFFFFFFFFFFFFFFFFFFFFFFFFF AND DUP2 MSTORE PUSH1 0x20 ADD SWAP1 DUP2 MSTORE PUSH1 0x20 ADD PUSH1 0x0 KECCAK256 PUSH1 0x3 ADD PUSH1 0x0 SWAP1 SLOAD SWAP1 PUSH2 0x100 EXP SWAP1 DIV PUSH1 0xFF AND PUSH1 0x4 DUP2 GT ISZERO PUSH2 0x11C0 JUMPI PUSH2 0x11BF PUSH2 0x4201 JUMP JUMPDEST JUMPDEST EQ PUSH2 0x1200 JUMPI PUSH1 0x40 MLOAD PUSH32 0x8C379A000000000000000000000000000000000000000000000000000000000 DUP2 MSTORE PUSH1 0x4 ADD PUSH2 0x11F7 SWAP1 PUSH2 0x4472 JUMP JUMPDEST PUSH1 0x40 MLOAD DUP1 SWAP2 SUB SWAP1 REVERT JUMPDEST PUSH1 0x0 DUP1 PUSH1 0x0 CALLER PUSH20 0xFFFFFFFFFFFFFFFFFFFFFFFFFFFFFFFFFFFFFFFF AND PUSH20 0xFFFFFFFFFFFFFFFFFFFFFFFFFFFFFFFFFFFFFFFF AND DUP2 MSTORE PUSH1 0x20 ADD SWAP1 DUP2 MSTORE PUSH1 0x20 ADD PUSH1 0x0 KECCAK256 SWAP1 POP DUP1 PUSH1 0x8 ADD PUSH1 0x2 SWAP1 SLOAD SWAP1 PUSH2 0x100 EXP SWAP1 DIV PUSH1 0xFF AND ISZERO DUP1 ISZERO PUSH2 0x1270 JUMPI POP DUP1 PUSH1 0x8 ADD PUSH1 0x3 SWAP1 SLOAD SWAP1 PUSH2 0x100 EXP SWAP1 DIV PUSH1 0xFF AND ISZERO JUMPDEST PUSH2 0x12AF JUMPI PUSH1 0x40 MLOAD PUSH32 0x8C379A000000000000000000000000000000000000000000000000000000000 DUP2 MSTORE PUSH1 0x4 ADD PUSH2 0x12A6 SWAP1 PUSH2 0x4A37 JUMP JUMPDEST PUSH1 0x40 MLOAD DUP1 SWAP2 SUB SWAP1 REVERT JUMPDEST PUSH1 0x0 PUSH1 0x1 DUP5 PUSH1 0xFF AND SUB PUSH2 0x138F JUMPI PUSH1 0x2 DUP3 PUSH1 0x1 ADD DUP1 SLOAD SWAP1 POP EQ PUSH2 0x1306 JUMPI PUSH1 0x40 MLOAD PUSH32 0x8C379A000000000000000000000000000000000000000000000000000000000 DUP2 MSTORE PUSH1 0x4 ADD PUSH2 0x12FD SWAP1 PUSH2 0x4AC9 JUMP JUMPDEST PUSH1 0x40 MLOAD DUP1 SWAP2 SUB SWAP1 REVERT JUMPDEST DUP2 PUSH1 0x0 ADD SLOAD CALLVALUE EQ PUSH2 0x134C JUMPI PUSH1 0x40 MLOAD PUSH32 0x8C379A000000000000000000000000000000000000000000000000000000000 DUP2 MSTORE PUSH1 0x4 ADD PUSH2 0x1343 SWAP1 PUSH2 0x4B5B JUMP JUMPDEST PUSH1 0x40 MLOAD DUP1 SWAP2 SUB SWAP1 REVERT JUMPDEST CALLVALUE DUP3 PUSH1 0x0 ADD PUSH1 0x0 DUP3 DUP3 SLOAD PUSH2 0x1360 SWAP2 SWAP1 PUSH2 0x4B7B JUMP JUMPDEST SWAP3 POP POP DUP2 SWAP1 SSTORE POP PUSH1 0x1 DUP3 PUSH1 0x8 ADD PUSH1 0x2 PUSH2 0x100 EXP DUP2 SLOAD DUP2 PUSH1 0xFF MUL NOT AND SWAP1 DUP4 ISZERO ISZERO MUL OR SWAP1 SSTORE POP DUP2 PUSH1 0x1 ADD SWAP1 POP PUSH2 0x14C4 JUMP JUMPDEST PUSH1 0x2 DUP5 PUSH1 0xFF AND EQ DUP1 ISZERO PUSH2 0x13B0 JUMPI POP DUP2 PUSH1 0x8 ADD PUSH1 0x0 SWAP1 SLOAD SWAP1 PUSH2 0x100 EXP SWAP1 DIV PUSH1 0xFF AND JUMPDEST ISZERO PUSH2 0x1488 JUMPI PUSH1 0x2 DUP3 PUSH1 0x7 ADD DUP1 SLOAD SWAP1 POP EQ PUSH2 0x13FF JUMPI PUSH1 0x40 MLOAD PUSH32 0x8C379A000000000000000000000000000000000000000000000000000000000 DUP2 MSTORE PUSH1 0x4 ADD PUSH2 0x13F6 SWAP1 PUSH2 0x4C21 JUMP JUMPDEST PUSH1 0x40 MLOAD DUP1 SWAP2 SUB SWAP1 REVERT JUMPDEST DUP2 PUSH1 0x6 ADD SLOAD CALLVALUE EQ PUSH2 0x1445 JUMPI PUSH1 0x40 MLOAD PUSH32 0x8C379A000000000000000000000000000000000000000000000000000000000 DUP2 MSTORE PUSH1 0x4 ADD PUSH2 0x143C SWAP1 PUSH2 0x4CB3 JUMP JUMPDEST PUSH1 0x40 MLOAD DUP1 SWAP2 SUB SWAP1 REVERT JUMPDEST CALLVALUE DUP3 PUSH1 0x6 ADD PUSH1 0x0 DUP3 DUP3 SLOAD PUSH2 0x1459 SWAP2 SWAP1 PUSH2 0x4B7B JUMP JUMPDEST SWAP3 POP POP DUP2 SWAP1 SSTORE POP PUSH1 0x1 DUP3 PUSH1 0x8 ADD PUSH1 0x3 PUSH2 0x100 EXP DUP2 SLOAD DUP2 PUSH1 0xFF MUL NOT AND SWAP1 DUP4 ISZERO ISZERO MUL OR SWAP1 SSTORE POP DUP2 PUSH1 0x7 ADD SWAP1 POP PUSH2 0x14C3 JUMP JUMPDEST PUSH1 0x40 MLOAD PUSH32 0x8C379A000000000000000000000000000000000000000000000000000000000 DUP2 MSTORE PUSH1 0x4 ADD PUSH2 0x14BA SWAP1 PUSH2 0x4D45 JUMP JUMPDEST PUSH1 0x40 MLOAD DUP1 SWAP2 SUB SWAP1 REVERT JUMPDEST JUMPDEST PUSH2 0x14D0 CALLER PUSH1 0x1 DUP7 PUSH2 0x3306 JUMP JUMPDEST POP CALLER PUSH20 0xFFFFFFFFFFFFFFFFFFFFFFFFFFFFFFFFFFFFFFFF AND PUSH32 0x34A9FC4139A8845993518F8F647735DCAFC9DD04CEC976CEF471DE6067A2A4E5 PUSH1 0x1 DUP7 PUSH1 0xFF AND EQ PUSH2 0x151E JUMPI DUP4 PUSH1 0x6 ADD SLOAD PUSH2 0x1524 JUMP JUMPDEST DUP4 PUSH1 0x0 ADD SLOAD JUMPDEST DUP7 PUSH1 0x40 MLOAD PUSH2 0x1533 SWAP3 SWAP2 SWAP1 PUSH2 0x494F JUMP JUMPDEST PUSH1 0x40 MLOAD DUP1 SWAP2 SUB SWAP1 LOG2 PUSH1 0x0 PUSH2 0x15BB DUP3 DUP1 SLOAD DUP1 PUSH1 0x20 MUL PUSH1 0x20 ADD PUSH1 0x40 MLOAD SWAP1 DUP2 ADD PUSH1 0x40 MSTORE DUP1 SWAP3 SWAP2 SWAP1 DUP2 DUP2 MSTORE PUSH1 0x20 ADD DUP3 DUP1 SLOAD DUP1 ISZERO PUSH2 0x15B1 JUMPI PUSH1 0x20 MUL DUP3 ADD SWAP2 SWAP1 PUSH1 0x0 MSTORE PUSH1 0x20 PUSH1 0x0 KECCAK256 SWAP1 PUSH1 0x0 SWAP1 JUMPDEST DUP3 DUP3 SWAP1 SLOAD SWAP1 PUSH2 0x100 EXP SWAP1 DIV PUSH1 0xFF AND PUSH1 0xFF AND DUP2 MSTORE PUSH1 0x20 ADD SWAP1 PUSH1 0x1 ADD SWAP1 PUSH1 0x20 DUP3 PUSH1 0x0 ADD DIV SWAP3 DUP4 ADD SWAP3 PUSH1 0x1 SUB DUP3 MUL SWAP2 POP DUP1 DUP5 GT PUSH2 0x157A JUMPI SWAP1 POP JUMPDEST POP POP POP POP POP PUSH2 0x2EB4 JUMP JUMPDEST SWAP1 POP PUSH1 0x15 DUP2 GT ISZERO PUSH2 0x17B7 JUMPI CALLER PUSH20 0xFFFFFFFFFFFFFFFFFFFFFFFFFFFFFFFFFFFFFFFF AND PUSH32 0x44EF28E569839E28C1269B483E0D38E7ACCD6CA7C0A5B8855CC8FBB91C48F5B0 DUP3 DUP8 PUSH1 0x40 MLOAD PUSH2 0x160E SWAP3 SWAP2 SWAP1 PUSH2 0x494F JUMP JUMPDEST PUSH1 0x40 MLOAD DUP1 SWAP2 SUB SWAP1 LOG2 DUP3 PUSH1 0x8 ADD PUSH1 0x0 SWAP1 SLOAD SWAP1 PUSH2 0x100 EXP SWAP1 DIV PUSH1 0xFF AND ISZERO PUSH2 0x1770 JUMPI PUSH1 0x1 DUP6 PUSH1 0xFF AND SUB PUSH2 0x1734 JUMPI PUSH1 0x1 DUP4 PUSH1 0x8 ADD PUSH1 0x1 PUSH2 0x100 EXP DUP2 SLOAD DUP2 PUSH1 0xFF MUL NOT AND SWAP1 DUP4 ISZERO ISZERO MUL OR SWAP1 SSTORE POP PUSH1 0x0 PUSH2 0x16D8 DUP5 PUSH1 0x7 ADD DUP1 SLOAD DUP1 PUSH1 0x20 MUL PUSH1 0x20 ADD PUSH1 0x40 MLOAD SWAP1 DUP2 ADD PUSH1 0x40 MSTORE DUP1 SWAP3 SWAP2 SWAP1 DUP2 DUP2 MSTORE PUSH1 0x20 ADD DUP3 DUP1 SLOAD DUP1 ISZERO PUSH2 0x16CE JUMPI PUSH1 0x20 MUL DUP3 ADD SWAP2 SWAP1 PUSH1 0x0 MSTORE PUSH1 0x20 PUSH1 0x0 KECCAK256 SWAP1 PUSH1 0x0 SWAP1 JUMPDEST DUP3 DUP3 SWAP1 SLOAD SWAP1 PUSH2 0x100 EXP SWAP1 DIV PUSH1 0xFF AND PUSH1 0xFF AND DUP2 MSTORE PUSH1 0x20 ADD SWAP1 PUSH1 0x1 ADD SWAP1 PUSH1 0x20 DUP3 PUSH1 0x0 ADD DIV SWAP3 DUP4 ADD SWAP3 PUSH1 0x1 SUB DUP3 MUL SWAP2 POP DUP1 DUP5 GT PUSH2 0x1697 JUMPI SWAP1 POP JUMPDEST POP POP POP POP POP PUSH2 0x2EB4 JUMP JUMPDEST GT DUP1 ISZERO PUSH2 0x16F4 JUMPI POP DUP3 PUSH1 0x8 ADD PUSH1 0x3 SWAP1 SLOAD SWAP1 PUSH2 0x100 EXP SWAP1 DIV PUSH1 0xFF AND ISZERO JUMPDEST PUSH2 0x172F JUMPI PUSH1 0x3 DUP4 PUSH1 0x3 ADD PUSH1 0x0 PUSH2 0x100 EXP DUP2 SLOAD DUP2 PUSH1 0xFF MUL NOT AND SWAP1 DUP4 PUSH1 0x4 DUP2 GT ISZERO PUSH2 0x1720 JUMPI PUSH2 0x171F PUSH2 0x4201 JUMP JUMPDEST JUMPDEST MUL OR SWAP1 SSTORE POP PUSH2 0x172E CALLER PUSH2 0x2F91 JUMP JUMPDEST JUMPDEST PUSH2 0x176B JUMP JUMPDEST PUSH1 0x3 DUP4 PUSH1 0x3 ADD PUSH1 0x0 PUSH2 0x100 EXP DUP2 SLOAD DUP2 PUSH1 0xFF MUL NOT AND SWAP1 DUP4 PUSH1 0x4 DUP2 GT ISZERO PUSH2 0x175C JUMPI PUSH2 0x175B PUSH2 0x4201 JUMP JUMPDEST JUMPDEST MUL OR SWAP1 SSTORE POP PUSH2 0x176A CALLER PUSH2 0x2F91 JUMP JUMPDEST JUMPDEST PUSH2 0x17B2 JUMP JUMPDEST PUSH2 0x17B1 CALLER PUSH1 0x40 MLOAD DUP1 PUSH1 0x40 ADD PUSH1 0x40 MSTORE DUP1 PUSH1 0xC DUP2 MSTORE PUSH1 0x20 ADD PUSH32 0x506C617965722042757374730000000000000000000000000000000000000000 DUP2 MSTORE POP PUSH1 0x0 PUSH2 0x3778 JUMP JUMPDEST JUMPDEST PUSH2 0x1997 JUMP JUMPDEST CALLER PUSH20 0xFFFFFFFFFFFFFFFFFFFFFFFFFFFFFFFFFFFFFFFF AND PUSH32 0xCF9491C50952C181187E767C568B4A5BA558D5B1D35F47D6307FA1D7709C5110 DUP7 PUSH1 0x40 MLOAD PUSH2 0x17FD SWAP2 SWAP1 PUSH2 0x4978 JUMP JUMPDEST PUSH1 0x40 MLOAD DUP1 SWAP2 SUB SWAP1 LOG2 DUP3 PUSH1 0x8 ADD PUSH1 0x0 SWAP1 SLOAD SWAP1 PUSH2 0x100 EXP SWAP1 DIV PUSH1 0xFF AND ISZERO PUSH2 0x195F JUMPI PUSH1 0x1 DUP6 PUSH1 0xFF AND SUB PUSH2 0x1923 JUMPI PUSH1 0x1 DUP4 PUSH1 0x8 ADD PUSH1 0x1 PUSH2 0x100 EXP DUP2 SLOAD DUP2 PUSH1 0xFF MUL NOT AND SWAP1 DUP4 ISZERO ISZERO MUL OR SWAP1 SSTORE POP PUSH1 0x0 PUSH2 0x18C7 DUP5 PUSH1 0x7 ADD DUP1 SLOAD DUP1 PUSH1 0x20 MUL PUSH1 0x20 ADD PUSH1 0x40 MLOAD SWAP1 DUP2 ADD PUSH1 0x40 MSTORE DUP1 SWAP3 SWAP2 SWAP1 DUP2 DUP2 MSTORE PUSH1 0x20 ADD DUP3 DUP1 SLOAD DUP1 ISZERO PUSH2 0x18BD JUMPI PUSH1 0x20 MUL DUP3 ADD SWAP2 SWAP1 PUSH1 0x0 MSTORE PUSH1 0x20 PUSH1 0x0 KECCAK256 SWAP1 PUSH1 0x0 SWAP1 JUMPDEST DUP3 DUP3 SWAP1 SLOAD SWAP1 PUSH2 0x100 EXP SWAP1 DIV PUSH1 0xFF AND PUSH1 0xFF AND DUP2 MSTORE PUSH1 0x20 ADD SWAP1 PUSH1 0x1 ADD SWAP1 PUSH1 0x20 DUP3 PUSH1 0x0 ADD DIV SWAP3 DUP4 ADD SWAP3 PUSH1 0x1 SUB DUP3 MUL SWAP2 POP DUP1 DUP5 GT PUSH2 0x1886 JUMPI SWAP1 POP JUMPDEST POP POP POP POP POP PUSH2 0x2EB4 JUMP JUMPDEST GT DUP1 ISZERO PUSH2 0x18E3 JUMPI POP DUP3 PUSH1 0x8 ADD PUSH1 0x3 SWAP1 SLOAD SWAP1 PUSH2 0x100 EXP SWAP1 DIV PUSH1 0xFF AND ISZERO JUMPDEST PUSH2 0x191E JUMPI PUSH1 0x3 DUP4 PUSH1 0x3 ADD PUSH1 0x0 PUSH2 0x100 EXP DUP2 SLOAD DUP2 PUSH1 0xFF MUL NOT AND SWAP1 DUP4 PUSH1 0x4 DUP2 GT ISZERO PUSH2 0x190F JUMPI PUSH2 0x190E PUSH2 0x4201 JUMP JUMPDEST JUMPDEST MUL OR SWAP1 SSTORE POP PUSH2 0x191D CALLER PUSH2 0x2F91 JUMP JUMPDEST JUMPDEST PUSH2 0x195A JUMP JUMPDEST PUSH1 0x3 DUP4 PUSH1 0x3 ADD PUSH1 0x0 PUSH2 0x100 EXP DUP2 SLOAD DUP2 PUSH1 0xFF MUL NOT AND SWAP1 DUP4 PUSH1 0x4 DUP2 GT ISZERO PUSH2 0x194B JUMPI PUSH2 0x194A PUSH2 0x4201 JUMP JUMPDEST JUMPDEST MUL OR SWAP1 SSTORE POP PUSH2 0x1959 CALLER PUSH2 0x2F91 JUMP JUMPDEST JUMPDEST PUSH2 0x1996 JUMP JUMPDEST PUSH1 0x3 DUP4 PUSH1 0x3 ADD PUSH1 0x0 PUSH2 0x100 EXP DUP2 SLOAD DUP2 PUSH1 0xFF MUL NOT AND SWAP1 DUP4 PUSH1 0x4 DUP2 GT ISZERO PUSH2 0x1987 JUMPI PUSH2 0x1986 PUSH2 0x4201 JUMP JUMPDEST JUMPDEST MUL OR SWAP1 SSTORE POP PUSH2 0x1995 CALLER PUSH2 0x2F91 JUMP JUMPDEST JUMPDEST JUMPDEST POP POP POP POP POP JUMP JUMPDEST CALLER PUSH20 0xFFFFFFFFFFFFFFFFFFFFFFFFFFFFFFFFFFFFFFFF AND PUSH2 0x8FC SELFBALANCE SWAP1 DUP2 ISZERO MUL SWAP1 PUSH1 0x40 MLOAD PUSH1 0x0 PUSH1 0x40 MLOAD DUP1 DUP4 SUB DUP2 DUP6 DUP9 DUP9 CALL SWAP4 POP POP POP POP ISZERO DUP1 ISZERO PUSH2 0x19E4 JUMPI RETURNDATASIZE PUSH1 0x0 DUP1 RETURNDATACOPY RETURNDATASIZE PUSH1 0x0 REVERT JUMPDEST POP JUMP JUMPDEST PUSH1 0x2 DUP1 PUSH1 0x4 DUP2 GT ISZERO PUSH2 0x19FC JUMPI PUSH2 0x19FB PUSH2 0x4201 JUMP JUMPDEST JUMPDEST PUSH1 0x0 DUP1 CALLER PUSH20 0xFFFFFFFFFFFFFFFFFFFFFFFFFFFFFFFFFFFFFFFF AND PUSH20 0xFFFFFFFFFFFFFFFFFFFFFFFFFFFFFFFFFFFFFFFF AND DUP2 MSTORE PUSH1 0x20 ADD SWAP1 DUP2 MSTORE PUSH1 0x20 ADD PUSH1 0x0 KECCAK256 PUSH1 0x3 ADD PUSH1 0x0 SWAP1 SLOAD SWAP1 PUSH2 0x100 EXP SWAP1 DIV PUSH1 0xFF AND PUSH1 0x4 DUP2 GT ISZERO PUSH2 0x1A5D JUMPI PUSH2 0x1A5C PUSH2 0x4201 JUMP JUMPDEST JUMPDEST EQ PUSH2 0x1A9D JUMPI PUSH1 0x40 MLOAD PUSH32 0x8C379A000000000000000000000000000000000000000000000000000000000 DUP2 MSTORE PUSH1 0x4 ADD PUSH2 0x1A94 SWAP1 PUSH2 0x4472 JUMP JUMPDEST PUSH1 0x40 MLOAD DUP1 SWAP2 SUB SWAP1 REVERT JUMPDEST PUSH1 0x0 DUP1 PUSH1 0x0 CALLER PUSH20 0xFFFFFFFFFFFFFFFFFFFFFFFFFFFFFFFFFFFFFFFF AND PUSH20 0xFFFFFFFFFFFFFFFFFFFFFFFFFFFFFFFFFFFFFFFF AND DUP2 MSTORE PUSH1 0x20 ADD SWAP1 DUP2 MSTORE PUSH1 0x20 ADD PUSH1 0x0 KECCAK256 SWAP1 POP DUP1 PUSH1 0xA ADD PUSH1 0x1 SWAP1 SLOAD SWAP1 PUSH2 0x100 EXP SWAP1 DIV PUSH1 0xFF AND PUSH2 0x1B30 JUMPI PUSH1 0x40 MLOAD PUSH32 0x8C379A000000000000000000000000000000000000000000000000000000000 DUP2 MSTORE PUSH1 0x4 ADD PUSH2 0x1B27 SWAP1 PUSH2 0x4DD7 JUMP JUMPDEST PUSH1 0x40 MLOAD DUP1 SWAP2 SUB SWAP1 REVERT JUMPDEST DUP1 PUSH1 0xA ADD PUSH1 0x0 SWAP1 SLOAD SWAP1 PUSH2 0x100 EXP SWAP1 DIV PUSH1 0xFF AND ISZERO PUSH2 0x1B82 JUMPI PUSH1 0x40 MLOAD PUSH32 0x8C379A000000000000000000000000000000000000000000000000000000000 DUP2 MSTORE PUSH1 0x4 ADD PUSH2 0x1B79 SWAP1 PUSH2 0x4E43 JUMP JUMPDEST PUSH1 0x40 MLOAD DUP1 SWAP2 SUB SWAP1 REVERT JUMPDEST PUSH1 0x2 DUP2 PUSH1 0x0 ADD SLOAD PUSH2 0x1B93 SWAP2 SWAP1 PUSH2 0x4E92 JUMP JUMPDEST CALLVALUE EQ PUSH2 0x1BD4 JUMPI PUSH1 0x40 MLOAD PUSH32 0x8C379A000000000000000000000000000000000000000000000000000000000 DUP2 MSTORE PUSH1 0x4 ADD PUSH2 0x1BCB SWAP1 PUSH2 0x4F35 JUMP JUMPDEST PUSH1 0x40 MLOAD DUP1 SWAP2 SUB SWAP1 REVERT JUMPDEST CALLVALUE DUP2 PUSH1 0x9 ADD DUP2 SWAP1 SSTORE POP PUSH1 0x1 DUP2 PUSH1 0xA ADD PUSH1 0x0 PUSH2 0x100 EXP DUP2 SLOAD DUP2 PUSH1 0xFF MUL NOT AND SWAP1 DUP4 ISZERO ISZERO MUL OR SWAP1 SSTORE POP CALLER PUSH20 0xFFFFFFFFFFFFFFFFFFFFFFFFFFFFFFFFFFFFFFFF AND PUSH32 0x4624B7ADEC753826941D16F639FF48026F4CB0CDEB0BE0A59B6D57147F48BCED CALLVALUE PUSH1 0x40 MLOAD PUSH2 0x1C40 SWAP2 SWAP1 PUSH2 0x43B9 JUMP JUMPDEST PUSH1 0x40 MLOAD DUP1 SWAP2 SUB SWAP1 LOG2 POP POP JUMP JUMPDEST PUSH1 0x0 DUP2 ISZERO PUSH2 0x1D19 JUMPI PUSH2 0x1D12 PUSH1 0x0 DUP1 DUP6 PUSH20 0xFFFFFFFFFFFFFFFFFFFFFFFFFFFFFFFFFFFFFFFF AND PUSH20 0xFFFFFFFFFFFFFFFFFFFFFFFFFFFFFFFFFFFFFFFF AND DUP2 MSTORE PUSH1 0x20 ADD SWAP1 DUP2 MSTORE PUSH1 0x20 ADD PUSH1 0x0 KECCAK256 PUSH1 0x1 ADD DUP1 SLOAD DUP1 PUSH1 0x20 MUL PUSH1 0x20 ADD PUSH1 0x40 MLOAD SWAP1 DUP2 ADD PUSH1 0x40 MSTORE DUP1 SWAP3 SWAP2 SWAP1 DUP2 DUP2 MSTORE PUSH1 0x20 ADD DUP3 DUP1 SLOAD DUP1 ISZERO PUSH2 0x1D08 JUMPI PUSH1 0x20 MUL DUP3 ADD SWAP2 SWAP1 PUSH1 0x0 MSTORE PUSH1 0x20 PUSH1 0x0 KECCAK256 SWAP1 PUSH1 0x0 SWAP1 JUMPDEST DUP3 DUP3 SWAP1 SLOAD SWAP1 PUSH2 0x100 EXP SWAP1 DIV PUSH1 0xFF AND PUSH1 0xFF AND DUP2 MSTORE PUSH1 0x20 ADD SWAP1 PUSH1 0x1 ADD SWAP1 PUSH1 0x20 DUP3 PUSH1 0x0 ADD DIV SWAP3 DUP4 ADD SWAP3 PUSH1 0x1 SUB DUP3 MUL SWAP2 POP DUP1 DUP5 GT PUSH2 0x1CD1 JUMPI SWAP1 POP JUMPDEST POP POP POP POP POP PUSH2 0x2EB4 JUMP JUMPDEST SWAP1 POP PUSH2 0x1DDA JUMP JUMPDEST PUSH2 0x1DD7 PUSH1 0x0 DUP1 DUP6 PUSH20 0xFFFFFFFFFFFFFFFFFFFFFFFFFFFFFFFFFFFFFFFF AND PUSH20 0xFFFFFFFFFFFFFFFFFFFFFFFFFFFFFFFFFFFFFFFF AND DUP2 MSTORE PUSH1 0x20 ADD SWAP1 DUP2 MSTORE PUSH1 0x20 ADD PUSH1 0x0 KECCAK256 PUSH1 0x2 ADD DUP1 SLOAD DUP1 PUSH1 0x20 MUL PUSH1 0x20 ADD PUSH1 0x40 MLOAD SWAP1 DUP2 ADD PUSH1 0x40 MSTORE DUP1 SWAP3 SWAP2 SWAP1 DUP2 DUP2 MSTORE PUSH1 0x20 ADD DUP3 DUP1 SLOAD DUP1 ISZERO PUSH2 0x1DCD JUMPI PUSH1 0x20 MUL DUP3 ADD SWAP2 SWAP1 PUSH1 0x0 MSTORE PUSH1 0x20 PUSH1 0x0 KECCAK256 SWAP1 PUSH1 0x0 SWAP1 JUMPDEST DUP3 DUP3 SWAP1 SLOAD SWAP1 PUSH2 0x100 EXP SWAP1 DIV PUSH1 0xFF AND PUSH1 0xFF AND DUP2 MSTORE PUSH1 0x20 ADD SWAP1 PUSH1 0x1 ADD SWAP1 PUSH1 0x20 DUP3 PUSH1 0x0 ADD DIV SWAP3 DUP4 ADD SWAP3 PUSH1 0x1 SUB DUP3 MUL SWAP2 POP DUP1 DUP5 GT PUSH2 0x1D96 JUMPI SWAP1 POP JUMPDEST POP POP POP POP POP PUSH2 0x2EB4 JUMP JUMPDEST SWAP1 POP JUMPDEST SWAP3 SWAP2 POP POP JUMP JUMPDEST PUSH1 0x60 PUSH1 0x0 DUP1 DUP4 PUSH20 0xFFFFFFFFFFFFFFFFFFFFFFFFFFFFFFFFFFFFFFFF AND PUSH20 0xFFFFFFFFFFFFFFFFFFFFFFFFFFFFFFFFFFFFFFFF AND DUP2 MSTORE PUSH1 0x20 ADD SWAP1 DUP2 MSTORE PUSH1 0x20 ADD PUSH1 0x0 KECCAK256 PUSH1 0x7 ADD DUP1 SLOAD DUP1 PUSH1 0x20 MUL PUSH1 0x20 ADD PUSH1 0x40 MLOAD SWAP1 DUP2 ADD PUSH1 0x40 MSTORE DUP1 SWAP3 SWAP2 SWAP1 DUP2 DUP2 MSTORE PUSH1 0x20 ADD DUP3 DUP1 SLOAD DUP1 ISZERO PUSH2 0x1E93 JUMPI PUSH1 0x20 MUL DUP3 ADD SWAP2 SWAP1 PUSH1 0x0 MSTORE PUSH1 0x20 PUSH1 0x0 KECCAK256 SWAP1 PUSH1 0x0 SWAP1 JUMPDEST DUP3 DUP3 SWAP1 SLOAD SWAP1 PUSH2 0x100 EXP SWAP1 DIV PUSH1 0xFF AND PUSH1 0xFF AND DUP2 MSTORE PUSH1 0x20 ADD SWAP1 PUSH1 0x1 ADD SWAP1 PUSH1 0x20 DUP3 PUSH1 0x0 ADD DIV SWAP3 DUP4 ADD SWAP3 PUSH1 0x1 SUB DUP3 MUL SWAP2 POP DUP1 DUP5 GT PUSH2 0x1E5C JUMPI SWAP1 POP JUMPDEST POP POP POP POP POP SWAP1 POP SWAP2 SWAP1 POP JUMP JUMPDEST PUSH1 0x0 DUP1 PUSH1 0x0 CALLER PUSH20 0xFFFFFFFFFFFFFFFFFFFFFFFFFFFFFFFFFFFFFFFF AND PUSH20 0xFFFFFFFFFFFFFFFFFFFFFFFFFFFFFFFFFFFFFFFF AND DUP2 MSTORE PUSH1 0x20 ADD SWAP1 DUP2 MSTORE PUSH1 0x20 ADD PUSH1 0x0 KECCAK256 SWAP1 POP PUSH1 0x0 PUSH1 0x4 DUP2 GT ISZERO PUSH2 0x1EF5 JUMPI PUSH2 0x1EF4 PUSH2 0x4201 JUMP JUMPDEST JUMPDEST DUP2 PUSH1 0x3 ADD PUSH1 0x0 SWAP1 SLOAD SWAP1 PUSH2 0x100 EXP SWAP1 DIV PUSH1 0xFF AND PUSH1 0x4 DUP2 GT ISZERO PUSH2 0x1F19 JUMPI PUSH2 0x1F18 PUSH2 0x4201 JUMP JUMPDEST JUMPDEST EQ DUP1 PUSH2 0x1F59 JUMPI POP PUSH1 0x4 DUP1 DUP2 GT ISZERO PUSH2 0x1F33 JUMPI PUSH2 0x1F32 PUSH2 0x4201 JUMP JUMPDEST JUMPDEST DUP2 PUSH1 0x3 ADD PUSH1 0x0 SWAP1 SLOAD SWAP1 PUSH2 0x100 EXP SWAP1 DIV PUSH1 0xFF AND PUSH1 0x4 DUP2 GT ISZERO PUSH2 0x1F57 JUMPI PUSH2 0x1F56 PUSH2 0x4201 JUMP JUMPDEST JUMPDEST EQ JUMPDEST DUP1 PUSH2 0x1F99 JUMPI POP PUSH1 0x1 PUSH1 0x4 DUP2 GT ISZERO PUSH2 0x1F73 JUMPI PUSH2 0x1F72 PUSH2 0x4201 JUMP JUMPDEST JUMPDEST DUP2 PUSH1 0x3 ADD PUSH1 0x0 SWAP1 SLOAD SWAP1 PUSH2 0x100 EXP SWAP1 DIV PUSH1 0xFF AND PUSH1 0x4 DUP2 GT ISZERO PUSH2 0x1F97 JUMPI PUSH2 0x1F96 PUSH2 0x4201 JUMP JUMPDEST JUMPDEST EQ JUMPDEST PUSH2 0x1FD8 JUMPI PUSH1 0x40 MLOAD PUSH32 0x8C379A000000000000000000000000000000000000000000000000000000000 DUP2 MSTORE PUSH1 0x4 ADD PUSH2 0x1FCF SWAP1 PUSH2 0x4FED JUMP JUMPDEST PUSH1 0x40 MLOAD DUP1 SWAP2 SUB SWAP1 REVERT JUMPDEST PUSH1 0x0 DUP2 PUSH1 0x0 ADD DUP2 SWAP1 SSTORE POP PUSH1 0x0 PUSH8 0xFFFFFFFFFFFFFFFF DUP2 GT ISZERO PUSH2 0x1FFD JUMPI PUSH2 0x1FFC PUSH2 0x500D JUMP JUMPDEST JUMPDEST PUSH1 0x40 MLOAD SWAP1 DUP1 DUP3 MSTORE DUP1 PUSH1 0x20 MUL PUSH1 0x20 ADD DUP3 ADD PUSH1 0x40 MSTORE DUP1 ISZERO PUSH2 0x202B JUMPI DUP2 PUSH1 0x20 ADD PUSH1 0x20 DUP3 MUL DUP1 CALLDATASIZE DUP4 CALLDATACOPY DUP1 DUP3 ADD SWAP2 POP POP SWAP1 POP JUMPDEST POP DUP2 PUSH1 0x1 ADD SWAP1 DUP1 MLOAD SWAP1 PUSH1 0x20 ADD SWAP1 PUSH2 0x2043 SWAP3 SWAP2 SWAP1 PUSH2 0x3F0E JUMP JUMPDEST POP PUSH1 0x0 PUSH8 0xFFFFFFFFFFFFFFFF DUP2 GT ISZERO PUSH2 0x205F JUMPI PUSH2 0x205E PUSH2 0x500D JUMP JUMPDEST JUMPDEST PUSH1 0x40 MLOAD SWAP1 DUP1 DUP3 MSTORE DUP1 PUSH1 0x20 MUL PUSH1 0x20 ADD DUP3 ADD PUSH1 0x40 MSTORE DUP1 ISZERO PUSH2 0x208D JUMPI DUP2 PUSH1 0x20 ADD PUSH1 0x20 DUP3 MUL DUP1 CALLDATASIZE DUP4 CALLDATACOPY DUP1 DUP3 ADD SWAP2 POP POP SWAP1 POP JUMPDEST POP DUP2 PUSH1 0x2 ADD SWAP1 DUP1 MLOAD SWAP1 PUSH1 0x20 ADD SWAP1 PUSH2 0x20A5 SWAP3 SWAP2 SWAP1 PUSH2 0x3F0E JUMP JUMPDEST POP PUSH1 0x0 DUP2 PUSH1 0x3 ADD PUSH1 0x0 PUSH2 0x100 EXP DUP2 SLOAD DUP2 PUSH1 0xFF MUL NOT AND SWAP1 DUP4 PUSH1 0x4 DUP2 GT ISZERO PUSH2 0x20CE JUMPI PUSH2 0x20CD PUSH2 0x4201 JUMP JUMPDEST JUMPDEST MUL OR SWAP1 SSTORE POP PUSH1 0x0 DUP2 PUSH1 0x5 ADD PUSH1 0x0 PUSH2 0x100 EXP DUP2 SLOAD DUP2 PUSH1 0xFF MUL NOT AND SWAP1 DUP4 ISZERO ISZERO MUL OR SWAP1 SSTORE POP PUSH1 0x0 DUP2 PUSH1 0x4 ADD DUP2 SWAP1 SSTORE POP PUSH1 0x0 DUP2 PUSH1 0x6 ADD DUP2 SWAP1 SSTORE POP PUSH1 0x0 PUSH8 0xFFFFFFFFFFFFFFFF DUP2 GT ISZERO PUSH2 0x211F JUMPI PUSH2 0x211E PUSH2 0x500D JUMP JUMPDEST JUMPDEST PUSH1 0x40 MLOAD SWAP1 DUP1 DUP3 MSTORE DUP1 PUSH1 0x20 MUL PUSH1 0x20 ADD DUP3 ADD PUSH1 0x40 MSTORE DUP1 ISZERO PUSH2 0x214D JUMPI DUP2 PUSH1 0x20 ADD PUSH1 0x20 DUP3 MUL DUP1 CALLDATASIZE DUP4 CALLDATACOPY DUP1 DUP3 ADD SWAP2 POP POP SWAP1 POP JUMPDEST POP DUP2 PUSH1 0x7 ADD SWAP1 DUP1 MLOAD SWAP1 PUSH1 0x20 ADD SWAP1 PUSH2 0x2165 SWAP3 SWAP2 SWAP1 PUSH2 0x3F0E JUMP JUMPDEST POP PUSH1 0x0 DUP2 PUSH1 0x8 ADD PUSH1 0x0 PUSH2 0x100 EXP DUP2 SLOAD DUP2 PUSH1 0xFF MUL NOT AND SWAP1 DUP4 ISZERO ISZERO MUL OR SWAP1 SSTORE POP PUSH1 0x0 DUP2 PUSH1 0x8 ADD PUSH1 0x1 PUSH2 0x100 EXP DUP2 SLOAD DUP2 PUSH1 0xFF MUL NOT AND SWAP1 DUP4 ISZERO ISZERO MUL OR SWAP1 SSTORE POP PUSH1 0x0 DUP2 PUSH1 0x8 ADD PUSH1 0x2 PUSH2 0x100 EXP DUP2 SLOAD DUP2 PUSH1 0xFF MUL NOT AND SWAP1 DUP4 ISZERO ISZERO MUL OR SWAP1 SSTORE POP PUSH1 0x0 DUP2 PUSH1 0x8 ADD PUSH1 0x3 PUSH2 0x100 EXP DUP2 SLOAD DUP2 PUSH1 0xFF MUL NOT AND SWAP1 DUP4 ISZERO ISZERO MUL OR SWAP1 SSTORE POP PUSH1 0x0 DUP2 PUSH1 0x9 ADD DUP2 SWAP1 SSTORE POP PUSH1 0x0 DUP2 PUSH1 0xA ADD PUSH1 0x0 PUSH2 0x100 EXP DUP2 SLOAD DUP2 PUSH1 0xFF MUL NOT AND SWAP1 DUP4 ISZERO ISZERO MUL OR SWAP1 SSTORE POP PUSH1 0x0 DUP2 PUSH1 0xA ADD PUSH1 0x1 PUSH2 0x100 EXP DUP2 SLOAD DUP2 PUSH1 0xFF MUL NOT AND SWAP1 DUP4 ISZERO ISZERO MUL OR SWAP1 SSTORE POP CALLER PUSH20 0xFFFFFFFFFFFFFFFFFFFFFFFFFFFFFFFFFFFFFFFF AND PUSH32 0x5C5242C86E1C99F381866C8C3D6542C0F9691EC890EDFE6699DEF7DAFA9A34F6 PUSH1 0x40 MLOAD PUSH1 0x40 MLOAD DUP1 SWAP2 SUB SWAP1 LOG2 POP JUMP JUMPDEST PUSH1 0x60 PUSH1 0x0 DUP1 DUP4 PUSH20 0xFFFFFFFFFFFFFFFFFFFFFFFFFFFFFFFFFFFFFFFF AND PUSH20 0xFFFFFFFFFFFFFFFFFFFFFFFFFFFFFFFFFFFFFFFF AND DUP2 MSTORE PUSH1 0x20 ADD SWAP1 DUP2 MSTORE PUSH1 0x20 ADD PUSH1 0x0 KECCAK256 PUSH1 0x1 ADD DUP1 SLOAD DUP1 PUSH1 0x20 MUL PUSH1 0x20 ADD PUSH1 0x40 MLOAD SWAP1 DUP2 ADD PUSH1 0x40 MSTORE DUP1 SWAP3 SWAP2 SWAP1 DUP2 DUP2 MSTORE PUSH1 0x20 ADD DUP3 DUP1 SLOAD DUP1 ISZERO PUSH2 0x2317 JUMPI PUSH1 0x20 MUL DUP3 ADD SWAP2 SWAP1 PUSH1 0x0 MSTORE PUSH1 0x20 PUSH1 0x0 KECCAK256 SWAP1 PUSH1 0x0 SWAP1 JUMPDEST DUP3 DUP3 SWAP1 SLOAD SWAP1 PUSH2 0x100 EXP SWAP1 DIV PUSH1 0xFF AND PUSH1 0xFF AND DUP2 MSTORE PUSH1 0x20 ADD SWAP1 PUSH1 0x1 ADD SWAP1 PUSH1 0x20 DUP3 PUSH1 0x0 ADD DIV SWAP3 DUP4 ADD SWAP3 PUSH1 0x1 SUB DUP3 MUL SWAP2 POP DUP1 DUP5 GT PUSH2 0x22E0 JUMPI SWAP1 POP JUMPDEST POP POP POP POP POP SWAP1 POP SWAP2 SWAP1 POP JUMP JUMPDEST PUSH1 0x0 PUSH2 0x23E3 PUSH1 0x0 DUP1 DUP5 PUSH20 0xFFFFFFFFFFFFFFFFFFFFFFFFFFFFFFFFFFFFFFFF AND PUSH20 0xFFFFFFFFFFFFFFFFFFFFFFFFFFFFFFFFFFFFFFFF AND DUP2 MSTORE PUSH1 0x20 ADD SWAP1 DUP2 MSTORE PUSH1 0x20 ADD PUSH1 0x0 KECCAK256 PUSH1 0x7 ADD DUP1 SLOAD DUP1 PUSH1 0x20 MUL PUSH1 0x20 ADD PUSH1 0x40 MLOAD SWAP1 DUP2 ADD PUSH1 0x40 MSTORE DUP1 SWAP3 SWAP2 SWAP1 DUP2 DUP2 MSTORE PUSH1 0x20 ADD DUP3 DUP1 SLOAD DUP1 ISZERO PUSH2 0x23D9 JUMPI PUSH1 0x20 MUL DUP3 ADD SWAP2 SWAP1 PUSH1 0x0 MSTORE PUSH1 0x20 PUSH1 0x0 KECCAK256 SWAP1 PUSH1 0x0 SWAP1 JUMPDEST DUP3 DUP3 SWAP1 SLOAD SWAP1 PUSH2 0x100 EXP SWAP1 DIV PUSH1 0xFF AND PUSH1 0xFF AND DUP2 MSTORE PUSH1 0x20 ADD SWAP1 PUSH1 0x1 ADD SWAP1 PUSH1 0x20 DUP3 PUSH1 0x0 ADD DIV SWAP3 DUP4 ADD SWAP3 PUSH1 0x1 SUB DUP3 MUL SWAP2 POP DUP1 DUP5 GT PUSH2 0x23A2 JUMPI SWAP1 POP JUMPDEST POP POP POP POP POP PUSH2 0x2EB4 JUMP JUMPDEST SWAP1 POP SWAP2 SWAP1 POP JUMP JUMPDEST PUSH1 0x0 DUP1 PUSH1 0x0 DUP4 PUSH20 0xFFFFFFFFFFFFFFFFFFFFFFFFFFFFFFFFFFFFFFFF AND PUSH20 0xFFFFFFFFFFFFFFFFFFFFFFFFFFFFFFFFFFFFFFFF AND DUP2 MSTORE PUSH1 0x20 ADD SWAP1 DUP2 MSTORE PUSH1 0x20 ADD PUSH1 0x0 KECCAK256 PUSH1 0x3 ADD PUSH1 0x0 SWAP1 SLOAD SWAP1 PUSH2 0x100 EXP SWAP1 DIV PUSH1 0xFF AND SWAP1 POP SWAP2 SWAP1 POP JUMP JUMPDEST PUSH1 0x1 DUP1 PUSH1 0x4 DUP2 GT ISZERO PUSH2 0x2457 JUMPI PUSH2 0x2456 PUSH2 0x4201 JUMP JUMPDEST JUMPDEST PUSH1 0x0 DUP1 CALLER PUSH20 0xFFFFFFFFFFFFFFFFFFFFFFFFFFFFFFFFFFFFFFFF AND PUSH20 0xFFFFFFFFFFFFFFFFFFFFFFFFFFFFFFFFFFFFFFFF AND DUP2 MSTORE PUSH1 0x20 ADD SWAP1 DUP2 MSTORE PUSH1 0x20 ADD PUSH1 0x0 KECCAK256 PUSH1 0x3 ADD PUSH1 0x0 SWAP1 SLOAD SWAP1 PUSH2 0x100 EXP SWAP1 DIV PUSH1 0xFF AND PUSH1 0x4 DUP2 GT ISZERO PUSH2 0x24B8 JUMPI PUSH2 0x24B7 PUSH2 0x4201 JUMP JUMPDEST JUMPDEST EQ PUSH2 0x24F8 JUMPI PUSH1 0x40 MLOAD PUSH32 0x8C379A000000000000000000000000000000000000000000000000000000000 DUP2 MSTORE PUSH1 0x4 ADD PUSH2 0x24EF SWAP1 PUSH2 0x4472 JUMP JUMPDEST PUSH1 0x40 MLOAD DUP1 SWAP2 SUB SWAP1 REVERT JUMPDEST PUSH1 0x0 DUP1 PUSH1 0x0 CALLER PUSH20 0xFFFFFFFFFFFFFFFFFFFFFFFFFFFFFFFFFFFFFFFF AND PUSH20 0xFFFFFFFFFFFFFFFFFFFFFFFFFFFFFFFFFFFFFFFF AND DUP2 MSTORE PUSH1 0x20 ADD SWAP1 DUP2 MSTORE PUSH1 0x20 ADD PUSH1 0x0 KECCAK256 SWAP1 POP PUSH2 0x2546 CALLER PUSH1 0x1 DUP1 PUSH2 0x3306 JUMP JUMPDEST POP PUSH1 0x0 PUSH2 0x2555 CALLER PUSH1 0x0 DUP1 PUSH2 0x3306 JUMP JUMPDEST SWAP1 POP PUSH2 0x2563 CALLER PUSH1 0x1 DUP1 PUSH2 0x3306 JUMP JUMPDEST POP PUSH1 0x1 DUP2 PUSH1 0xFF AND SUB PUSH2 0x258D JUMPI PUSH1 0x1 DUP3 PUSH1 0xA ADD PUSH1 0x1 PUSH2 0x100 EXP DUP2 SLOAD DUP2 PUSH1 0xFF MUL NOT AND SWAP1 DUP4 ISZERO ISZERO MUL OR SWAP1 SSTORE POP JUMPDEST PUSH1 0x0 PUSH2 0x2610 DUP4 PUSH1 0x1 ADD DUP1 SLOAD DUP1 PUSH1 0x20 MUL PUSH1 0x20 ADD PUSH1 0x40 MLOAD SWAP1 DUP2 ADD PUSH1 0x40 MSTORE DUP1 SWAP3 SWAP2 SWAP1 DUP2 DUP2 MSTORE PUSH1 0x20 ADD DUP3 DUP1 SLOAD DUP1 ISZERO PUSH2 0x2606 JUMPI PUSH1 0x20 MUL DUP3 ADD SWAP2 SWAP1 PUSH1 0x0 MSTORE PUSH1 0x20 PUSH1 0x0 KECCAK256 SWAP1 PUSH1 0x0 SWAP1 JUMPDEST DUP3 DUP3 SWAP1 SLOAD SWAP1 PUSH2 0x100 EXP SWAP1 DIV PUSH1 0xFF AND PUSH1 0xFF AND DUP2 MSTORE PUSH1 0x20 ADD SWAP1 PUSH1 0x1 ADD SWAP1 PUSH1 0x20 DUP3 PUSH1 0x0 ADD DIV SWAP3 DUP4 ADD SWAP3 PUSH1 0x1 SUB DUP3 MUL SWAP2 POP DUP1 DUP5 GT PUSH2 0x25CF JUMPI SWAP1 POP JUMPDEST POP POP POP POP POP PUSH2 0x2EB4 JUMP JUMPDEST SWAP1 POP PUSH1 0x15 DUP2 SUB PUSH2 0x2655 JUMPI PUSH1 0x3 DUP4 PUSH1 0x3 ADD PUSH1 0x0 PUSH2 0x100 EXP DUP2 SLOAD DUP2 PUSH1 0xFF MUL NOT AND SWAP1 DUP4 PUSH1 0x4 DUP2 GT ISZERO PUSH2 0x2642 JUMPI PUSH2 0x2641 PUSH2 0x4201 JUMP JUMPDEST JUMPDEST MUL OR SWAP1 SSTORE POP PUSH2 0x2650 CALLER PUSH2 0x2F91 JUMP JUMPDEST PUSH2 0x2683 JUMP JUMPDEST PUSH1 0x2 DUP4 PUSH1 0x3 ADD PUSH1 0x0 PUSH2 0x100 EXP DUP2 SLOAD DUP2 PUSH1 0xFF MUL NOT AND SWAP1 DUP4 PUSH1 0x4 DUP2 GT ISZERO PUSH2 0x267D JUMPI PUSH2 0x267C PUSH2 0x4201 JUMP JUMPDEST JUMPDEST MUL OR SWAP1 SSTORE POP JUMPDEST POP POP POP POP JUMP JUMPDEST PUSH1 0x2 DUP1 PUSH1 0x4 DUP2 GT ISZERO PUSH2 0x269E JUMPI PUSH2 0x269D PUSH2 0x4201 JUMP JUMPDEST JUMPDEST PUSH1 0x0 DUP1 CALLER PUSH20 0xFFFFFFFFFFFFFFFFFFFFFFFFFFFFFFFFFFFFFFFF AND PUSH20 0xFFFFFFFFFFFFFFFFFFFFFFFFFFFFFFFFFFFFFFFF AND DUP2 MSTORE PUSH1 0x20 ADD SWAP1 DUP2 MSTORE PUSH1 0x20 ADD PUSH1 0x0 KECCAK256 PUSH1 0x3 ADD PUSH1 0x0 SWAP1 SLOAD SWAP1 PUSH2 0x100 EXP SWAP1 DIV PUSH1 0xFF AND PUSH1 0x4 DUP2 GT ISZERO PUSH2 0x26FF JUMPI PUSH2 0x26FE PUSH2 0x4201 JUMP JUMPDEST JUMPDEST EQ PUSH2 0x273F JUMPI PUSH1 0x40 MLOAD PUSH32 0x8C379A000000000000000000000000000000000000000000000000000000000 DUP2 MSTORE PUSH1 0x4 ADD PUSH2 0x2736 SWAP1 PUSH2 0x4472 JUMP JUMPDEST PUSH1 0x40 MLOAD DUP1 SWAP2 SUB SWAP1 REVERT JUMPDEST PUSH1 0x0 DUP1 PUSH1 0x0 CALLER PUSH20 0xFFFFFFFFFFFFFFFFFFFFFFFFFFFFFFFFFFFFFFFF AND PUSH20 0xFFFFFFFFFFFFFFFFFFFFFFFFFFFFFFFFFFFFFFFF AND DUP2 MSTORE PUSH1 0x20 ADD SWAP1 DUP2 MSTORE PUSH1 0x20 ADD PUSH1 0x0 KECCAK256 SWAP1 POP DUP1 PUSH1 0x8 ADD PUSH1 0x0 SWAP1 SLOAD SWAP1 PUSH2 0x100 EXP SWAP1 DIV PUSH1 0xFF AND ISZERO PUSH2 0x27D3 JUMPI PUSH1 0x40 MLOAD PUSH32 0x8C379A000000000000000000000000000000000000000000000000000000000 DUP2 MSTORE PUSH1 0x4 ADD PUSH2 0x27CA SWAP1 PUSH2 0x5088 JUMP JUMPDEST PUSH1 0x40 MLOAD DUP1 SWAP2 SUB SWAP1 REVERT JUMPDEST PUSH1 0x2 DUP2 PUSH1 0x1 ADD DUP1 SLOAD SWAP1 POP EQ PUSH2 0x281D JUMPI PUSH1 0x40 MLOAD PUSH32 0x8C379A000000000000000000000000000000000000000000000000000000000 DUP2 MSTORE PUSH1 0x4 ADD PUSH2 0x2814 SWAP1 PUSH2 0x511A JUMP JUMPDEST PUSH1 0x40 MLOAD DUP1 SWAP2 SUB SWAP1 REVERT JUMPDEST DUP1 PUSH1 0x1 ADD PUSH1 0x1 DUP2 SLOAD DUP2 LT PUSH2 0x2834 JUMPI PUSH2 0x2833 PUSH2 0x513A JUMP JUMPDEST JUMPDEST SWAP1 PUSH1 0x0 MSTORE PUSH1 0x20 PUSH1 0x0 KECCAK256 SWAP1 PUSH1 0x20 SWAP2 DUP3 DUP3 DIV ADD SWAP2 SWAP1 MOD SWAP1 SLOAD SWAP1 PUSH2 0x100 EXP SWAP1 DIV PUSH1 0xFF AND PUSH1 0xFF AND DUP2 PUSH1 0x1 ADD PUSH1 0x0 DUP2 SLOAD DUP2 LT PUSH2 0x286E JUMPI PUSH2 0x286D PUSH2 0x513A JUMP JUMPDEST JUMPDEST SWAP1 PUSH1 0x0 MSTORE PUSH1 0x20 PUSH1 0x0 KECCAK256 SWAP1 PUSH1 0x20 SWAP2 DUP3 DUP3 DIV ADD SWAP2 SWAP1 MOD SWAP1 SLOAD SWAP1 PUSH2 0x100 EXP SWAP1 DIV PUSH1 0xFF AND PUSH1 0xFF AND EQ PUSH2 0x28D1 JUMPI PUSH1 0x40 MLOAD PUSH32 0x8C379A000000000000000000000000000000000000000000000000000000000 DUP2 MSTORE PUSH1 0x4 ADD PUSH2 0x28C8 SWAP1 PUSH2 0x51DB JUMP JUMPDEST PUSH1 0x40 MLOAD DUP1 SWAP2 SUB SWAP1 REVERT JUMPDEST DUP1 PUSH1 0x0 ADD SLOAD CALLVALUE EQ PUSH2 0x2917 JUMPI PUSH1 0x40 MLOAD PUSH32 0x8C379A000000000000000000000000000000000000000000000000000000000 DUP2 MSTORE PUSH1 0x4 ADD PUSH2 0x290E SWAP1 PUSH2 0x526D JUMP JUMPDEST PUSH1 0x40 MLOAD DUP1 SWAP2 SUB SWAP1 REVERT JUMPDEST PUSH1 0x1 DUP2 PUSH1 0x8 ADD PUSH1 0x0 PUSH2 0x100 EXP DUP2 SLOAD DUP2 PUSH1 0xFF MUL NOT AND SWAP1 DUP4 ISZERO ISZERO MUL OR SWAP1 SSTORE POP CALLVALUE DUP2 PUSH1 0x6 ADD DUP2 SWAP1 SSTORE POP DUP1 PUSH1 0x7 ADD DUP2 PUSH1 0x1 ADD PUSH1 0x1 DUP2 SLOAD DUP2 LT PUSH2 0x2958 JUMPI PUSH2 0x2957 PUSH2 0x513A JUMP JUMPDEST JUMPDEST SWAP1 PUSH1 0x0 MSTORE PUSH1 0x20 PUSH1 0x0 KECCAK256 SWAP1 PUSH1 0x20 SWAP2 DUP3 DUP3 DIV ADD SWAP2 SWAP1 MOD SWAP1 SLOAD SWAP1 PUSH2 0x100 EXP SWAP1 DIV PUSH1 0xFF AND SWAP1 DUP1 PUSH1 0x1 DUP2 SLOAD ADD DUP1 DUP3 SSTORE DUP1 SWAP2 POP POP PUSH1 0x1 SWAP1 SUB SWAP1 PUSH1 0x0 MSTORE PUSH1 0x20 PUSH1 0x0 KECCAK256 SWAP1 PUSH1 0x20 SWAP2 DUP3 DUP3 DIV ADD SWAP2 SWAP1 MOD SWAP1 SWAP2 SWAP1 SWAP2 SWAP1 SWAP2 PUSH2 0x100 EXP DUP2 SLOAD DUP2 PUSH1 0xFF MUL NOT AND SWAP1 DUP4 PUSH1 0xFF AND MUL OR SWAP1 SSTORE POP DUP1 PUSH1 0x1 ADD DUP1 SLOAD DUP1 PUSH2 0x29CE JUMPI PUSH2 0x29CD PUSH2 0x528D JUMP JUMPDEST JUMPDEST PUSH1 0x1 SWAP1 SUB DUP2 DUP2 SWAP1 PUSH1 0x0 MSTORE PUSH1 0x20 PUSH1 0x0 KECCAK256 SWAP1 PUSH1 0x20 SWAP2 DUP3 DUP3 DIV ADD SWAP2 SWAP1 MOD PUSH2 0x100 EXP DUP2 SLOAD SWAP1 PUSH1 0xFF MUL NOT AND SWAP1 SSTORE SWAP1 SSTORE PUSH2 0x2A04 CALLER PUSH1 0x1 DUP1 PUSH2 0x3306 JUMP JUMPDEST POP PUSH2 0x2A12 CALLER PUSH1 0x1 PUSH1 0x2 PUSH2 0x3306 JUMP JUMPDEST POP CALLER PUSH20 0xFFFFFFFFFFFFFFFFFFFFFFFFFFFFFFFFFFFFFFFF AND PUSH32 0xE1665329182BC1DAB50C9B04EA6BD37107B73ED7C585951D808B02CD9B659627 DUP3 PUSH1 0x0 ADD SLOAD PUSH1 0x40 MLOAD PUSH2 0x2A5D SWAP2 SWAP1 PUSH2 0x43B9 JUMP JUMPDEST PUSH1 0x40 MLOAD DUP1 SWAP2 SUB SWAP1 LOG2 POP POP JUMP JUMPDEST PUSH1 0x0 PUSH1 0x4 DUP2 GT ISZERO PUSH2 0x2A7D JUMPI PUSH2 0x2A7C PUSH2 0x4201 JUMP JUMPDEST JUMPDEST PUSH1 0x0 DUP1 CALLER PUSH20 0xFFFFFFFFFFFFFFFFFFFFFFFFFFFFFFFFFFFFFFFF AND PUSH20 0xFFFFFFFFFFFFFFFFFFFFFFFFFFFFFFFFFFFFFFFF AND DUP2 MSTORE PUSH1 0x20 ADD SWAP1 DUP2 MSTORE PUSH1 0x20 ADD PUSH1 0x0 KECCAK256 PUSH1 0x3 ADD PUSH1 0x0 SWAP1 SLOAD SWAP1 PUSH2 0x100 EXP SWAP1 DIV PUSH1 0xFF AND PUSH1 0x4 DUP2 GT ISZERO PUSH2 0x2ADE JUMPI PUSH2 0x2ADD PUSH2 0x4201 JUMP JUMPDEST JUMPDEST EQ DUP1 PUSH2 0x2B5B JUMPI POP PUSH1 0x4 DUP1 DUP2 GT ISZERO PUSH2 0x2AF8 JUMPI PUSH2 0x2AF7 PUSH2 0x4201 JUMP JUMPDEST JUMPDEST PUSH1 0x0 DUP1 CALLER PUSH20 0xFFFFFFFFFFFFFFFFFFFFFFFFFFFFFFFFFFFFFFFF AND PUSH20 0xFFFFFFFFFFFFFFFFFFFFFFFFFFFFFFFFFFFFFFFF AND DUP2 MSTORE PUSH1 0x20 ADD SWAP1 DUP2 MSTORE PUSH1 0x20 ADD PUSH1 0x0 KECCAK256 PUSH1 0x3 ADD PUSH1 0x0 SWAP1 SLOAD SWAP1 PUSH2 0x100 EXP SWAP1 DIV PUSH1 0xFF AND PUSH1 0x4 DUP2 GT ISZERO PUSH2 0x2B59 JUMPI PUSH2 0x2B58 PUSH2 0x4201 JUMP JUMPDEST JUMPDEST EQ JUMPDEST PUSH2 0x2B9A JUMPI PUSH1 0x40 MLOAD PUSH32 0x8C379A000000000000000000000000000000000000000000000000000000000 DUP2 MSTORE PUSH1 0x4 ADD PUSH2 0x2B91 SWAP1 PUSH2 0x5354 JUMP JUMPDEST PUSH1 0x40 MLOAD DUP1 SWAP2 SUB SWAP1 REVERT JUMPDEST PUSH1 0x0 CALLVALUE GT PUSH2 0x2BDD JUMPI PUSH1 0x40 MLOAD PUSH32 0x8C379A000000000000000000000000000000000000000000000000000000000 DUP2 MSTORE PUSH1 0x4 ADD PUSH2 0x2BD4 SWAP1 PUSH2 0x53E6 JUMP JUMPDEST PUSH1 0x40 MLOAD DUP1 SWAP2 SUB SWAP1 REVERT JUMPDEST PUSH1 0x0 DUP1 PUSH1 0x0 CALLER PUSH20 0xFFFFFFFFFFFFFFFFFFFFFFFFFFFFFFFFFFFFFFFF AND PUSH20 0xFFFFFFFFFFFFFFFFFFFFFFFFFFFFFFFFFFFFFFFF AND DUP2 MSTORE PUSH1 0x20 ADD SWAP1 DUP2 MSTORE PUSH1 0x20 ADD PUSH1 0x0 KECCAK256 SWAP1 POP CALLVALUE DUP2 PUSH1 0x0 ADD DUP2 SWAP1 SSTORE POP PUSH1 0x0 PUSH8 0xFFFFFFFFFFFFFFFF DUP2 GT ISZERO PUSH2 0x2C43 JUMPI PUSH2 0x2C42 PUSH2 0x500D JUMP JUMPDEST JUMPDEST PUSH1 0x40 MLOAD SWAP1 DUP1 DUP3 MSTORE DUP1 PUSH1 0x20 MUL PUSH1 0x20 ADD DUP3 ADD PUSH1 0x40 MSTORE DUP1 ISZERO PUSH2 0x2C71 JUMPI DUP2 PUSH1 0x20 ADD PUSH1 0x20 DUP3 MUL DUP1 CALLDATASIZE DUP4 CALLDATACOPY DUP1 DUP3 ADD SWAP2 POP POP SWAP1 POP JUMPDEST POP DUP2 PUSH1 0x1 ADD SWAP1 DUP1 MLOAD SWAP1 PUSH1 0x20 ADD SWAP1 PUSH2 0x2C89 SWAP3 SWAP2 SWAP1 PUSH2 0x3F0E JUMP JUMPDEST POP PUSH1 0x0 PUSH8 0xFFFFFFFFFFFFFFFF DUP2 GT ISZERO PUSH2 0x2CA5 JUMPI PUSH2 0x2CA4 PUSH2 0x500D JUMP JUMPDEST JUMPDEST PUSH1 0x40 MLOAD SWAP1 DUP1 DUP3 MSTORE DUP1 PUSH1 0x20 MUL PUSH1 0x20 ADD DUP3 ADD PUSH1 0x40 MSTORE DUP1 ISZERO PUSH2 0x2CD3 JUMPI DUP2 PUSH1 0x20 ADD PUSH1 0x20 DUP3 MUL DUP1 CALLDATASIZE DUP4 CALLDATACOPY DUP1 DUP3 ADD SWAP2 POP POP SWAP1 POP JUMPDEST POP DUP2 PUSH1 0x2 ADD SWAP1 DUP1 MLOAD SWAP1 PUSH1 0x20 ADD SWAP1 PUSH2 0x2CEB SWAP3 SWAP2 SWAP1 PUSH2 0x3F0E JUMP JUMPDEST POP PUSH1 0x1 DUP2 PUSH1 0x3 ADD PUSH1 0x0 PUSH2 0x100 EXP DUP2 SLOAD DUP2 PUSH1 0xFF MUL NOT AND SWAP1 DUP4 PUSH1 0x4 DUP2 GT ISZERO PUSH2 0x2D14 JUMPI PUSH2 0x2D13 PUSH2 0x4201 JUMP JUMPDEST JUMPDEST MUL OR SWAP1 SSTORE POP PUSH1 0x0 DUP2 PUSH1 0x5 ADD PUSH1 0x0 PUSH2 0x100 EXP DUP2 SLOAD DUP2 PUSH1 0xFF MUL NOT AND SWAP1 DUP4 ISZERO ISZERO MUL OR SWAP1 SSTORE POP NUMBER DUP2 PUSH1 0x4 ADD DUP2 SWAP1 SSTORE POP PUSH1 0x0 DUP2 PUSH1 0x6 ADD DUP2 SWAP1 SSTORE POP PUSH1 0x0 PUSH8 0xFFFFFFFFFFFFFFFF DUP2 GT ISZERO PUSH2 0x2D64 JUMPI PUSH2 0x2D63 PUSH2 0x500D JUMP JUMPDEST JUMPDEST PUSH1 0x40 MLOAD SWAP1 DUP1 DUP3 MSTORE DUP1 PUSH1 0x20 MUL PUSH1 0x20 ADD DUP3 ADD PUSH1 0x40 MSTORE DUP1 ISZERO PUSH2 0x2D92 JUMPI DUP2 PUSH1 0x20 ADD PUSH1 0x20 DUP3 MUL DUP1 CALLDATASIZE DUP4 CALLDATACOPY DUP1 DUP3 ADD SWAP2 POP POP SWAP1 POP JUMPDEST POP DUP2 PUSH1 0x7 ADD SWAP1 DUP1 MLOAD SWAP1 PUSH1 0x20 ADD SWAP1 PUSH2 0x2DAA SWAP3 SWAP2 SWAP1 PUSH2 0x3F0E JUMP JUMPDEST POP PUSH1 0x0 DUP2 PUSH1 0x8 ADD PUSH1 0x0 PUSH2 0x100 EXP DUP2 SLOAD DUP2 PUSH1 0xFF MUL NOT AND SWAP1 DUP4 ISZERO ISZERO MUL OR SWAP1 SSTORE POP PUSH1 0x0 DUP2 PUSH1 0x8 ADD PUSH1 0x1 PUSH2 0x100 EXP DUP2 SLOAD DUP2 PUSH1 0xFF MUL NOT AND SWAP1 DUP4 ISZERO ISZERO MUL OR SWAP1 SSTORE POP PUSH1 0x0 DUP2 PUSH1 0x8 ADD PUSH1 0x2 PUSH2 0x100 EXP DUP2 SLOAD DUP2 PUSH1 0xFF MUL NOT AND SWAP1 DUP4 ISZERO ISZERO MUL OR SWAP1 SSTORE POP PUSH1 0x0 DUP2 PUSH1 0x8 ADD PUSH1 0x3 PUSH2 0x100 EXP DUP2 SLOAD DUP2 PUSH1 0xFF MUL NOT AND SWAP1 DUP4 ISZERO ISZERO MUL OR SWAP1 SSTORE POP PUSH1 0x0 DUP2 PUSH1 0x9 ADD DUP2 SWAP1 SSTORE POP PUSH1 0x0 DUP2 PUSH1 0xA ADD PUSH1 0x0 PUSH2 0x100 EXP DUP2 SLOAD DUP2 PUSH1 0xFF MUL NOT AND SWAP1 DUP4 ISZERO ISZERO MUL OR SWAP1 SSTORE POP PUSH1 0x0 DUP2 PUSH1 0xA ADD PUSH1 0x1 PUSH2 0x100 EXP DUP2 SLOAD DUP2 PUSH1 0xFF MUL NOT AND SWAP1 DUP4 ISZERO ISZERO MUL OR SWAP1 SSTORE POP CALLER PUSH20 0xFFFFFFFFFFFFFFFFFFFFFFFFFFFFFFFFFFFFFFFF AND PUSH32 0xEA32A03505FD9F04D664676D72295A86C5FB0465E69654751907CA305BC1D1C7 CALLVALUE PUSH1 0x40 MLOAD PUSH2 0x2EA9 SWAP2 SWAP1 PUSH2 0x43B9 JUMP JUMPDEST PUSH1 0x40 MLOAD DUP1 SWAP2 SUB SWAP1 LOG2 POP JUMP JUMPDEST PUSH1 0x0 DUP1 PUSH1 0x0 SWAP1 POP PUSH1 0x0 DUP1 JUMPDEST DUP5 MLOAD DUP2 LT ISZERO PUSH2 0x2F4E JUMPI PUSH1 0x1 DUP6 DUP3 DUP2 MLOAD DUP2 LT PUSH2 0x2EDD JUMPI PUSH2 0x2EDC PUSH2 0x513A JUMP JUMPDEST JUMPDEST PUSH1 0x20 MUL PUSH1 0x20 ADD ADD MLOAD PUSH1 0xFF AND SUB PUSH2 0x2F0F JUMPI DUP2 DUP1 PUSH2 0x2EF8 SWAP1 PUSH2 0x5406 JUMP JUMPDEST SWAP3 POP POP PUSH1 0xB DUP4 PUSH2 0x2F08 SWAP2 SWAP1 PUSH2 0x4B7B JUMP JUMPDEST SWAP3 POP PUSH2 0x2F3B JUMP JUMPDEST DUP5 DUP2 DUP2 MLOAD DUP2 LT PUSH2 0x2F22 JUMPI PUSH2 0x2F21 PUSH2 0x513A JUMP JUMPDEST JUMPDEST PUSH1 0x20 MUL PUSH1 0x20 ADD ADD MLOAD PUSH1 0xFF AND DUP4 PUSH2 0x2F38 SWAP2 SWAP1 PUSH2 0x4B7B JUMP JUMPDEST SWAP3 POP JUMPDEST DUP1 DUP1 PUSH2 0x2F46 SWAP1 PUSH2 0x5406 JUMP JUMPDEST SWAP2 POP POP PUSH2 0x2EBF JUMP JUMPDEST POP JUMPDEST PUSH1 0x15 DUP3 GT DUP1 ISZERO PUSH2 0x2F60 JUMPI POP PUSH1 0x0 DUP2 GT JUMPDEST ISZERO PUSH2 0x2F87 JUMPI PUSH1 0xA DUP3 PUSH2 0x2F72 SWAP2 SWAP1 PUSH2 0x544E JUMP JUMPDEST SWAP2 POP DUP1 DUP1 PUSH2 0x2F7F SWAP1 PUSH2 0x5482 JUMP JUMPDEST SWAP2 POP POP PUSH2 0x2F50 JUMP JUMPDEST DUP2 SWAP3 POP POP POP SWAP2 SWAP1 POP JUMP JUMPDEST PUSH1 0x0 DUP1 PUSH1 0x0 DUP4 PUSH20 0xFFFFFFFFFFFFFFFFFFFFFFFFFFFFFFFFFFFFFFFF AND PUSH20 0xFFFFFFFFFFFFFFFFFFFFFFFFFFFFFFFFFFFFFFFF AND DUP2 MSTORE PUSH1 0x20 ADD SWAP1 DUP2 MSTORE PUSH1 0x20 ADD PUSH1 0x0 KECCAK256 SWAP1 POP PUSH1 0x0 PUSH2 0x3056 DUP3 PUSH1 0x2 ADD DUP1 SLOAD DUP1 PUSH1 0x20 MUL PUSH1 0x20 ADD PUSH1 0x40 MLOAD SWAP1 DUP2 ADD PUSH1 0x40 MSTORE DUP1 SWAP3 SWAP2 SWAP1 DUP2 DUP2 MSTORE PUSH1 0x20 ADD DUP3 DUP1 SLOAD DUP1 ISZERO PUSH2 0x304C JUMPI PUSH1 0x20 MUL DUP3 ADD SWAP2 SWAP1 PUSH1 0x0 MSTORE PUSH1 0x20 PUSH1 0x0 KECCAK256 SWAP1 PUSH1 0x0 SWAP1 JUMPDEST DUP3 DUP3 SWAP1 SLOAD SWAP1 PUSH2 0x100 EXP SWAP1 DIV PUSH1 0xFF AND PUSH1 0xFF AND DUP2 MSTORE PUSH1 0x20 ADD SWAP1 PUSH1 0x1 ADD SWAP1 PUSH1 0x20 DUP3 PUSH1 0x0 ADD DIV SWAP3 DUP4 ADD SWAP3 PUSH1 0x1 SUB DUP3 MUL SWAP2 POP DUP1 DUP5 GT PUSH2 0x3015 JUMPI SWAP1 POP JUMPDEST POP POP POP POP POP PUSH2 0x2EB4 JUMP JUMPDEST SWAP1 POP PUSH1 0x1 DUP3 PUSH1 0x2 ADD DUP1 SLOAD SWAP1 POP SUB PUSH2 0x30F8 JUMPI PUSH2 0x3073 CALLER PUSH1 0x0 DUP1 PUSH2 0x3306 JUMP JUMPDEST POP PUSH2 0x30F5 DUP3 PUSH1 0x2 ADD DUP1 SLOAD DUP1 PUSH1 0x20 MUL PUSH1 0x20 ADD PUSH1 0x40 MLOAD SWAP1 DUP2 ADD PUSH1 0x40 MSTORE DUP1 SWAP3 SWAP2 SWAP1 DUP2 DUP2 MSTORE PUSH1 0x20 ADD DUP3 DUP1 SLOAD DUP1 ISZERO PUSH2 0x30EB JUMPI PUSH1 0x20 MUL DUP3 ADD SWAP2 SWAP1 PUSH1 0x0 MSTORE PUSH1 0x20 PUSH1 0x0 KECCAK256 SWAP1 PUSH1 0x0 SWAP1 JUMPDEST DUP3 DUP3 SWAP1 SLOAD SWAP1 PUSH2 0x100 EXP SWAP1 DIV PUSH1 0xFF AND PUSH1 0xFF AND DUP2 MSTORE PUSH1 0x20 ADD SWAP1 PUSH1 0x1 ADD SWAP1 PUSH1 0x20 DUP3 PUSH1 0x0 ADD DIV SWAP3 DUP4 ADD SWAP3 PUSH1 0x1 SUB DUP3 MUL SWAP2 POP DUP1 DUP5 GT PUSH2 0x30B4 JUMPI SWAP1 POP JUMPDEST POP POP POP POP POP PUSH2 0x2EB4 JUMP JUMPDEST SWAP1 POP JUMPDEST DUP2 PUSH1 0xA ADD PUSH1 0x0 SWAP1 SLOAD SWAP1 PUSH2 0x100 EXP SWAP1 DIV PUSH1 0xFF AND ISZERO PUSH2 0x31EF JUMPI PUSH1 0x15 DUP2 EQ DUP1 ISZERO PUSH2 0x3126 JUMPI POP PUSH1 0x2 DUP3 PUSH1 0x2 ADD DUP1 SLOAD SWAP1 POP EQ JUMPDEST ISZERO PUSH2 0x31ED JUMPI PUSH1 0x0 CALLER PUSH20 0xFFFFFFFFFFFFFFFFFFFFFFFFFFFFFFFFFFFFFFFF AND PUSH1 0x3 DUP5 PUSH1 0x9 ADD SLOAD PUSH2 0x3155 SWAP2 SWAP1 PUSH2 0x54AB JUMP JUMPDEST PUSH1 0x40 MLOAD PUSH2 0x3161 SWAP1 PUSH2 0x551E JUMP JUMPDEST PUSH1 0x0 PUSH1 0x40 MLOAD DUP1 DUP4 SUB DUP2 DUP6 DUP8 GAS CALL SWAP3 POP POP POP RETURNDATASIZE DUP1 PUSH1 0x0 DUP2 EQ PUSH2 0x319E JUMPI PUSH1 0x40 MLOAD SWAP2 POP PUSH1 0x1F NOT PUSH1 0x3F RETURNDATASIZE ADD AND DUP3 ADD PUSH1 0x40 MSTORE RETURNDATASIZE DUP3 MSTORE RETURNDATASIZE PUSH1 0x0 PUSH1 0x20 DUP5 ADD RETURNDATACOPY PUSH2 0x31A3 JUMP JUMPDEST PUSH1 0x60 SWAP2 POP JUMPDEST POP POP SWAP1 POP DUP1 PUSH2 0x31E7 JUMPI PUSH1 0x40 MLOAD PUSH32 0x8C379A000000000000000000000000000000000000000000000000000000000 DUP2 MSTORE PUSH1 0x4 ADD PUSH2 0x31DE SWAP1 PUSH2 0x55A5 JUMP JUMPDEST PUSH1 0x40 MLOAD DUP1 SWAP2 SUB SWAP1 REVERT JUMPDEST POP PUSH2 0x31EE JUMP JUMPDEST JUMPDEST JUMPDEST JUMPDEST PUSH1 0x11 DUP2 LT ISZERO PUSH2 0x328E JUMPI PUSH2 0x3205 CALLER PUSH1 0x0 DUP1 PUSH2 0x3306 JUMP JUMPDEST POP PUSH2 0x3287 DUP3 PUSH1 0x2 ADD DUP1 SLOAD DUP1 PUSH1 0x20 MUL PUSH1 0x20 ADD PUSH1 0x40 MLOAD SWAP1 DUP2 ADD PUSH1 0x40 MSTORE DUP1 SWAP3 SWAP2 SWAP1 DUP2 DUP2 MSTORE PUSH1 0x20 ADD DUP3 DUP1 SLOAD DUP1 ISZERO PUSH2 0x327D JUMPI PUSH1 0x20 MUL DUP3 ADD SWAP2 SWAP1 PUSH1 0x0 MSTORE PUSH1 0x20 PUSH1 0x0 KECCAK256 SWAP1 PUSH1 0x0 SWAP1 JUMPDEST DUP3 DUP3 SWAP1 SLOAD SWAP1 PUSH2 0x100 EXP SWAP1 DIV PUSH1 0xFF AND PUSH1 0xFF AND DUP2 MSTORE PUSH1 0x20 ADD SWAP1 PUSH1 0x1 ADD SWAP1 PUSH1 0x20 DUP3 PUSH1 0x0 ADD DIV SWAP3 DUP4 ADD SWAP3 PUSH1 0x1 SUB DUP3 MUL SWAP2 POP DUP1 DUP5 GT PUSH2 0x3246 JUMPI SWAP1 POP JUMPDEST POP POP POP POP POP PUSH2 0x2EB4 JUMP JUMPDEST SWAP1 POP PUSH2 0x31F0 JUMP JUMPDEST PUSH1 0x15 DUP2 GT ISZERO PUSH2 0x32F5 JUMPI DUP3 PUSH20 0xFFFFFFFFFFFFFFFFFFFFFFFFFFFFFFFFFFFFFFFF AND PUSH32 0x4BBD2278C3B9557E7DDF4E738C92E4BDA30D174ADAF84ECDDBFC99412BF8BA19 DUP3 PUSH1 0x40 MLOAD PUSH2 0x32DD SWAP2 SWAP1 PUSH2 0x43B9 JUMP JUMPDEST PUSH1 0x40 MLOAD DUP1 SWAP2 SUB SWAP1 LOG2 PUSH2 0x32F0 DUP4 PUSH1 0x1 PUSH2 0x38F4 JUMP JUMPDEST PUSH2 0x3301 JUMP JUMPDEST PUSH2 0x3300 DUP4 PUSH1 0x0 PUSH2 0x38F4 JUMP JUMPDEST JUMPDEST POP POP POP JUMP JUMPDEST PUSH1 0x0 DUP1 PUSH1 0x0 DUP1 DUP7 PUSH20 0xFFFFFFFFFFFFFFFFFFFFFFFFFFFFFFFFFFFFFFFF AND PUSH20 0xFFFFFFFFFFFFFFFFFFFFFFFFFFFFFFFFFFFFFFFF AND DUP2 MSTORE PUSH1 0x20 ADD SWAP1 DUP2 MSTORE PUSH1 0x20 ADD PUSH1 0x0 KECCAK256 SWAP1 POP PUSH1 0x0 TIMESTAMP PREVRANDAO CALLER DUP5 PUSH1 0x4 ADD SLOAD PUSH1 0x40 MLOAD PUSH1 0x20 ADD PUSH2 0x3366 SWAP5 SWAP4 SWAP3 SWAP2 SWAP1 PUSH2 0x562E JUMP JUMPDEST PUSH1 0x40 MLOAD PUSH1 0x20 DUP2 DUP4 SUB SUB DUP2 MSTORE SWAP1 PUSH1 0x40 MSTORE DUP1 MLOAD SWAP1 PUSH1 0x20 ADD KECCAK256 PUSH1 0x0 SHR SWAP1 POP NUMBER DUP3 PUSH1 0x4 ADD DUP2 SWAP1 SSTORE POP PUSH1 0x0 PUSH1 0x1 PUSH1 0xD DUP4 PUSH2 0x339B SWAP2 SWAP1 PUSH2 0x567C JUMP JUMPDEST PUSH2 0x33A5 SWAP2 SWAP1 PUSH2 0x4B7B JUMP JUMPDEST SWAP1 POP PUSH1 0xA DUP2 PUSH1 0xFF AND GT ISZERO PUSH2 0x33B8 JUMPI PUSH1 0xA SWAP1 POP JUMPDEST DUP6 ISZERO PUSH2 0x3653 JUMPI PUSH1 0x1 DUP6 PUSH1 0xFF AND SUB PUSH2 0x34E8 JUMPI DUP3 PUSH1 0x1 ADD DUP2 SWAP1 DUP1 PUSH1 0x1 DUP2 SLOAD ADD DUP1 DUP3 SSTORE DUP1 SWAP2 POP POP PUSH1 0x1 SWAP1 SUB SWAP1 PUSH1 0x0 MSTORE PUSH1 0x20 PUSH1 0x0 KECCAK256 SWAP1 PUSH1 0x20 SWAP2 DUP3 DUP3 DIV ADD SWAP2 SWAP1 MOD SWAP1 SWAP2 SWAP1 SWAP2 SWAP1 SWAP2 PUSH2 0x100 EXP DUP2 SLOAD DUP2 PUSH1 0xFF MUL NOT AND SWAP1 DUP4 PUSH1 0xFF AND MUL OR SWAP1 SSTORE POP DUP7 PUSH20 0xFFFFFFFFFFFFFFFFFFFFFFFFFFFFFFFFFFFFFFFF AND PUSH32 0x7D87DD80630649D4AA92025481D68BB751A5B1F79E61F1088A799AF0C76FB4B4 DUP3 PUSH2 0x34CA DUP7 PUSH1 0x1 ADD DUP1 SLOAD DUP1 PUSH1 0x20 MUL PUSH1 0x20 ADD PUSH1 0x40 MLOAD SWAP1 DUP2 ADD PUSH1 0x40 MSTORE DUP1 SWAP3 SWAP2 SWAP1 DUP2 DUP2 MSTORE PUSH1 0x20 ADD DUP3 DUP1 SLOAD DUP1 ISZERO PUSH2 0x34C0 JUMPI PUSH1 0x20 MUL DUP3 ADD SWAP2 SWAP1 PUSH1 0x0 MSTORE PUSH1 0x20 PUSH1 0x0 KECCAK256 SWAP1 PUSH1 0x0 SWAP1 JUMPDEST DUP3 DUP3 SWAP1 SLOAD SWAP1 PUSH2 0x100 EXP SWAP1 DIV PUSH1 0xFF AND PUSH1 0xFF AND DUP2 MSTORE PUSH1 0x20 ADD SWAP1 PUSH1 0x1 ADD SWAP1 PUSH1 0x20 DUP3 PUSH1 0x0 ADD DIV SWAP3 DUP4 ADD SWAP3 PUSH1 0x1 SUB DUP3 MUL SWAP2 POP DUP1 DUP5 GT PUSH2 0x3489 JUMPI SWAP1 POP JUMPDEST POP POP POP POP POP PUSH2 0x2EB4 JUMP JUMPDEST PUSH1 0x1 PUSH1 0x40 MLOAD PUSH2 0x34DB SWAP4 SWAP3 SWAP2 SWAP1 PUSH2 0x56AD JUMP JUMPDEST PUSH1 0x40 MLOAD DUP1 SWAP2 SUB SWAP1 LOG2 PUSH2 0x364E JUMP JUMPDEST PUSH1 0x2 DUP6 PUSH1 0xFF AND SUB PUSH2 0x3612 JUMPI DUP3 PUSH1 0x7 ADD DUP2 SWAP1 DUP1 PUSH1 0x1 DUP2 SLOAD ADD DUP1 DUP3 SSTORE DUP1 SWAP2 POP POP PUSH1 0x1 SWAP1 SUB SWAP1 PUSH1 0x0 MSTORE PUSH1 0x20 PUSH1 0x0 KECCAK256 SWAP1 PUSH1 0x20 SWAP2 DUP3 DUP3 DIV ADD SWAP2 SWAP1 MOD SWAP1 SWAP2 SWAP1 SWAP2 SWAP1 SWAP2 PUSH2 0x100 EXP DUP2 SLOAD DUP2 PUSH1 0xFF MUL NOT AND SWAP1 DUP4 PUSH1 0xFF AND MUL OR SWAP1 SSTORE POP DUP7 PUSH20 0xFFFFFFFFFFFFFFFFFFFFFFFFFFFFFFFFFFFFFFFF AND PUSH32 0x7D87DD80630649D4AA92025481D68BB751A5B1F79E61F1088A799AF0C76FB4B4 DUP3 PUSH2 0x35F4 DUP7 PUSH1 0x7 ADD DUP1 SLOAD DUP1 PUSH1 0x20 MUL PUSH1 0x20 ADD PUSH1 0x40 MLOAD SWAP1 DUP2 ADD PUSH1 0x40 MSTORE DUP1 SWAP3 SWAP2 SWAP1 DUP2 DUP2 MSTORE PUSH1 0x20 ADD DUP3 DUP1 SLOAD DUP1 ISZERO PUSH2 0x35EA JUMPI PUSH1 0x20 MUL DUP3 ADD SWAP2 SWAP1 PUSH1 0x0 MSTORE PUSH1 0x20 PUSH1 0x0 KECCAK256 SWAP1 PUSH1 0x0 SWAP1 JUMPDEST DUP3 DUP3 SWAP1 SLOAD SWAP1 PUSH2 0x100 EXP SWAP1 DIV PUSH1 0xFF AND PUSH1 0xFF AND DUP2 MSTORE PUSH1 0x20 ADD SWAP1 PUSH1 0x1 ADD SWAP1 PUSH1 0x20 DUP3 PUSH1 0x0 ADD DIV SWAP3 DUP4 ADD SWAP3 PUSH1 0x1 SUB DUP3 MUL SWAP2 POP DUP1 DUP5 GT PUSH2 0x35B3 JUMPI SWAP1 POP JUMPDEST POP POP POP POP POP PUSH2 0x2EB4 JUMP JUMPDEST PUSH1 0x2 PUSH1 0x40 MLOAD PUSH2 0x3605 SWAP4 SWAP3 SWAP2 SWAP1 PUSH2 0x56E4 JUMP JUMPDEST PUSH1 0x40 MLOAD DUP1 SWAP2 SUB SWAP1 LOG2 PUSH2 0x364D JUMP JUMPDEST PUSH1 0x40 MLOAD PUSH32 0x8C379A000000000000000000000000000000000000000000000000000000000 DUP2 MSTORE PUSH1 0x4 ADD PUSH2 0x3644 SWAP1 PUSH2 0x578D JUMP JUMPDEST PUSH1 0x40 MLOAD DUP1 SWAP2 SUB SWAP1 REVERT JUMPDEST JUMPDEST PUSH2 0x376B JUMP JUMPDEST DUP3 PUSH1 0x2 ADD DUP2 SWAP1 DUP1 PUSH1 0x1 DUP2 SLOAD ADD DUP1 DUP3 SSTORE DUP1 SWAP2 POP POP PUSH1 0x1 SWAP1 SUB SWAP1 PUSH1 0x0 MSTORE PUSH1 0x20 PUSH1 0x0 KECCAK256 SWAP1 PUSH1 0x20 SWAP2 DUP3 DUP3 DIV ADD SWAP2 SWAP1 MOD SWAP1 SWAP2 SWAP1 SWAP2 SWAP1 SWAP2 PUSH2 0x100 EXP DUP2 SLOAD DUP2 PUSH1 0xFF MUL NOT AND SWAP1 DUP4 PUSH1 0xFF AND MUL OR SWAP1 SSTORE POP DUP7 PUSH20 0xFFFFFFFFFFFFFFFFFFFFFFFFFFFFFFFFFFFFFFFF AND PUSH32 0xC534EE2EEDB919439A8CC001F81C772938E9DE503140E68A0A1AB20FEE8ED137 DUP3 PUSH2 0x3754 DUP7 PUSH1 0x2 ADD DUP1 SLOAD DUP1 PUSH1 0x20 MUL PUSH1 0x20 ADD PUSH1 0x40 MLOAD SWAP1 DUP2 ADD PUSH1 0x40 MSTORE DUP1 SWAP3 SWAP2 SWAP1 DUP2 DUP2 MSTORE PUSH1 0x20 ADD DUP3 DUP1 SLOAD DUP1 ISZERO PUSH2 0x374A JUMPI PUSH1 0x20 MUL DUP3 ADD SWAP2 SWAP1 PUSH1 0x0 MSTORE PUSH1 0x20 PUSH1 0x0 KECCAK256 SWAP1 PUSH1 0x0 SWAP1 JUMPDEST DUP3 DUP3 SWAP1 SLOAD SWAP1 PUSH2 0x100 EXP SWAP1 DIV PUSH1 0xFF AND PUSH1 0xFF AND DUP2 MSTORE PUSH1 0x20 ADD SWAP1 PUSH1 0x1 ADD SWAP1 PUSH1 0x20 DUP3 PUSH1 0x0 ADD DIV SWAP3 DUP4 ADD SWAP3 PUSH1 0x1 SUB DUP3 MUL SWAP2 POP DUP1 DUP5 GT PUSH2 0x3713 JUMPI SWAP1 POP JUMPDEST POP POP POP POP POP PUSH2 0x2EB4 JUMP JUMPDEST PUSH1 0x40 MLOAD PUSH2 0x3762 SWAP3 SWAP2 SWAP1 PUSH2 0x57AD JUMP JUMPDEST PUSH1 0x40 MLOAD DUP1 SWAP2 SUB SWAP1 LOG2 JUMPDEST DUP1 SWAP4 POP POP POP POP SWAP4 SWAP3 POP POP POP JUMP JUMPDEST PUSH1 0x0 DUP1 PUSH1 0x0 DUP6 PUSH20 0xFFFFFFFFFFFFFFFFFFFFFFFFFFFFFFFFFFFFFFFF AND PUSH20 0xFFFFFFFFFFFFFFFFFFFFFFFFFFFFFFFFFFFFFFFF AND DUP2 MSTORE PUSH1 0x20 ADD SWAP1 DUP2 MSTORE PUSH1 0x20 ADD PUSH1 0x0 KECCAK256 SWAP1 POP PUSH1 0x4 DUP2 PUSH1 0x3 ADD PUSH1 0x0 PUSH2 0x100 EXP DUP2 SLOAD DUP2 PUSH1 0xFF MUL NOT AND SWAP1 DUP4 PUSH1 0x4 DUP2 GT ISZERO PUSH2 0x37E2 JUMPI PUSH2 0x37E1 PUSH2 0x4201 JUMP JUMPDEST JUMPDEST MUL OR SWAP1 SSTORE POP PUSH1 0x0 DUP3 GT ISZERO PUSH2 0x389E JUMPI PUSH1 0x0 CALLER PUSH20 0xFFFFFFFFFFFFFFFFFFFFFFFFFFFFFFFFFFFFFFFF AND DUP4 PUSH1 0x40 MLOAD PUSH2 0x3816 SWAP1 PUSH2 0x551E JUMP JUMPDEST PUSH1 0x0 PUSH1 0x40 MLOAD DUP1 DUP4 SUB DUP2 DUP6 DUP8 GAS CALL SWAP3 POP POP POP RETURNDATASIZE DUP1 PUSH1 0x0 DUP2 EQ PUSH2 0x3853 JUMPI PUSH1 0x40 MLOAD SWAP2 POP PUSH1 0x1F NOT PUSH1 0x3F RETURNDATASIZE ADD AND DUP3 ADD PUSH1 0x40 MSTORE RETURNDATASIZE DUP3 MSTORE RETURNDATASIZE PUSH1 0x0 PUSH1 0x20 DUP5 ADD RETURNDATACOPY PUSH2 0x3858 JUMP JUMPDEST PUSH1 0x60 SWAP2 POP JUMPDEST POP POP SWAP1 POP DUP1 PUSH2 0x389C JUMPI PUSH1 0x40 MLOAD PUSH32 0x8C379A000000000000000000000000000000000000000000000000000000000 DUP2 MSTORE PUSH1 0x4 ADD PUSH2 0x3893 SWAP1 PUSH2 0x5822 JUMP JUMPDEST PUSH1 0x40 MLOAD DUP1 SWAP2 SUB SWAP1 REVERT JUMPDEST POP JUMPDEST DUP4 PUSH20 0xFFFFFFFFFFFFFFFFFFFFFFFFFFFFFFFFFFFFFFFF AND PUSH32 0x79E3A2F58098F8DE6628C96C4444E59E851C17FD85C2139CB27CA031F7246D7A DUP5 DUP5 PUSH1 0x40 MLOAD PUSH2 0x38E6 SWAP3 SWAP2 SWAP1 PUSH2 0x58C1 JUMP JUMPDEST PUSH1 0x40 MLOAD DUP1 SWAP2 SUB SWAP1 LOG2 POP POP POP POP JUMP JUMPDEST PUSH1 0x0 DUP1 PUSH1 0x0 DUP5 PUSH20 0xFFFFFFFFFFFFFFFFFFFFFFFFFFFFFFFFFFFFFFFF AND PUSH20 0xFFFFFFFFFFFFFFFFFFFFFFFFFFFFFFFFFFFFFFFF AND DUP2 MSTORE PUSH1 0x20 ADD SWAP1 DUP2 MSTORE PUSH1 0x20 ADD PUSH1 0x0 KECCAK256 SWAP1 POP PUSH1 0x0 PUSH2 0x39B9 DUP3 PUSH1 0x2 ADD DUP1 SLOAD DUP1 PUSH1 0x20 MUL PUSH1 0x20 ADD PUSH1 0x40 MLOAD SWAP1 DUP2 ADD PUSH1 0x40 MSTORE DUP1 SWAP3 SWAP2 SWAP1 DUP2 DUP2 MSTORE PUSH1 0x20 ADD DUP3 DUP1 SLOAD DUP1 ISZERO PUSH2 0x39AF JUMPI PUSH1 0x20 MUL DUP3 ADD SWAP2 SWAP1 PUSH1 0x0 MSTORE PUSH1 0x20 PUSH1 0x0 KECCAK256 SWAP1 PUSH1 0x0 SWAP1 JUMPDEST DUP3 DUP3 SWAP1 SLOAD SWAP1 PUSH2 0x100 EXP SWAP1 DIV PUSH1 0xFF AND PUSH1 0xFF AND DUP2 MSTORE PUSH1 0x20 ADD SWAP1 PUSH1 0x1 ADD SWAP1 PUSH1 0x20 DUP3 PUSH1 0x0 ADD DIV SWAP3 DUP4 ADD SWAP3 PUSH1 0x1 SUB DUP3 MUL SWAP2 POP DUP1 DUP5 GT PUSH2 0x3978 JUMPI SWAP1 POP JUMPDEST POP POP POP POP POP PUSH2 0x2EB4 JUMP JUMPDEST SWAP1 POP PUSH2 0x3A46 DUP5 DUP4 PUSH1 0x1 ADD DUP1 SLOAD DUP1 PUSH1 0x20 MUL PUSH1 0x20 ADD PUSH1 0x40 MLOAD SWAP1 DUP2 ADD PUSH1 0x40 MSTORE DUP1 SWAP3 SWAP2 SWAP1 DUP2 DUP2 MSTORE PUSH1 0x20 ADD DUP3 DUP1 SLOAD DUP1 ISZERO PUSH2 0x3A33 JUMPI PUSH1 0x20 MUL DUP3 ADD SWAP2 SWAP1 PUSH1 0x0 MSTORE PUSH1 0x20 PUSH1 0x0 KECCAK256 SWAP1 PUSH1 0x0 SWAP1 JUMPDEST DUP3 DUP3 SWAP1 SLOAD SWAP1 PUSH2 0x100 EXP SWAP1 DIV PUSH1 0xFF AND PUSH1 0xFF AND DUP2 MSTORE PUSH1 0x20 ADD SWAP1 PUSH1 0x1 ADD SWAP1 PUSH1 0x20 DUP3 PUSH1 0x0 ADD DIV SWAP3 DUP4 ADD SWAP3 PUSH1 0x1 SUB DUP3 MUL SWAP2 POP DUP1 DUP5 GT PUSH2 0x39FC JUMPI SWAP1 POP JUMPDEST POP POP POP POP POP DUP5 PUSH1 0x0 ADD SLOAD PUSH1 0x1 DUP6 DUP9 PUSH2 0x3B1C JUMP JUMPDEST DUP2 PUSH1 0x8 ADD PUSH1 0x0 SWAP1 SLOAD SWAP1 PUSH2 0x100 EXP SWAP1 DIV PUSH1 0xFF AND ISZERO PUSH2 0x3AE9 JUMPI PUSH2 0x3AE8 DUP5 DUP4 PUSH1 0x7 ADD DUP1 SLOAD DUP1 PUSH1 0x20 MUL PUSH1 0x20 ADD PUSH1 0x40 MLOAD SWAP1 DUP2 ADD PUSH1 0x40 MSTORE DUP1 SWAP3 SWAP2 SWAP1 DUP2 DUP2 MSTORE PUSH1 0x20 ADD DUP3 DUP1 SLOAD DUP1 ISZERO PUSH2 0x3AD5 JUMPI PUSH1 0x20 MUL DUP3 ADD SWAP2 SWAP1 PUSH1 0x0 MSTORE PUSH1 0x20 PUSH1 0x0 KECCAK256 SWAP1 PUSH1 0x0 SWAP1 JUMPDEST DUP3 DUP3 SWAP1 SLOAD SWAP1 PUSH2 0x100 EXP SWAP1 DIV PUSH1 0xFF AND PUSH1 0xFF AND DUP2 MSTORE PUSH1 0x20 ADD SWAP1 PUSH1 0x1 ADD SWAP1 PUSH1 0x20 DUP3 PUSH1 0x0 ADD DIV SWAP3 DUP4 ADD SWAP3 PUSH1 0x1 SUB DUP3 MUL SWAP2 POP DUP1 DUP5 GT PUSH2 0x3A9E JUMPI SWAP1 POP JUMPDEST POP POP POP POP POP DUP5 PUSH1 0x6 ADD SLOAD PUSH1 0x2 DUP6 DUP9 PUSH2 0x3B1C JUMP JUMPDEST JUMPDEST PUSH1 0x4 DUP3 PUSH1 0x3 ADD PUSH1 0x0 PUSH2 0x100 EXP DUP2 SLOAD DUP2 PUSH1 0xFF MUL NOT AND SWAP1 DUP4 PUSH1 0x4 DUP2 GT ISZERO PUSH2 0x3B11 JUMPI PUSH2 0x3B10 PUSH2 0x4201 JUMP JUMPDEST JUMPDEST MUL OR SWAP1 SSTORE POP POP POP POP POP JUMP JUMPDEST PUSH1 0x0 PUSH2 0x3B27 DUP7 PUSH2 0x2EB4 JUMP JUMPDEST SWAP1 POP PUSH1 0x60 PUSH1 0x0 PUSH1 0x15 DUP4 GT ISZERO PUSH2 0x3B69 JUMPI PUSH2 0x3B3F DUP7 PUSH2 0x3D9C JUMP JUMPDEST PUSH1 0x40 MLOAD PUSH1 0x20 ADD PUSH2 0x3B4F SWAP2 SWAP1 PUSH2 0x5979 JUMP JUMPDEST PUSH1 0x40 MLOAD PUSH1 0x20 DUP2 DUP4 SUB SUB DUP2 MSTORE SWAP1 PUSH1 0x40 MSTORE SWAP2 POP PUSH1 0x0 SWAP1 POP PUSH2 0x3C5F JUMP JUMPDEST DUP4 ISZERO PUSH2 0x3BAD JUMPI PUSH2 0x3B78 DUP7 PUSH2 0x3D9C JUMP JUMPDEST PUSH1 0x40 MLOAD PUSH1 0x20 ADD PUSH2 0x3B88 SWAP2 SWAP1 PUSH2 0x59D4 JUMP JUMPDEST PUSH1 0x40 MLOAD PUSH1 0x20 DUP2 DUP4 SUB SUB DUP2 MSTORE SWAP1 PUSH1 0x40 MSTORE SWAP2 POP PUSH1 0x2 DUP8 PUSH2 0x3BA6 SWAP2 SWAP1 PUSH2 0x54AB JUMP JUMPDEST SWAP1 POP PUSH2 0x3C5E JUMP JUMPDEST DUP5 DUP4 GT ISZERO PUSH2 0x3BF3 JUMPI PUSH2 0x3BBE DUP7 PUSH2 0x3D9C JUMP JUMPDEST PUSH1 0x40 MLOAD PUSH1 0x20 ADD PUSH2 0x3BCE SWAP2 SWAP1 PUSH2 0x5A2F JUMP JUMPDEST PUSH1 0x40 MLOAD PUSH1 0x20 DUP2 DUP4 SUB SUB DUP2 MSTORE SWAP1 PUSH1 0x40 MSTORE SWAP2 POP PUSH1 0x2 DUP8 PUSH2 0x3BEC SWAP2 SWAP1 PUSH2 0x54AB JUMP JUMPDEST SWAP1 POP PUSH2 0x3C5D JUMP JUMPDEST DUP5 DUP4 LT ISZERO PUSH2 0x3C2E JUMPI PUSH2 0x3C04 DUP7 PUSH2 0x3D9C JUMP JUMPDEST PUSH1 0x40 MLOAD PUSH1 0x20 ADD PUSH2 0x3C14 SWAP2 SWAP1 PUSH2 0x5A8A JUMP JUMPDEST PUSH1 0x40 MLOAD PUSH1 0x20 DUP2 DUP4 SUB SUB DUP2 MSTORE SWAP1 PUSH1 0x40 MSTORE SWAP2 POP PUSH1 0x0 SWAP1 POP PUSH2 0x3C5C JUMP JUMPDEST PUSH2 0x3C37 DUP7 PUSH2 0x3D9C JUMP JUMPDEST PUSH1 0x40 MLOAD PUSH1 0x20 ADD PUSH2 0x3C47 SWAP2 SWAP1 PUSH2 0x5AE5 JUMP JUMPDEST PUSH1 0x40 MLOAD PUSH1 0x20 DUP2 DUP4 SUB SUB DUP2 MSTORE SWAP1 PUSH1 0x40 MSTORE SWAP2 POP DUP7 SWAP1 POP JUMPDEST JUMPDEST JUMPDEST JUMPDEST PUSH1 0x0 DUP2 GT ISZERO PUSH2 0x3D41 JUMPI PUSH1 0x0 DUP10 PUSH20 0xFFFFFFFFFFFFFFFFFFFFFFFFFFFFFFFFFFFFFFFF AND DUP3 PUSH1 0x40 MLOAD PUSH2 0x3C8E SWAP1 PUSH2 0x551E JUMP JUMPDEST PUSH1 0x0 PUSH1 0x40 MLOAD DUP1 DUP4 SUB DUP2 DUP6 DUP8 GAS CALL SWAP3 POP POP POP RETURNDATASIZE DUP1 PUSH1 0x0 DUP2 EQ PUSH2 0x3CCB JUMPI PUSH1 0x40 MLOAD SWAP2 POP PUSH1 0x1F NOT PUSH1 0x3F RETURNDATASIZE ADD AND DUP3 ADD PUSH1 0x40 MSTORE RETURNDATASIZE DUP3 MSTORE RETURNDATASIZE PUSH1 0x0 PUSH1 0x20 DUP5 ADD RETURNDATACOPY PUSH2 0x3CD0 JUMP JUMPDEST PUSH1 0x60 SWAP2 POP JUMPDEST POP POP SWAP1 POP DUP1 PUSH2 0x3CDE DUP9 PUSH2 0x3D9C JUMP JUMPDEST PUSH1 0x40 MLOAD PUSH1 0x20 ADD PUSH2 0x3CEE SWAP2 SWAP1 PUSH2 0x5B40 JUMP JUMPDEST PUSH1 0x40 MLOAD PUSH1 0x20 DUP2 DUP4 SUB SUB DUP2 MSTORE SWAP1 PUSH1 0x40 MSTORE SWAP1 PUSH2 0x3D3E JUMPI PUSH1 0x40 MLOAD PUSH32 0x8C379A000000000000000000000000000000000000000000000000000000000 DUP2 MSTORE PUSH1 0x4 ADD PUSH2 0x3D35 SWAP2 SWAP1 PUSH2 0x5B66 JUMP JUMPDEST PUSH1 0x40 MLOAD DUP1 SWAP2 SUB SWAP1 REVERT JUMPDEST POP POP JUMPDEST DUP9 PUSH20 0xFFFFFFFFFFFFFFFFFFFFFFFFFFFFFFFFFFFFFFFF AND PUSH32 0x79E3A2F58098F8DE6628C96C4444E59E851C17FD85C2139CB27CA031F7246D7A DUP4 DUP4 PUSH1 0x40 MLOAD PUSH2 0x3D89 SWAP3 SWAP2 SWAP1 PUSH2 0x58C1 JUMP JUMPDEST PUSH1 0x40 MLOAD DUP1 SWAP2 SUB SWAP1 LOG2 POP POP POP POP POP POP POP POP POP JUMP JUMPDEST PUSH1 0x60 PUSH1 0x0 DUP3 PUSH1 0xFF AND SUB PUSH2 0x3DE6 JUMPI PUSH1 0x40 MLOAD DUP1 PUSH1 0x40 ADD PUSH1 0x40 MSTORE DUP1 PUSH1 0x1 DUP2 MSTORE PUSH1 0x20 ADD PUSH32 0x3000000000000000000000000000000000000000000000000000000000000000 DUP2 MSTORE POP SWAP1 POP PUSH2 0x3F09 JUMP JUMPDEST PUSH1 0x0 DUP3 PUSH1 0xFF AND SWAP1 POP PUSH1 0x0 DUP1 DUP3 SWAP1 POP JUMPDEST PUSH1 0x0 DUP2 GT ISZERO PUSH2 0x3E20 JUMPI PUSH1 0xA DUP2 PUSH2 0x3E0B SWAP2 SWAP1 PUSH2 0x4E92 JUMP JUMPDEST SWAP1 POP DUP2 DUP1 PUSH2 0x3E18 SWAP1 PUSH2 0x5406 JUMP JUMPDEST SWAP3 POP POP PUSH2 0x3DF5 JUMP JUMPDEST PUSH1 0x0 DUP3 PUSH8 0xFFFFFFFFFFFFFFFF DUP2 GT ISZERO PUSH2 0x3E3C JUMPI PUSH2 0x3E3B PUSH2 0x500D JUMP JUMPDEST JUMPDEST PUSH1 0x40 MLOAD SWAP1 DUP1 DUP3 MSTORE DUP1 PUSH1 0x1F ADD PUSH1 0x1F NOT AND PUSH1 0x20 ADD DUP3 ADD PUSH1 0x40 MSTORE DUP1 ISZERO PUSH2 0x3E6E JUMPI DUP2 PUSH1 0x20 ADD PUSH1 0x1 DUP3 MUL DUP1 CALLDATASIZE DUP4 CALLDATACOPY DUP1 DUP3 ADD SWAP2 POP POP SWAP1 POP JUMPDEST POP SWAP1 POP PUSH1 0x0 DUP4 SWAP1 POP JUMPDEST PUSH1 0x0 DUP6 GT ISZERO PUSH2 0x3F00 JUMPI DUP1 DUP1 PUSH2 0x3E8B SWAP1 PUSH2 0x5482 JUMP JUMPDEST SWAP2 POP POP PUSH1 0xA DUP6 PUSH2 0x3E9B SWAP2 SWAP1 PUSH2 0x567C JUMP JUMPDEST PUSH1 0x30 PUSH2 0x3EA7 SWAP2 SWAP1 PUSH2 0x4B7B JUMP JUMPDEST PUSH1 0xF8 SHL DUP3 DUP3 DUP2 MLOAD DUP2 LT PUSH2 0x3EBD JUMPI PUSH2 0x3EBC PUSH2 0x513A JUMP JUMPDEST JUMPDEST PUSH1 0x20 ADD ADD SWAP1 PUSH31 0xFFFFFFFFFFFFFFFFFFFFFFFFFFFFFFFFFFFFFFFFFFFFFFFFFFFFFFFFFFFFFF NOT AND SWAP1 DUP2 PUSH1 0x0 BYTE SWAP1 MSTORE8 POP PUSH1 0xA DUP6 PUSH2 0x3EF9 SWAP2 SWAP1 PUSH2 0x4E92 JUMP JUMPDEST SWAP5 POP PUSH2 0x3E77 JUMP JUMPDEST DUP2 SWAP6 POP POP POP POP POP POP JUMPDEST SWAP2 SWAP1 POP JUMP JUMPDEST DUP3 DUP1 SLOAD DUP3 DUP3 SSTORE SWAP1 PUSH1 0x0 MSTORE PUSH1 0x20 PUSH1 0x0 KECCAK256 SWAP1 PUSH1 0x1F ADD PUSH1 0x20 SWAP1 DIV DUP2 ADD SWAP3 DUP3 ISZERO PUSH2 0x3FA4 JUMPI SWAP2 PUSH1 0x20 MUL DUP3 ADD PUSH1 0x0 JUMPDEST DUP4 DUP3 GT ISZERO PUSH2 0x3F75 JUMPI DUP4 MLOAD DUP4 DUP3 PUSH2 0x100 EXP DUP2 SLOAD DUP2 PUSH1 0xFF MUL NOT AND SWAP1 DUP4 PUSH1 0xFF AND MUL OR SWAP1 SSTORE POP SWAP3 PUSH1 0x20 ADD SWAP3 PUSH1 0x1 ADD PUSH1 0x20 DUP2 PUSH1 0x0 ADD DIV SWAP3 DUP4 ADD SWAP3 PUSH1 0x1 SUB MUL PUSH2 0x3F37 JUMP JUMPDEST DUP1 ISZERO PUSH2 0x3FA2 JUMPI DUP3 DUP2 PUSH2 0x100 EXP DUP2 SLOAD SWAP1 PUSH1 0xFF MUL NOT AND SWAP1 SSTORE PUSH1 0x1 ADD PUSH1 0x20 DUP2 PUSH1 0x0 ADD DIV SWAP3 DUP4 ADD SWAP3 PUSH1 0x1 SUB MUL PUSH2 0x3F75 JUMP JUMPDEST POP JUMPDEST POP SWAP1 POP PUSH2 0x3FB1 SWAP2 SWAP1 PUSH2 0x3FB5 JUMP JUMPDEST POP SWAP1 JUMP JUMPDEST JUMPDEST DUP1 DUP3 GT ISZERO PUSH2 0x3FCE JUMPI PUSH1 0x0 DUP2 PUSH1 0x0 SWAP1 SSTORE POP PUSH1 0x1 ADD PUSH2 0x3FB6 JUMP JUMPDEST POP SWAP1 JUMP JUMPDEST PUSH1 0x0 DUP1 REVERT JUMPDEST PUSH1 0x0 PUSH1 0xFF DUP3 AND SWAP1 POP SWAP2 SWAP1 POP JUMP JUMPDEST PUSH2 0x3FED DUP2 PUSH2 0x3FD7 JUMP JUMPDEST DUP2 EQ PUSH2 0x3FF8 JUMPI PUSH1 0x0 DUP1 REVERT JUMPDEST POP JUMP JUMPDEST PUSH1 0x0 DUP2 CALLDATALOAD SWAP1 POP PUSH2 0x400A DUP2 PUSH2 0x3FE4 JUMP JUMPDEST SWAP3 SWAP2 POP POP JUMP JUMPDEST PUSH1 0x0 PUSH1 0x20 DUP3 DUP5 SUB SLT ISZERO PUSH2 0x4026 JUMPI PUSH2 0x4025 PUSH2 0x3FD2 JUMP JUMPDEST JUMPDEST PUSH1 0x0 PUSH2 0x4034 DUP5 DUP3 DUP6 ADD PUSH2 0x3FFB JUMP JUMPDEST SWAP2 POP POP SWAP3 SWAP2 POP POP JUMP JUMPDEST PUSH1 0x0 DUP1 PUSH1 0x40 DUP4 DUP6 SUB SLT ISZERO PUSH2 0x4054 JUMPI PUSH2 0x4053 PUSH2 0x3FD2 JUMP JUMPDEST JUMPDEST PUSH1 0x0 PUSH2 0x4062 DUP6 DUP3 DUP7 ADD PUSH2 0x3FFB JUMP JUMPDEST SWAP3 POP POP PUSH1 0x20 PUSH2 0x4073 DUP6 DUP3 DUP7 ADD PUSH2 0x3FFB JUMP JUMPDEST SWAP2 POP POP SWAP3 POP SWAP3 SWAP1 POP JUMP JUMPDEST PUSH1 0x0 PUSH20 0xFFFFFFFFFFFFFFFFFFFFFFFFFFFFFFFFFFFFFFFF DUP3 AND SWAP1 POP SWAP2 SWAP1 POP JUMP JUMPDEST PUSH1 0x0 PUSH2 0x40A8 DUP3 PUSH2 0x407D JUMP JUMPDEST SWAP1 POP SWAP2 SWAP1 POP JUMP JUMPDEST PUSH2 0x40B8 DUP2 PUSH2 0x409D JUMP JUMPDEST DUP2 EQ PUSH2 0x40C3 JUMPI PUSH1 0x0 DUP1 REVERT JUMPDEST POP JUMP JUMPDEST PUSH1 0x0 DUP2 CALLDATALOAD SWAP1 POP PUSH2 0x40D5 DUP2 PUSH2 0x40AF JUMP JUMPDEST SWAP3 SWAP2 POP POP JUMP JUMPDEST PUSH1 0x0 PUSH1 0x20 DUP3 DUP5 SUB SLT ISZERO PUSH2 0x40F1 JUMPI PUSH2 0x40F0 PUSH2 0x3FD2 JUMP JUMPDEST JUMPDEST PUSH1 0x0 PUSH2 0x40FF DUP5 DUP3 DUP6 ADD PUSH2 0x40C6 JUMP JUMPDEST SWAP2 POP POP SWAP3 SWAP2 POP POP JUMP JUMPDEST PUSH1 0x0 DUP2 MLOAD SWAP1 POP SWAP2 SWAP1 POP JUMP JUMPDEST PUSH1 0x0 DUP3 DUP3 MSTORE PUSH1 0x20 DUP3 ADD SWAP1 POP SWAP3 SWAP2 POP POP JUMP JUMPDEST PUSH1 0x0 DUP2 SWAP1 POP PUSH1 0x20 DUP3 ADD SWAP1 POP SWAP2 SWAP1 POP JUMP JUMPDEST PUSH2 0x413D DUP2 PUSH2 0x3FD7 JUMP JUMPDEST DUP3 MSTORE POP POP JUMP JUMPDEST PUSH1 0x0 PUSH2 0x414F DUP4 DUP4 PUSH2 0x4134 JUMP JUMPDEST PUSH1 0x20 DUP4 ADD SWAP1 POP SWAP3 SWAP2 POP POP JUMP JUMPDEST PUSH1 0x0 PUSH1 0x20 DUP3 ADD SWAP1 POP SWAP2 SWAP1 POP JUMP JUMPDEST PUSH1 0x0 PUSH2 0x4173 DUP3 PUSH2 0x4108 JUMP JUMPDEST PUSH2 0x417D DUP2 DUP6 PUSH2 0x4113 JUMP JUMPDEST SWAP4 POP PUSH2 0x4188 DUP4 PUSH2 0x4124 JUMP JUMPDEST DUP1 PUSH1 0x0 JUMPDEST DUP4 DUP2 LT ISZERO PUSH2 0x41B9 JUMPI DUP2 MLOAD PUSH2 0x41A0 DUP9 DUP3 PUSH2 0x4143 JUMP JUMPDEST SWAP8 POP PUSH2 0x41AB DUP4 PUSH2 0x415B JUMP JUMPDEST SWAP3 POP POP PUSH1 0x1 DUP2 ADD SWAP1 POP PUSH2 0x418C JUMP JUMPDEST POP DUP6 SWAP4 POP POP POP POP SWAP3 SWAP2 POP POP JUMP JUMPDEST PUSH1 0x0 PUSH1 0x20 DUP3 ADD SWAP1 POP DUP2 DUP2 SUB PUSH1 0x0 DUP4 ADD MSTORE PUSH2 0x41E0 DUP2 DUP5 PUSH2 0x4168 JUMP JUMPDEST SWAP1 POP SWAP3 SWAP2 POP POP JUMP JUMPDEST PUSH1 0x0 DUP2 SWAP1 POP SWAP2 SWAP1 POP JUMP JUMPDEST PUSH2 0x41FB DUP2 PUSH2 0x41E8 JUMP JUMPDEST DUP3 MSTORE POP POP JUMP JUMPDEST PUSH32 0x4E487B7100000000000000000000000000000000000000000000000000000000 PUSH1 0x0 MSTORE PUSH1 0x21 PUSH1 0x4 MSTORE PUSH1 0x24 PUSH1 0x0 REVERT JUMPDEST PUSH1 0x5 DUP2 LT PUSH2 0x4241 JUMPI PUSH2 0x4240 PUSH2 0x4201 JUMP JUMPDEST JUMPDEST POP JUMP JUMPDEST PUSH1 0x0 DUP2 SWAP1 POP PUSH2 0x4252 DUP3 PUSH2 0x4230 JUMP JUMPDEST SWAP2 SWAP1 POP JUMP JUMPDEST PUSH1 0x0 PUSH2 0x4262 DUP3 PUSH2 0x4244 JUMP JUMPDEST SWAP1 POP SWAP2 SWAP1 POP JUMP JUMPDEST PUSH2 0x4272 DUP2 PUSH2 0x4257 JUMP JUMPDEST DUP3 MSTORE POP POP JUMP JUMPDEST PUSH1 0x0 DUP2 ISZERO ISZERO SWAP1 POP SWAP2 SWAP1 POP JUMP JUMPDEST PUSH2 0x428D DUP2 PUSH2 0x4278 JUMP JUMPDEST DUP3 MSTORE POP POP JUMP JUMPDEST PUSH1 0x0 PUSH2 0x180 DUP3 ADD SWAP1 POP PUSH2 0x42A9 PUSH1 0x0 DUP4 ADD DUP16 PUSH2 0x41F2 JUMP JUMPDEST PUSH2 0x42B6 PUSH1 0x20 DUP4 ADD DUP15 PUSH2 0x4269 JUMP JUMPDEST PUSH2 0x42C3 PUSH1 0x40 DUP4 ADD DUP14 PUSH2 0x41F2 JUMP JUMPDEST PUSH2 0x42D0 PUSH1 0x60 DUP4 ADD DUP13 PUSH2 0x4284 JUMP JUMPDEST PUSH2 0x42DD PUSH1 0x80 DUP4 ADD DUP12 PUSH2 0x41F2 JUMP JUMPDEST PUSH2 0x42EA PUSH1 0xA0 DUP4 ADD DUP11 PUSH2 0x4284 JUMP JUMPDEST PUSH2 0x42F7 PUSH1 0xC0 DUP4 ADD DUP10 PUSH2 0x4284 JUMP JUMPDEST PUSH2 0x4304 PUSH1 0xE0 DUP4 ADD DUP9 PUSH2 0x4284 JUMP JUMPDEST PUSH2 0x4312 PUSH2 0x100 DUP4 ADD DUP8 PUSH2 0x4284 JUMP JUMPDEST PUSH2 0x4320 PUSH2 0x120 DUP4 ADD DUP7 PUSH2 0x41F2 JUMP JUMPDEST PUSH2 0x432E PUSH2 0x140 DUP4 ADD DUP6 PUSH2 0x4284 JUMP JUMPDEST PUSH2 0x433C PUSH2 0x160 DUP4 ADD DUP5 PUSH2 0x4284 JUMP JUMPDEST SWAP14 SWAP13 POP POP POP POP POP POP POP POP POP POP POP POP POP JUMP JUMPDEST PUSH2 0x4356 DUP2 PUSH2 0x4278 JUMP JUMPDEST DUP2 EQ PUSH2 0x4361 JUMPI PUSH1 0x0 DUP1 REVERT JUMPDEST POP JUMP JUMPDEST PUSH1 0x0 DUP2 CALLDATALOAD SWAP1 POP PUSH2 0x4373 DUP2 PUSH2 0x434D JUMP JUMPDEST SWAP3 SWAP2 POP POP JUMP JUMPDEST PUSH1 0x0 DUP1 PUSH1 0x40 DUP4 DUP6 SUB SLT ISZERO PUSH2 0x4390 JUMPI PUSH2 0x438F PUSH2 0x3FD2 JUMP JUMPDEST JUMPDEST PUSH1 0x0 PUSH2 0x439E DUP6 DUP3 DUP7 ADD PUSH2 0x40C6 JUMP JUMPDEST SWAP3 POP POP PUSH1 0x20 PUSH2 0x43AF DUP6 DUP3 DUP7 ADD PUSH2 0x4364 JUMP JUMPDEST SWAP2 POP POP SWAP3 POP SWAP3 SWAP1 POP JUMP JUMPDEST PUSH1 0x0 PUSH1 0x20 DUP3 ADD SWAP1 POP PUSH2 0x43CE PUSH1 0x0 DUP4 ADD DUP5 PUSH2 0x41F2 JUMP JUMPDEST SWAP3 SWAP2 POP POP JUMP JUMPDEST PUSH1 0x0 PUSH1 0x20 DUP3 ADD SWAP1 POP PUSH2 0x43E9 PUSH1 0x0 DUP4 ADD DUP5 PUSH2 0x4269 JUMP JUMPDEST SWAP3 SWAP2 POP POP JUMP JUMPDEST PUSH1 0x0 DUP3 DUP3 MSTORE PUSH1 0x20 DUP3 ADD SWAP1 POP SWAP3 SWAP2 POP POP JUMP JUMPDEST PUSH32 0x496E76616C69642067616D6520737461746520666F7220746869732061637469 PUSH1 0x0 DUP3 ADD MSTORE PUSH32 0x6F6E2E0000000000000000000000000000000000000000000000000000000000 PUSH1 0x20 DUP3 ADD MSTORE POP JUMP JUMPDEST PUSH1 0x0 PUSH2 0x445C PUSH1 0x23 DUP4 PUSH2 0x43EF JUMP JUMPDEST SWAP2 POP PUSH2 0x4467 DUP3 PUSH2 0x4400 JUMP JUMPDEST PUSH1 0x40 DUP3 ADD SWAP1 POP SWAP2 SWAP1 POP JUMP JUMPDEST PUSH1 0x0 PUSH1 0x20 DUP3 ADD SWAP1 POP DUP2 DUP2 SUB PUSH1 0x0 DUP4 ADD MSTORE PUSH2 0x448B DUP2 PUSH2 0x444F JUMP JUMPDEST SWAP1 POP SWAP2 SWAP1 POP JUMP JUMPDEST PUSH32 0x43616E6E6F74207374616E6420616674657220646F75626C696E6720646F776E PUSH1 0x0 DUP3 ADD MSTORE PUSH32 0x2E00000000000000000000000000000000000000000000000000000000000000 PUSH1 0x20 DUP3 ADD MSTORE POP JUMP JUMPDEST PUSH1 0x0 PUSH2 0x44EE PUSH1 0x21 DUP4 PUSH2 0x43EF JUMP JUMPDEST SWAP2 POP PUSH2 0x44F9 DUP3 PUSH2 0x4492 JUMP JUMPDEST PUSH1 0x40 DUP3 ADD SWAP1 POP SWAP2 SWAP1 POP JUMP JUMPDEST PUSH1 0x0 PUSH1 0x20 DUP3 ADD SWAP1 POP DUP2 DUP2 SUB PUSH1 0x0 DUP4 ADD MSTORE PUSH2 0x451D DUP2 PUSH2 0x44E1 JUMP JUMPDEST SWAP1 POP SWAP2 SWAP1 POP JUMP JUMPDEST PUSH32 0x48616E64203120697320616C726561647920646F6E652E000000000000000000 PUSH1 0x0 DUP3 ADD MSTORE POP JUMP JUMPDEST PUSH1 0x0 PUSH2 0x455A PUSH1 0x17 DUP4 PUSH2 0x43EF JUMP JUMPDEST SWAP2 POP PUSH2 0x4565 DUP3 PUSH2 0x4524 JUMP JUMPDEST PUSH1 0x20 DUP3 ADD SWAP1 POP SWAP2 SWAP1 POP JUMP JUMPDEST PUSH1 0x0 PUSH1 0x20 DUP3 ADD SWAP1 POP DUP2 DUP2 SUB PUSH1 0x0 DUP4 ADD MSTORE PUSH2 0x4589 DUP2 PUSH2 0x454D JUMP JUMPDEST SWAP1 POP SWAP2 SWAP1 POP JUMP JUMPDEST PUSH1 0x0 DUP2 SWAP1 POP SWAP2 SWAP1 POP JUMP JUMPDEST PUSH1 0x0 DUP2 SWAP1 POP SWAP2 SWAP1 POP JUMP JUMPDEST PUSH1 0x0 PUSH2 0x45BF PUSH2 0x45BA PUSH2 0x45B5 DUP5 PUSH2 0x4590 JUMP JUMPDEST PUSH2 0x459A JUMP JUMPDEST PUSH2 0x3FD7 JUMP JUMPDEST SWAP1 POP SWAP2 SWAP1 POP JUMP JUMPDEST PUSH2 0x45CF DUP2 PUSH2 0x45A4 JUMP JUMPDEST DUP3 MSTORE POP POP JUMP JUMPDEST PUSH1 0x0 PUSH1 0x20 DUP3 ADD SWAP1 POP PUSH2 0x45EA PUSH1 0x0 DUP4 ADD DUP5 PUSH2 0x45C6 JUMP JUMPDEST SWAP3 SWAP2 POP POP JUMP JUMPDEST PUSH32 0x48616E642031206D75737420626520646F6E65206265666F726520706C617969 PUSH1 0x0 DUP3 ADD MSTORE PUSH32 0x6E672048616E6420322E00000000000000000000000000000000000000000000 PUSH1 0x20 DUP3 ADD MSTORE POP JUMP JUMPDEST PUSH1 0x0 PUSH2 0x464C PUSH1 0x2A DUP4 PUSH2 0x43EF JUMP JUMPDEST SWAP2 POP PUSH2 0x4657 DUP3 PUSH2 0x45F0 JUMP JUMPDEST PUSH1 0x40 DUP3 ADD SWAP1 POP SWAP2 SWAP1 POP JUMP JUMPDEST PUSH1 0x0 PUSH1 0x20 DUP3 ADD SWAP1 POP DUP2 DUP2 SUB PUSH1 0x0 DUP4 ADD MSTORE PUSH2 0x467B DUP2 PUSH2 0x463F JUMP JUMPDEST SWAP1 POP SWAP2 SWAP1 POP JUMP JUMPDEST PUSH1 0x0 DUP2 SWAP1 POP SWAP2 SWAP1 POP JUMP JUMPDEST PUSH1 0x0 PUSH2 0x46A7 PUSH2 0x46A2 PUSH2 0x469D DUP5 PUSH2 0x4682 JUMP JUMPDEST PUSH2 0x459A JUMP JUMPDEST PUSH2 0x3FD7 JUMP JUMPDEST SWAP1 POP SWAP2 SWAP1 POP JUMP JUMPDEST PUSH2 0x46B7 DUP2 PUSH2 0x468C JUMP JUMPDEST DUP3 MSTORE POP POP JUMP JUMPDEST PUSH1 0x0 PUSH1 0x20 DUP3 ADD SWAP1 POP PUSH2 0x46D2 PUSH1 0x0 DUP4 ADD DUP5 PUSH2 0x46AE JUMP JUMPDEST SWAP3 SWAP2 POP POP JUMP JUMPDEST PUSH32 0x496E76616C69642068616E64204944206F72206E6F2073706C69742068616E64 PUSH1 0x0 DUP3 ADD MSTORE PUSH32 0x20746F207374616E64206F6E2E00000000000000000000000000000000000000 PUSH1 0x20 DUP3 ADD MSTORE POP JUMP JUMPDEST PUSH1 0x0 PUSH2 0x4734 PUSH1 0x2D DUP4 PUSH2 0x43EF JUMP JUMPDEST SWAP2 POP PUSH2 0x473F DUP3 PUSH2 0x46D8 JUMP JUMPDEST PUSH1 0x40 DUP3 ADD SWAP1 POP SWAP2 SWAP1 POP JUMP JUMPDEST PUSH1 0x0 PUSH1 0x20 DUP3 ADD SWAP1 POP DUP2 DUP2 SUB PUSH1 0x0 DUP4 ADD MSTORE PUSH2 0x4763 DUP2 PUSH2 0x4727 JUMP JUMPDEST SWAP1 POP SWAP2 SWAP1 POP JUMP JUMPDEST PUSH32 0x4D75737420686974206174206C65617374206F6E6520636172642E0000000000 PUSH1 0x0 DUP3 ADD MSTORE POP JUMP JUMPDEST PUSH1 0x0 PUSH2 0x47A0 PUSH1 0x1B DUP4 PUSH2 0x43EF JUMP JUMPDEST SWAP2 POP PUSH2 0x47AB DUP3 PUSH2 0x476A JUMP JUMPDEST PUSH1 0x20 DUP3 ADD SWAP1 POP SWAP2 SWAP1 POP JUMP JUMPDEST PUSH1 0x0 PUSH1 0x20 DUP3 ADD SWAP1 POP DUP2 DUP2 SUB PUSH1 0x0 DUP4 ADD MSTORE PUSH2 0x47CF DUP2 PUSH2 0x4793 JUMP JUMPDEST SWAP1 POP SWAP2 SWAP1 POP JUMP JUMPDEST PUSH32 0x43616E6E6F742068697420616674657220646F75626C696E6720646F776E2E00 PUSH1 0x0 DUP3 ADD MSTORE POP JUMP JUMPDEST PUSH1 0x0 PUSH2 0x480C PUSH1 0x1F DUP4 PUSH2 0x43EF JUMP JUMPDEST SWAP2 POP PUSH2 0x4817 DUP3 PUSH2 0x47D6 JUMP JUMPDEST PUSH1 0x20 DUP3 ADD SWAP1 POP SWAP2 SWAP1 POP JUMP JUMPDEST PUSH1 0x0 PUSH1 0x20 DUP3 ADD SWAP1 POP DUP2 DUP2 SUB PUSH1 0x0 DUP4 ADD MSTORE PUSH2 0x483B DUP2 PUSH2 0x47FF JUMP JUMPDEST SWAP1 POP SWAP2 SWAP1 POP JUMP JUMPDEST PUSH32 0x496E76616C69642068616E642049442E00000000000000000000000000000000 PUSH1 0x0 DUP3 ADD MSTORE POP JUMP JUMPDEST PUSH1 0x0 PUSH2 0x4878 PUSH1 0x10 DUP4 PUSH2 0x43EF JUMP JUMPDEST SWAP2 POP PUSH2 0x4883 DUP3 PUSH2 0x4842 JUMP JUMPDEST PUSH1 0x20 DUP3 ADD SWAP1 POP SWAP2 SWAP1 POP JUMP JUMPDEST PUSH1 0x0 PUSH1 0x20 DUP3 ADD SWAP1 POP DUP2 DUP2 SUB PUSH1 0x0 DUP4 ADD MSTORE PUSH2 0x48A7 DUP2 PUSH2 0x486B JUMP JUMPDEST SWAP1 POP SWAP2 SWAP1 POP JUMP JUMPDEST PUSH32 0x43616E6E6F742068697420616674657220646F75626C696E6720646F776E206F PUSH1 0x0 DUP3 ADD MSTORE PUSH32 0x6E20746869732068616E642E0000000000000000000000000000000000000000 PUSH1 0x20 DUP3 ADD MSTORE POP JUMP JUMPDEST PUSH1 0x0 PUSH2 0x490A PUSH1 0x2C DUP4 PUSH2 0x43EF JUMP JUMPDEST SWAP2 POP PUSH2 0x4915 DUP3 PUSH2 0x48AE JUMP JUMPDEST PUSH1 0x40 DUP3 ADD SWAP1 POP SWAP2 SWAP1 POP JUMP JUMPDEST PUSH1 0x0 PUSH1 0x20 DUP3 ADD SWAP1 POP DUP2 DUP2 SUB PUSH1 0x0 DUP4 ADD MSTORE PUSH2 0x4939 DUP2 PUSH2 0x48FD JUMP JUMPDEST SWAP1 POP SWAP2 SWAP1 POP JUMP JUMPDEST PUSH2 0x4949 DUP2 PUSH2 0x3FD7 JUMP JUMPDEST DUP3 MSTORE POP POP JUMP JUMPDEST PUSH1 0x0 PUSH1 0x40 DUP3 ADD SWAP1 POP PUSH2 0x4964 PUSH1 0x0 DUP4 ADD DUP6 PUSH2 0x41F2 JUMP JUMPDEST PUSH2 0x4971 PUSH1 0x20 DUP4 ADD DUP5 PUSH2 0x4940 JUMP JUMPDEST SWAP4 SWAP3 POP POP POP JUMP JUMPDEST PUSH1 0x0 PUSH1 0x20 DUP3 ADD SWAP1 POP PUSH2 0x498D PUSH1 0x0 DUP4 ADD DUP5 PUSH2 0x4940 JUMP JUMPDEST SWAP3 SWAP2 POP POP JUMP JUMPDEST PUSH32 0x4E487B7100000000000000000000000000000000000000000000000000000000 PUSH1 0x0 MSTORE PUSH1 0x11 PUSH1 0x4 MSTORE PUSH1 0x24 PUSH1 0x0 REVERT JUMPDEST PUSH1 0x0 PUSH2 0x49CD DUP3 PUSH2 0x3FD7 JUMP JUMPDEST SWAP2 POP PUSH1 0xFF DUP3 SUB PUSH2 0x49E0 JUMPI PUSH2 0x49DF PUSH2 0x4993 JUMP JUMPDEST JUMPDEST PUSH1 0x1 DUP3 ADD SWAP1 POP SWAP2 SWAP1 POP JUMP JUMPDEST PUSH32 0x416C726561647920646F75626C656420646F776E206F6E20612068616E642E00 PUSH1 0x0 DUP3 ADD MSTORE POP JUMP JUMPDEST PUSH1 0x0 PUSH2 0x4A21 PUSH1 0x1F DUP4 PUSH2 0x43EF JUMP JUMPDEST SWAP2 POP PUSH2 0x4A2C DUP3 PUSH2 0x49EB JUMP JUMPDEST PUSH1 0x20 DUP3 ADD SWAP1 POP SWAP2 SWAP1 POP JUMP JUMPDEST PUSH1 0x0 PUSH1 0x20 DUP3 ADD SWAP1 POP DUP2 DUP2 SUB PUSH1 0x0 DUP4 ADD MSTORE PUSH2 0x4A50 DUP2 PUSH2 0x4A14 JUMP JUMPDEST SWAP1 POP SWAP2 SWAP1 POP JUMP JUMPDEST PUSH32 0x43616E206F6E6C7920646F75626C6520646F776E206F6E20696E697469616C20 PUSH1 0x0 DUP3 ADD MSTORE PUSH32 0x74776F2063617264732E00000000000000000000000000000000000000000000 PUSH1 0x20 DUP3 ADD MSTORE POP JUMP JUMPDEST PUSH1 0x0 PUSH2 0x4AB3 PUSH1 0x2A DUP4 PUSH2 0x43EF JUMP JUMPDEST SWAP2 POP PUSH2 0x4ABE DUP3 PUSH2 0x4A57 JUMP JUMPDEST PUSH1 0x40 DUP3 ADD SWAP1 POP SWAP2 SWAP1 POP JUMP JUMPDEST PUSH1 0x0 PUSH1 0x20 DUP3 ADD SWAP1 POP DUP2 DUP2 SUB PUSH1 0x0 DUP4 ADD MSTORE PUSH2 0x4AE2 DUP2 PUSH2 0x4AA6 JUMP JUMPDEST SWAP1 POP SWAP2 SWAP1 POP JUMP JUMPDEST PUSH32 0x4D75737420646F75626C6520746865206F726967696E616C2062657420666F72 PUSH1 0x0 DUP3 ADD MSTORE PUSH32 0x2068616E6420312E000000000000000000000000000000000000000000000000 PUSH1 0x20 DUP3 ADD MSTORE POP JUMP JUMPDEST PUSH1 0x0 PUSH2 0x4B45 PUSH1 0x28 DUP4 PUSH2 0x43EF JUMP JUMPDEST SWAP2 POP PUSH2 0x4B50 DUP3 PUSH2 0x4AE9 JUMP JUMPDEST PUSH1 0x40 DUP3 ADD SWAP1 POP SWAP2 SWAP1 POP JUMP JUMPDEST PUSH1 0x0 PUSH1 0x20 DUP3 ADD SWAP1 POP DUP2 DUP2 SUB PUSH1 0x0 DUP4 ADD MSTORE PUSH2 0x4B74 DUP2 PUSH2 0x4B38 JUMP JUMPDEST SWAP1 POP SWAP2 SWAP1 POP JUMP JUMPDEST PUSH1 0x0 PUSH2 0x4B86 DUP3 PUSH2 0x41E8 JUMP JUMPDEST SWAP2 POP PUSH2 0x4B91 DUP4 PUSH2 0x41E8 JUMP JUMPDEST SWAP3 POP DUP3 DUP3 ADD SWAP1 POP DUP1 DUP3 GT ISZERO PUSH2 0x4BA9 JUMPI PUSH2 0x4BA8 PUSH2 0x4993 JUMP JUMPDEST JUMPDEST SWAP3 SWAP2 POP POP JUMP JUMPDEST PUSH32 0x43616E206F6E6C7920646F75626C6520646F776E206F6E20696E697469616C20 PUSH1 0x0 DUP3 ADD MSTORE PUSH32 0x74776F20636172647320666F722073706C69742068616E642E00000000000000 PUSH1 0x20 DUP3 ADD MSTORE POP JUMP JUMPDEST PUSH1 0x0 PUSH2 0x4C0B PUSH1 0x39 DUP4 PUSH2 0x43EF JUMP JUMPDEST SWAP2 POP PUSH2 0x4C16 DUP3 PUSH2 0x4BAF JUMP JUMPDEST PUSH1 0x40 DUP3 ADD SWAP1 POP SWAP2 SWAP1 POP JUMP JUMPDEST PUSH1 0x0 PUSH1 0x20 DUP3 ADD SWAP1 POP DUP2 DUP2 SUB PUSH1 0x0 DUP4 ADD MSTORE PUSH2 0x4C3A DUP2 PUSH2 0x4BFE JUMP JUMPDEST SWAP1 POP SWAP2 SWAP1 POP JUMP JUMPDEST PUSH32 0x4D75737420646F75626C6520746865206F726967696E616C2062657420666F72 PUSH1 0x0 DUP3 ADD MSTORE PUSH32 0x2068616E6420322E000000000000000000000000000000000000000000000000 PUSH1 0x20 DUP3 ADD MSTORE POP JUMP JUMPDEST PUSH1 0x0 PUSH2 0x4C9D PUSH1 0x28 DUP4 PUSH2 0x43EF JUMP JUMPDEST SWAP2 POP PUSH2 0x4CA8 DUP3 PUSH2 0x4C41 JUMP JUMPDEST PUSH1 0x40 DUP3 ADD SWAP1 POP SWAP2 SWAP1 POP JUMP JUMPDEST PUSH1 0x0 PUSH1 0x20 DUP3 ADD SWAP1 POP DUP2 DUP2 SUB PUSH1 0x0 DUP4 ADD MSTORE PUSH2 0x4CCC DUP2 PUSH2 0x4C90 JUMP JUMPDEST SWAP1 POP SWAP2 SWAP1 POP JUMP JUMPDEST PUSH32 0x496E76616C69642068616E64204944206F72206E6F2073706C69742068616E64 PUSH1 0x0 DUP3 ADD MSTORE PUSH32 0x20746F20646F75626C6520646F776E206F6E2E00000000000000000000000000 PUSH1 0x20 DUP3 ADD MSTORE POP JUMP JUMPDEST PUSH1 0x0 PUSH2 0x4D2F PUSH1 0x33 DUP4 PUSH2 0x43EF JUMP JUMPDEST SWAP2 POP PUSH2 0x4D3A DUP3 PUSH2 0x4CD3 JUMP JUMPDEST PUSH1 0x40 DUP3 ADD SWAP1 POP SWAP2 SWAP1 POP JUMP JUMPDEST PUSH1 0x0 PUSH1 0x20 DUP3 ADD SWAP1 POP DUP2 DUP2 SUB PUSH1 0x0 DUP4 ADD MSTORE PUSH2 0x4D5E DUP2 PUSH2 0x4D22 JUMP JUMPDEST SWAP1 POP SWAP2 SWAP1 POP JUMP JUMPDEST PUSH32 0x496E737572616E63652063616E206F6E6C792062652074616B656E2069662064 PUSH1 0x0 DUP3 ADD MSTORE PUSH32 0x65616C65722073686F777320616E204163652E00000000000000000000000000 PUSH1 0x20 DUP3 ADD MSTORE POP JUMP JUMPDEST PUSH1 0x0 PUSH2 0x4DC1 PUSH1 0x33 DUP4 PUSH2 0x43EF JUMP JUMPDEST SWAP2 POP PUSH2 0x4DCC DUP3 PUSH2 0x4D65 JUMP JUMPDEST PUSH1 0x40 DUP3 ADD SWAP1 POP SWAP2 SWAP1 POP JUMP JUMPDEST PUSH1 0x0 PUSH1 0x20 DUP3 ADD SWAP1 POP DUP2 DUP2 SUB PUSH1 0x0 DUP4 ADD MSTORE PUSH2 0x4DF0 DUP2 PUSH2 0x4DB4 JUMP JUMPDEST SWAP1 POP SWAP2 SWAP1 POP JUMP JUMPDEST PUSH32 0x496E737572616E636520616C72656164792074616B656E2E0000000000000000 PUSH1 0x0 DUP3 ADD MSTORE POP JUMP JUMPDEST PUSH1 0x0 PUSH2 0x4E2D PUSH1 0x18 DUP4 PUSH2 0x43EF JUMP JUMPDEST SWAP2 POP PUSH2 0x4E38 DUP3 PUSH2 0x4DF7 JUMP JUMPDEST PUSH1 0x20 DUP3 ADD SWAP1 POP SWAP2 SWAP1 POP JUMP JUMPDEST PUSH1 0x0 PUSH1 0x20 DUP3 ADD SWAP1 POP DUP2 DUP2 SUB PUSH1 0x0 DUP4 ADD MSTORE PUSH2 0x4E5C DUP2 PUSH2 0x4E20 JUMP JUMPDEST SWAP1 POP SWAP2 SWAP1 POP JUMP JUMPDEST PUSH32 0x4E487B7100000000000000000000000000000000000000000000000000000000 PUSH1 0x0 MSTORE PUSH1 0x12 PUSH1 0x4 MSTORE PUSH1 0x24 PUSH1 0x0 REVERT JUMPDEST PUSH1 0x0 PUSH2 0x4E9D DUP3 PUSH2 0x41E8 JUMP JUMPDEST SWAP2 POP PUSH2 0x4EA8 DUP4 PUSH2 0x41E8 JUMP JUMPDEST SWAP3 POP DUP3 PUSH2 0x4EB8 JUMPI PUSH2 0x4EB7 PUSH2 0x4E63 JUMP JUMPDEST JUMPDEST DUP3 DUP3 DIV SWAP1 POP SWAP3 SWAP2 POP POP JUMP JUMPDEST PUSH32 0x496E737572616E636520626574206D7573742062652068616C66206F66207468 PUSH1 0x0 DUP3 ADD MSTORE PUSH32 0x65206F726967696E616C206265742E0000000000000000000000000000000000 PUSH1 0x20 DUP3 ADD MSTORE POP JUMP JUMPDEST PUSH1 0x0 PUSH2 0x4F1F PUSH1 0x2F DUP4 PUSH2 0x43EF JUMP JUMPDEST SWAP2 POP PUSH2 0x4F2A DUP3 PUSH2 0x4EC3 JUMP JUMPDEST PUSH1 0x40 DUP3 ADD SWAP1 POP SWAP2 SWAP1 POP JUMP JUMPDEST PUSH1 0x0 PUSH1 0x20 DUP3 ADD SWAP1 POP DUP2 DUP2 SUB PUSH1 0x0 DUP4 ADD MSTORE PUSH2 0x4F4E DUP2 PUSH2 0x4F12 JUMP JUMPDEST SWAP1 POP SWAP2 SWAP1 POP JUMP JUMPDEST PUSH32 0x43616E6E6F742072657365742067616D6520696E2063757272656E7420616374 PUSH1 0x0 DUP3 ADD MSTORE PUSH32 0x69766520706C6179696E672073746174652E2046696E6973682074686520726F PUSH1 0x20 DUP3 ADD MSTORE PUSH32 0x756E64206F72207761697420666F7220697420746F20636F6E636C7564652E00 PUSH1 0x40 DUP3 ADD MSTORE POP JUMP JUMPDEST PUSH1 0x0 PUSH2 0x4FD7 PUSH1 0x5F DUP4 PUSH2 0x43EF JUMP JUMPDEST SWAP2 POP PUSH2 0x4FE2 DUP3 PUSH2 0x4F55 JUMP JUMPDEST PUSH1 0x60 DUP3 ADD SWAP1 POP SWAP2 SWAP1 POP JUMP JUMPDEST PUSH1 0x0 PUSH1 0x20 DUP3 ADD SWAP1 POP DUP2 DUP2 SUB PUSH1 0x0 DUP4 ADD MSTORE PUSH2 0x5006 DUP2 PUSH2 0x4FCA JUMP JUMPDEST SWAP1 POP SWAP2 SWAP1 POP JUMP JUMPDEST PUSH32 0x4E487B7100000000000000000000000000000000000000000000000000000000 PUSH1 0x0 MSTORE PUSH1 0x41 PUSH1 0x4 MSTORE PUSH1 0x24 PUSH1 0x0 REVERT JUMPDEST PUSH32 0x506C617965722068617320616C72656164792073706C69742E00000000000000 PUSH1 0x0 DUP3 ADD MSTORE POP JUMP JUMPDEST PUSH1 0x0 PUSH2 0x5072 PUSH1 0x19 DUP4 PUSH2 0x43EF JUMP JUMPDEST SWAP2 POP PUSH2 0x507D DUP3 PUSH2 0x503C JUMP JUMPDEST PUSH1 0x20 DUP3 ADD SWAP1 POP SWAP2 SWAP1 POP JUMP JUMPDEST PUSH1 0x0 PUSH1 0x20 DUP3 ADD SWAP1 POP DUP2 DUP2 SUB PUSH1 0x0 DUP4 ADD MSTORE PUSH2 0x50A1 DUP2 PUSH2 0x5065 JUMP JUMPDEST SWAP1 POP SWAP2 SWAP1 POP JUMP JUMPDEST PUSH32 0x43616E206F6E6C792073706C697420696E697469616C2074776F206361726473 PUSH1 0x0 DUP3 ADD MSTORE PUSH32 0x2E00000000000000000000000000000000000000000000000000000000000000 PUSH1 0x20 DUP3 ADD MSTORE POP JUMP JUMPDEST PUSH1 0x0 PUSH2 0x5104 PUSH1 0x21 DUP4 PUSH2 0x43EF JUMP JUMPDEST SWAP2 POP PUSH2 0x510F DUP3 PUSH2 0x50A8 JUMP JUMPDEST PUSH1 0x40 DUP3 ADD SWAP1 POP SWAP2 SWAP1 POP JUMP JUMPDEST PUSH1 0x0 PUSH1 0x20 DUP3 ADD SWAP1 POP DUP2 DUP2 SUB PUSH1 0x0 DUP4 ADD MSTORE PUSH2 0x5133 DUP2 PUSH2 0x50F7 JUMP JUMPDEST SWAP1 POP SWAP2 SWAP1 POP JUMP JUMPDEST PUSH32 0x4E487B7100000000000000000000000000000000000000000000000000000000 PUSH1 0x0 MSTORE PUSH1 0x32 PUSH1 0x4 MSTORE PUSH1 0x24 PUSH1 0x0 REVERT JUMPDEST PUSH32 0x4361726473206D757374206265206F66207468652073616D652072616E6B2074 PUSH1 0x0 DUP3 ADD MSTORE PUSH32 0x6F2073706C69742E000000000000000000000000000000000000000000000000 PUSH1 0x20 DUP3 ADD MSTORE POP JUMP JUMPDEST PUSH1 0x0 PUSH2 0x51C5 PUSH1 0x28 DUP4 PUSH2 0x43EF JUMP JUMPDEST SWAP2 POP PUSH2 0x51D0 DUP3 PUSH2 0x5169 JUMP JUMPDEST PUSH1 0x40 DUP3 ADD SWAP1 POP SWAP2 SWAP1 POP JUMP JUMPDEST PUSH1 0x0 PUSH1 0x20 DUP3 ADD SWAP1 POP DUP2 DUP2 SUB PUSH1 0x0 DUP4 ADD MSTORE PUSH2 0x51F4 DUP2 PUSH2 0x51B8 JUMP JUMPDEST SWAP1 POP SWAP2 SWAP1 POP JUMP JUMPDEST PUSH32 0x4D75737420706C61636520616E20657175616C2062657420666F722074686520 PUSH1 0x0 DUP3 ADD MSTORE PUSH32 0x7365636F6E642068616E642E0000000000000000000000000000000000000000 PUSH1 0x20 DUP3 ADD MSTORE POP JUMP JUMPDEST PUSH1 0x0 PUSH2 0x5257 PUSH1 0x2C DUP4 PUSH2 0x43EF JUMP JUMPDEST SWAP2 POP PUSH2 0x5262 DUP3 PUSH2 0x51FB JUMP JUMPDEST PUSH1 0x40 DUP3 ADD SWAP1 POP SWAP2 SWAP1 POP JUMP JUMPDEST PUSH1 0x0 PUSH1 0x20 DUP3 ADD SWAP1 POP DUP2 DUP2 SUB PUSH1 0x0 DUP4 ADD MSTORE PUSH2 0x5286 DUP2 PUSH2 0x524A JUMP JUMPDEST SWAP1 POP SWAP2 SWAP1 POP JUMP JUMPDEST PUSH32 0x4E487B7100000000000000000000000000000000000000000000000000000000 PUSH1 0x0 MSTORE PUSH1 0x31 PUSH1 0x4 MSTORE PUSH1 0x24 PUSH1 0x0 REVERT JUMPDEST PUSH32 0x43616E6E6F7420706C616365206265743A20412067616D6520697320616C7265 PUSH1 0x0 DUP3 ADD MSTORE PUSH32 0x61647920696E2070726F6772657373206F72206E6F7420696E20612072657365 PUSH1 0x20 DUP3 ADD MSTORE PUSH32 0x747461626C652073746174652E00000000000000000000000000000000000000 PUSH1 0x40 DUP3 ADD MSTORE POP JUMP JUMPDEST PUSH1 0x0 PUSH2 0x533E PUSH1 0x4D DUP4 PUSH2 0x43EF JUMP JUMPDEST SWAP2 POP PUSH2 0x5349 DUP3 PUSH2 0x52BC JUMP JUMPDEST PUSH1 0x60 DUP3 ADD SWAP1 POP SWAP2 SWAP1 POP JUMP JUMPDEST PUSH1 0x0 PUSH1 0x20 DUP3 ADD SWAP1 POP DUP2 DUP2 SUB PUSH1 0x0 DUP4 ADD MSTORE PUSH2 0x536D DUP2 PUSH2 0x5331 JUMP JUMPDEST SWAP1 POP SWAP2 SWAP1 POP JUMP JUMPDEST PUSH32 0x42657420616D6F756E74206D7573742062652067726561746572207468616E20 PUSH1 0x0 DUP3 ADD MSTORE PUSH32 0x7A65726F2E000000000000000000000000000000000000000000000000000000 PUSH1 0x20 DUP3 ADD MSTORE POP JUMP JUMPDEST PUSH1 0x0 PUSH2 0x53D0 PUSH1 0x25 DUP4 PUSH2 0x43EF JUMP JUMPDEST SWAP2 POP PUSH2 0x53DB DUP3 PUSH2 0x5374 JUMP JUMPDEST PUSH1 0x40 DUP3 ADD SWAP1 POP SWAP2 SWAP1 POP JUMP JUMPDEST PUSH1 0x0 PUSH1 0x20 DUP3 ADD SWAP1 POP DUP2 DUP2 SUB PUSH1 0x0 DUP4 ADD MSTORE PUSH2 0x53FF DUP2 PUSH2 0x53C3 JUMP JUMPDEST SWAP1 POP SWAP2 SWAP1 POP JUMP JUMPDEST PUSH1 0x0 PUSH2 0x5411 DUP3 PUSH2 0x41E8 JUMP JUMPDEST SWAP2 POP PUSH32 0xFFFFFFFFFFFFFFFFFFFFFFFFFFFFFFFFFFFFFFFFFFFFFFFFFFFFFFFFFFFFFFFF DUP3 SUB PUSH2 0x5443 JUMPI PUSH2 0x5442 PUSH2 0x4993 JUMP JUMPDEST JUMPDEST PUSH1 0x1 DUP3 ADD SWAP1 POP SWAP2 SWAP1 POP JUMP JUMPDEST PUSH1 0x0 PUSH2 0x5459 DUP3 PUSH2 0x41E8 JUMP JUMPDEST SWAP2 POP PUSH2 0x5464 DUP4 PUSH2 0x41E8 JUMP JUMPDEST SWAP3 POP DUP3 DUP3 SUB SWAP1 POP DUP2 DUP2 GT ISZERO PUSH2 0x547C JUMPI PUSH2 0x547B PUSH2 0x4993 JUMP JUMPDEST JUMPDEST SWAP3 SWAP2 POP POP JUMP JUMPDEST PUSH1 0x0 PUSH2 0x548D DUP3 PUSH2 0x41E8 JUMP JUMPDEST SWAP2 POP PUSH1 0x0 DUP3 SUB PUSH2 0x54A0 JUMPI PUSH2 0x549F PUSH2 0x4993 JUMP JUMPDEST JUMPDEST PUSH1 0x1 DUP3 SUB SWAP1 POP SWAP2 SWAP1 POP JUMP JUMPDEST PUSH1 0x0 PUSH2 0x54B6 DUP3 PUSH2 0x41E8 JUMP JUMPDEST SWAP2 POP PUSH2 0x54C1 DUP4 PUSH2 0x41E8 JUMP JUMPDEST SWAP3 POP DUP3 DUP3 MUL PUSH2 0x54CF DUP2 PUSH2 0x41E8 JUMP JUMPDEST SWAP2 POP DUP3 DUP3 DIV DUP5 EQ DUP4 ISZERO OR PUSH2 0x54E6 JUMPI PUSH2 0x54E5 PUSH2 0x4993 JUMP JUMPDEST JUMPDEST POP SWAP3 SWAP2 POP POP JUMP JUMPDEST PUSH1 0x0 DUP2 SWAP1 POP SWAP3 SWAP2 POP POP JUMP JUMPDEST POP JUMP JUMPDEST PUSH1 0x0 PUSH2 0x5508 PUSH1 0x0 DUP4 PUSH2 0x54ED JUMP JUMPDEST SWAP2 POP PUSH2 0x5513 DUP3 PUSH2 0x54F8 JUMP JUMPDEST PUSH1 0x0 DUP3 ADD SWAP1 POP SWAP2 SWAP1 POP JUMP JUMPDEST PUSH1 0x0 PUSH2 0x5529 DUP3 PUSH2 0x54FB JUMP JUMPDEST SWAP2 POP DUP2 SWAP1 POP SWAP2 SWAP1 POP JUMP JUMPDEST PUSH32 0x4661696C656420746F2073656E6420696E737572616E63652077696E6E696E67 PUSH1 0x0 DUP3 ADD MSTORE PUSH32 0x732E000000000000000000000000000000000000000000000000000000000000 PUSH1 0x20 DUP3 ADD MSTORE POP JUMP JUMPDEST PUSH1 0x0 PUSH2 0x558F PUSH1 0x22 DUP4 PUSH2 0x43EF JUMP JUMPDEST SWAP2 POP PUSH2 0x559A DUP3 PUSH2 0x5533 JUMP JUMPDEST PUSH1 0x40 DUP3 ADD SWAP1 POP SWAP2 SWAP1 POP JUMP JUMPDEST PUSH1 0x0 PUSH1 0x20 DUP3 ADD SWAP1 POP DUP2 DUP2 SUB PUSH1 0x0 DUP4 ADD MSTORE PUSH2 0x55BE DUP2 PUSH2 0x5582 JUMP JUMPDEST SWAP1 POP SWAP2 SWAP1 POP JUMP JUMPDEST PUSH1 0x0 DUP2 SWAP1 POP SWAP2 SWAP1 POP JUMP JUMPDEST PUSH2 0x55E0 PUSH2 0x55DB DUP3 PUSH2 0x41E8 JUMP JUMPDEST PUSH2 0x55C5 JUMP JUMPDEST DUP3 MSTORE POP POP JUMP JUMPDEST PUSH1 0x0 DUP2 PUSH1 0x60 SHL SWAP1 POP SWAP2 SWAP1 POP JUMP JUMPDEST PUSH1 0x0 PUSH2 0x55FE DUP3 PUSH2 0x55E6 JUMP JUMPDEST SWAP1 POP SWAP2 SWAP1 POP JUMP JUMPDEST PUSH1 0x0 PUSH2 0x5610 DUP3 PUSH2 0x55F3 JUMP JUMPDEST SWAP1 POP SWAP2 SWAP1 POP JUMP JUMPDEST PUSH2 0x5628 PUSH2 0x5623 DUP3 PUSH2 0x409D JUMP JUMPDEST PUSH2 0x5605 JUMP JUMPDEST DUP3 MSTORE POP POP JUMP JUMPDEST PUSH1 0x0 PUSH2 0x563A DUP3 DUP8 PUSH2 0x55CF JUMP JUMPDEST PUSH1 0x20 DUP3 ADD SWAP2 POP PUSH2 0x564A DUP3 DUP7 PUSH2 0x55CF JUMP JUMPDEST PUSH1 0x20 DUP3 ADD SWAP2 POP PUSH2 0x565A DUP3 DUP6 PUSH2 0x5617 JUMP JUMPDEST PUSH1 0x14 DUP3 ADD SWAP2 POP PUSH2 0x566A DUP3 DUP5 PUSH2 0x55CF JUMP JUMPDEST PUSH1 0x20 DUP3 ADD SWAP2 POP DUP2 SWAP1 POP SWAP6 SWAP5 POP POP POP POP POP JUMP JUMPDEST PUSH1 0x0 PUSH2 0x5687 DUP3 PUSH2 0x41E8 JUMP JUMPDEST SWAP2 POP PUSH2 0x5692 DUP4 PUSH2 0x41E8 JUMP JUMPDEST SWAP3 POP DUP3 PUSH2 0x56A2 JUMPI PUSH2 0x56A1 PUSH2 0x4E63 JUMP JUMPDEST JUMPDEST DUP3 DUP3 MOD SWAP1 POP SWAP3 SWAP2 POP POP JUMP JUMPDEST PUSH1 0x0 PUSH1 0x60 DUP3 ADD SWAP1 POP PUSH2 0x56C2 PUSH1 0x0 DUP4 ADD DUP7 PUSH2 0x4940 JUMP JUMPDEST PUSH2 0x56CF PUSH1 0x20 DUP4 ADD DUP6 PUSH2 0x41F2 JUMP JUMPDEST PUSH2 0x56DC PUSH1 0x40 DUP4 ADD DUP5 PUSH2 0x45C6 JUMP JUMPDEST SWAP5 SWAP4 POP POP POP POP JUMP JUMPDEST PUSH1 0x0 PUSH1 0x60 DUP3 ADD SWAP1 POP PUSH2 0x56F9 PUSH1 0x0 DUP4 ADD DUP7 PUSH2 0x4940 JUMP JUMPDEST PUSH2 0x5706 PUSH1 0x20 DUP4 ADD DUP6 PUSH2 0x41F2 JUMP JUMPDEST PUSH2 0x5713 PUSH1 0x40 DUP4 ADD DUP5 PUSH2 0x46AE JUMP JUMPDEST SWAP5 SWAP4 POP POP POP POP JUMP JUMPDEST PUSH32 0x496E76616C696420706C617965722068616E6420494420666F72206465616C69 PUSH1 0x0 DUP3 ADD MSTORE PUSH32 0x6E672E0000000000000000000000000000000000000000000000000000000000 PUSH1 0x20 DUP3 ADD MSTORE POP JUMP JUMPDEST PUSH1 0x0 PUSH2 0x5777 PUSH1 0x23 DUP4 PUSH2 0x43EF JUMP JUMPDEST SWAP2 POP PUSH2 0x5782 DUP3 PUSH2 0x571B JUMP JUMPDEST PUSH1 0x40 DUP3 ADD SWAP1 POP SWAP2 SWAP1 POP JUMP JUMPDEST PUSH1 0x0 PUSH1 0x20 DUP3 ADD SWAP1 POP DUP2 DUP2 SUB PUSH1 0x0 DUP4 ADD MSTORE PUSH2 0x57A6 DUP2 PUSH2 0x576A JUMP JUMPDEST SWAP1 POP SWAP2 SWAP1 POP JUMP JUMPDEST PUSH1 0x0 PUSH1 0x40 DUP3 ADD SWAP1 POP PUSH2 0x57C2 PUSH1 0x0 DUP4 ADD DUP6 PUSH2 0x4940 JUMP JUMPDEST PUSH2 0x57CF PUSH1 0x20 DUP4 ADD DUP5 PUSH2 0x41F2 JUMP JUMPDEST SWAP4 SWAP3 POP POP POP JUMP JUMPDEST PUSH32 0x4661696C656420746F2073656E642045746865722E0000000000000000000000 PUSH1 0x0 DUP3 ADD MSTORE POP JUMP JUMPDEST PUSH1 0x0 PUSH2 0x580C PUSH1 0x15 DUP4 PUSH2 0x43EF JUMP JUMPDEST SWAP2 POP PUSH2 0x5817 DUP3 PUSH2 0x57D6 JUMP JUMPDEST PUSH1 0x20 DUP3 ADD SWAP1 POP SWAP2 SWAP1 POP JUMP JUMPDEST PUSH1 0x0 PUSH1 0x20 DUP3 ADD SWAP1 POP DUP2 DUP2 SUB PUSH1 0x0 DUP4 ADD MSTORE PUSH2 0x583B DUP2 PUSH2 0x57FF JUMP JUMPDEST SWAP1 POP SWAP2 SWAP1 POP JUMP JUMPDEST PUSH1 0x0 DUP2 MLOAD SWAP1 POP SWAP2 SWAP1 POP JUMP JUMPDEST PUSH1 0x0 JUMPDEST DUP4 DUP2 LT ISZERO PUSH2 0x586B JUMPI DUP1 DUP3 ADD MLOAD DUP2 DUP5 ADD MSTORE PUSH1 0x20 DUP2 ADD SWAP1 POP PUSH2 0x5850 JUMP JUMPDEST PUSH1 0x0 DUP5 DUP5 ADD MSTORE POP POP POP POP JUMP JUMPDEST PUSH1 0x0 PUSH1 0x1F NOT PUSH1 0x1F DUP4 ADD AND SWAP1 POP SWAP2 SWAP1 POP JUMP JUMPDEST PUSH1 0x0 PUSH2 0x5893 DUP3 PUSH2 0x5842 JUMP JUMPDEST PUSH2 0x589D DUP2 DUP6 PUSH2 0x43EF JUMP JUMPDEST SWAP4 POP PUSH2 0x58AD DUP2 DUP6 PUSH1 0x20 DUP7 ADD PUSH2 0x584D JUMP JUMPDEST PUSH2 0x58B6 DUP2 PUSH2 0x5877 JUMP JUMPDEST DUP5 ADD SWAP2 POP POP SWAP3 SWAP2 POP POP JUMP JUMPDEST PUSH1 0x0 PUSH1 0x40 DUP3 ADD SWAP1 POP DUP2 DUP2 SUB PUSH1 0x0 DUP4 ADD MSTORE PUSH2 0x58DB DUP2 DUP6 PUSH2 0x5888 JUMP JUMPDEST SWAP1 POP PUSH2 0x58EA PUSH1 0x20 DUP4 ADD DUP5 PUSH2 0x41F2 JUMP JUMPDEST SWAP4 SWAP3 POP POP POP JUMP JUMPDEST PUSH32 0x48616E6420000000000000000000000000000000000000000000000000000000 DUP2 MSTORE POP JUMP JUMPDEST PUSH1 0x0 DUP2 SWAP1 POP SWAP3 SWAP2 POP POP JUMP JUMPDEST PUSH1 0x0 PUSH2 0x592D DUP3 PUSH2 0x5842 JUMP JUMPDEST PUSH2 0x5937 DUP2 DUP6 PUSH2 0x5917 JUMP JUMPDEST SWAP4 POP PUSH2 0x5947 DUP2 DUP6 PUSH1 0x20 DUP7 ADD PUSH2 0x584D JUMP JUMPDEST DUP1 DUP5 ADD SWAP2 POP POP SWAP3 SWAP2 POP POP JUMP JUMPDEST PUSH32 0x3A20506C61796572204275737473000000000000000000000000000000000000 DUP2 MSTORE POP JUMP JUMPDEST PUSH1 0x0 PUSH2 0x5984 DUP3 PUSH2 0x58F1 JUMP JUMPDEST PUSH1 0x5 DUP3 ADD SWAP2 POP PUSH2 0x5994 DUP3 DUP5 PUSH2 0x5922 JUMP JUMPDEST SWAP2 POP PUSH2 0x599F DUP3 PUSH2 0x5953 JUMP JUMPDEST PUSH1 0xE DUP3 ADD SWAP2 POP DUP2 SWAP1 POP SWAP3 SWAP2 POP POP JUMP JUMPDEST PUSH32 0x3A204465616C65722042757374732120596F752057696E210000000000000000 DUP2 MSTORE POP JUMP JUMPDEST PUSH1 0x0 PUSH2 0x59DF DUP3 PUSH2 0x58F1 JUMP JUMPDEST PUSH1 0x5 DUP3 ADD SWAP2 POP PUSH2 0x59EF DUP3 DUP5 PUSH2 0x5922 JUMP JUMPDEST SWAP2 POP PUSH2 0x59FA DUP3 PUSH2 0x59AE JUMP JUMPDEST PUSH1 0x18 DUP3 ADD SWAP2 POP DUP2 SWAP1 POP SWAP3 SWAP2 POP POP JUMP JUMPDEST PUSH32 0x3A20596F752057696E2100000000000000000000000000000000000000000000 DUP2 MSTORE POP JUMP JUMPDEST PUSH1 0x0 PUSH2 0x5A3A DUP3 PUSH2 0x58F1 JUMP JUMPDEST PUSH1 0x5 DUP3 ADD SWAP2 POP PUSH2 0x5A4A DUP3 DUP5 PUSH2 0x5922 JUMP JUMPDEST SWAP2 POP PUSH2 0x5A55 DUP3 PUSH2 0x5A09 JUMP JUMPDEST PUSH1 0xA DUP3 ADD SWAP2 POP DUP2 SWAP1 POP SWAP3 SWAP2 POP POP JUMP JUMPDEST PUSH32 0x3A204465616C65722057696E7300000000000000000000000000000000000000 DUP2 MSTORE POP JUMP JUMPDEST PUSH1 0x0 PUSH2 0x5A95 DUP3 PUSH2 0x58F1 JUMP JUMPDEST PUSH1 0x5 DUP3 ADD SWAP2 POP PUSH2 0x5AA5 DUP3 DUP5 PUSH2 0x5922 JUMP JUMPDEST SWAP2 POP PUSH2 0x5AB0 DUP3 PUSH2 0x5A64 JUMP JUMPDEST PUSH1 0xD DUP3 ADD SWAP2 POP DUP2 SWAP1 POP SWAP3 SWAP2 POP POP JUMP JUMPDEST PUSH32 0x3A20507573682028497427732061205469652900000000000000000000000000 DUP2 MSTORE POP JUMP JUMPDEST PUSH1 0x0 PUSH2 0x5AF0 DUP3 PUSH2 0x58F1 JUMP JUMPDEST PUSH1 0x5 DUP3 ADD SWAP2 POP PUSH2 0x5B00 DUP3 DUP5 PUSH2 0x5922 JUMP JUMPDEST SWAP2 POP PUSH2 0x5B0B DUP3 PUSH2 0x5ABF JUMP JUMPDEST PUSH1 0x13 DUP3 ADD SWAP2 POP DUP2 SWAP1 POP SWAP3 SWAP2 POP POP JUMP JUMPDEST PUSH32 0x4661696C656420746F2073656E6420457468657220666F722048616E64200000 DUP2 MSTORE POP JUMP JUMPDEST PUSH1 0x0 PUSH2 0x5B4B DUP3 PUSH2 0x5B1A JUMP JUMPDEST PUSH1 0x1E DUP3 ADD SWAP2 POP PUSH2 0x5B5B DUP3 DUP5 PUSH2 0x5922 JUMP JUMPDEST SWAP2 POP DUP2 SWAP1 POP SWAP3 SWAP2 POP POP JUMP JUMPDEST PUSH1 0x0 PUSH1 0x20 DUP3 ADD SWAP1 POP DUP2 DUP2 SUB PUSH1 0x0 DUP4 ADD MSTORE PUSH2 0x5B80 DUP2 DUP5 PUSH2 0x5888 JUMP JUMPDEST SWAP1 POP SWAP3 SWAP2 POP POP JUMP INVALID LOG2 PUSH5 0x6970667358 0x22 SLT KECCAK256 0xD4 0xAD DUP12 CODECOPY CALLER PUSH23 0x716701E199464B7DE492F6C4A331B0101DCC13213807FE GAS RETURNDATACOPY EXTCODESIZE PUSH5 0x736F6C6343 STOP ADDMOD EQ STOP CALLER "
        },
        "methodIdentifiers": {
          "dealInitialCards()": "f58bb0c9",
          "doubleDown(uint8)": "720d984e",
          "getDealerHand(address)": "35d17c61",
          "getGameState(address)": "d9d60b52",
          "getHandValue(address,bool)": "b0ca5962",
          "getHandValue2(address)": "d06e5c06",
          "getPlayerHand(address)": "cece2fa0",
          "getPlayerHand2(address)": "b9ad583d",
          "hitMultiple(uint8,uint8)": "1949e58b",
          "placeBet()": "f90f4560",
          "playerGames(address)": "40056505",
          "resetGame()": "bb472219",
          "split()": "f7654176",
          "stand(uint8)": "0a2d343a",
          "takeInsurance()": "963661db",
          "withdrawAll()": "853828b6"
        }
      }
    }
  }
}