{
  "contracts/Blackjack.sol": {
    "Blackjack": {
      "abi": [
        {
          "inputs": [],
          "stateMutability": "nonpayable",
          "type": "constructor"
        },
        {
          "anonymous": false,
          "inputs": [
            {
              "indexed": true,
              "internalType": "address",
              "name": "player",
              "type": "address"
            },
            {
              "indexed": false,
              "internalType": "uint256",
              "name": "finalHandValue",
              "type": "uint256"
            }
          ],
          "name": "DealerBust",
          "type": "event"
        },
        {
          "anonymous": false,
          "inputs": [
            {
              "indexed": true,
              "internalType": "address",
              "name": "player",
              "type": "address"
            },
            {
              "indexed": false,
              "internalType": "uint8",
              "name": "card",
              "type": "uint8"
            },
            {
              "indexed": false,
              "internalType": "uint256",
              "name": "handValue",
              "type": "uint256"
            }
          ],
          "name": "DealerCardDealt",
          "type": "event"
        },
        {
          "anonymous": false,
          "inputs": [
            {
              "indexed": true,
              "internalType": "address",
              "name": "player",
              "type": "address"
            },
            {
              "indexed": false,
              "internalType": "uint256",
              "name": "newBet",
              "type": "uint256"
            },
            {
              "indexed": false,
              "internalType": "uint8",
              "name": "handId",
              "type": "uint8"
            }
          ],
          "name": "DoubleDown",
          "type": "event"
        },
        {
          "anonymous": false,
          "inputs": [
            {
              "indexed": true,
              "internalType": "address",
              "name": "player",
              "type": "address"
            }
          ],
          "name": "GameReset",
          "type": "event"
        },
        {
          "anonymous": false,
          "inputs": [
            {
              "indexed": true,
              "internalType": "address",
              "name": "player",
              "type": "address"
            },
            {
              "indexed": false,
              "internalType": "string",
              "name": "result",
              "type": "string"
            },
            {
              "indexed": false,
              "internalType": "uint256",
              "name": "winnings",
              "type": "uint256"
            }
          ],
          "name": "GameResult",
          "type": "event"
        },
        {
          "anonymous": false,
          "inputs": [
            {
              "indexed": true,
              "internalType": "address",
              "name": "player",
              "type": "address"
            },
            {
              "indexed": false,
              "internalType": "uint256",
              "name": "betAmount",
              "type": "uint256"
            }
          ],
          "name": "GameStarted",
          "type": "event"
        },
        {
          "anonymous": false,
          "inputs": [
            {
              "indexed": true,
              "internalType": "address",
              "name": "player",
              "type": "address"
            },
            {
              "indexed": false,
              "internalType": "uint256",
              "name": "amount",
              "type": "uint256"
            }
          ],
          "name": "InsuranceTaken",
          "type": "event"
        },
        {
          "anonymous": false,
          "inputs": [
            {
              "indexed": true,
              "internalType": "address",
              "name": "player",
              "type": "address"
            },
            {
              "indexed": false,
              "internalType": "uint256",
              "name": "finalHandValue",
              "type": "uint256"
            },
            {
              "indexed": false,
              "internalType": "uint8",
              "name": "handId",
              "type": "uint8"
            }
          ],
          "name": "PlayerBust",
          "type": "event"
        },
        {
          "anonymous": false,
          "inputs": [
            {
              "indexed": true,
              "internalType": "address",
              "name": "player",
              "type": "address"
            },
            {
              "indexed": false,
              "internalType": "uint8",
              "name": "card",
              "type": "uint8"
            },
            {
              "indexed": false,
              "internalType": "uint256",
              "name": "handValue",
              "type": "uint256"
            },
            {
              "indexed": false,
              "internalType": "uint8",
              "name": "handId",
              "type": "uint8"
            }
          ],
          "name": "PlayerCardDealt",
          "type": "event"
        },
        {
          "anonymous": false,
          "inputs": [
            {
              "indexed": true,
              "internalType": "address",
              "name": "player",
              "type": "address"
            },
            {
              "indexed": false,
              "internalType": "uint8",
              "name": "handId",
              "type": "uint8"
            }
          ],
          "name": "PlayerStood",
          "type": "event"
        },
        {
          "anonymous": false,
          "inputs": [
            {
              "indexed": true,
              "internalType": "address",
              "name": "player",
              "type": "address"
            },
            {
              "indexed": false,
              "internalType": "uint256",
              "name": "betAmount",
              "type": "uint256"
            }
          ],
          "name": "Split",
          "type": "event"
        },
        {
          "inputs": [],
          "name": "dealInitialCards",
          "outputs": [],
          "stateMutability": "nonpayable",
          "type": "function"
        },
        {
          "inputs": [
            {
              "internalType": "uint8",
              "name": "_handId",
              "type": "uint8"
            }
          ],
          "name": "doubleDown",
          "outputs": [],
          "stateMutability": "payable",
          "type": "function"
        },
        {
          "inputs": [
            {
              "internalType": "address",
              "name": "_player",
              "type": "address"
            }
          ],
          "name": "getDealerHand",
          "outputs": [
            {
              "internalType": "uint8[]",
              "name": "",
              "type": "uint8[]"
            }
          ],
          "stateMutability": "view",
          "type": "function"
        },
        {
          "inputs": [
            {
              "internalType": "address",
              "name": "_player",
              "type": "address"
            }
          ],
          "name": "getGameState",
          "outputs": [
            {
              "internalType": "enum Blackjack.GameState",
              "name": "",
              "type": "uint8"
            }
          ],
          "stateMutability": "view",
          "type": "function"
        },
        {
          "inputs": [
            {
              "internalType": "address",
              "name": "_player",
              "type": "address"
            },
            {
              "internalType": "bool",
              "name": "_isPlayerHand",
              "type": "bool"
            }
          ],
          "name": "getHandValue",
          "outputs": [
            {
              "internalType": "uint256",
              "name": "",
              "type": "uint256"
            }
          ],
          "stateMutability": "view",
          "type": "function"
        },
        {
          "inputs": [
            {
              "internalType": "address",
              "name": "_player",
              "type": "address"
            }
          ],
          "name": "getHandValue2",
          "outputs": [
            {
              "internalType": "uint256",
              "name": "",
              "type": "uint256"
            }
          ],
          "stateMutability": "view",
          "type": "function"
        },
        {
          "inputs": [
            {
              "internalType": "address",
              "name": "_player",
              "type": "address"
            }
          ],
          "name": "getPlayerHand",
          "outputs": [
            {
              "internalType": "uint8[]",
              "name": "",
              "type": "uint8[]"
            }
          ],
          "stateMutability": "view",
          "type": "function"
        },
        {
          "inputs": [
            {
              "internalType": "address",
              "name": "_player",
              "type": "address"
            }
          ],
          "name": "getPlayerHand2",
          "outputs": [
            {
              "internalType": "uint8[]",
              "name": "",
              "type": "uint8[]"
            }
          ],
          "stateMutability": "view",
          "type": "function"
        },
        {
          "inputs": [
            {
              "internalType": "uint8",
              "name": "_numHits",
              "type": "uint8"
            },
            {
              "internalType": "uint8",
              "name": "_handId",
              "type": "uint8"
            }
          ],
          "name": "hitMultiple",
          "outputs": [],
          "stateMutability": "nonpayable",
          "type": "function"
        },
        {
          "inputs": [],
          "name": "owner",
          "outputs": [
            {
              "internalType": "address",
              "name": "",
              "type": "address"
            }
          ],
          "stateMutability": "view",
          "type": "function"
        },
        {
          "inputs": [],
          "name": "placeBet",
          "outputs": [],
          "stateMutability": "payable",
          "type": "function"
        },
        {
          "inputs": [
            {
              "internalType": "address",
              "name": "",
              "type": "address"
            }
          ],
          "name": "playerGames",
          "outputs": [
            {
              "internalType": "uint256",
              "name": "bet",
              "type": "uint256"
            },
            {
              "internalType": "enum Blackjack.GameState",
              "name": "state",
              "type": "uint8"
            },
            {
              "internalType": "uint256",
              "name": "lastBlockNumber",
              "type": "uint256"
            },
            {
              "internalType": "bool",
              "name": "playerStood",
              "type": "bool"
            },
            {
              "internalType": "uint256",
              "name": "bet2",
              "type": "uint256"
            },
            {
              "internalType": "bool",
              "name": "hasSplit",
              "type": "bool"
            },
            {
              "internalType": "bool",
              "name": "playerHand1Done",
              "type": "bool"
            },
            {
              "internalType": "bool",
              "name": "hasDoubledDownHand1",
              "type": "bool"
            },
            {
              "internalType": "bool",
              "name": "hasDoubledDownHand2",
              "type": "bool"
            },
            {
              "internalType": "uint256",
              "name": "insuranceBet",
              "type": "uint256"
            },
            {
              "internalType": "bool",
              "name": "insuranceTaken",
              "type": "bool"
            },
            {
              "internalType": "bool",
              "name": "dealerHasAce",
              "type": "bool"
            }
          ],
          "stateMutability": "view",
          "type": "function"
        },
        {
          "inputs": [],
          "name": "resetGame",
          "outputs": [],
          "stateMutability": "nonpayable",
          "type": "function"
        },
        {
          "inputs": [],
          "name": "split",
          "outputs": [],
          "stateMutability": "payable",
          "type": "function"
        },
        {
          "inputs": [
            {
              "internalType": "uint8",
              "name": "_handId",
              "type": "uint8"
            }
          ],
          "name": "stand",
          "outputs": [],
          "stateMutability": "nonpayable",
          "type": "function"
        },
        {
          "inputs": [],
          "name": "takeInsurance",
          "outputs": [],
          "stateMutability": "payable",
          "type": "function"
        },
        {
          "inputs": [],
          "name": "withdrawAll",
          "outputs": [],
          "stateMutability": "nonpayable",
          "type": "function"
        },
        {
          "stateMutability": "payable",
          "type": "receive"
        }
      ],
      "evm": {
        "bytecode": {
          "linkReferences": {},
          "object": "608060405234801561001057600080fd5b50600180546001600160a01b0319163317905561362b806100326000396000f3fe6080604052600436106101025760003560e01c8063b0ca596211610095578063d06e5c0611610064578063d06e5c0614610315578063d9d60b5214610335578063f58bb0c91461037e578063f765417614610393578063f90f45601461039b57600080fd5b8063b0ca596214610292578063b9ad583d146102c0578063bb472219146102e0578063cece2fa0146102f557600080fd5b8063720d984e116100d1578063720d984e1461022a578063853828b61461023d5780638da5cb5b14610252578063963661db1461028a57600080fd5b80630a2d343a1461010e5780631949e58b1461013057806335d17c6114610150578063400565051461018657600080fd5b3661010957005b600080fd5b34801561011a57600080fd5b5061012e610129366004612ff3565b6103a3565b005b34801561013c57600080fd5b5061012e61014b366004613015565b6106ef565b34801561015c57600080fd5b5061017061016b36600461305f565b610bbf565b60405161017d919061307a565b60405180910390f35b34801561019257600080fd5b506102126101a136600461305f565b60006020819052908152604090208054600382015460048301546005840154600685015460088601546009870154600a90970154959660ff9586169694959384169492938281169361010080850483169462010000810484169463010000009091048416939092808216929004168c565b60405161017d9c9b9a999897969594939291906130f9565b61012e610238366004612ff3565b610c4a565b34801561024957600080fd5b5061012e611367565b34801561025e57600080fd5b50600154610272906001600160a01b031681565b6040516001600160a01b03909116815260200161017d565b61012e6113ff565b34801561029e57600080fd5b506102b26102ad366004613173565b6115e9565b60405190815260200161017d565b3480156102cc57600080fd5b506101706102db36600461305f565b6116da565b3480156102ec57600080fd5b5061012e611748565b34801561030157600080fd5b5061017061031036600461305f565b61192f565b34801561032157600080fd5b506102b261033036600461305f565b61199d565b34801561034157600080fd5b5061037161035036600461305f565b6001600160a01b031660009081526020819052604090206003015460ff1690565b60405161017d91906131af565b34801561038a57600080fd5b5061012e611a09565b61012e611b4c565b61012e61200b565b6002803360009081526020819052604090206003015460ff1660048111156103cd576103cd6130c1565b146103f35760405162461bcd60e51b81526004016103ea906131bd565b60405180910390fd5b33600090815260208190526040902060ff83166001036105a5576008810154610100900460ff16156104375760405162461bcd60e51b81526004016103ea90613200565b600881015462010000900460ff16156104a65760405162461bcd60e51b815260206004820152602b60248201527f43616e6e6f74207374616e64206f6e2068616e64203120616674657220646f7560448201526a313634b733903237bbb71760a91b60648201526084016103ea565b60088101805461ff0019166101001790556040516001815233906000805160206135d68339815191529060200160405180910390a2600881015460ff168015610567575060006105658260070180548060200260200160405190810160405280929190818152602001828054801561055b57602002820191906000526020600020906000905b825461010083900a900460ff1681526020600192830181810494850194909303909202910180841161052c5790505b5050505050612244565b115b801561057f575060088101546301000000900460ff16155b6105a0576003818101805460ff19166001835b02179055506105a033612311565b505050565b8260ff1660021480156105bc5750600881015460ff165b15610691576008810154610100900460ff166105ea5760405162461bcd60e51b81526004016103ea90613237565b60088101546301000000900460ff161561065a5760405162461bcd60e51b815260206004820152602b60248201527f43616e6e6f74207374616e64206f6e2068616e64203220616674657220646f7560448201526a313634b733903237bbb71760a91b60648201526084016103ea565b6040516002815233906000805160206135d68339815191529060200160405180910390a26003818101805460ff1916600183610592565b60405162461bcd60e51b815260206004820152602d60248201527f496e76616c69642068616e64204944206f72206e6f2073706c69742068616e6460448201526c103a379039ba30b7321037b71760991b60648201526084016103ea565b6002803360009081526020819052604090206003015460ff166004811115610719576107196130c1565b146107365760405162461bcd60e51b81526004016103ea906131bd565b33600090815260208190526040902060ff84166107955760405162461bcd60e51b815260206004820152601b60248201527f4d75737420686974206174206c65617374206f6e6520636172642e000000000060448201526064016103ea565b6000808460ff166001036107e7576008830154610100900460ff16156107cd5760405162461bcd60e51b81526004016103ea90613200565b50506008810154600182019062010000900460ff166108a0565b8460ff1660021480156107fe5750600883015460ff165b15610847576008830154610100900460ff1661082c5760405162461bcd60e51b81526004016103ea90613237565b5050600881015460078201906301000000900460ff166108a0565b60405162461bcd60e51b815260206004820152602860248201527f496e76616c69642068616e64204944206f72206e6f2073706c69742068616e64604482015267103a37903434ba1760c11b60648201526084016103ea565b80156109035760405162461bcd60e51b815260206004820152602c60248201527f43616e6e6f742068697420616674657220646f75626c696e6720646f776e206f60448201526b37103a3434b9903430b7321760a11b60648201526084016103ea565b60005b8660ff168160ff161015610bb657610920336001886125bc565b50600061097d8480548060200260200160405190810160405280929190818152602001828054801561055b576000918252602091829020805460ff16845290820283019290916001910180841161052c5790505050505050612244565b90506015811115610ac0576040805182815260ff8916602082015233917f44ef28e569839e28c1269b483e0d38e7accd6ca7c0a5b8855cc8fbb91c48f5b0910160405180910390a2600885015460ff1615610a86578660ff16600103610a685760088501805461ff00191661010017908190556301000000900460ff16158015610a6357506000610a618660070180548060200260200160405190810160405280929190818152602001828054801561055b576000918252602091829020805460ff16845290820283019290916001910180841161052c5790505050505050612244565b115b610a81575b6003858101805460ff19169091179055610a8133612311565b610ab6565b610ab6336040518060400160405280600c81526020016b506c6179657220427573747360a01b8152506000612979565b5050505050505050565b80601503610ba35760405160ff8816815233906000805160206135d68339815191529060200160405180910390a2600885015460ff1615610b8a578660ff16600103610a685760088501805461ff00191661010017908190556301000000900460ff16158015610a6357506000610a618660070180548060200260200160405190810160405280929190818152602001828054801561055b576000918252602091829020805460ff16845290820283019290916001910180841161052c5790505050505050612244565b6003858101805460ff19169091179055610ab633612311565b5080610bae81613297565b915050610906565b50505050505050565b6001600160a01b03811660009081526020818152604091829020600201805483518184028101840190945280845260609392830182828015610c3e57602002820191906000526020600020906000905b825461010083900a900460ff16815260206001928301818104948501949093039092029101808411610c0f5790505b50505050509050919050565b6002803360009081526020819052604090206003015460ff166004811115610c7457610c746130c1565b14610c915760405162461bcd60e51b81526004016103ea906131bd565b3360009081526020819052604081209060ff8416600103610e2f576008820154610100900460ff1615610cd65760405162461bcd60e51b81526004016103ea90613200565b600882015462010000900460ff1615610d315760405162461bcd60e51b815260206004820152601f60248201527f416c726561647920646f75626c656420646f776e206f6e2068616e6420312e0060448201526064016103ea565b6001820154600214610d985760405162461bcd60e51b815260206004820152602a60248201527f43616e206f6e6c7920646f75626c6520646f776e206f6e20696e697469616c206044820152693a3bb79031b0b932399760b11b60648201526084016103ea565b81543414610df95760405162461bcd60e51b815260206004820152602860248201527f4d75737420646f75626c6520746865206f726967696e616c2062657420666f72604482015267103430b73210189760c11b60648201526084016103ea565b34826000016000828254610e0d91906132b6565b90915550505060088101805462ff00001916620100001790556001810161104a565b8360ff166002148015610e465750600882015460ff165b15610fe6576008820154610100900460ff16610e745760405162461bcd60e51b81526004016103ea90613237565b60088201546301000000900460ff1615610ed05760405162461bcd60e51b815260206004820152601f60248201527f416c726561647920646f75626c656420646f776e206f6e2068616e6420322e0060448201526064016103ea565b6007820154600214610f4a5760405162461bcd60e51b815260206004820152603960248201527f43616e206f6e6c7920646f75626c6520646f776e206f6e20696e697469616c2060448201527f74776f20636172647320666f722073706c69742068616e642e0000000000000060648201526084016103ea565b81600601543414610fae5760405162461bcd60e51b815260206004820152602860248201527f4d75737420646f75626c6520746865206f726967696e616c2062657420666f72604482015267103430b73210191760c11b60648201526084016103ea565b34826006016000828254610fc291906132b6565b90915550505060088101805463ff000000191663010000001790556007810161104a565b60405162461bcd60e51b815260206004820152603360248201527f496e76616c69642068616e64204944206f72206e6f2073706c69742068616e64604482015272103a37903237bab13632903237bbb71037b71760691b60648201526084016103ea565b611056336001866125bc565b50337f34a9fc4139a8845993518f8f647735dcafc9dd04cec976cef471de6067a2a4e5600160ff87161461108e578360060154611091565b83545b6040805191825260ff881660208301520160405180910390a260006111068280548060200260200160405190810160405280929190818152602001828054801561055b576000918252602091829020805460ff16845290820283019290916001910180841161052c5790505050505050612244565b9050601581111561126c576040805182815260ff8716602082015233917f44ef28e569839e28c1269b483e0d38e7accd6ca7c0a5b8855cc8fbb91c48f5b0910160405180910390a2600883015460ff161561122b578460ff1660010361120e5760088301805461ff00191661010017908190556301000000900460ff161580156111ec575060006111ea8460070180548060200260200160405190810160405280929190818152602001828054801561055b576000918252602091829020805460ff16845290820283019290916001910180841161052c5790505050505050612244565b115b611209576003838101805460ff1916909117905561120933612311565b611360565b6003838101805460ff19166001835b021790555061120933612311565b611209336040518060400160405280601a81526020017f506c617965722042757374732028446f75626c6520446f776e290000000000008152506000612979565b60405160ff8616815233906000805160206135d68339815191529060200160405180910390a2600883015460ff1615611347578460ff1660010361120e5760088301805461ff00191661010017908190556301000000900460ff161580156113305750600061132e8460070180548060200260200160405190810160405280929190818152602001828054801561055b576000918252602091829020805460ff16845290820283019290916001910180841161052c5790505050505050612244565b115b611209576003838101805460ff191660018361121d565b6003838101805460ff1916909117905561136033612311565b5050505050565b6001546001600160a01b031633146113d05760405162461bcd60e51b815260206004820152602660248201527f4f6e6c7920746865206f776e65722063616e2063616c6c20746869732066756e60448201526531ba34b7b71760d11b60648201526084016103ea565b60405133904780156108fc02916000818181858888f193505050501580156113fc573d6000803e3d6000fd5b50565b6002803360009081526020819052604090206003015460ff166004811115611429576114296130c1565b146114465760405162461bcd60e51b81526004016103ea906131bd565b336000908152602081905260409020600a810154610100900460ff166114ca5760405162461bcd60e51b815260206004820152603360248201527f496e737572616e63652063616e206f6e6c792062652074616b656e206966206460448201527232b0b632b91039b437bbb99030b71020b1b29760691b60648201526084016103ea565b600a81015460ff161561151f5760405162461bcd60e51b815260206004820152601860248201527f496e737572616e636520616c72656164792074616b656e2e000000000000000060448201526064016103ea565b805461152d906002906132df565b34146115935760405162461bcd60e51b815260206004820152602f60248201527f496e737572616e636520626574206d7573742062652068616c66206f6620746860448201526e329037b934b3b4b730b6103132ba1760891b60648201526084016103ea565b3460098201819055600a8201805460ff1916600117905560405133917f4624b7adec753826941d16f639ff48026f4cb0cdeb0be0a59b6d57147f48bced916115dd91815260200190565b60405180910390a25050565b60008115611666576001600160a01b03831660009081526020818152604091829020600101805483518184028101840190945280845261165f939283018282801561055b576000918252602091829020805460ff16845290820283019290916001910180841161052c5790505050505050612244565b90506116d4565b6001600160a01b03831660009081526020818152604091829020600201805483518184028101840190945280845261165f939283018282801561055b576000918252602091829020805460ff16845290820283019290916001910180841161052c5790505050505050612244565b92915050565b6001600160a01b03811660009081526020818152604091829020600701805483518184028101840190945280845260609392830182828015610c3e576000918252602091829020805460ff168452908202830192909160019101808411610c0f575094979650505050505050565b33600090815260208190526040812090600382015460ff166004811115611771576117716130c1565b148061179557506004600382015460ff166004811115611793576117936130c1565b145b806117b857506001600382015460ff1660048111156117b6576117b66130c1565b145b6118505760405162461bcd60e51b815260206004820152605f60248201527f43616e6e6f742072657365742067616d6520696e2063757272656e742061637460448201527f69766520706c6179696e672073746174652e2046696e6973682074686520726f60648201527f756e64206f72207761697420666f7220697420746f20636f6e636c7564652e00608482015260a4016103ea565b60008082556040805191825260208201908190529051611874916001840191612f22565b506040805160008152602081019182905251611894916002840191612f22565b5060038101805460ff1990811690915560058201805490911690556000600482018190556006820181905560408051918252602082019081905290516118de916007840191612f22565b5060088101805463ffffffff19169055600060098201819055600a8201805461ffff1916905560405133917f5c5242c86e1c99f381866c8c3d6542c0f9691ec890edfe6699def7dafa9a34f691a250565b6001600160a01b03811660009081526020818152604091829020600101805483518184028101840190945280845260609392830182828015610c3e576000918252602091829020805460ff168452908202830192909160019101808411610c0f575094979650505050505050565b6001600160a01b03811660009081526020818152604080832060070180548251818502810185019093528083526116d49383018282801561055b576000918252602091829020805460ff16845290820283019290916001910180841161052c5790505050505050612244565b6001803360009081526020819052604090206003015460ff166004811115611a3357611a336130c1565b14611a505760405162461bcd60e51b81526004016103ea906131bd565b33600081815260208190526040902090611a6c906001806125bc565b506000611a7b336000806125bc565b9050611a89336001806125bc565b508060ff16600103611aa757600a8201805461ff0019166101001790555b6000611b068360010180548060200260200160405190810160405280929190818152602001828054801561055b576000918252602091829020805460ff16845290820283019290916001910180841161052c5790505050505050612244565b905080601503611b2e576003838101805460ff19169091179055611b2933612311565b611b46565b6003830180546002919060ff19166001835b02179055505b50505050565b6002803360009081526020819052604090206003015460ff166004811115611b7657611b766130c1565b14611b935760405162461bcd60e51b81526004016103ea906131bd565b336000908152602081905260409020600881015460ff1615611bf75760405162461bcd60e51b815260206004820152601960248201527f506c617965722068617320616c72656164792073706c69742e0000000000000060448201526064016103ea565b6001810154600214611c555760405162461bcd60e51b815260206004820152602160248201527f43616e206f6e6c792073706c697420696e697469616c2074776f2063617264736044820152601760f91b60648201526084016103ea565b80600101600181548110611c6b57611c6b613309565b90600052602060002090602091828204019190069054906101000a900460ff1660ff1681600101600081548110611ca457611ca4613309565b60009182526020918290209181049091015460ff601f9092166101000a90041614611d225760405162461bcd60e51b815260206004820152602860248201527f4361726473206d757374206265206f66207468652073616d652072616e6b2074604482015267379039b83634ba1760c11b60648201526084016103ea565b80543414611d875760405162461bcd60e51b815260206004820152602c60248201527f4d75737420706c61636520616e20657175616c2062657420666f72207468652060448201526b39b2b1b7b732103430b7321760a11b60648201526084016103ea565b60088101805460ff1916600190811790915534600683015581810180546007840192908110611db857611db8613309565b600091825260208083208183040154845460018181018755958552938290209184049091018054601f94851661010090810a60ff96909516900a909204841683029290930219161790558101805480611e1357611e1361331f565b60019003818190600052602060002090602091828204019190066101000a81549060ff02191690559055611e49336001806125bc565b50611e5733600160026125bc565b506000611eb78260010180548060200260200160405190810160405280929190818152602001828054801561055b576000918252602091829020805460ff16845290820283019290916001910180841161052c5790505050505050612244565b90506000611f188360070180548060200260200160405190810160405280929190818152602001828054801561055b576000918252602091829020805460ff16845290820283019290916001910180841161052c5790505050505050612244565b905081601503611f585760088301805461ff0019166101001790556040516001815233906000805160206135d68339815191529060200160405180910390a25b80601503611f9f5781601503611f7a5760088301805461ff0019166101001790555b6040516002815233906000805160206135d68339815191529060200160405180910390a25b816015148015611faf5750806015145b15611fcd576003838101805460ff19169091179055611fcd33612311565b825460405190815233907fe1665329182bc1dab50c9b04ea6bd37107b73ed7c585951d808b02cd9b659627906020015b60405180910390a250505050565b3360009081526020819052604081206003015460ff166004811115612032576120326130c1565b1480612064575060043360009081526020819052604090206003015460ff166004811115612062576120626130c1565b145b6120ec5760405162461bcd60e51b815260206004820152604d60248201527f43616e6e6f7420706c616365206265743a20412067616d6520697320616c726560448201527f61647920696e2070726f6772657373206f72206e6f7420696e2061207265736560648201526c3a3a30b136329039ba30ba329760991b608482015260a4016103ea565b6000341161214a5760405162461bcd60e51b815260206004820152602560248201527f42657420616d6f756e74206d7573742062652067726561746572207468616e206044820152643d32b9379760d91b60648201526084016103ea565b336000908152602081815260408083203481558151938452918301908190529151909161217c91600184019190612f22565b50604080516000815260208101918290525161219c916002840191612f22565b50600381018054600160ff1991821617909155600582018054909116905543600482015560006006820181905560408051918252602082019081905290516121e8916007840191612f22565b5060088101805463ffffffff1916905560006009820155600a8101805461ffff1916905560405134815233907fea32a03505fd9f04d664676d72295a86c5fb0465e69654751907ca305bc1d1c79060200160405180910390a250565b60008080805b84518110156122d45784818151811061226557612265613309565b602002602001015160ff16600103612297578161228181613335565b92506122909050600b846132b6565b92506122c2565b8481815181106122a9576122a9613309565b602002602001015160ff16836122bf91906132b6565b92505b806122cc81613335565b91505061224a565b505b6015821180156122e65750600081115b1561230a576122f6600a8361334e565b91508061230281613361565b9150506122d6565b5092915050565b6001600160a01b03811660009081526020818152604080832060028101805483518186028101860190945280845291949361238393929083018282801561055b576000918252602091829020805460ff16845290820283019290916001910180841161052c5790505050505050612244565b60028301549091506001036123ff5761239e836000806125bc565b506123fc8260020180548060200260200160405190810160405280929190818152602001828054801561055b576000918252602091829020805460ff16845290820283019290916001910180841161052c5790505050505050612244565b90505b600a82015460ff16156124e05780601514801561241f5750600280830154145b156124e0576000836001600160a01b0316836009015460036124419190613378565b604051600081818185875af1925050503d806000811461247d576040519150601f19603f3d011682016040523d82523d6000602084013e612482565b606091505b50509050806124de5760405162461bcd60e51b815260206004820152602260248201527f4661696c656420746f2073656e6420696e737572616e63652077696e6e696e67604482015261399760f11b60648201526084016103ea565b505b601181101561255a576124f5836000806125bc565b506125538260020180548060200260200160405190810160405280929190818152602001828054801561055b576000918252602091829020805460ff16845290820283019290916001910180841161052c5790505050505050612244565b90506124e0565b60158111156125b157826001600160a01b03167f4bbd2278c3b9557e7ddf4e738c92e4bda30d174adaf84ecddbfc99412bf8ba198260405161259e91815260200190565b60405180910390a26105a0836001612a7e565b6105a0836000612a7e565b6001600160a01b038316600090815260208181526040808320600481015491519092849261261a92429244928b92909101938452602084019290925260601b6bffffffffffffffffffffffff19166040830152605482015260740190565b60408051601f19818403018152919052805160209091012043600484015590506000612647600d8361338f565b6126529060016132b6565b9050600a8160ff1611156126645750600a5b8515612896578460ff1660010361275a57600180840180549182018155600081815260209081902081840401805460ff808716601f9096166101000a9586029502191693909317909255805460408051828502810185019091528181526001600160a01b038b16937f7d87dd80630649d4aa92025481d68bb751a5b1f79e61f1088a799af0c76fb4b4938693612730939283018282801561055b576000918252602091829020805460ff16845290820283019290916001910180841161052c5790505050505050612244565b6040805160ff909316835260208301919091526001908201526060015b60405180910390a261296f565b8460ff1660020361284257600783018054600181018255600082815260209081902081830401805460ff808716601f9095166101000a9485029402191692909217909155815460408051828402810184019091528181526001600160a01b038b16937f7d87dd80630649d4aa92025481d68bb751a5b1f79e61f1088a799af0c76fb4b493869361282193929183018282801561055b576000918252602091829020805460ff16845290820283019290916001910180841161052c5790505050505050612244565b6040805160ff9093168352602083019190915260029082015260600161274d565b60405162461bcd60e51b815260206004820152602360248201527f496e76616c696420706c617965722068616e6420494420666f72206465616c6960448201526237339760e91b60648201526084016103ea565b600283018054600181018255600082815260209081902081830401805460ff808716601f9095166101000a9485029402191692909217909155815460408051828402810184019091528181526001600160a01b038b16937fc534ee2eedb919439a8cc001f81c772938e9de503140e68a0a1ab20fee8ed13793869361295293929183018282801561055b576000918252602091829020805460ff16845290820283019290916001910180841161052c5790505050505050612244565b6040805160ff909316835260208301919091520160405180910390a25b9695505050505050565b6001600160a01b038316600090815260208190526040902060038101805460ff191660041790558115612a43576000846001600160a01b03168360405160006040518083038185875af1925050503d80600081146129f3576040519150601f19603f3d011682016040523d82523d6000602084013e6129f8565b606091505b5050905080612a415760405162461bcd60e51b81526020600482015260156024820152742330b4b632b2103a379039b2b7321022ba3432b91760591b60448201526064016103ea565b505b836001600160a01b03167f79e3a2f58098f8de6628c96c4444e59e851c17fd85c2139cb27ca031f7246d7a8484604051611ffd9291906133f3565b6001600160a01b038216600090815260208181526040808320600281018054835181860281018601909452808452919493612af093929083018282801561055b576000918252602091829020805460ff16845290820283019290916001910180841161052c5790505050505050612244565b9050612b758483600101805480602002602001604051908101604052809291908181526020018280548015612b6257602002820191906000526020600020906000905b825461010083900a900460ff16815260206001928301818104948501949093039092029101808411612b335790505b5050505050846000015460018588612c1b565b600882015460ff1615612c0557612c058483600701805480602002602001604051908101604052809291908181526020018280548015612bf257602002820191906000526020600020906000905b825461010083900a900460ff16815260206001928301818104948501949093039092029101808411612bc35790505b5050505050846006015460028588612c1b565b6003820180546004919060ff1916600183611b40565b6000612c2686612244565b9050606060006015831115612c6857612c3e86612e0f565b604051602001612c4e9190613415565b604051602081830303815290604052915060009050612d1b565b8315612cab57612c7786612e0f565b604051602001612c87919061345a565b60408051601f198184030181529190529150612ca4876002613378565b9050612d1b565b84831115612ccc57612cbc86612e0f565b604051602001612c8791906134ae565b84831015612ced57612cdd86612e0f565b604051602001612c4e91906134ef565b612cf686612e0f565b604051602001612d069190613533565b60405160208183030381529060405291508690505b8015612dc1576000896001600160a01b03168260405160006040518083038185875af1925050503d8060008114612d6e576040519150601f19603f3d011682016040523d82523d6000602084013e612d73565b606091505b5050905080612d8188612e0f565b604051602001612d91919061357d565b60405160208183030381529060405290612dbe5760405162461bcd60e51b81526004016103ea91906135c2565b50505b886001600160a01b03167f79e3a2f58098f8de6628c96c4444e59e851c17fd85c2139cb27ca031f7246d7a8383604051612dfc9291906133f3565b60405180910390a2505050505050505050565b60608160ff16600003612e395750506040805180820190915260018152600360fc1b602082015290565b60ff82166000815b8015612e6657612e52600a826132df565b905081612e5e81613335565b925050612e41565b60008267ffffffffffffffff811115612e8157612e816132f3565b6040519080825280601f01601f191660200182016040528015612eab576020820181803683370190505b509050825b8415612f185780612ec081613361565b9150612ecf9050600a8661338f565b612eda9060306132b6565b60f81b828281518110612eef57612eef613309565b60200101906001600160f81b031916908160001a905350612f11600a866132df565b9450612eb0565b5095945050505050565b82805482825590600052602060002090601f01602090048101928215612fb85791602002820160005b83821115612f8957835183826101000a81548160ff021916908360ff1602179055509260200192600101602081600001049283019260010302612f4b565b8015612fb65782816101000a81549060ff0219169055600101602081600001049283019260010302612f89565b505b50612fc4929150612fc8565b5090565b5b80821115612fc45760008155600101612fc9565b803560ff81168114612fee57600080fd5b919050565b60006020828403121561300557600080fd5b61300e82612fdd565b9392505050565b6000806040838503121561302857600080fd5b61303183612fdd565b915061303f60208401612fdd565b90509250929050565b80356001600160a01b0381168114612fee57600080fd5b60006020828403121561307157600080fd5b61300e82613048565b6020808252825182820181905260009190848201906040850190845b818110156130b557835160ff1683529284019291840191600101613096565b50909695505050505050565b634e487b7160e01b600052602160045260246000fd5b600581106130f557634e487b7160e01b600052602160045260246000fd5b9052565b8c8152610180810161310e602083018e6130d7565b8b60408301528a1515606083015289608083015288151560a083015287151560c083015286151560e08301528515156101008301528461012083015261315961014083018515159052565b8215156101608301529d9c50505050505050505050505050565b6000806040838503121561318657600080fd5b61318f83613048565b9150602083013580151581146131a457600080fd5b809150509250929050565b602081016116d482846130d7565b60208082526023908201527f496e76616c69642067616d6520737461746520666f722074686973206163746960408201526237b71760e91b606082015260800190565b60208082526017908201527f48616e64203120697320616c726561647920646f6e652e000000000000000000604082015260600190565b6020808252602a908201527f48616e642031206d75737420626520646f6e65206265666f726520706c6179696040820152693733902430b73210191760b11b606082015260800190565b634e487b7160e01b600052601160045260246000fd5b600060ff821660ff81036132ad576132ad613281565b60010192915050565b808201808211156116d4576116d4613281565b634e487b7160e01b600052601260045260246000fd5b6000826132ee576132ee6132c9565b500490565b634e487b7160e01b600052604160045260246000fd5b634e487b7160e01b600052603260045260246000fd5b634e487b7160e01b600052603160045260246000fd5b60006001820161334757613347613281565b5060010190565b818103818111156116d4576116d4613281565b60008161337057613370613281565b506000190190565b80820281158282048414176116d4576116d4613281565b60008261339e5761339e6132c9565b500690565b60005b838110156133be5781810151838201526020016133a6565b50506000910152565b600081518084526133df8160208601602086016133a3565b601f01601f19169290920160200192915050565b60408152600061340660408301856133c7565b90508260208301529392505050565b6402430b732160dd1b8152600082516134358160058501602087016133a3565b6d3a20506c6179657220427573747360901b6005939091019283015250601301919050565b6402430b732160dd1b81526000825161347a8160058501602087016133a3565b7f3a204465616c65722042757374732120596f752057696e2100000000000000006005939091019283015250601d01919050565b6402430b732160dd1b8152600082516134ce8160058501602087016133a3565b693a20596f752057696e2160b01b6005939091019283015250600f01919050565b6402430b732160dd1b81526000825161350f8160058501602087016133a3565b6c3a204465616c65722057696e7360981b6005939091019283015250601201919050565b6402430b732160dd1b8152600082516135538160058501602087016133a3565b723a20507573682028497427732061205469652960681b6005939091019283015250601801919050565b7f4661696c656420746f2073656e6420457468657220666f722048616e642000008152600082516135b581601e8501602087016133a3565b91909101601e0192915050565b60208152600061300e60208301846133c756fecf9491c50952c181187e767c568b4a5ba558d5b1d35f47d6307fa1d7709c5110a264697066735822122030a37630d3e4dec8da273580afc2487c7b5c7dea56d8ac4e36ad79f37826f3f964736f6c63430008140033",
          "opcodes": "PUSH1 0x80 PUSH1 0x40 MSTORE CALLVALUE DUP1 ISZERO PUSH2 0x10 JUMPI PUSH1 0x0 DUP1 REVERT JUMPDEST POP PUSH1 0x1 DUP1 SLOAD PUSH1 0x1 PUSH1 0x1 PUSH1 0xA0 SHL SUB NOT AND CALLER OR SWAP1 SSTORE PUSH2 0x362B DUP1 PUSH2 0x32 PUSH1 0x0 CODECOPY PUSH1 0x0 RETURN INVALID PUSH1 0x80 PUSH1 0x40 MSTORE PUSH1 0x4 CALLDATASIZE LT PUSH2 0x102 JUMPI PUSH1 0x0 CALLDATALOAD PUSH1 0xE0 SHR DUP1 PUSH4 0xB0CA5962 GT PUSH2 0x95 JUMPI DUP1 PUSH4 0xD06E5C06 GT PUSH2 0x64 JUMPI DUP1 PUSH4 0xD06E5C06 EQ PUSH2 0x315 JUMPI DUP1 PUSH4 0xD9D60B52 EQ PUSH2 0x335 JUMPI DUP1 PUSH4 0xF58BB0C9 EQ PUSH2 0x37E JUMPI DUP1 PUSH4 0xF7654176 EQ PUSH2 0x393 JUMPI DUP1 PUSH4 0xF90F4560 EQ PUSH2 0x39B JUMPI PUSH1 0x0 DUP1 REVERT JUMPDEST DUP1 PUSH4 0xB0CA5962 EQ PUSH2 0x292 JUMPI DUP1 PUSH4 0xB9AD583D EQ PUSH2 0x2C0 JUMPI DUP1 PUSH4 0xBB472219 EQ PUSH2 0x2E0 JUMPI DUP1 PUSH4 0xCECE2FA0 EQ PUSH2 0x2F5 JUMPI PUSH1 0x0 DUP1 REVERT JUMPDEST DUP1 PUSH4 0x720D984E GT PUSH2 0xD1 JUMPI DUP1 PUSH4 0x720D984E EQ PUSH2 0x22A JUMPI DUP1 PUSH4 0x853828B6 EQ PUSH2 0x23D JUMPI DUP1 PUSH4 0x8DA5CB5B EQ PUSH2 0x252 JUMPI DUP1 PUSH4 0x963661DB EQ PUSH2 0x28A JUMPI PUSH1 0x0 DUP1 REVERT JUMPDEST DUP1 PUSH4 0xA2D343A EQ PUSH2 0x10E JUMPI DUP1 PUSH4 0x1949E58B EQ PUSH2 0x130 JUMPI DUP1 PUSH4 0x35D17C61 EQ PUSH2 0x150 JUMPI DUP1 PUSH4 0x40056505 EQ PUSH2 0x186 JUMPI PUSH1 0x0 DUP1 REVERT JUMPDEST CALLDATASIZE PUSH2 0x109 JUMPI STOP JUMPDEST PUSH1 0x0 DUP1 REVERT JUMPDEST CALLVALUE DUP1 ISZERO PUSH2 0x11A JUMPI PUSH1 0x0 DUP1 REVERT JUMPDEST POP PUSH2 0x12E PUSH2 0x129 CALLDATASIZE PUSH1 0x4 PUSH2 0x2FF3 JUMP JUMPDEST PUSH2 0x3A3 JUMP JUMPDEST STOP JUMPDEST CALLVALUE DUP1 ISZERO PUSH2 0x13C JUMPI PUSH1 0x0 DUP1 REVERT JUMPDEST POP PUSH2 0x12E PUSH2 0x14B CALLDATASIZE PUSH1 0x4 PUSH2 0x3015 JUMP JUMPDEST PUSH2 0x6EF JUMP JUMPDEST CALLVALUE DUP1 ISZERO PUSH2 0x15C JUMPI PUSH1 0x0 DUP1 REVERT JUMPDEST POP PUSH2 0x170 PUSH2 0x16B CALLDATASIZE PUSH1 0x4 PUSH2 0x305F JUMP JUMPDEST PUSH2 0xBBF JUMP JUMPDEST PUSH1 0x40 MLOAD PUSH2 0x17D SWAP2 SWAP1 PUSH2 0x307A JUMP JUMPDEST PUSH1 0x40 MLOAD DUP1 SWAP2 SUB SWAP1 RETURN JUMPDEST CALLVALUE DUP1 ISZERO PUSH2 0x192 JUMPI PUSH1 0x0 DUP1 REVERT JUMPDEST POP PUSH2 0x212 PUSH2 0x1A1 CALLDATASIZE PUSH1 0x4 PUSH2 0x305F JUMP JUMPDEST PUSH1 0x0 PUSH1 0x20 DUP2 SWAP1 MSTORE SWAP1 DUP2 MSTORE PUSH1 0x40 SWAP1 KECCAK256 DUP1 SLOAD PUSH1 0x3 DUP3 ADD SLOAD PUSH1 0x4 DUP4 ADD SLOAD PUSH1 0x5 DUP5 ADD SLOAD PUSH1 0x6 DUP6 ADD SLOAD PUSH1 0x8 DUP7 ADD SLOAD PUSH1 0x9 DUP8 ADD SLOAD PUSH1 0xA SWAP1 SWAP8 ADD SLOAD SWAP6 SWAP7 PUSH1 0xFF SWAP6 DUP7 AND SWAP7 SWAP5 SWAP6 SWAP4 DUP5 AND SWAP5 SWAP3 SWAP4 DUP3 DUP2 AND SWAP4 PUSH2 0x100 DUP1 DUP6 DIV DUP4 AND SWAP5 PUSH3 0x10000 DUP2 DIV DUP5 AND SWAP5 PUSH4 0x1000000 SWAP1 SWAP2 DIV DUP5 AND SWAP4 SWAP1 SWAP3 DUP1 DUP3 AND SWAP3 SWAP1 DIV AND DUP13 JUMP JUMPDEST PUSH1 0x40 MLOAD PUSH2 0x17D SWAP13 SWAP12 SWAP11 SWAP10 SWAP9 SWAP8 SWAP7 SWAP6 SWAP5 SWAP4 SWAP3 SWAP2 SWAP1 PUSH2 0x30F9 JUMP JUMPDEST PUSH2 0x12E PUSH2 0x238 CALLDATASIZE PUSH1 0x4 PUSH2 0x2FF3 JUMP JUMPDEST PUSH2 0xC4A JUMP JUMPDEST CALLVALUE DUP1 ISZERO PUSH2 0x249 JUMPI PUSH1 0x0 DUP1 REVERT JUMPDEST POP PUSH2 0x12E PUSH2 0x1367 JUMP JUMPDEST CALLVALUE DUP1 ISZERO PUSH2 0x25E JUMPI PUSH1 0x0 DUP1 REVERT JUMPDEST POP PUSH1 0x1 SLOAD PUSH2 0x272 SWAP1 PUSH1 0x1 PUSH1 0x1 PUSH1 0xA0 SHL SUB AND DUP2 JUMP JUMPDEST PUSH1 0x40 MLOAD PUSH1 0x1 PUSH1 0x1 PUSH1 0xA0 SHL SUB SWAP1 SWAP2 AND DUP2 MSTORE PUSH1 0x20 ADD PUSH2 0x17D JUMP JUMPDEST PUSH2 0x12E PUSH2 0x13FF JUMP JUMPDEST CALLVALUE DUP1 ISZERO PUSH2 0x29E JUMPI PUSH1 0x0 DUP1 REVERT JUMPDEST POP PUSH2 0x2B2 PUSH2 0x2AD CALLDATASIZE PUSH1 0x4 PUSH2 0x3173 JUMP JUMPDEST PUSH2 0x15E9 JUMP JUMPDEST PUSH1 0x40 MLOAD SWAP1 DUP2 MSTORE PUSH1 0x20 ADD PUSH2 0x17D JUMP JUMPDEST CALLVALUE DUP1 ISZERO PUSH2 0x2CC JUMPI PUSH1 0x0 DUP1 REVERT JUMPDEST POP PUSH2 0x170 PUSH2 0x2DB CALLDATASIZE PUSH1 0x4 PUSH2 0x305F JUMP JUMPDEST PUSH2 0x16DA JUMP JUMPDEST CALLVALUE DUP1 ISZERO PUSH2 0x2EC JUMPI PUSH1 0x0 DUP1 REVERT JUMPDEST POP PUSH2 0x12E PUSH2 0x1748 JUMP JUMPDEST CALLVALUE DUP1 ISZERO PUSH2 0x301 JUMPI PUSH1 0x0 DUP1 REVERT JUMPDEST POP PUSH2 0x170 PUSH2 0x310 CALLDATASIZE PUSH1 0x4 PUSH2 0x305F JUMP JUMPDEST PUSH2 0x192F JUMP JUMPDEST CALLVALUE DUP1 ISZERO PUSH2 0x321 JUMPI PUSH1 0x0 DUP1 REVERT JUMPDEST POP PUSH2 0x2B2 PUSH2 0x330 CALLDATASIZE PUSH1 0x4 PUSH2 0x305F JUMP JUMPDEST PUSH2 0x199D JUMP JUMPDEST CALLVALUE DUP1 ISZERO PUSH2 0x341 JUMPI PUSH1 0x0 DUP1 REVERT JUMPDEST POP PUSH2 0x371 PUSH2 0x350 CALLDATASIZE PUSH1 0x4 PUSH2 0x305F JUMP JUMPDEST PUSH1 0x1 PUSH1 0x1 PUSH1 0xA0 SHL SUB AND PUSH1 0x0 SWAP1 DUP2 MSTORE PUSH1 0x20 DUP2 SWAP1 MSTORE PUSH1 0x40 SWAP1 KECCAK256 PUSH1 0x3 ADD SLOAD PUSH1 0xFF AND SWAP1 JUMP JUMPDEST PUSH1 0x40 MLOAD PUSH2 0x17D SWAP2 SWAP1 PUSH2 0x31AF JUMP JUMPDEST CALLVALUE DUP1 ISZERO PUSH2 0x38A JUMPI PUSH1 0x0 DUP1 REVERT JUMPDEST POP PUSH2 0x12E PUSH2 0x1A09 JUMP JUMPDEST PUSH2 0x12E PUSH2 0x1B4C JUMP JUMPDEST PUSH2 0x12E PUSH2 0x200B JUMP JUMPDEST PUSH1 0x2 DUP1 CALLER PUSH1 0x0 SWAP1 DUP2 MSTORE PUSH1 0x20 DUP2 SWAP1 MSTORE PUSH1 0x40 SWAP1 KECCAK256 PUSH1 0x3 ADD SLOAD PUSH1 0xFF AND PUSH1 0x4 DUP2 GT ISZERO PUSH2 0x3CD JUMPI PUSH2 0x3CD PUSH2 0x30C1 JUMP JUMPDEST EQ PUSH2 0x3F3 JUMPI PUSH1 0x40 MLOAD PUSH3 0x461BCD PUSH1 0xE5 SHL DUP2 MSTORE PUSH1 0x4 ADD PUSH2 0x3EA SWAP1 PUSH2 0x31BD JUMP JUMPDEST PUSH1 0x40 MLOAD DUP1 SWAP2 SUB SWAP1 REVERT JUMPDEST CALLER PUSH1 0x0 SWAP1 DUP2 MSTORE PUSH1 0x20 DUP2 SWAP1 MSTORE PUSH1 0x40 SWAP1 KECCAK256 PUSH1 0xFF DUP4 AND PUSH1 0x1 SUB PUSH2 0x5A5 JUMPI PUSH1 0x8 DUP2 ADD SLOAD PUSH2 0x100 SWAP1 DIV PUSH1 0xFF AND ISZERO PUSH2 0x437 JUMPI PUSH1 0x40 MLOAD PUSH3 0x461BCD PUSH1 0xE5 SHL DUP2 MSTORE PUSH1 0x4 ADD PUSH2 0x3EA SWAP1 PUSH2 0x3200 JUMP JUMPDEST PUSH1 0x8 DUP2 ADD SLOAD PUSH3 0x10000 SWAP1 DIV PUSH1 0xFF AND ISZERO PUSH2 0x4A6 JUMPI PUSH1 0x40 MLOAD PUSH3 0x461BCD PUSH1 0xE5 SHL DUP2 MSTORE PUSH1 0x20 PUSH1 0x4 DUP3 ADD MSTORE PUSH1 0x2B PUSH1 0x24 DUP3 ADD MSTORE PUSH32 0x43616E6E6F74207374616E64206F6E2068616E64203120616674657220646F75 PUSH1 0x44 DUP3 ADD MSTORE PUSH11 0x313634B733903237BBB717 PUSH1 0xA9 SHL PUSH1 0x64 DUP3 ADD MSTORE PUSH1 0x84 ADD PUSH2 0x3EA JUMP JUMPDEST PUSH1 0x8 DUP2 ADD DUP1 SLOAD PUSH2 0xFF00 NOT AND PUSH2 0x100 OR SWAP1 SSTORE PUSH1 0x40 MLOAD PUSH1 0x1 DUP2 MSTORE CALLER SWAP1 PUSH1 0x0 DUP1 MLOAD PUSH1 0x20 PUSH2 0x35D6 DUP4 CODECOPY DUP2 MLOAD SWAP2 MSTORE SWAP1 PUSH1 0x20 ADD PUSH1 0x40 MLOAD DUP1 SWAP2 SUB SWAP1 LOG2 PUSH1 0x8 DUP2 ADD SLOAD PUSH1 0xFF AND DUP1 ISZERO PUSH2 0x567 JUMPI POP PUSH1 0x0 PUSH2 0x565 DUP3 PUSH1 0x7 ADD DUP1 SLOAD DUP1 PUSH1 0x20 MUL PUSH1 0x20 ADD PUSH1 0x40 MLOAD SWAP1 DUP2 ADD PUSH1 0x40 MSTORE DUP1 SWAP3 SWAP2 SWAP1 DUP2 DUP2 MSTORE PUSH1 0x20 ADD DUP3 DUP1 SLOAD DUP1 ISZERO PUSH2 0x55B JUMPI PUSH1 0x20 MUL DUP3 ADD SWAP2 SWAP1 PUSH1 0x0 MSTORE PUSH1 0x20 PUSH1 0x0 KECCAK256 SWAP1 PUSH1 0x0 SWAP1 JUMPDEST DUP3 SLOAD PUSH2 0x100 DUP4 SWAP1 EXP SWAP1 DIV PUSH1 0xFF AND DUP2 MSTORE PUSH1 0x20 PUSH1 0x1 SWAP3 DUP4 ADD DUP2 DUP2 DIV SWAP5 DUP6 ADD SWAP5 SWAP1 SWAP4 SUB SWAP1 SWAP3 MUL SWAP2 ADD DUP1 DUP5 GT PUSH2 0x52C JUMPI SWAP1 POP JUMPDEST POP POP POP POP POP PUSH2 0x2244 JUMP JUMPDEST GT JUMPDEST DUP1 ISZERO PUSH2 0x57F JUMPI POP PUSH1 0x8 DUP2 ADD SLOAD PUSH4 0x1000000 SWAP1 DIV PUSH1 0xFF AND ISZERO JUMPDEST PUSH2 0x5A0 JUMPI PUSH1 0x3 DUP2 DUP2 ADD DUP1 SLOAD PUSH1 0xFF NOT AND PUSH1 0x1 DUP4 JUMPDEST MUL OR SWAP1 SSTORE POP PUSH2 0x5A0 CALLER PUSH2 0x2311 JUMP JUMPDEST POP POP POP JUMP JUMPDEST DUP3 PUSH1 0xFF AND PUSH1 0x2 EQ DUP1 ISZERO PUSH2 0x5BC JUMPI POP PUSH1 0x8 DUP2 ADD SLOAD PUSH1 0xFF AND JUMPDEST ISZERO PUSH2 0x691 JUMPI PUSH1 0x8 DUP2 ADD SLOAD PUSH2 0x100 SWAP1 DIV PUSH1 0xFF AND PUSH2 0x5EA JUMPI PUSH1 0x40 MLOAD PUSH3 0x461BCD PUSH1 0xE5 SHL DUP2 MSTORE PUSH1 0x4 ADD PUSH2 0x3EA SWAP1 PUSH2 0x3237 JUMP JUMPDEST PUSH1 0x8 DUP2 ADD SLOAD PUSH4 0x1000000 SWAP1 DIV PUSH1 0xFF AND ISZERO PUSH2 0x65A JUMPI PUSH1 0x40 MLOAD PUSH3 0x461BCD PUSH1 0xE5 SHL DUP2 MSTORE PUSH1 0x20 PUSH1 0x4 DUP3 ADD MSTORE PUSH1 0x2B PUSH1 0x24 DUP3 ADD MSTORE PUSH32 0x43616E6E6F74207374616E64206F6E2068616E64203220616674657220646F75 PUSH1 0x44 DUP3 ADD MSTORE PUSH11 0x313634B733903237BBB717 PUSH1 0xA9 SHL PUSH1 0x64 DUP3 ADD MSTORE PUSH1 0x84 ADD PUSH2 0x3EA JUMP JUMPDEST PUSH1 0x40 MLOAD PUSH1 0x2 DUP2 MSTORE CALLER SWAP1 PUSH1 0x0 DUP1 MLOAD PUSH1 0x20 PUSH2 0x35D6 DUP4 CODECOPY DUP2 MLOAD SWAP2 MSTORE SWAP1 PUSH1 0x20 ADD PUSH1 0x40 MLOAD DUP1 SWAP2 SUB SWAP1 LOG2 PUSH1 0x3 DUP2 DUP2 ADD DUP1 SLOAD PUSH1 0xFF NOT AND PUSH1 0x1 DUP4 PUSH2 0x592 JUMP JUMPDEST PUSH1 0x40 MLOAD PUSH3 0x461BCD PUSH1 0xE5 SHL DUP2 MSTORE PUSH1 0x20 PUSH1 0x4 DUP3 ADD MSTORE PUSH1 0x2D PUSH1 0x24 DUP3 ADD MSTORE PUSH32 0x496E76616C69642068616E64204944206F72206E6F2073706C69742068616E64 PUSH1 0x44 DUP3 ADD MSTORE PUSH13 0x103A379039BA30B7321037B717 PUSH1 0x99 SHL PUSH1 0x64 DUP3 ADD MSTORE PUSH1 0x84 ADD PUSH2 0x3EA JUMP JUMPDEST PUSH1 0x2 DUP1 CALLER PUSH1 0x0 SWAP1 DUP2 MSTORE PUSH1 0x20 DUP2 SWAP1 MSTORE PUSH1 0x40 SWAP1 KECCAK256 PUSH1 0x3 ADD SLOAD PUSH1 0xFF AND PUSH1 0x4 DUP2 GT ISZERO PUSH2 0x719 JUMPI PUSH2 0x719 PUSH2 0x30C1 JUMP JUMPDEST EQ PUSH2 0x736 JUMPI PUSH1 0x40 MLOAD PUSH3 0x461BCD PUSH1 0xE5 SHL DUP2 MSTORE PUSH1 0x4 ADD PUSH2 0x3EA SWAP1 PUSH2 0x31BD JUMP JUMPDEST CALLER PUSH1 0x0 SWAP1 DUP2 MSTORE PUSH1 0x20 DUP2 SWAP1 MSTORE PUSH1 0x40 SWAP1 KECCAK256 PUSH1 0xFF DUP5 AND PUSH2 0x795 JUMPI PUSH1 0x40 MLOAD PUSH3 0x461BCD PUSH1 0xE5 SHL DUP2 MSTORE PUSH1 0x20 PUSH1 0x4 DUP3 ADD MSTORE PUSH1 0x1B PUSH1 0x24 DUP3 ADD MSTORE PUSH32 0x4D75737420686974206174206C65617374206F6E6520636172642E0000000000 PUSH1 0x44 DUP3 ADD MSTORE PUSH1 0x64 ADD PUSH2 0x3EA JUMP JUMPDEST PUSH1 0x0 DUP1 DUP5 PUSH1 0xFF AND PUSH1 0x1 SUB PUSH2 0x7E7 JUMPI PUSH1 0x8 DUP4 ADD SLOAD PUSH2 0x100 SWAP1 DIV PUSH1 0xFF AND ISZERO PUSH2 0x7CD JUMPI PUSH1 0x40 MLOAD PUSH3 0x461BCD PUSH1 0xE5 SHL DUP2 MSTORE PUSH1 0x4 ADD PUSH2 0x3EA SWAP1 PUSH2 0x3200 JUMP JUMPDEST POP POP PUSH1 0x8 DUP2 ADD SLOAD PUSH1 0x1 DUP3 ADD SWAP1 PUSH3 0x10000 SWAP1 DIV PUSH1 0xFF AND PUSH2 0x8A0 JUMP JUMPDEST DUP5 PUSH1 0xFF AND PUSH1 0x2 EQ DUP1 ISZERO PUSH2 0x7FE JUMPI POP PUSH1 0x8 DUP4 ADD SLOAD PUSH1 0xFF AND JUMPDEST ISZERO PUSH2 0x847 JUMPI PUSH1 0x8 DUP4 ADD SLOAD PUSH2 0x100 SWAP1 DIV PUSH1 0xFF AND PUSH2 0x82C JUMPI PUSH1 0x40 MLOAD PUSH3 0x461BCD PUSH1 0xE5 SHL DUP2 MSTORE PUSH1 0x4 ADD PUSH2 0x3EA SWAP1 PUSH2 0x3237 JUMP JUMPDEST POP POP PUSH1 0x8 DUP2 ADD SLOAD PUSH1 0x7 DUP3 ADD SWAP1 PUSH4 0x1000000 SWAP1 DIV PUSH1 0xFF AND PUSH2 0x8A0 JUMP JUMPDEST PUSH1 0x40 MLOAD PUSH3 0x461BCD PUSH1 0xE5 SHL DUP2 MSTORE PUSH1 0x20 PUSH1 0x4 DUP3 ADD MSTORE PUSH1 0x28 PUSH1 0x24 DUP3 ADD MSTORE PUSH32 0x496E76616C69642068616E64204944206F72206E6F2073706C69742068616E64 PUSH1 0x44 DUP3 ADD MSTORE PUSH8 0x103A37903434BA17 PUSH1 0xC1 SHL PUSH1 0x64 DUP3 ADD MSTORE PUSH1 0x84 ADD PUSH2 0x3EA JUMP JUMPDEST DUP1 ISZERO PUSH2 0x903 JUMPI PUSH1 0x40 MLOAD PUSH3 0x461BCD PUSH1 0xE5 SHL DUP2 MSTORE PUSH1 0x20 PUSH1 0x4 DUP3 ADD MSTORE PUSH1 0x2C PUSH1 0x24 DUP3 ADD MSTORE PUSH32 0x43616E6E6F742068697420616674657220646F75626C696E6720646F776E206F PUSH1 0x44 DUP3 ADD MSTORE PUSH12 0x37103A3434B9903430B73217 PUSH1 0xA1 SHL PUSH1 0x64 DUP3 ADD MSTORE PUSH1 0x84 ADD PUSH2 0x3EA JUMP JUMPDEST PUSH1 0x0 JUMPDEST DUP7 PUSH1 0xFF AND DUP2 PUSH1 0xFF AND LT ISZERO PUSH2 0xBB6 JUMPI PUSH2 0x920 CALLER PUSH1 0x1 DUP9 PUSH2 0x25BC JUMP JUMPDEST POP PUSH1 0x0 PUSH2 0x97D DUP5 DUP1 SLOAD DUP1 PUSH1 0x20 MUL PUSH1 0x20 ADD PUSH1 0x40 MLOAD SWAP1 DUP2 ADD PUSH1 0x40 MSTORE DUP1 SWAP3 SWAP2 SWAP1 DUP2 DUP2 MSTORE PUSH1 0x20 ADD DUP3 DUP1 SLOAD DUP1 ISZERO PUSH2 0x55B JUMPI PUSH1 0x0 SWAP2 DUP3 MSTORE PUSH1 0x20 SWAP2 DUP3 SWAP1 KECCAK256 DUP1 SLOAD PUSH1 0xFF AND DUP5 MSTORE SWAP1 DUP3 MUL DUP4 ADD SWAP3 SWAP1 SWAP2 PUSH1 0x1 SWAP2 ADD DUP1 DUP5 GT PUSH2 0x52C JUMPI SWAP1 POP POP POP POP POP POP PUSH2 0x2244 JUMP JUMPDEST SWAP1 POP PUSH1 0x15 DUP2 GT ISZERO PUSH2 0xAC0 JUMPI PUSH1 0x40 DUP1 MLOAD DUP3 DUP2 MSTORE PUSH1 0xFF DUP10 AND PUSH1 0x20 DUP3 ADD MSTORE CALLER SWAP2 PUSH32 0x44EF28E569839E28C1269B483E0D38E7ACCD6CA7C0A5B8855CC8FBB91C48F5B0 SWAP2 ADD PUSH1 0x40 MLOAD DUP1 SWAP2 SUB SWAP1 LOG2 PUSH1 0x8 DUP6 ADD SLOAD PUSH1 0xFF AND ISZERO PUSH2 0xA86 JUMPI DUP7 PUSH1 0xFF AND PUSH1 0x1 SUB PUSH2 0xA68 JUMPI PUSH1 0x8 DUP6 ADD DUP1 SLOAD PUSH2 0xFF00 NOT AND PUSH2 0x100 OR SWAP1 DUP2 SWAP1 SSTORE PUSH4 0x1000000 SWAP1 DIV PUSH1 0xFF AND ISZERO DUP1 ISZERO PUSH2 0xA63 JUMPI POP PUSH1 0x0 PUSH2 0xA61 DUP7 PUSH1 0x7 ADD DUP1 SLOAD DUP1 PUSH1 0x20 MUL PUSH1 0x20 ADD PUSH1 0x40 MLOAD SWAP1 DUP2 ADD PUSH1 0x40 MSTORE DUP1 SWAP3 SWAP2 SWAP1 DUP2 DUP2 MSTORE PUSH1 0x20 ADD DUP3 DUP1 SLOAD DUP1 ISZERO PUSH2 0x55B JUMPI PUSH1 0x0 SWAP2 DUP3 MSTORE PUSH1 0x20 SWAP2 DUP3 SWAP1 KECCAK256 DUP1 SLOAD PUSH1 0xFF AND DUP5 MSTORE SWAP1 DUP3 MUL DUP4 ADD SWAP3 SWAP1 SWAP2 PUSH1 0x1 SWAP2 ADD DUP1 DUP5 GT PUSH2 0x52C JUMPI SWAP1 POP POP POP POP POP POP PUSH2 0x2244 JUMP JUMPDEST GT JUMPDEST PUSH2 0xA81 JUMPI JUMPDEST PUSH1 0x3 DUP6 DUP2 ADD DUP1 SLOAD PUSH1 0xFF NOT AND SWAP1 SWAP2 OR SWAP1 SSTORE PUSH2 0xA81 CALLER PUSH2 0x2311 JUMP JUMPDEST PUSH2 0xAB6 JUMP JUMPDEST PUSH2 0xAB6 CALLER PUSH1 0x40 MLOAD DUP1 PUSH1 0x40 ADD PUSH1 0x40 MSTORE DUP1 PUSH1 0xC DUP2 MSTORE PUSH1 0x20 ADD PUSH12 0x506C61796572204275737473 PUSH1 0xA0 SHL DUP2 MSTORE POP PUSH1 0x0 PUSH2 0x2979 JUMP JUMPDEST POP POP POP POP POP POP POP POP JUMP JUMPDEST DUP1 PUSH1 0x15 SUB PUSH2 0xBA3 JUMPI PUSH1 0x40 MLOAD PUSH1 0xFF DUP9 AND DUP2 MSTORE CALLER SWAP1 PUSH1 0x0 DUP1 MLOAD PUSH1 0x20 PUSH2 0x35D6 DUP4 CODECOPY DUP2 MLOAD SWAP2 MSTORE SWAP1 PUSH1 0x20 ADD PUSH1 0x40 MLOAD DUP1 SWAP2 SUB SWAP1 LOG2 PUSH1 0x8 DUP6 ADD SLOAD PUSH1 0xFF AND ISZERO PUSH2 0xB8A JUMPI DUP7 PUSH1 0xFF AND PUSH1 0x1 SUB PUSH2 0xA68 JUMPI PUSH1 0x8 DUP6 ADD DUP1 SLOAD PUSH2 0xFF00 NOT AND PUSH2 0x100 OR SWAP1 DUP2 SWAP1 SSTORE PUSH4 0x1000000 SWAP1 DIV PUSH1 0xFF AND ISZERO DUP1 ISZERO PUSH2 0xA63 JUMPI POP PUSH1 0x0 PUSH2 0xA61 DUP7 PUSH1 0x7 ADD DUP1 SLOAD DUP1 PUSH1 0x20 MUL PUSH1 0x20 ADD PUSH1 0x40 MLOAD SWAP1 DUP2 ADD PUSH1 0x40 MSTORE DUP1 SWAP3 SWAP2 SWAP1 DUP2 DUP2 MSTORE PUSH1 0x20 ADD DUP3 DUP1 SLOAD DUP1 ISZERO PUSH2 0x55B JUMPI PUSH1 0x0 SWAP2 DUP3 MSTORE PUSH1 0x20 SWAP2 DUP3 SWAP1 KECCAK256 DUP1 SLOAD PUSH1 0xFF AND DUP5 MSTORE SWAP1 DUP3 MUL DUP4 ADD SWAP3 SWAP1 SWAP2 PUSH1 0x1 SWAP2 ADD DUP1 DUP5 GT PUSH2 0x52C JUMPI SWAP1 POP POP POP POP POP POP PUSH2 0x2244 JUMP JUMPDEST PUSH1 0x3 DUP6 DUP2 ADD DUP1 SLOAD PUSH1 0xFF NOT AND SWAP1 SWAP2 OR SWAP1 SSTORE PUSH2 0xAB6 CALLER PUSH2 0x2311 JUMP JUMPDEST POP DUP1 PUSH2 0xBAE DUP2 PUSH2 0x3297 JUMP JUMPDEST SWAP2 POP POP PUSH2 0x906 JUMP JUMPDEST POP POP POP POP POP POP POP JUMP JUMPDEST PUSH1 0x1 PUSH1 0x1 PUSH1 0xA0 SHL SUB DUP2 AND PUSH1 0x0 SWAP1 DUP2 MSTORE PUSH1 0x20 DUP2 DUP2 MSTORE PUSH1 0x40 SWAP2 DUP3 SWAP1 KECCAK256 PUSH1 0x2 ADD DUP1 SLOAD DUP4 MLOAD DUP2 DUP5 MUL DUP2 ADD DUP5 ADD SWAP1 SWAP5 MSTORE DUP1 DUP5 MSTORE PUSH1 0x60 SWAP4 SWAP3 DUP4 ADD DUP3 DUP3 DUP1 ISZERO PUSH2 0xC3E JUMPI PUSH1 0x20 MUL DUP3 ADD SWAP2 SWAP1 PUSH1 0x0 MSTORE PUSH1 0x20 PUSH1 0x0 KECCAK256 SWAP1 PUSH1 0x0 SWAP1 JUMPDEST DUP3 SLOAD PUSH2 0x100 DUP4 SWAP1 EXP SWAP1 DIV PUSH1 0xFF AND DUP2 MSTORE PUSH1 0x20 PUSH1 0x1 SWAP3 DUP4 ADD DUP2 DUP2 DIV SWAP5 DUP6 ADD SWAP5 SWAP1 SWAP4 SUB SWAP1 SWAP3 MUL SWAP2 ADD DUP1 DUP5 GT PUSH2 0xC0F JUMPI SWAP1 POP JUMPDEST POP POP POP POP POP SWAP1 POP SWAP2 SWAP1 POP JUMP JUMPDEST PUSH1 0x2 DUP1 CALLER PUSH1 0x0 SWAP1 DUP2 MSTORE PUSH1 0x20 DUP2 SWAP1 MSTORE PUSH1 0x40 SWAP1 KECCAK256 PUSH1 0x3 ADD SLOAD PUSH1 0xFF AND PUSH1 0x4 DUP2 GT ISZERO PUSH2 0xC74 JUMPI PUSH2 0xC74 PUSH2 0x30C1 JUMP JUMPDEST EQ PUSH2 0xC91 JUMPI PUSH1 0x40 MLOAD PUSH3 0x461BCD PUSH1 0xE5 SHL DUP2 MSTORE PUSH1 0x4 ADD PUSH2 0x3EA SWAP1 PUSH2 0x31BD JUMP JUMPDEST CALLER PUSH1 0x0 SWAP1 DUP2 MSTORE PUSH1 0x20 DUP2 SWAP1 MSTORE PUSH1 0x40 DUP2 KECCAK256 SWAP1 PUSH1 0xFF DUP5 AND PUSH1 0x1 SUB PUSH2 0xE2F JUMPI PUSH1 0x8 DUP3 ADD SLOAD PUSH2 0x100 SWAP1 DIV PUSH1 0xFF AND ISZERO PUSH2 0xCD6 JUMPI PUSH1 0x40 MLOAD PUSH3 0x461BCD PUSH1 0xE5 SHL DUP2 MSTORE PUSH1 0x4 ADD PUSH2 0x3EA SWAP1 PUSH2 0x3200 JUMP JUMPDEST PUSH1 0x8 DUP3 ADD SLOAD PUSH3 0x10000 SWAP1 DIV PUSH1 0xFF AND ISZERO PUSH2 0xD31 JUMPI PUSH1 0x40 MLOAD PUSH3 0x461BCD PUSH1 0xE5 SHL DUP2 MSTORE PUSH1 0x20 PUSH1 0x4 DUP3 ADD MSTORE PUSH1 0x1F PUSH1 0x24 DUP3 ADD MSTORE PUSH32 0x416C726561647920646F75626C656420646F776E206F6E2068616E6420312E00 PUSH1 0x44 DUP3 ADD MSTORE PUSH1 0x64 ADD PUSH2 0x3EA JUMP JUMPDEST PUSH1 0x1 DUP3 ADD SLOAD PUSH1 0x2 EQ PUSH2 0xD98 JUMPI PUSH1 0x40 MLOAD PUSH3 0x461BCD PUSH1 0xE5 SHL DUP2 MSTORE PUSH1 0x20 PUSH1 0x4 DUP3 ADD MSTORE PUSH1 0x2A PUSH1 0x24 DUP3 ADD MSTORE PUSH32 0x43616E206F6E6C7920646F75626C6520646F776E206F6E20696E697469616C20 PUSH1 0x44 DUP3 ADD MSTORE PUSH10 0x3A3BB79031B0B9323997 PUSH1 0xB1 SHL PUSH1 0x64 DUP3 ADD MSTORE PUSH1 0x84 ADD PUSH2 0x3EA JUMP JUMPDEST DUP2 SLOAD CALLVALUE EQ PUSH2 0xDF9 JUMPI PUSH1 0x40 MLOAD PUSH3 0x461BCD PUSH1 0xE5 SHL DUP2 MSTORE PUSH1 0x20 PUSH1 0x4 DUP3 ADD MSTORE PUSH1 0x28 PUSH1 0x24 DUP3 ADD MSTORE PUSH32 0x4D75737420646F75626C6520746865206F726967696E616C2062657420666F72 PUSH1 0x44 DUP3 ADD MSTORE PUSH8 0x103430B732101897 PUSH1 0xC1 SHL PUSH1 0x64 DUP3 ADD MSTORE PUSH1 0x84 ADD PUSH2 0x3EA JUMP JUMPDEST CALLVALUE DUP3 PUSH1 0x0 ADD PUSH1 0x0 DUP3 DUP3 SLOAD PUSH2 0xE0D SWAP2 SWAP1 PUSH2 0x32B6 JUMP JUMPDEST SWAP1 SWAP2 SSTORE POP POP POP PUSH1 0x8 DUP2 ADD DUP1 SLOAD PUSH3 0xFF0000 NOT AND PUSH3 0x10000 OR SWAP1 SSTORE PUSH1 0x1 DUP2 ADD PUSH2 0x104A JUMP JUMPDEST DUP4 PUSH1 0xFF AND PUSH1 0x2 EQ DUP1 ISZERO PUSH2 0xE46 JUMPI POP PUSH1 0x8 DUP3 ADD SLOAD PUSH1 0xFF AND JUMPDEST ISZERO PUSH2 0xFE6 JUMPI PUSH1 0x8 DUP3 ADD SLOAD PUSH2 0x100 SWAP1 DIV PUSH1 0xFF AND PUSH2 0xE74 JUMPI PUSH1 0x40 MLOAD PUSH3 0x461BCD PUSH1 0xE5 SHL DUP2 MSTORE PUSH1 0x4 ADD PUSH2 0x3EA SWAP1 PUSH2 0x3237 JUMP JUMPDEST PUSH1 0x8 DUP3 ADD SLOAD PUSH4 0x1000000 SWAP1 DIV PUSH1 0xFF AND ISZERO PUSH2 0xED0 JUMPI PUSH1 0x40 MLOAD PUSH3 0x461BCD PUSH1 0xE5 SHL DUP2 MSTORE PUSH1 0x20 PUSH1 0x4 DUP3 ADD MSTORE PUSH1 0x1F PUSH1 0x24 DUP3 ADD MSTORE PUSH32 0x416C726561647920646F75626C656420646F776E206F6E2068616E6420322E00 PUSH1 0x44 DUP3 ADD MSTORE PUSH1 0x64 ADD PUSH2 0x3EA JUMP JUMPDEST PUSH1 0x7 DUP3 ADD SLOAD PUSH1 0x2 EQ PUSH2 0xF4A JUMPI PUSH1 0x40 MLOAD PUSH3 0x461BCD PUSH1 0xE5 SHL DUP2 MSTORE PUSH1 0x20 PUSH1 0x4 DUP3 ADD MSTORE PUSH1 0x39 PUSH1 0x24 DUP3 ADD MSTORE PUSH32 0x43616E206F6E6C7920646F75626C6520646F776E206F6E20696E697469616C20 PUSH1 0x44 DUP3 ADD MSTORE PUSH32 0x74776F20636172647320666F722073706C69742068616E642E00000000000000 PUSH1 0x64 DUP3 ADD MSTORE PUSH1 0x84 ADD PUSH2 0x3EA JUMP JUMPDEST DUP2 PUSH1 0x6 ADD SLOAD CALLVALUE EQ PUSH2 0xFAE JUMPI PUSH1 0x40 MLOAD PUSH3 0x461BCD PUSH1 0xE5 SHL DUP2 MSTORE PUSH1 0x20 PUSH1 0x4 DUP3 ADD MSTORE PUSH1 0x28 PUSH1 0x24 DUP3 ADD MSTORE PUSH32 0x4D75737420646F75626C6520746865206F726967696E616C2062657420666F72 PUSH1 0x44 DUP3 ADD MSTORE PUSH8 0x103430B732101917 PUSH1 0xC1 SHL PUSH1 0x64 DUP3 ADD MSTORE PUSH1 0x84 ADD PUSH2 0x3EA JUMP JUMPDEST CALLVALUE DUP3 PUSH1 0x6 ADD PUSH1 0x0 DUP3 DUP3 SLOAD PUSH2 0xFC2 SWAP2 SWAP1 PUSH2 0x32B6 JUMP JUMPDEST SWAP1 SWAP2 SSTORE POP POP POP PUSH1 0x8 DUP2 ADD DUP1 SLOAD PUSH4 0xFF000000 NOT AND PUSH4 0x1000000 OR SWAP1 SSTORE PUSH1 0x7 DUP2 ADD PUSH2 0x104A JUMP JUMPDEST PUSH1 0x40 MLOAD PUSH3 0x461BCD PUSH1 0xE5 SHL DUP2 MSTORE PUSH1 0x20 PUSH1 0x4 DUP3 ADD MSTORE PUSH1 0x33 PUSH1 0x24 DUP3 ADD MSTORE PUSH32 0x496E76616C69642068616E64204944206F72206E6F2073706C69742068616E64 PUSH1 0x44 DUP3 ADD MSTORE PUSH19 0x103A37903237BAB13632903237BBB71037B717 PUSH1 0x69 SHL PUSH1 0x64 DUP3 ADD MSTORE PUSH1 0x84 ADD PUSH2 0x3EA JUMP JUMPDEST PUSH2 0x1056 CALLER PUSH1 0x1 DUP7 PUSH2 0x25BC JUMP JUMPDEST POP CALLER PUSH32 0x34A9FC4139A8845993518F8F647735DCAFC9DD04CEC976CEF471DE6067A2A4E5 PUSH1 0x1 PUSH1 0xFF DUP8 AND EQ PUSH2 0x108E JUMPI DUP4 PUSH1 0x6 ADD SLOAD PUSH2 0x1091 JUMP JUMPDEST DUP4 SLOAD JUMPDEST PUSH1 0x40 DUP1 MLOAD SWAP2 DUP3 MSTORE PUSH1 0xFF DUP9 AND PUSH1 0x20 DUP4 ADD MSTORE ADD PUSH1 0x40 MLOAD DUP1 SWAP2 SUB SWAP1 LOG2 PUSH1 0x0 PUSH2 0x1106 DUP3 DUP1 SLOAD DUP1 PUSH1 0x20 MUL PUSH1 0x20 ADD PUSH1 0x40 MLOAD SWAP1 DUP2 ADD PUSH1 0x40 MSTORE DUP1 SWAP3 SWAP2 SWAP1 DUP2 DUP2 MSTORE PUSH1 0x20 ADD DUP3 DUP1 SLOAD DUP1 ISZERO PUSH2 0x55B JUMPI PUSH1 0x0 SWAP2 DUP3 MSTORE PUSH1 0x20 SWAP2 DUP3 SWAP1 KECCAK256 DUP1 SLOAD PUSH1 0xFF AND DUP5 MSTORE SWAP1 DUP3 MUL DUP4 ADD SWAP3 SWAP1 SWAP2 PUSH1 0x1 SWAP2 ADD DUP1 DUP5 GT PUSH2 0x52C JUMPI SWAP1 POP POP POP POP POP POP PUSH2 0x2244 JUMP JUMPDEST SWAP1 POP PUSH1 0x15 DUP2 GT ISZERO PUSH2 0x126C JUMPI PUSH1 0x40 DUP1 MLOAD DUP3 DUP2 MSTORE PUSH1 0xFF DUP8 AND PUSH1 0x20 DUP3 ADD MSTORE CALLER SWAP2 PUSH32 0x44EF28E569839E28C1269B483E0D38E7ACCD6CA7C0A5B8855CC8FBB91C48F5B0 SWAP2 ADD PUSH1 0x40 MLOAD DUP1 SWAP2 SUB SWAP1 LOG2 PUSH1 0x8 DUP4 ADD SLOAD PUSH1 0xFF AND ISZERO PUSH2 0x122B JUMPI DUP5 PUSH1 0xFF AND PUSH1 0x1 SUB PUSH2 0x120E JUMPI PUSH1 0x8 DUP4 ADD DUP1 SLOAD PUSH2 0xFF00 NOT AND PUSH2 0x100 OR SWAP1 DUP2 SWAP1 SSTORE PUSH4 0x1000000 SWAP1 DIV PUSH1 0xFF AND ISZERO DUP1 ISZERO PUSH2 0x11EC JUMPI POP PUSH1 0x0 PUSH2 0x11EA DUP5 PUSH1 0x7 ADD DUP1 SLOAD DUP1 PUSH1 0x20 MUL PUSH1 0x20 ADD PUSH1 0x40 MLOAD SWAP1 DUP2 ADD PUSH1 0x40 MSTORE DUP1 SWAP3 SWAP2 SWAP1 DUP2 DUP2 MSTORE PUSH1 0x20 ADD DUP3 DUP1 SLOAD DUP1 ISZERO PUSH2 0x55B JUMPI PUSH1 0x0 SWAP2 DUP3 MSTORE PUSH1 0x20 SWAP2 DUP3 SWAP1 KECCAK256 DUP1 SLOAD PUSH1 0xFF AND DUP5 MSTORE SWAP1 DUP3 MUL DUP4 ADD SWAP3 SWAP1 SWAP2 PUSH1 0x1 SWAP2 ADD DUP1 DUP5 GT PUSH2 0x52C JUMPI SWAP1 POP POP POP POP POP POP PUSH2 0x2244 JUMP JUMPDEST GT JUMPDEST PUSH2 0x1209 JUMPI PUSH1 0x3 DUP4 DUP2 ADD DUP1 SLOAD PUSH1 0xFF NOT AND SWAP1 SWAP2 OR SWAP1 SSTORE PUSH2 0x1209 CALLER PUSH2 0x2311 JUMP JUMPDEST PUSH2 0x1360 JUMP JUMPDEST PUSH1 0x3 DUP4 DUP2 ADD DUP1 SLOAD PUSH1 0xFF NOT AND PUSH1 0x1 DUP4 JUMPDEST MUL OR SWAP1 SSTORE POP PUSH2 0x1209 CALLER PUSH2 0x2311 JUMP JUMPDEST PUSH2 0x1209 CALLER PUSH1 0x40 MLOAD DUP1 PUSH1 0x40 ADD PUSH1 0x40 MSTORE DUP1 PUSH1 0x1A DUP2 MSTORE PUSH1 0x20 ADD PUSH32 0x506C617965722042757374732028446F75626C6520446F776E29000000000000 DUP2 MSTORE POP PUSH1 0x0 PUSH2 0x2979 JUMP JUMPDEST PUSH1 0x40 MLOAD PUSH1 0xFF DUP7 AND DUP2 MSTORE CALLER SWAP1 PUSH1 0x0 DUP1 MLOAD PUSH1 0x20 PUSH2 0x35D6 DUP4 CODECOPY DUP2 MLOAD SWAP2 MSTORE SWAP1 PUSH1 0x20 ADD PUSH1 0x40 MLOAD DUP1 SWAP2 SUB SWAP1 LOG2 PUSH1 0x8 DUP4 ADD SLOAD PUSH1 0xFF AND ISZERO PUSH2 0x1347 JUMPI DUP5 PUSH1 0xFF AND PUSH1 0x1 SUB PUSH2 0x120E JUMPI PUSH1 0x8 DUP4 ADD DUP1 SLOAD PUSH2 0xFF00 NOT AND PUSH2 0x100 OR SWAP1 DUP2 SWAP1 SSTORE PUSH4 0x1000000 SWAP1 DIV PUSH1 0xFF AND ISZERO DUP1 ISZERO PUSH2 0x1330 JUMPI POP PUSH1 0x0 PUSH2 0x132E DUP5 PUSH1 0x7 ADD DUP1 SLOAD DUP1 PUSH1 0x20 MUL PUSH1 0x20 ADD PUSH1 0x40 MLOAD SWAP1 DUP2 ADD PUSH1 0x40 MSTORE DUP1 SWAP3 SWAP2 SWAP1 DUP2 DUP2 MSTORE PUSH1 0x20 ADD DUP3 DUP1 SLOAD DUP1 ISZERO PUSH2 0x55B JUMPI PUSH1 0x0 SWAP2 DUP3 MSTORE PUSH1 0x20 SWAP2 DUP3 SWAP1 KECCAK256 DUP1 SLOAD PUSH1 0xFF AND DUP5 MSTORE SWAP1 DUP3 MUL DUP4 ADD SWAP3 SWAP1 SWAP2 PUSH1 0x1 SWAP2 ADD DUP1 DUP5 GT PUSH2 0x52C JUMPI SWAP1 POP POP POP POP POP POP PUSH2 0x2244 JUMP JUMPDEST GT JUMPDEST PUSH2 0x1209 JUMPI PUSH1 0x3 DUP4 DUP2 ADD DUP1 SLOAD PUSH1 0xFF NOT AND PUSH1 0x1 DUP4 PUSH2 0x121D JUMP JUMPDEST PUSH1 0x3 DUP4 DUP2 ADD DUP1 SLOAD PUSH1 0xFF NOT AND SWAP1 SWAP2 OR SWAP1 SSTORE PUSH2 0x1360 CALLER PUSH2 0x2311 JUMP JUMPDEST POP POP POP POP POP JUMP JUMPDEST PUSH1 0x1 SLOAD PUSH1 0x1 PUSH1 0x1 PUSH1 0xA0 SHL SUB AND CALLER EQ PUSH2 0x13D0 JUMPI PUSH1 0x40 MLOAD PUSH3 0x461BCD PUSH1 0xE5 SHL DUP2 MSTORE PUSH1 0x20 PUSH1 0x4 DUP3 ADD MSTORE PUSH1 0x26 PUSH1 0x24 DUP3 ADD MSTORE PUSH32 0x4F6E6C7920746865206F776E65722063616E2063616C6C20746869732066756E PUSH1 0x44 DUP3 ADD MSTORE PUSH6 0x31BA34B7B717 PUSH1 0xD1 SHL PUSH1 0x64 DUP3 ADD MSTORE PUSH1 0x84 ADD PUSH2 0x3EA JUMP JUMPDEST PUSH1 0x40 MLOAD CALLER SWAP1 SELFBALANCE DUP1 ISZERO PUSH2 0x8FC MUL SWAP2 PUSH1 0x0 DUP2 DUP2 DUP2 DUP6 DUP9 DUP9 CALL SWAP4 POP POP POP POP ISZERO DUP1 ISZERO PUSH2 0x13FC JUMPI RETURNDATASIZE PUSH1 0x0 DUP1 RETURNDATACOPY RETURNDATASIZE PUSH1 0x0 REVERT JUMPDEST POP JUMP JUMPDEST PUSH1 0x2 DUP1 CALLER PUSH1 0x0 SWAP1 DUP2 MSTORE PUSH1 0x20 DUP2 SWAP1 MSTORE PUSH1 0x40 SWAP1 KECCAK256 PUSH1 0x3 ADD SLOAD PUSH1 0xFF AND PUSH1 0x4 DUP2 GT ISZERO PUSH2 0x1429 JUMPI PUSH2 0x1429 PUSH2 0x30C1 JUMP JUMPDEST EQ PUSH2 0x1446 JUMPI PUSH1 0x40 MLOAD PUSH3 0x461BCD PUSH1 0xE5 SHL DUP2 MSTORE PUSH1 0x4 ADD PUSH2 0x3EA SWAP1 PUSH2 0x31BD JUMP JUMPDEST CALLER PUSH1 0x0 SWAP1 DUP2 MSTORE PUSH1 0x20 DUP2 SWAP1 MSTORE PUSH1 0x40 SWAP1 KECCAK256 PUSH1 0xA DUP2 ADD SLOAD PUSH2 0x100 SWAP1 DIV PUSH1 0xFF AND PUSH2 0x14CA JUMPI PUSH1 0x40 MLOAD PUSH3 0x461BCD PUSH1 0xE5 SHL DUP2 MSTORE PUSH1 0x20 PUSH1 0x4 DUP3 ADD MSTORE PUSH1 0x33 PUSH1 0x24 DUP3 ADD MSTORE PUSH32 0x496E737572616E63652063616E206F6E6C792062652074616B656E2069662064 PUSH1 0x44 DUP3 ADD MSTORE PUSH19 0x32B0B632B91039B437BBB99030B71020B1B297 PUSH1 0x69 SHL PUSH1 0x64 DUP3 ADD MSTORE PUSH1 0x84 ADD PUSH2 0x3EA JUMP JUMPDEST PUSH1 0xA DUP2 ADD SLOAD PUSH1 0xFF AND ISZERO PUSH2 0x151F JUMPI PUSH1 0x40 MLOAD PUSH3 0x461BCD PUSH1 0xE5 SHL DUP2 MSTORE PUSH1 0x20 PUSH1 0x4 DUP3 ADD MSTORE PUSH1 0x18 PUSH1 0x24 DUP3 ADD MSTORE PUSH32 0x496E737572616E636520616C72656164792074616B656E2E0000000000000000 PUSH1 0x44 DUP3 ADD MSTORE PUSH1 0x64 ADD PUSH2 0x3EA JUMP JUMPDEST DUP1 SLOAD PUSH2 0x152D SWAP1 PUSH1 0x2 SWAP1 PUSH2 0x32DF JUMP JUMPDEST CALLVALUE EQ PUSH2 0x1593 JUMPI PUSH1 0x40 MLOAD PUSH3 0x461BCD PUSH1 0xE5 SHL DUP2 MSTORE PUSH1 0x20 PUSH1 0x4 DUP3 ADD MSTORE PUSH1 0x2F PUSH1 0x24 DUP3 ADD MSTORE PUSH32 0x496E737572616E636520626574206D7573742062652068616C66206F66207468 PUSH1 0x44 DUP3 ADD MSTORE PUSH15 0x329037B934B3B4B730B6103132BA17 PUSH1 0x89 SHL PUSH1 0x64 DUP3 ADD MSTORE PUSH1 0x84 ADD PUSH2 0x3EA JUMP JUMPDEST CALLVALUE PUSH1 0x9 DUP3 ADD DUP2 SWAP1 SSTORE PUSH1 0xA DUP3 ADD DUP1 SLOAD PUSH1 0xFF NOT AND PUSH1 0x1 OR SWAP1 SSTORE PUSH1 0x40 MLOAD CALLER SWAP2 PUSH32 0x4624B7ADEC753826941D16F639FF48026F4CB0CDEB0BE0A59B6D57147F48BCED SWAP2 PUSH2 0x15DD SWAP2 DUP2 MSTORE PUSH1 0x20 ADD SWAP1 JUMP JUMPDEST PUSH1 0x40 MLOAD DUP1 SWAP2 SUB SWAP1 LOG2 POP POP JUMP JUMPDEST PUSH1 0x0 DUP2 ISZERO PUSH2 0x1666 JUMPI PUSH1 0x1 PUSH1 0x1 PUSH1 0xA0 SHL SUB DUP4 AND PUSH1 0x0 SWAP1 DUP2 MSTORE PUSH1 0x20 DUP2 DUP2 MSTORE PUSH1 0x40 SWAP2 DUP3 SWAP1 KECCAK256 PUSH1 0x1 ADD DUP1 SLOAD DUP4 MLOAD DUP2 DUP5 MUL DUP2 ADD DUP5 ADD SWAP1 SWAP5 MSTORE DUP1 DUP5 MSTORE PUSH2 0x165F SWAP4 SWAP3 DUP4 ADD DUP3 DUP3 DUP1 ISZERO PUSH2 0x55B JUMPI PUSH1 0x0 SWAP2 DUP3 MSTORE PUSH1 0x20 SWAP2 DUP3 SWAP1 KECCAK256 DUP1 SLOAD PUSH1 0xFF AND DUP5 MSTORE SWAP1 DUP3 MUL DUP4 ADD SWAP3 SWAP1 SWAP2 PUSH1 0x1 SWAP2 ADD DUP1 DUP5 GT PUSH2 0x52C JUMPI SWAP1 POP POP POP POP POP POP PUSH2 0x2244 JUMP JUMPDEST SWAP1 POP PUSH2 0x16D4 JUMP JUMPDEST PUSH1 0x1 PUSH1 0x1 PUSH1 0xA0 SHL SUB DUP4 AND PUSH1 0x0 SWAP1 DUP2 MSTORE PUSH1 0x20 DUP2 DUP2 MSTORE PUSH1 0x40 SWAP2 DUP3 SWAP1 KECCAK256 PUSH1 0x2 ADD DUP1 SLOAD DUP4 MLOAD DUP2 DUP5 MUL DUP2 ADD DUP5 ADD SWAP1 SWAP5 MSTORE DUP1 DUP5 MSTORE PUSH2 0x165F SWAP4 SWAP3 DUP4 ADD DUP3 DUP3 DUP1 ISZERO PUSH2 0x55B JUMPI PUSH1 0x0 SWAP2 DUP3 MSTORE PUSH1 0x20 SWAP2 DUP3 SWAP1 KECCAK256 DUP1 SLOAD PUSH1 0xFF AND DUP5 MSTORE SWAP1 DUP3 MUL DUP4 ADD SWAP3 SWAP1 SWAP2 PUSH1 0x1 SWAP2 ADD DUP1 DUP5 GT PUSH2 0x52C JUMPI SWAP1 POP POP POP POP POP POP PUSH2 0x2244 JUMP JUMPDEST SWAP3 SWAP2 POP POP JUMP JUMPDEST PUSH1 0x1 PUSH1 0x1 PUSH1 0xA0 SHL SUB DUP2 AND PUSH1 0x0 SWAP1 DUP2 MSTORE PUSH1 0x20 DUP2 DUP2 MSTORE PUSH1 0x40 SWAP2 DUP3 SWAP1 KECCAK256 PUSH1 0x7 ADD DUP1 SLOAD DUP4 MLOAD DUP2 DUP5 MUL DUP2 ADD DUP5 ADD SWAP1 SWAP5 MSTORE DUP1 DUP5 MSTORE PUSH1 0x60 SWAP4 SWAP3 DUP4 ADD DUP3 DUP3 DUP1 ISZERO PUSH2 0xC3E JUMPI PUSH1 0x0 SWAP2 DUP3 MSTORE PUSH1 0x20 SWAP2 DUP3 SWAP1 KECCAK256 DUP1 SLOAD PUSH1 0xFF AND DUP5 MSTORE SWAP1 DUP3 MUL DUP4 ADD SWAP3 SWAP1 SWAP2 PUSH1 0x1 SWAP2 ADD DUP1 DUP5 GT PUSH2 0xC0F JUMPI POP SWAP5 SWAP8 SWAP7 POP POP POP POP POP POP POP JUMP JUMPDEST CALLER PUSH1 0x0 SWAP1 DUP2 MSTORE PUSH1 0x20 DUP2 SWAP1 MSTORE PUSH1 0x40 DUP2 KECCAK256 SWAP1 PUSH1 0x3 DUP3 ADD SLOAD PUSH1 0xFF AND PUSH1 0x4 DUP2 GT ISZERO PUSH2 0x1771 JUMPI PUSH2 0x1771 PUSH2 0x30C1 JUMP JUMPDEST EQ DUP1 PUSH2 0x1795 JUMPI POP PUSH1 0x4 PUSH1 0x3 DUP3 ADD SLOAD PUSH1 0xFF AND PUSH1 0x4 DUP2 GT ISZERO PUSH2 0x1793 JUMPI PUSH2 0x1793 PUSH2 0x30C1 JUMP JUMPDEST EQ JUMPDEST DUP1 PUSH2 0x17B8 JUMPI POP PUSH1 0x1 PUSH1 0x3 DUP3 ADD SLOAD PUSH1 0xFF AND PUSH1 0x4 DUP2 GT ISZERO PUSH2 0x17B6 JUMPI PUSH2 0x17B6 PUSH2 0x30C1 JUMP JUMPDEST EQ JUMPDEST PUSH2 0x1850 JUMPI PUSH1 0x40 MLOAD PUSH3 0x461BCD PUSH1 0xE5 SHL DUP2 MSTORE PUSH1 0x20 PUSH1 0x4 DUP3 ADD MSTORE PUSH1 0x5F PUSH1 0x24 DUP3 ADD MSTORE PUSH32 0x43616E6E6F742072657365742067616D6520696E2063757272656E7420616374 PUSH1 0x44 DUP3 ADD MSTORE PUSH32 0x69766520706C6179696E672073746174652E2046696E6973682074686520726F PUSH1 0x64 DUP3 ADD MSTORE PUSH32 0x756E64206F72207761697420666F7220697420746F20636F6E636C7564652E00 PUSH1 0x84 DUP3 ADD MSTORE PUSH1 0xA4 ADD PUSH2 0x3EA JUMP JUMPDEST PUSH1 0x0 DUP1 DUP3 SSTORE PUSH1 0x40 DUP1 MLOAD SWAP2 DUP3 MSTORE PUSH1 0x20 DUP3 ADD SWAP1 DUP2 SWAP1 MSTORE SWAP1 MLOAD PUSH2 0x1874 SWAP2 PUSH1 0x1 DUP5 ADD SWAP2 PUSH2 0x2F22 JUMP JUMPDEST POP PUSH1 0x40 DUP1 MLOAD PUSH1 0x0 DUP2 MSTORE PUSH1 0x20 DUP2 ADD SWAP2 DUP3 SWAP1 MSTORE MLOAD PUSH2 0x1894 SWAP2 PUSH1 0x2 DUP5 ADD SWAP2 PUSH2 0x2F22 JUMP JUMPDEST POP PUSH1 0x3 DUP2 ADD DUP1 SLOAD PUSH1 0xFF NOT SWAP1 DUP2 AND SWAP1 SWAP2 SSTORE PUSH1 0x5 DUP3 ADD DUP1 SLOAD SWAP1 SWAP2 AND SWAP1 SSTORE PUSH1 0x0 PUSH1 0x4 DUP3 ADD DUP2 SWAP1 SSTORE PUSH1 0x6 DUP3 ADD DUP2 SWAP1 SSTORE PUSH1 0x40 DUP1 MLOAD SWAP2 DUP3 MSTORE PUSH1 0x20 DUP3 ADD SWAP1 DUP2 SWAP1 MSTORE SWAP1 MLOAD PUSH2 0x18DE SWAP2 PUSH1 0x7 DUP5 ADD SWAP2 PUSH2 0x2F22 JUMP JUMPDEST POP PUSH1 0x8 DUP2 ADD DUP1 SLOAD PUSH4 0xFFFFFFFF NOT AND SWAP1 SSTORE PUSH1 0x0 PUSH1 0x9 DUP3 ADD DUP2 SWAP1 SSTORE PUSH1 0xA DUP3 ADD DUP1 SLOAD PUSH2 0xFFFF NOT AND SWAP1 SSTORE PUSH1 0x40 MLOAD CALLER SWAP2 PUSH32 0x5C5242C86E1C99F381866C8C3D6542C0F9691EC890EDFE6699DEF7DAFA9A34F6 SWAP2 LOG2 POP JUMP JUMPDEST PUSH1 0x1 PUSH1 0x1 PUSH1 0xA0 SHL SUB DUP2 AND PUSH1 0x0 SWAP1 DUP2 MSTORE PUSH1 0x20 DUP2 DUP2 MSTORE PUSH1 0x40 SWAP2 DUP3 SWAP1 KECCAK256 PUSH1 0x1 ADD DUP1 SLOAD DUP4 MLOAD DUP2 DUP5 MUL DUP2 ADD DUP5 ADD SWAP1 SWAP5 MSTORE DUP1 DUP5 MSTORE PUSH1 0x60 SWAP4 SWAP3 DUP4 ADD DUP3 DUP3 DUP1 ISZERO PUSH2 0xC3E JUMPI PUSH1 0x0 SWAP2 DUP3 MSTORE PUSH1 0x20 SWAP2 DUP3 SWAP1 KECCAK256 DUP1 SLOAD PUSH1 0xFF AND DUP5 MSTORE SWAP1 DUP3 MUL DUP4 ADD SWAP3 SWAP1 SWAP2 PUSH1 0x1 SWAP2 ADD DUP1 DUP5 GT PUSH2 0xC0F JUMPI POP SWAP5 SWAP8 SWAP7 POP POP POP POP POP POP POP JUMP JUMPDEST PUSH1 0x1 PUSH1 0x1 PUSH1 0xA0 SHL SUB DUP2 AND PUSH1 0x0 SWAP1 DUP2 MSTORE PUSH1 0x20 DUP2 DUP2 MSTORE PUSH1 0x40 DUP1 DUP4 KECCAK256 PUSH1 0x7 ADD DUP1 SLOAD DUP3 MLOAD DUP2 DUP6 MUL DUP2 ADD DUP6 ADD SWAP1 SWAP4 MSTORE DUP1 DUP4 MSTORE PUSH2 0x16D4 SWAP4 DUP4 ADD DUP3 DUP3 DUP1 ISZERO PUSH2 0x55B JUMPI PUSH1 0x0 SWAP2 DUP3 MSTORE PUSH1 0x20 SWAP2 DUP3 SWAP1 KECCAK256 DUP1 SLOAD PUSH1 0xFF AND DUP5 MSTORE SWAP1 DUP3 MUL DUP4 ADD SWAP3 SWAP1 SWAP2 PUSH1 0x1 SWAP2 ADD DUP1 DUP5 GT PUSH2 0x52C JUMPI SWAP1 POP POP POP POP POP POP PUSH2 0x2244 JUMP JUMPDEST PUSH1 0x1 DUP1 CALLER PUSH1 0x0 SWAP1 DUP2 MSTORE PUSH1 0x20 DUP2 SWAP1 MSTORE PUSH1 0x40 SWAP1 KECCAK256 PUSH1 0x3 ADD SLOAD PUSH1 0xFF AND PUSH1 0x4 DUP2 GT ISZERO PUSH2 0x1A33 JUMPI PUSH2 0x1A33 PUSH2 0x30C1 JUMP JUMPDEST EQ PUSH2 0x1A50 JUMPI PUSH1 0x40 MLOAD PUSH3 0x461BCD PUSH1 0xE5 SHL DUP2 MSTORE PUSH1 0x4 ADD PUSH2 0x3EA SWAP1 PUSH2 0x31BD JUMP JUMPDEST CALLER PUSH1 0x0 DUP2 DUP2 MSTORE PUSH1 0x20 DUP2 SWAP1 MSTORE PUSH1 0x40 SWAP1 KECCAK256 SWAP1 PUSH2 0x1A6C SWAP1 PUSH1 0x1 DUP1 PUSH2 0x25BC JUMP JUMPDEST POP PUSH1 0x0 PUSH2 0x1A7B CALLER PUSH1 0x0 DUP1 PUSH2 0x25BC JUMP JUMPDEST SWAP1 POP PUSH2 0x1A89 CALLER PUSH1 0x1 DUP1 PUSH2 0x25BC JUMP JUMPDEST POP DUP1 PUSH1 0xFF AND PUSH1 0x1 SUB PUSH2 0x1AA7 JUMPI PUSH1 0xA DUP3 ADD DUP1 SLOAD PUSH2 0xFF00 NOT AND PUSH2 0x100 OR SWAP1 SSTORE JUMPDEST PUSH1 0x0 PUSH2 0x1B06 DUP4 PUSH1 0x1 ADD DUP1 SLOAD DUP1 PUSH1 0x20 MUL PUSH1 0x20 ADD PUSH1 0x40 MLOAD SWAP1 DUP2 ADD PUSH1 0x40 MSTORE DUP1 SWAP3 SWAP2 SWAP1 DUP2 DUP2 MSTORE PUSH1 0x20 ADD DUP3 DUP1 SLOAD DUP1 ISZERO PUSH2 0x55B JUMPI PUSH1 0x0 SWAP2 DUP3 MSTORE PUSH1 0x20 SWAP2 DUP3 SWAP1 KECCAK256 DUP1 SLOAD PUSH1 0xFF AND DUP5 MSTORE SWAP1 DUP3 MUL DUP4 ADD SWAP3 SWAP1 SWAP2 PUSH1 0x1 SWAP2 ADD DUP1 DUP5 GT PUSH2 0x52C JUMPI SWAP1 POP POP POP POP POP POP PUSH2 0x2244 JUMP JUMPDEST SWAP1 POP DUP1 PUSH1 0x15 SUB PUSH2 0x1B2E JUMPI PUSH1 0x3 DUP4 DUP2 ADD DUP1 SLOAD PUSH1 0xFF NOT AND SWAP1 SWAP2 OR SWAP1 SSTORE PUSH2 0x1B29 CALLER PUSH2 0x2311 JUMP JUMPDEST PUSH2 0x1B46 JUMP JUMPDEST PUSH1 0x3 DUP4 ADD DUP1 SLOAD PUSH1 0x2 SWAP2 SWAP1 PUSH1 0xFF NOT AND PUSH1 0x1 DUP4 JUMPDEST MUL OR SWAP1 SSTORE POP JUMPDEST POP POP POP POP JUMP JUMPDEST PUSH1 0x2 DUP1 CALLER PUSH1 0x0 SWAP1 DUP2 MSTORE PUSH1 0x20 DUP2 SWAP1 MSTORE PUSH1 0x40 SWAP1 KECCAK256 PUSH1 0x3 ADD SLOAD PUSH1 0xFF AND PUSH1 0x4 DUP2 GT ISZERO PUSH2 0x1B76 JUMPI PUSH2 0x1B76 PUSH2 0x30C1 JUMP JUMPDEST EQ PUSH2 0x1B93 JUMPI PUSH1 0x40 MLOAD PUSH3 0x461BCD PUSH1 0xE5 SHL DUP2 MSTORE PUSH1 0x4 ADD PUSH2 0x3EA SWAP1 PUSH2 0x31BD JUMP JUMPDEST CALLER PUSH1 0x0 SWAP1 DUP2 MSTORE PUSH1 0x20 DUP2 SWAP1 MSTORE PUSH1 0x40 SWAP1 KECCAK256 PUSH1 0x8 DUP2 ADD SLOAD PUSH1 0xFF AND ISZERO PUSH2 0x1BF7 JUMPI PUSH1 0x40 MLOAD PUSH3 0x461BCD PUSH1 0xE5 SHL DUP2 MSTORE PUSH1 0x20 PUSH1 0x4 DUP3 ADD MSTORE PUSH1 0x19 PUSH1 0x24 DUP3 ADD MSTORE PUSH32 0x506C617965722068617320616C72656164792073706C69742E00000000000000 PUSH1 0x44 DUP3 ADD MSTORE PUSH1 0x64 ADD PUSH2 0x3EA JUMP JUMPDEST PUSH1 0x1 DUP2 ADD SLOAD PUSH1 0x2 EQ PUSH2 0x1C55 JUMPI PUSH1 0x40 MLOAD PUSH3 0x461BCD PUSH1 0xE5 SHL DUP2 MSTORE PUSH1 0x20 PUSH1 0x4 DUP3 ADD MSTORE PUSH1 0x21 PUSH1 0x24 DUP3 ADD MSTORE PUSH32 0x43616E206F6E6C792073706C697420696E697469616C2074776F206361726473 PUSH1 0x44 DUP3 ADD MSTORE PUSH1 0x17 PUSH1 0xF9 SHL PUSH1 0x64 DUP3 ADD MSTORE PUSH1 0x84 ADD PUSH2 0x3EA JUMP JUMPDEST DUP1 PUSH1 0x1 ADD PUSH1 0x1 DUP2 SLOAD DUP2 LT PUSH2 0x1C6B JUMPI PUSH2 0x1C6B PUSH2 0x3309 JUMP JUMPDEST SWAP1 PUSH1 0x0 MSTORE PUSH1 0x20 PUSH1 0x0 KECCAK256 SWAP1 PUSH1 0x20 SWAP2 DUP3 DUP3 DIV ADD SWAP2 SWAP1 MOD SWAP1 SLOAD SWAP1 PUSH2 0x100 EXP SWAP1 DIV PUSH1 0xFF AND PUSH1 0xFF AND DUP2 PUSH1 0x1 ADD PUSH1 0x0 DUP2 SLOAD DUP2 LT PUSH2 0x1CA4 JUMPI PUSH2 0x1CA4 PUSH2 0x3309 JUMP JUMPDEST PUSH1 0x0 SWAP2 DUP3 MSTORE PUSH1 0x20 SWAP2 DUP3 SWAP1 KECCAK256 SWAP2 DUP2 DIV SWAP1 SWAP2 ADD SLOAD PUSH1 0xFF PUSH1 0x1F SWAP1 SWAP3 AND PUSH2 0x100 EXP SWAP1 DIV AND EQ PUSH2 0x1D22 JUMPI PUSH1 0x40 MLOAD PUSH3 0x461BCD PUSH1 0xE5 SHL DUP2 MSTORE PUSH1 0x20 PUSH1 0x4 DUP3 ADD MSTORE PUSH1 0x28 PUSH1 0x24 DUP3 ADD MSTORE PUSH32 0x4361726473206D757374206265206F66207468652073616D652072616E6B2074 PUSH1 0x44 DUP3 ADD MSTORE PUSH8 0x379039B83634BA17 PUSH1 0xC1 SHL PUSH1 0x64 DUP3 ADD MSTORE PUSH1 0x84 ADD PUSH2 0x3EA JUMP JUMPDEST DUP1 SLOAD CALLVALUE EQ PUSH2 0x1D87 JUMPI PUSH1 0x40 MLOAD PUSH3 0x461BCD PUSH1 0xE5 SHL DUP2 MSTORE PUSH1 0x20 PUSH1 0x4 DUP3 ADD MSTORE PUSH1 0x2C PUSH1 0x24 DUP3 ADD MSTORE PUSH32 0x4D75737420706C61636520616E20657175616C2062657420666F722074686520 PUSH1 0x44 DUP3 ADD MSTORE PUSH12 0x39B2B1B7B732103430B73217 PUSH1 0xA1 SHL PUSH1 0x64 DUP3 ADD MSTORE PUSH1 0x84 ADD PUSH2 0x3EA JUMP JUMPDEST PUSH1 0x8 DUP2 ADD DUP1 SLOAD PUSH1 0xFF NOT AND PUSH1 0x1 SWAP1 DUP2 OR SWAP1 SWAP2 SSTORE CALLVALUE PUSH1 0x6 DUP4 ADD SSTORE DUP2 DUP2 ADD DUP1 SLOAD PUSH1 0x7 DUP5 ADD SWAP3 SWAP1 DUP2 LT PUSH2 0x1DB8 JUMPI PUSH2 0x1DB8 PUSH2 0x3309 JUMP JUMPDEST PUSH1 0x0 SWAP2 DUP3 MSTORE PUSH1 0x20 DUP1 DUP4 KECCAK256 DUP2 DUP4 DIV ADD SLOAD DUP5 SLOAD PUSH1 0x1 DUP2 DUP2 ADD DUP8 SSTORE SWAP6 DUP6 MSTORE SWAP4 DUP3 SWAP1 KECCAK256 SWAP2 DUP5 DIV SWAP1 SWAP2 ADD DUP1 SLOAD PUSH1 0x1F SWAP5 DUP6 AND PUSH2 0x100 SWAP1 DUP2 EXP PUSH1 0xFF SWAP7 SWAP1 SWAP6 AND SWAP1 EXP SWAP1 SWAP3 DIV DUP5 AND DUP4 MUL SWAP3 SWAP1 SWAP4 MUL NOT AND OR SWAP1 SSTORE DUP2 ADD DUP1 SLOAD DUP1 PUSH2 0x1E13 JUMPI PUSH2 0x1E13 PUSH2 0x331F JUMP JUMPDEST PUSH1 0x1 SWAP1 SUB DUP2 DUP2 SWAP1 PUSH1 0x0 MSTORE PUSH1 0x20 PUSH1 0x0 KECCAK256 SWAP1 PUSH1 0x20 SWAP2 DUP3 DUP3 DIV ADD SWAP2 SWAP1 MOD PUSH2 0x100 EXP DUP2 SLOAD SWAP1 PUSH1 0xFF MUL NOT AND SWAP1 SSTORE SWAP1 SSTORE PUSH2 0x1E49 CALLER PUSH1 0x1 DUP1 PUSH2 0x25BC JUMP JUMPDEST POP PUSH2 0x1E57 CALLER PUSH1 0x1 PUSH1 0x2 PUSH2 0x25BC JUMP JUMPDEST POP PUSH1 0x0 PUSH2 0x1EB7 DUP3 PUSH1 0x1 ADD DUP1 SLOAD DUP1 PUSH1 0x20 MUL PUSH1 0x20 ADD PUSH1 0x40 MLOAD SWAP1 DUP2 ADD PUSH1 0x40 MSTORE DUP1 SWAP3 SWAP2 SWAP1 DUP2 DUP2 MSTORE PUSH1 0x20 ADD DUP3 DUP1 SLOAD DUP1 ISZERO PUSH2 0x55B JUMPI PUSH1 0x0 SWAP2 DUP3 MSTORE PUSH1 0x20 SWAP2 DUP3 SWAP1 KECCAK256 DUP1 SLOAD PUSH1 0xFF AND DUP5 MSTORE SWAP1 DUP3 MUL DUP4 ADD SWAP3 SWAP1 SWAP2 PUSH1 0x1 SWAP2 ADD DUP1 DUP5 GT PUSH2 0x52C JUMPI SWAP1 POP POP POP POP POP POP PUSH2 0x2244 JUMP JUMPDEST SWAP1 POP PUSH1 0x0 PUSH2 0x1F18 DUP4 PUSH1 0x7 ADD DUP1 SLOAD DUP1 PUSH1 0x20 MUL PUSH1 0x20 ADD PUSH1 0x40 MLOAD SWAP1 DUP2 ADD PUSH1 0x40 MSTORE DUP1 SWAP3 SWAP2 SWAP1 DUP2 DUP2 MSTORE PUSH1 0x20 ADD DUP3 DUP1 SLOAD DUP1 ISZERO PUSH2 0x55B JUMPI PUSH1 0x0 SWAP2 DUP3 MSTORE PUSH1 0x20 SWAP2 DUP3 SWAP1 KECCAK256 DUP1 SLOAD PUSH1 0xFF AND DUP5 MSTORE SWAP1 DUP3 MUL DUP4 ADD SWAP3 SWAP1 SWAP2 PUSH1 0x1 SWAP2 ADD DUP1 DUP5 GT PUSH2 0x52C JUMPI SWAP1 POP POP POP POP POP POP PUSH2 0x2244 JUMP JUMPDEST SWAP1 POP DUP2 PUSH1 0x15 SUB PUSH2 0x1F58 JUMPI PUSH1 0x8 DUP4 ADD DUP1 SLOAD PUSH2 0xFF00 NOT AND PUSH2 0x100 OR SWAP1 SSTORE PUSH1 0x40 MLOAD PUSH1 0x1 DUP2 MSTORE CALLER SWAP1 PUSH1 0x0 DUP1 MLOAD PUSH1 0x20 PUSH2 0x35D6 DUP4 CODECOPY DUP2 MLOAD SWAP2 MSTORE SWAP1 PUSH1 0x20 ADD PUSH1 0x40 MLOAD DUP1 SWAP2 SUB SWAP1 LOG2 JUMPDEST DUP1 PUSH1 0x15 SUB PUSH2 0x1F9F JUMPI DUP2 PUSH1 0x15 SUB PUSH2 0x1F7A JUMPI PUSH1 0x8 DUP4 ADD DUP1 SLOAD PUSH2 0xFF00 NOT AND PUSH2 0x100 OR SWAP1 SSTORE JUMPDEST PUSH1 0x40 MLOAD PUSH1 0x2 DUP2 MSTORE CALLER SWAP1 PUSH1 0x0 DUP1 MLOAD PUSH1 0x20 PUSH2 0x35D6 DUP4 CODECOPY DUP2 MLOAD SWAP2 MSTORE SWAP1 PUSH1 0x20 ADD PUSH1 0x40 MLOAD DUP1 SWAP2 SUB SWAP1 LOG2 JUMPDEST DUP2 PUSH1 0x15 EQ DUP1 ISZERO PUSH2 0x1FAF JUMPI POP DUP1 PUSH1 0x15 EQ JUMPDEST ISZERO PUSH2 0x1FCD JUMPI PUSH1 0x3 DUP4 DUP2 ADD DUP1 SLOAD PUSH1 0xFF NOT AND SWAP1 SWAP2 OR SWAP1 SSTORE PUSH2 0x1FCD CALLER PUSH2 0x2311 JUMP JUMPDEST DUP3 SLOAD PUSH1 0x40 MLOAD SWAP1 DUP2 MSTORE CALLER SWAP1 PUSH32 0xE1665329182BC1DAB50C9B04EA6BD37107B73ED7C585951D808B02CD9B659627 SWAP1 PUSH1 0x20 ADD JUMPDEST PUSH1 0x40 MLOAD DUP1 SWAP2 SUB SWAP1 LOG2 POP POP POP POP JUMP JUMPDEST CALLER PUSH1 0x0 SWAP1 DUP2 MSTORE PUSH1 0x20 DUP2 SWAP1 MSTORE PUSH1 0x40 DUP2 KECCAK256 PUSH1 0x3 ADD SLOAD PUSH1 0xFF AND PUSH1 0x4 DUP2 GT ISZERO PUSH2 0x2032 JUMPI PUSH2 0x2032 PUSH2 0x30C1 JUMP JUMPDEST EQ DUP1 PUSH2 0x2064 JUMPI POP PUSH1 0x4 CALLER PUSH1 0x0 SWAP1 DUP2 MSTORE PUSH1 0x20 DUP2 SWAP1 MSTORE PUSH1 0x40 SWAP1 KECCAK256 PUSH1 0x3 ADD SLOAD PUSH1 0xFF AND PUSH1 0x4 DUP2 GT ISZERO PUSH2 0x2062 JUMPI PUSH2 0x2062 PUSH2 0x30C1 JUMP JUMPDEST EQ JUMPDEST PUSH2 0x20EC JUMPI PUSH1 0x40 MLOAD PUSH3 0x461BCD PUSH1 0xE5 SHL DUP2 MSTORE PUSH1 0x20 PUSH1 0x4 DUP3 ADD MSTORE PUSH1 0x4D PUSH1 0x24 DUP3 ADD MSTORE PUSH32 0x43616E6E6F7420706C616365206265743A20412067616D6520697320616C7265 PUSH1 0x44 DUP3 ADD MSTORE PUSH32 0x61647920696E2070726F6772657373206F72206E6F7420696E20612072657365 PUSH1 0x64 DUP3 ADD MSTORE PUSH13 0x3A3A30B136329039BA30BA3297 PUSH1 0x99 SHL PUSH1 0x84 DUP3 ADD MSTORE PUSH1 0xA4 ADD PUSH2 0x3EA JUMP JUMPDEST PUSH1 0x0 CALLVALUE GT PUSH2 0x214A JUMPI PUSH1 0x40 MLOAD PUSH3 0x461BCD PUSH1 0xE5 SHL DUP2 MSTORE PUSH1 0x20 PUSH1 0x4 DUP3 ADD MSTORE PUSH1 0x25 PUSH1 0x24 DUP3 ADD MSTORE PUSH32 0x42657420616D6F756E74206D7573742062652067726561746572207468616E20 PUSH1 0x44 DUP3 ADD MSTORE PUSH5 0x3D32B93797 PUSH1 0xD9 SHL PUSH1 0x64 DUP3 ADD MSTORE PUSH1 0x84 ADD PUSH2 0x3EA JUMP JUMPDEST CALLER PUSH1 0x0 SWAP1 DUP2 MSTORE PUSH1 0x20 DUP2 DUP2 MSTORE PUSH1 0x40 DUP1 DUP4 KECCAK256 CALLVALUE DUP2 SSTORE DUP2 MLOAD SWAP4 DUP5 MSTORE SWAP2 DUP4 ADD SWAP1 DUP2 SWAP1 MSTORE SWAP2 MLOAD SWAP1 SWAP2 PUSH2 0x217C SWAP2 PUSH1 0x1 DUP5 ADD SWAP2 SWAP1 PUSH2 0x2F22 JUMP JUMPDEST POP PUSH1 0x40 DUP1 MLOAD PUSH1 0x0 DUP2 MSTORE PUSH1 0x20 DUP2 ADD SWAP2 DUP3 SWAP1 MSTORE MLOAD PUSH2 0x219C SWAP2 PUSH1 0x2 DUP5 ADD SWAP2 PUSH2 0x2F22 JUMP JUMPDEST POP PUSH1 0x3 DUP2 ADD DUP1 SLOAD PUSH1 0x1 PUSH1 0xFF NOT SWAP2 DUP3 AND OR SWAP1 SWAP2 SSTORE PUSH1 0x5 DUP3 ADD DUP1 SLOAD SWAP1 SWAP2 AND SWAP1 SSTORE NUMBER PUSH1 0x4 DUP3 ADD SSTORE PUSH1 0x0 PUSH1 0x6 DUP3 ADD DUP2 SWAP1 SSTORE PUSH1 0x40 DUP1 MLOAD SWAP2 DUP3 MSTORE PUSH1 0x20 DUP3 ADD SWAP1 DUP2 SWAP1 MSTORE SWAP1 MLOAD PUSH2 0x21E8 SWAP2 PUSH1 0x7 DUP5 ADD SWAP2 PUSH2 0x2F22 JUMP JUMPDEST POP PUSH1 0x8 DUP2 ADD DUP1 SLOAD PUSH4 0xFFFFFFFF NOT AND SWAP1 SSTORE PUSH1 0x0 PUSH1 0x9 DUP3 ADD SSTORE PUSH1 0xA DUP2 ADD DUP1 SLOAD PUSH2 0xFFFF NOT AND SWAP1 SSTORE PUSH1 0x40 MLOAD CALLVALUE DUP2 MSTORE CALLER SWAP1 PUSH32 0xEA32A03505FD9F04D664676D72295A86C5FB0465E69654751907CA305BC1D1C7 SWAP1 PUSH1 0x20 ADD PUSH1 0x40 MLOAD DUP1 SWAP2 SUB SWAP1 LOG2 POP JUMP JUMPDEST PUSH1 0x0 DUP1 DUP1 DUP1 JUMPDEST DUP5 MLOAD DUP2 LT ISZERO PUSH2 0x22D4 JUMPI DUP5 DUP2 DUP2 MLOAD DUP2 LT PUSH2 0x2265 JUMPI PUSH2 0x2265 PUSH2 0x3309 JUMP JUMPDEST PUSH1 0x20 MUL PUSH1 0x20 ADD ADD MLOAD PUSH1 0xFF AND PUSH1 0x1 SUB PUSH2 0x2297 JUMPI DUP2 PUSH2 0x2281 DUP2 PUSH2 0x3335 JUMP JUMPDEST SWAP3 POP PUSH2 0x2290 SWAP1 POP PUSH1 0xB DUP5 PUSH2 0x32B6 JUMP JUMPDEST SWAP3 POP PUSH2 0x22C2 JUMP JUMPDEST DUP5 DUP2 DUP2 MLOAD DUP2 LT PUSH2 0x22A9 JUMPI PUSH2 0x22A9 PUSH2 0x3309 JUMP JUMPDEST PUSH1 0x20 MUL PUSH1 0x20 ADD ADD MLOAD PUSH1 0xFF AND DUP4 PUSH2 0x22BF SWAP2 SWAP1 PUSH2 0x32B6 JUMP JUMPDEST SWAP3 POP JUMPDEST DUP1 PUSH2 0x22CC DUP2 PUSH2 0x3335 JUMP JUMPDEST SWAP2 POP POP PUSH2 0x224A JUMP JUMPDEST POP JUMPDEST PUSH1 0x15 DUP3 GT DUP1 ISZERO PUSH2 0x22E6 JUMPI POP PUSH1 0x0 DUP2 GT JUMPDEST ISZERO PUSH2 0x230A JUMPI PUSH2 0x22F6 PUSH1 0xA DUP4 PUSH2 0x334E JUMP JUMPDEST SWAP2 POP DUP1 PUSH2 0x2302 DUP2 PUSH2 0x3361 JUMP JUMPDEST SWAP2 POP POP PUSH2 0x22D6 JUMP JUMPDEST POP SWAP3 SWAP2 POP POP JUMP JUMPDEST PUSH1 0x1 PUSH1 0x1 PUSH1 0xA0 SHL SUB DUP2 AND PUSH1 0x0 SWAP1 DUP2 MSTORE PUSH1 0x20 DUP2 DUP2 MSTORE PUSH1 0x40 DUP1 DUP4 KECCAK256 PUSH1 0x2 DUP2 ADD DUP1 SLOAD DUP4 MLOAD DUP2 DUP7 MUL DUP2 ADD DUP7 ADD SWAP1 SWAP5 MSTORE DUP1 DUP5 MSTORE SWAP2 SWAP5 SWAP4 PUSH2 0x2383 SWAP4 SWAP3 SWAP1 DUP4 ADD DUP3 DUP3 DUP1 ISZERO PUSH2 0x55B JUMPI PUSH1 0x0 SWAP2 DUP3 MSTORE PUSH1 0x20 SWAP2 DUP3 SWAP1 KECCAK256 DUP1 SLOAD PUSH1 0xFF AND DUP5 MSTORE SWAP1 DUP3 MUL DUP4 ADD SWAP3 SWAP1 SWAP2 PUSH1 0x1 SWAP2 ADD DUP1 DUP5 GT PUSH2 0x52C JUMPI SWAP1 POP POP POP POP POP POP PUSH2 0x2244 JUMP JUMPDEST PUSH1 0x2 DUP4 ADD SLOAD SWAP1 SWAP2 POP PUSH1 0x1 SUB PUSH2 0x23FF JUMPI PUSH2 0x239E DUP4 PUSH1 0x0 DUP1 PUSH2 0x25BC JUMP JUMPDEST POP PUSH2 0x23FC DUP3 PUSH1 0x2 ADD DUP1 SLOAD DUP1 PUSH1 0x20 MUL PUSH1 0x20 ADD PUSH1 0x40 MLOAD SWAP1 DUP2 ADD PUSH1 0x40 MSTORE DUP1 SWAP3 SWAP2 SWAP1 DUP2 DUP2 MSTORE PUSH1 0x20 ADD DUP3 DUP1 SLOAD DUP1 ISZERO PUSH2 0x55B JUMPI PUSH1 0x0 SWAP2 DUP3 MSTORE PUSH1 0x20 SWAP2 DUP3 SWAP1 KECCAK256 DUP1 SLOAD PUSH1 0xFF AND DUP5 MSTORE SWAP1 DUP3 MUL DUP4 ADD SWAP3 SWAP1 SWAP2 PUSH1 0x1 SWAP2 ADD DUP1 DUP5 GT PUSH2 0x52C JUMPI SWAP1 POP POP POP POP POP POP PUSH2 0x2244 JUMP JUMPDEST SWAP1 POP JUMPDEST PUSH1 0xA DUP3 ADD SLOAD PUSH1 0xFF AND ISZERO PUSH2 0x24E0 JUMPI DUP1 PUSH1 0x15 EQ DUP1 ISZERO PUSH2 0x241F JUMPI POP PUSH1 0x2 DUP1 DUP4 ADD SLOAD EQ JUMPDEST ISZERO PUSH2 0x24E0 JUMPI PUSH1 0x0 DUP4 PUSH1 0x1 PUSH1 0x1 PUSH1 0xA0 SHL SUB AND DUP4 PUSH1 0x9 ADD SLOAD PUSH1 0x3 PUSH2 0x2441 SWAP2 SWAP1 PUSH2 0x3378 JUMP JUMPDEST PUSH1 0x40 MLOAD PUSH1 0x0 DUP2 DUP2 DUP2 DUP6 DUP8 GAS CALL SWAP3 POP POP POP RETURNDATASIZE DUP1 PUSH1 0x0 DUP2 EQ PUSH2 0x247D JUMPI PUSH1 0x40 MLOAD SWAP2 POP PUSH1 0x1F NOT PUSH1 0x3F RETURNDATASIZE ADD AND DUP3 ADD PUSH1 0x40 MSTORE RETURNDATASIZE DUP3 MSTORE RETURNDATASIZE PUSH1 0x0 PUSH1 0x20 DUP5 ADD RETURNDATACOPY PUSH2 0x2482 JUMP JUMPDEST PUSH1 0x60 SWAP2 POP JUMPDEST POP POP SWAP1 POP DUP1 PUSH2 0x24DE JUMPI PUSH1 0x40 MLOAD PUSH3 0x461BCD PUSH1 0xE5 SHL DUP2 MSTORE PUSH1 0x20 PUSH1 0x4 DUP3 ADD MSTORE PUSH1 0x22 PUSH1 0x24 DUP3 ADD MSTORE PUSH32 0x4661696C656420746F2073656E6420696E737572616E63652077696E6E696E67 PUSH1 0x44 DUP3 ADD MSTORE PUSH2 0x3997 PUSH1 0xF1 SHL PUSH1 0x64 DUP3 ADD MSTORE PUSH1 0x84 ADD PUSH2 0x3EA JUMP JUMPDEST POP JUMPDEST PUSH1 0x11 DUP2 LT ISZERO PUSH2 0x255A JUMPI PUSH2 0x24F5 DUP4 PUSH1 0x0 DUP1 PUSH2 0x25BC JUMP JUMPDEST POP PUSH2 0x2553 DUP3 PUSH1 0x2 ADD DUP1 SLOAD DUP1 PUSH1 0x20 MUL PUSH1 0x20 ADD PUSH1 0x40 MLOAD SWAP1 DUP2 ADD PUSH1 0x40 MSTORE DUP1 SWAP3 SWAP2 SWAP1 DUP2 DUP2 MSTORE PUSH1 0x20 ADD DUP3 DUP1 SLOAD DUP1 ISZERO PUSH2 0x55B JUMPI PUSH1 0x0 SWAP2 DUP3 MSTORE PUSH1 0x20 SWAP2 DUP3 SWAP1 KECCAK256 DUP1 SLOAD PUSH1 0xFF AND DUP5 MSTORE SWAP1 DUP3 MUL DUP4 ADD SWAP3 SWAP1 SWAP2 PUSH1 0x1 SWAP2 ADD DUP1 DUP5 GT PUSH2 0x52C JUMPI SWAP1 POP POP POP POP POP POP PUSH2 0x2244 JUMP JUMPDEST SWAP1 POP PUSH2 0x24E0 JUMP JUMPDEST PUSH1 0x15 DUP2 GT ISZERO PUSH2 0x25B1 JUMPI DUP3 PUSH1 0x1 PUSH1 0x1 PUSH1 0xA0 SHL SUB AND PUSH32 0x4BBD2278C3B9557E7DDF4E738C92E4BDA30D174ADAF84ECDDBFC99412BF8BA19 DUP3 PUSH1 0x40 MLOAD PUSH2 0x259E SWAP2 DUP2 MSTORE PUSH1 0x20 ADD SWAP1 JUMP JUMPDEST PUSH1 0x40 MLOAD DUP1 SWAP2 SUB SWAP1 LOG2 PUSH2 0x5A0 DUP4 PUSH1 0x1 PUSH2 0x2A7E JUMP JUMPDEST PUSH2 0x5A0 DUP4 PUSH1 0x0 PUSH2 0x2A7E JUMP JUMPDEST PUSH1 0x1 PUSH1 0x1 PUSH1 0xA0 SHL SUB DUP4 AND PUSH1 0x0 SWAP1 DUP2 MSTORE PUSH1 0x20 DUP2 DUP2 MSTORE PUSH1 0x40 DUP1 DUP4 KECCAK256 PUSH1 0x4 DUP2 ADD SLOAD SWAP2 MLOAD SWAP1 SWAP3 DUP5 SWAP3 PUSH2 0x261A SWAP3 TIMESTAMP SWAP3 PREVRANDAO SWAP3 DUP12 SWAP3 SWAP1 SWAP2 ADD SWAP4 DUP5 MSTORE PUSH1 0x20 DUP5 ADD SWAP3 SWAP1 SWAP3 MSTORE PUSH1 0x60 SHL PUSH12 0xFFFFFFFFFFFFFFFFFFFFFFFF NOT AND PUSH1 0x40 DUP4 ADD MSTORE PUSH1 0x54 DUP3 ADD MSTORE PUSH1 0x74 ADD SWAP1 JUMP JUMPDEST PUSH1 0x40 DUP1 MLOAD PUSH1 0x1F NOT DUP2 DUP5 SUB ADD DUP2 MSTORE SWAP2 SWAP1 MSTORE DUP1 MLOAD PUSH1 0x20 SWAP1 SWAP2 ADD KECCAK256 NUMBER PUSH1 0x4 DUP5 ADD SSTORE SWAP1 POP PUSH1 0x0 PUSH2 0x2647 PUSH1 0xD DUP4 PUSH2 0x338F JUMP JUMPDEST PUSH2 0x2652 SWAP1 PUSH1 0x1 PUSH2 0x32B6 JUMP JUMPDEST SWAP1 POP PUSH1 0xA DUP2 PUSH1 0xFF AND GT ISZERO PUSH2 0x2664 JUMPI POP PUSH1 0xA JUMPDEST DUP6 ISZERO PUSH2 0x2896 JUMPI DUP5 PUSH1 0xFF AND PUSH1 0x1 SUB PUSH2 0x275A JUMPI PUSH1 0x1 DUP1 DUP5 ADD DUP1 SLOAD SWAP2 DUP3 ADD DUP2 SSTORE PUSH1 0x0 DUP2 DUP2 MSTORE PUSH1 0x20 SWAP1 DUP2 SWAP1 KECCAK256 DUP2 DUP5 DIV ADD DUP1 SLOAD PUSH1 0xFF DUP1 DUP8 AND PUSH1 0x1F SWAP1 SWAP7 AND PUSH2 0x100 EXP SWAP6 DUP7 MUL SWAP6 MUL NOT AND SWAP4 SWAP1 SWAP4 OR SWAP1 SWAP3 SSTORE DUP1 SLOAD PUSH1 0x40 DUP1 MLOAD DUP3 DUP6 MUL DUP2 ADD DUP6 ADD SWAP1 SWAP2 MSTORE DUP2 DUP2 MSTORE PUSH1 0x1 PUSH1 0x1 PUSH1 0xA0 SHL SUB DUP12 AND SWAP4 PUSH32 0x7D87DD80630649D4AA92025481D68BB751A5B1F79E61F1088A799AF0C76FB4B4 SWAP4 DUP7 SWAP4 PUSH2 0x2730 SWAP4 SWAP3 DUP4 ADD DUP3 DUP3 DUP1 ISZERO PUSH2 0x55B JUMPI PUSH1 0x0 SWAP2 DUP3 MSTORE PUSH1 0x20 SWAP2 DUP3 SWAP1 KECCAK256 DUP1 SLOAD PUSH1 0xFF AND DUP5 MSTORE SWAP1 DUP3 MUL DUP4 ADD SWAP3 SWAP1 SWAP2 PUSH1 0x1 SWAP2 ADD DUP1 DUP5 GT PUSH2 0x52C JUMPI SWAP1 POP POP POP POP POP POP PUSH2 0x2244 JUMP JUMPDEST PUSH1 0x40 DUP1 MLOAD PUSH1 0xFF SWAP1 SWAP4 AND DUP4 MSTORE PUSH1 0x20 DUP4 ADD SWAP2 SWAP1 SWAP2 MSTORE PUSH1 0x1 SWAP1 DUP3 ADD MSTORE PUSH1 0x60 ADD JUMPDEST PUSH1 0x40 MLOAD DUP1 SWAP2 SUB SWAP1 LOG2 PUSH2 0x296F JUMP JUMPDEST DUP5 PUSH1 0xFF AND PUSH1 0x2 SUB PUSH2 0x2842 JUMPI PUSH1 0x7 DUP4 ADD DUP1 SLOAD PUSH1 0x1 DUP2 ADD DUP3 SSTORE PUSH1 0x0 DUP3 DUP2 MSTORE PUSH1 0x20 SWAP1 DUP2 SWAP1 KECCAK256 DUP2 DUP4 DIV ADD DUP1 SLOAD PUSH1 0xFF DUP1 DUP8 AND PUSH1 0x1F SWAP1 SWAP6 AND PUSH2 0x100 EXP SWAP5 DUP6 MUL SWAP5 MUL NOT AND SWAP3 SWAP1 SWAP3 OR SWAP1 SWAP2 SSTORE DUP2 SLOAD PUSH1 0x40 DUP1 MLOAD DUP3 DUP5 MUL DUP2 ADD DUP5 ADD SWAP1 SWAP2 MSTORE DUP2 DUP2 MSTORE PUSH1 0x1 PUSH1 0x1 PUSH1 0xA0 SHL SUB DUP12 AND SWAP4 PUSH32 0x7D87DD80630649D4AA92025481D68BB751A5B1F79E61F1088A799AF0C76FB4B4 SWAP4 DUP7 SWAP4 PUSH2 0x2821 SWAP4 SWAP3 SWAP2 DUP4 ADD DUP3 DUP3 DUP1 ISZERO PUSH2 0x55B JUMPI PUSH1 0x0 SWAP2 DUP3 MSTORE PUSH1 0x20 SWAP2 DUP3 SWAP1 KECCAK256 DUP1 SLOAD PUSH1 0xFF AND DUP5 MSTORE SWAP1 DUP3 MUL DUP4 ADD SWAP3 SWAP1 SWAP2 PUSH1 0x1 SWAP2 ADD DUP1 DUP5 GT PUSH2 0x52C JUMPI SWAP1 POP POP POP POP POP POP PUSH2 0x2244 JUMP JUMPDEST PUSH1 0x40 DUP1 MLOAD PUSH1 0xFF SWAP1 SWAP4 AND DUP4 MSTORE PUSH1 0x20 DUP4 ADD SWAP2 SWAP1 SWAP2 MSTORE PUSH1 0x2 SWAP1 DUP3 ADD MSTORE PUSH1 0x60 ADD PUSH2 0x274D JUMP JUMPDEST PUSH1 0x40 MLOAD PUSH3 0x461BCD PUSH1 0xE5 SHL DUP2 MSTORE PUSH1 0x20 PUSH1 0x4 DUP3 ADD MSTORE PUSH1 0x23 PUSH1 0x24 DUP3 ADD MSTORE PUSH32 0x496E76616C696420706C617965722068616E6420494420666F72206465616C69 PUSH1 0x44 DUP3 ADD MSTORE PUSH3 0x373397 PUSH1 0xE9 SHL PUSH1 0x64 DUP3 ADD MSTORE PUSH1 0x84 ADD PUSH2 0x3EA JUMP JUMPDEST PUSH1 0x2 DUP4 ADD DUP1 SLOAD PUSH1 0x1 DUP2 ADD DUP3 SSTORE PUSH1 0x0 DUP3 DUP2 MSTORE PUSH1 0x20 SWAP1 DUP2 SWAP1 KECCAK256 DUP2 DUP4 DIV ADD DUP1 SLOAD PUSH1 0xFF DUP1 DUP8 AND PUSH1 0x1F SWAP1 SWAP6 AND PUSH2 0x100 EXP SWAP5 DUP6 MUL SWAP5 MUL NOT AND SWAP3 SWAP1 SWAP3 OR SWAP1 SWAP2 SSTORE DUP2 SLOAD PUSH1 0x40 DUP1 MLOAD DUP3 DUP5 MUL DUP2 ADD DUP5 ADD SWAP1 SWAP2 MSTORE DUP2 DUP2 MSTORE PUSH1 0x1 PUSH1 0x1 PUSH1 0xA0 SHL SUB DUP12 AND SWAP4 PUSH32 0xC534EE2EEDB919439A8CC001F81C772938E9DE503140E68A0A1AB20FEE8ED137 SWAP4 DUP7 SWAP4 PUSH2 0x2952 SWAP4 SWAP3 SWAP2 DUP4 ADD DUP3 DUP3 DUP1 ISZERO PUSH2 0x55B JUMPI PUSH1 0x0 SWAP2 DUP3 MSTORE PUSH1 0x20 SWAP2 DUP3 SWAP1 KECCAK256 DUP1 SLOAD PUSH1 0xFF AND DUP5 MSTORE SWAP1 DUP3 MUL DUP4 ADD SWAP3 SWAP1 SWAP2 PUSH1 0x1 SWAP2 ADD DUP1 DUP5 GT PUSH2 0x52C JUMPI SWAP1 POP POP POP POP POP POP PUSH2 0x2244 JUMP JUMPDEST PUSH1 0x40 DUP1 MLOAD PUSH1 0xFF SWAP1 SWAP4 AND DUP4 MSTORE PUSH1 0x20 DUP4 ADD SWAP2 SWAP1 SWAP2 MSTORE ADD PUSH1 0x40 MLOAD DUP1 SWAP2 SUB SWAP1 LOG2 JUMPDEST SWAP7 SWAP6 POP POP POP POP POP POP JUMP JUMPDEST PUSH1 0x1 PUSH1 0x1 PUSH1 0xA0 SHL SUB DUP4 AND PUSH1 0x0 SWAP1 DUP2 MSTORE PUSH1 0x20 DUP2 SWAP1 MSTORE PUSH1 0x40 SWAP1 KECCAK256 PUSH1 0x3 DUP2 ADD DUP1 SLOAD PUSH1 0xFF NOT AND PUSH1 0x4 OR SWAP1 SSTORE DUP2 ISZERO PUSH2 0x2A43 JUMPI PUSH1 0x0 DUP5 PUSH1 0x1 PUSH1 0x1 PUSH1 0xA0 SHL SUB AND DUP4 PUSH1 0x40 MLOAD PUSH1 0x0 PUSH1 0x40 MLOAD DUP1 DUP4 SUB DUP2 DUP6 DUP8 GAS CALL SWAP3 POP POP POP RETURNDATASIZE DUP1 PUSH1 0x0 DUP2 EQ PUSH2 0x29F3 JUMPI PUSH1 0x40 MLOAD SWAP2 POP PUSH1 0x1F NOT PUSH1 0x3F RETURNDATASIZE ADD AND DUP3 ADD PUSH1 0x40 MSTORE RETURNDATASIZE DUP3 MSTORE RETURNDATASIZE PUSH1 0x0 PUSH1 0x20 DUP5 ADD RETURNDATACOPY PUSH2 0x29F8 JUMP JUMPDEST PUSH1 0x60 SWAP2 POP JUMPDEST POP POP SWAP1 POP DUP1 PUSH2 0x2A41 JUMPI PUSH1 0x40 MLOAD PUSH3 0x461BCD PUSH1 0xE5 SHL DUP2 MSTORE PUSH1 0x20 PUSH1 0x4 DUP3 ADD MSTORE PUSH1 0x15 PUSH1 0x24 DUP3 ADD MSTORE PUSH21 0x2330B4B632B2103A379039B2B7321022BA3432B917 PUSH1 0x59 SHL PUSH1 0x44 DUP3 ADD MSTORE PUSH1 0x64 ADD PUSH2 0x3EA JUMP JUMPDEST POP JUMPDEST DUP4 PUSH1 0x1 PUSH1 0x1 PUSH1 0xA0 SHL SUB AND PUSH32 0x79E3A2F58098F8DE6628C96C4444E59E851C17FD85C2139CB27CA031F7246D7A DUP5 DUP5 PUSH1 0x40 MLOAD PUSH2 0x1FFD SWAP3 SWAP2 SWAP1 PUSH2 0x33F3 JUMP JUMPDEST PUSH1 0x1 PUSH1 0x1 PUSH1 0xA0 SHL SUB DUP3 AND PUSH1 0x0 SWAP1 DUP2 MSTORE PUSH1 0x20 DUP2 DUP2 MSTORE PUSH1 0x40 DUP1 DUP4 KECCAK256 PUSH1 0x2 DUP2 ADD DUP1 SLOAD DUP4 MLOAD DUP2 DUP7 MUL DUP2 ADD DUP7 ADD SWAP1 SWAP5 MSTORE DUP1 DUP5 MSTORE SWAP2 SWAP5 SWAP4 PUSH2 0x2AF0 SWAP4 SWAP3 SWAP1 DUP4 ADD DUP3 DUP3 DUP1 ISZERO PUSH2 0x55B JUMPI PUSH1 0x0 SWAP2 DUP3 MSTORE PUSH1 0x20 SWAP2 DUP3 SWAP1 KECCAK256 DUP1 SLOAD PUSH1 0xFF AND DUP5 MSTORE SWAP1 DUP3 MUL DUP4 ADD SWAP3 SWAP1 SWAP2 PUSH1 0x1 SWAP2 ADD DUP1 DUP5 GT PUSH2 0x52C JUMPI SWAP1 POP POP POP POP POP POP PUSH2 0x2244 JUMP JUMPDEST SWAP1 POP PUSH2 0x2B75 DUP5 DUP4 PUSH1 0x1 ADD DUP1 SLOAD DUP1 PUSH1 0x20 MUL PUSH1 0x20 ADD PUSH1 0x40 MLOAD SWAP1 DUP2 ADD PUSH1 0x40 MSTORE DUP1 SWAP3 SWAP2 SWAP1 DUP2 DUP2 MSTORE PUSH1 0x20 ADD DUP3 DUP1 SLOAD DUP1 ISZERO PUSH2 0x2B62 JUMPI PUSH1 0x20 MUL DUP3 ADD SWAP2 SWAP1 PUSH1 0x0 MSTORE PUSH1 0x20 PUSH1 0x0 KECCAK256 SWAP1 PUSH1 0x0 SWAP1 JUMPDEST DUP3 SLOAD PUSH2 0x100 DUP4 SWAP1 EXP SWAP1 DIV PUSH1 0xFF AND DUP2 MSTORE PUSH1 0x20 PUSH1 0x1 SWAP3 DUP4 ADD DUP2 DUP2 DIV SWAP5 DUP6 ADD SWAP5 SWAP1 SWAP4 SUB SWAP1 SWAP3 MUL SWAP2 ADD DUP1 DUP5 GT PUSH2 0x2B33 JUMPI SWAP1 POP JUMPDEST POP POP POP POP POP DUP5 PUSH1 0x0 ADD SLOAD PUSH1 0x1 DUP6 DUP9 PUSH2 0x2C1B JUMP JUMPDEST PUSH1 0x8 DUP3 ADD SLOAD PUSH1 0xFF AND ISZERO PUSH2 0x2C05 JUMPI PUSH2 0x2C05 DUP5 DUP4 PUSH1 0x7 ADD DUP1 SLOAD DUP1 PUSH1 0x20 MUL PUSH1 0x20 ADD PUSH1 0x40 MLOAD SWAP1 DUP2 ADD PUSH1 0x40 MSTORE DUP1 SWAP3 SWAP2 SWAP1 DUP2 DUP2 MSTORE PUSH1 0x20 ADD DUP3 DUP1 SLOAD DUP1 ISZERO PUSH2 0x2BF2 JUMPI PUSH1 0x20 MUL DUP3 ADD SWAP2 SWAP1 PUSH1 0x0 MSTORE PUSH1 0x20 PUSH1 0x0 KECCAK256 SWAP1 PUSH1 0x0 SWAP1 JUMPDEST DUP3 SLOAD PUSH2 0x100 DUP4 SWAP1 EXP SWAP1 DIV PUSH1 0xFF AND DUP2 MSTORE PUSH1 0x20 PUSH1 0x1 SWAP3 DUP4 ADD DUP2 DUP2 DIV SWAP5 DUP6 ADD SWAP5 SWAP1 SWAP4 SUB SWAP1 SWAP3 MUL SWAP2 ADD DUP1 DUP5 GT PUSH2 0x2BC3 JUMPI SWAP1 POP JUMPDEST POP POP POP POP POP DUP5 PUSH1 0x6 ADD SLOAD PUSH1 0x2 DUP6 DUP9 PUSH2 0x2C1B JUMP JUMPDEST PUSH1 0x3 DUP3 ADD DUP1 SLOAD PUSH1 0x4 SWAP2 SWAP1 PUSH1 0xFF NOT AND PUSH1 0x1 DUP4 PUSH2 0x1B40 JUMP JUMPDEST PUSH1 0x0 PUSH2 0x2C26 DUP7 PUSH2 0x2244 JUMP JUMPDEST SWAP1 POP PUSH1 0x60 PUSH1 0x0 PUSH1 0x15 DUP4 GT ISZERO PUSH2 0x2C68 JUMPI PUSH2 0x2C3E DUP7 PUSH2 0x2E0F JUMP JUMPDEST PUSH1 0x40 MLOAD PUSH1 0x20 ADD PUSH2 0x2C4E SWAP2 SWAP1 PUSH2 0x3415 JUMP JUMPDEST PUSH1 0x40 MLOAD PUSH1 0x20 DUP2 DUP4 SUB SUB DUP2 MSTORE SWAP1 PUSH1 0x40 MSTORE SWAP2 POP PUSH1 0x0 SWAP1 POP PUSH2 0x2D1B JUMP JUMPDEST DUP4 ISZERO PUSH2 0x2CAB JUMPI PUSH2 0x2C77 DUP7 PUSH2 0x2E0F JUMP JUMPDEST PUSH1 0x40 MLOAD PUSH1 0x20 ADD PUSH2 0x2C87 SWAP2 SWAP1 PUSH2 0x345A JUMP JUMPDEST PUSH1 0x40 DUP1 MLOAD PUSH1 0x1F NOT DUP2 DUP5 SUB ADD DUP2 MSTORE SWAP2 SWAP1 MSTORE SWAP2 POP PUSH2 0x2CA4 DUP8 PUSH1 0x2 PUSH2 0x3378 JUMP JUMPDEST SWAP1 POP PUSH2 0x2D1B JUMP JUMPDEST DUP5 DUP4 GT ISZERO PUSH2 0x2CCC JUMPI PUSH2 0x2CBC DUP7 PUSH2 0x2E0F JUMP JUMPDEST PUSH1 0x40 MLOAD PUSH1 0x20 ADD PUSH2 0x2C87 SWAP2 SWAP1 PUSH2 0x34AE JUMP JUMPDEST DUP5 DUP4 LT ISZERO PUSH2 0x2CED JUMPI PUSH2 0x2CDD DUP7 PUSH2 0x2E0F JUMP JUMPDEST PUSH1 0x40 MLOAD PUSH1 0x20 ADD PUSH2 0x2C4E SWAP2 SWAP1 PUSH2 0x34EF JUMP JUMPDEST PUSH2 0x2CF6 DUP7 PUSH2 0x2E0F JUMP JUMPDEST PUSH1 0x40 MLOAD PUSH1 0x20 ADD PUSH2 0x2D06 SWAP2 SWAP1 PUSH2 0x3533 JUMP JUMPDEST PUSH1 0x40 MLOAD PUSH1 0x20 DUP2 DUP4 SUB SUB DUP2 MSTORE SWAP1 PUSH1 0x40 MSTORE SWAP2 POP DUP7 SWAP1 POP JUMPDEST DUP1 ISZERO PUSH2 0x2DC1 JUMPI PUSH1 0x0 DUP10 PUSH1 0x1 PUSH1 0x1 PUSH1 0xA0 SHL SUB AND DUP3 PUSH1 0x40 MLOAD PUSH1 0x0 PUSH1 0x40 MLOAD DUP1 DUP4 SUB DUP2 DUP6 DUP8 GAS CALL SWAP3 POP POP POP RETURNDATASIZE DUP1 PUSH1 0x0 DUP2 EQ PUSH2 0x2D6E JUMPI PUSH1 0x40 MLOAD SWAP2 POP PUSH1 0x1F NOT PUSH1 0x3F RETURNDATASIZE ADD AND DUP3 ADD PUSH1 0x40 MSTORE RETURNDATASIZE DUP3 MSTORE RETURNDATASIZE PUSH1 0x0 PUSH1 0x20 DUP5 ADD RETURNDATACOPY PUSH2 0x2D73 JUMP JUMPDEST PUSH1 0x60 SWAP2 POP JUMPDEST POP POP SWAP1 POP DUP1 PUSH2 0x2D81 DUP9 PUSH2 0x2E0F JUMP JUMPDEST PUSH1 0x40 MLOAD PUSH1 0x20 ADD PUSH2 0x2D91 SWAP2 SWAP1 PUSH2 0x357D JUMP JUMPDEST PUSH1 0x40 MLOAD PUSH1 0x20 DUP2 DUP4 SUB SUB DUP2 MSTORE SWAP1 PUSH1 0x40 MSTORE SWAP1 PUSH2 0x2DBE JUMPI PUSH1 0x40 MLOAD PUSH3 0x461BCD PUSH1 0xE5 SHL DUP2 MSTORE PUSH1 0x4 ADD PUSH2 0x3EA SWAP2 SWAP1 PUSH2 0x35C2 JUMP JUMPDEST POP POP JUMPDEST DUP9 PUSH1 0x1 PUSH1 0x1 PUSH1 0xA0 SHL SUB AND PUSH32 0x79E3A2F58098F8DE6628C96C4444E59E851C17FD85C2139CB27CA031F7246D7A DUP4 DUP4 PUSH1 0x40 MLOAD PUSH2 0x2DFC SWAP3 SWAP2 SWAP1 PUSH2 0x33F3 JUMP JUMPDEST PUSH1 0x40 MLOAD DUP1 SWAP2 SUB SWAP1 LOG2 POP POP POP POP POP POP POP POP POP JUMP JUMPDEST PUSH1 0x60 DUP2 PUSH1 0xFF AND PUSH1 0x0 SUB PUSH2 0x2E39 JUMPI POP POP PUSH1 0x40 DUP1 MLOAD DUP1 DUP3 ADD SWAP1 SWAP2 MSTORE PUSH1 0x1 DUP2 MSTORE PUSH1 0x3 PUSH1 0xFC SHL PUSH1 0x20 DUP3 ADD MSTORE SWAP1 JUMP JUMPDEST PUSH1 0xFF DUP3 AND PUSH1 0x0 DUP2 JUMPDEST DUP1 ISZERO PUSH2 0x2E66 JUMPI PUSH2 0x2E52 PUSH1 0xA DUP3 PUSH2 0x32DF JUMP JUMPDEST SWAP1 POP DUP2 PUSH2 0x2E5E DUP2 PUSH2 0x3335 JUMP JUMPDEST SWAP3 POP POP PUSH2 0x2E41 JUMP JUMPDEST PUSH1 0x0 DUP3 PUSH8 0xFFFFFFFFFFFFFFFF DUP2 GT ISZERO PUSH2 0x2E81 JUMPI PUSH2 0x2E81 PUSH2 0x32F3 JUMP JUMPDEST PUSH1 0x40 MLOAD SWAP1 DUP1 DUP3 MSTORE DUP1 PUSH1 0x1F ADD PUSH1 0x1F NOT AND PUSH1 0x20 ADD DUP3 ADD PUSH1 0x40 MSTORE DUP1 ISZERO PUSH2 0x2EAB JUMPI PUSH1 0x20 DUP3 ADD DUP2 DUP1 CALLDATASIZE DUP4 CALLDATACOPY ADD SWAP1 POP JUMPDEST POP SWAP1 POP DUP3 JUMPDEST DUP5 ISZERO PUSH2 0x2F18 JUMPI DUP1 PUSH2 0x2EC0 DUP2 PUSH2 0x3361 JUMP JUMPDEST SWAP2 POP PUSH2 0x2ECF SWAP1 POP PUSH1 0xA DUP7 PUSH2 0x338F JUMP JUMPDEST PUSH2 0x2EDA SWAP1 PUSH1 0x30 PUSH2 0x32B6 JUMP JUMPDEST PUSH1 0xF8 SHL DUP3 DUP3 DUP2 MLOAD DUP2 LT PUSH2 0x2EEF JUMPI PUSH2 0x2EEF PUSH2 0x3309 JUMP JUMPDEST PUSH1 0x20 ADD ADD SWAP1 PUSH1 0x1 PUSH1 0x1 PUSH1 0xF8 SHL SUB NOT AND SWAP1 DUP2 PUSH1 0x0 BYTE SWAP1 MSTORE8 POP PUSH2 0x2F11 PUSH1 0xA DUP7 PUSH2 0x32DF JUMP JUMPDEST SWAP5 POP PUSH2 0x2EB0 JUMP JUMPDEST POP SWAP6 SWAP5 POP POP POP POP POP JUMP JUMPDEST DUP3 DUP1 SLOAD DUP3 DUP3 SSTORE SWAP1 PUSH1 0x0 MSTORE PUSH1 0x20 PUSH1 0x0 KECCAK256 SWAP1 PUSH1 0x1F ADD PUSH1 0x20 SWAP1 DIV DUP2 ADD SWAP3 DUP3 ISZERO PUSH2 0x2FB8 JUMPI SWAP2 PUSH1 0x20 MUL DUP3 ADD PUSH1 0x0 JUMPDEST DUP4 DUP3 GT ISZERO PUSH2 0x2F89 JUMPI DUP4 MLOAD DUP4 DUP3 PUSH2 0x100 EXP DUP2 SLOAD DUP2 PUSH1 0xFF MUL NOT AND SWAP1 DUP4 PUSH1 0xFF AND MUL OR SWAP1 SSTORE POP SWAP3 PUSH1 0x20 ADD SWAP3 PUSH1 0x1 ADD PUSH1 0x20 DUP2 PUSH1 0x0 ADD DIV SWAP3 DUP4 ADD SWAP3 PUSH1 0x1 SUB MUL PUSH2 0x2F4B JUMP JUMPDEST DUP1 ISZERO PUSH2 0x2FB6 JUMPI DUP3 DUP2 PUSH2 0x100 EXP DUP2 SLOAD SWAP1 PUSH1 0xFF MUL NOT AND SWAP1 SSTORE PUSH1 0x1 ADD PUSH1 0x20 DUP2 PUSH1 0x0 ADD DIV SWAP3 DUP4 ADD SWAP3 PUSH1 0x1 SUB MUL PUSH2 0x2F89 JUMP JUMPDEST POP JUMPDEST POP PUSH2 0x2FC4 SWAP3 SWAP2 POP PUSH2 0x2FC8 JUMP JUMPDEST POP SWAP1 JUMP JUMPDEST JUMPDEST DUP1 DUP3 GT ISZERO PUSH2 0x2FC4 JUMPI PUSH1 0x0 DUP2 SSTORE PUSH1 0x1 ADD PUSH2 0x2FC9 JUMP JUMPDEST DUP1 CALLDATALOAD PUSH1 0xFF DUP2 AND DUP2 EQ PUSH2 0x2FEE JUMPI PUSH1 0x0 DUP1 REVERT JUMPDEST SWAP2 SWAP1 POP JUMP JUMPDEST PUSH1 0x0 PUSH1 0x20 DUP3 DUP5 SUB SLT ISZERO PUSH2 0x3005 JUMPI PUSH1 0x0 DUP1 REVERT JUMPDEST PUSH2 0x300E DUP3 PUSH2 0x2FDD JUMP JUMPDEST SWAP4 SWAP3 POP POP POP JUMP JUMPDEST PUSH1 0x0 DUP1 PUSH1 0x40 DUP4 DUP6 SUB SLT ISZERO PUSH2 0x3028 JUMPI PUSH1 0x0 DUP1 REVERT JUMPDEST PUSH2 0x3031 DUP4 PUSH2 0x2FDD JUMP JUMPDEST SWAP2 POP PUSH2 0x303F PUSH1 0x20 DUP5 ADD PUSH2 0x2FDD JUMP JUMPDEST SWAP1 POP SWAP3 POP SWAP3 SWAP1 POP JUMP JUMPDEST DUP1 CALLDATALOAD PUSH1 0x1 PUSH1 0x1 PUSH1 0xA0 SHL SUB DUP2 AND DUP2 EQ PUSH2 0x2FEE JUMPI PUSH1 0x0 DUP1 REVERT JUMPDEST PUSH1 0x0 PUSH1 0x20 DUP3 DUP5 SUB SLT ISZERO PUSH2 0x3071 JUMPI PUSH1 0x0 DUP1 REVERT JUMPDEST PUSH2 0x300E DUP3 PUSH2 0x3048 JUMP JUMPDEST PUSH1 0x20 DUP1 DUP3 MSTORE DUP3 MLOAD DUP3 DUP3 ADD DUP2 SWAP1 MSTORE PUSH1 0x0 SWAP2 SWAP1 DUP5 DUP3 ADD SWAP1 PUSH1 0x40 DUP6 ADD SWAP1 DUP5 JUMPDEST DUP2 DUP2 LT ISZERO PUSH2 0x30B5 JUMPI DUP4 MLOAD PUSH1 0xFF AND DUP4 MSTORE SWAP3 DUP5 ADD SWAP3 SWAP2 DUP5 ADD SWAP2 PUSH1 0x1 ADD PUSH2 0x3096 JUMP JUMPDEST POP SWAP1 SWAP7 SWAP6 POP POP POP POP POP POP JUMP JUMPDEST PUSH4 0x4E487B71 PUSH1 0xE0 SHL PUSH1 0x0 MSTORE PUSH1 0x21 PUSH1 0x4 MSTORE PUSH1 0x24 PUSH1 0x0 REVERT JUMPDEST PUSH1 0x5 DUP2 LT PUSH2 0x30F5 JUMPI PUSH4 0x4E487B71 PUSH1 0xE0 SHL PUSH1 0x0 MSTORE PUSH1 0x21 PUSH1 0x4 MSTORE PUSH1 0x24 PUSH1 0x0 REVERT JUMPDEST SWAP1 MSTORE JUMP JUMPDEST DUP13 DUP2 MSTORE PUSH2 0x180 DUP2 ADD PUSH2 0x310E PUSH1 0x20 DUP4 ADD DUP15 PUSH2 0x30D7 JUMP JUMPDEST DUP12 PUSH1 0x40 DUP4 ADD MSTORE DUP11 ISZERO ISZERO PUSH1 0x60 DUP4 ADD MSTORE DUP10 PUSH1 0x80 DUP4 ADD MSTORE DUP9 ISZERO ISZERO PUSH1 0xA0 DUP4 ADD MSTORE DUP8 ISZERO ISZERO PUSH1 0xC0 DUP4 ADD MSTORE DUP7 ISZERO ISZERO PUSH1 0xE0 DUP4 ADD MSTORE DUP6 ISZERO ISZERO PUSH2 0x100 DUP4 ADD MSTORE DUP5 PUSH2 0x120 DUP4 ADD MSTORE PUSH2 0x3159 PUSH2 0x140 DUP4 ADD DUP6 ISZERO ISZERO SWAP1 MSTORE JUMP JUMPDEST DUP3 ISZERO ISZERO PUSH2 0x160 DUP4 ADD MSTORE SWAP14 SWAP13 POP POP POP POP POP POP POP POP POP POP POP POP POP JUMP JUMPDEST PUSH1 0x0 DUP1 PUSH1 0x40 DUP4 DUP6 SUB SLT ISZERO PUSH2 0x3186 JUMPI PUSH1 0x0 DUP1 REVERT JUMPDEST PUSH2 0x318F DUP4 PUSH2 0x3048 JUMP JUMPDEST SWAP2 POP PUSH1 0x20 DUP4 ADD CALLDATALOAD DUP1 ISZERO ISZERO DUP2 EQ PUSH2 0x31A4 JUMPI PUSH1 0x0 DUP1 REVERT JUMPDEST DUP1 SWAP2 POP POP SWAP3 POP SWAP3 SWAP1 POP JUMP JUMPDEST PUSH1 0x20 DUP2 ADD PUSH2 0x16D4 DUP3 DUP5 PUSH2 0x30D7 JUMP JUMPDEST PUSH1 0x20 DUP1 DUP3 MSTORE PUSH1 0x23 SWAP1 DUP3 ADD MSTORE PUSH32 0x496E76616C69642067616D6520737461746520666F7220746869732061637469 PUSH1 0x40 DUP3 ADD MSTORE PUSH3 0x37B717 PUSH1 0xE9 SHL PUSH1 0x60 DUP3 ADD MSTORE PUSH1 0x80 ADD SWAP1 JUMP JUMPDEST PUSH1 0x20 DUP1 DUP3 MSTORE PUSH1 0x17 SWAP1 DUP3 ADD MSTORE PUSH32 0x48616E64203120697320616C726561647920646F6E652E000000000000000000 PUSH1 0x40 DUP3 ADD MSTORE PUSH1 0x60 ADD SWAP1 JUMP JUMPDEST PUSH1 0x20 DUP1 DUP3 MSTORE PUSH1 0x2A SWAP1 DUP3 ADD MSTORE PUSH32 0x48616E642031206D75737420626520646F6E65206265666F726520706C617969 PUSH1 0x40 DUP3 ADD MSTORE PUSH10 0x3733902430B732101917 PUSH1 0xB1 SHL PUSH1 0x60 DUP3 ADD MSTORE PUSH1 0x80 ADD SWAP1 JUMP JUMPDEST PUSH4 0x4E487B71 PUSH1 0xE0 SHL PUSH1 0x0 MSTORE PUSH1 0x11 PUSH1 0x4 MSTORE PUSH1 0x24 PUSH1 0x0 REVERT JUMPDEST PUSH1 0x0 PUSH1 0xFF DUP3 AND PUSH1 0xFF DUP2 SUB PUSH2 0x32AD JUMPI PUSH2 0x32AD PUSH2 0x3281 JUMP JUMPDEST PUSH1 0x1 ADD SWAP3 SWAP2 POP POP JUMP JUMPDEST DUP1 DUP3 ADD DUP1 DUP3 GT ISZERO PUSH2 0x16D4 JUMPI PUSH2 0x16D4 PUSH2 0x3281 JUMP JUMPDEST PUSH4 0x4E487B71 PUSH1 0xE0 SHL PUSH1 0x0 MSTORE PUSH1 0x12 PUSH1 0x4 MSTORE PUSH1 0x24 PUSH1 0x0 REVERT JUMPDEST PUSH1 0x0 DUP3 PUSH2 0x32EE JUMPI PUSH2 0x32EE PUSH2 0x32C9 JUMP JUMPDEST POP DIV SWAP1 JUMP JUMPDEST PUSH4 0x4E487B71 PUSH1 0xE0 SHL PUSH1 0x0 MSTORE PUSH1 0x41 PUSH1 0x4 MSTORE PUSH1 0x24 PUSH1 0x0 REVERT JUMPDEST PUSH4 0x4E487B71 PUSH1 0xE0 SHL PUSH1 0x0 MSTORE PUSH1 0x32 PUSH1 0x4 MSTORE PUSH1 0x24 PUSH1 0x0 REVERT JUMPDEST PUSH4 0x4E487B71 PUSH1 0xE0 SHL PUSH1 0x0 MSTORE PUSH1 0x31 PUSH1 0x4 MSTORE PUSH1 0x24 PUSH1 0x0 REVERT JUMPDEST PUSH1 0x0 PUSH1 0x1 DUP3 ADD PUSH2 0x3347 JUMPI PUSH2 0x3347 PUSH2 0x3281 JUMP JUMPDEST POP PUSH1 0x1 ADD SWAP1 JUMP JUMPDEST DUP2 DUP2 SUB DUP2 DUP2 GT ISZERO PUSH2 0x16D4 JUMPI PUSH2 0x16D4 PUSH2 0x3281 JUMP JUMPDEST PUSH1 0x0 DUP2 PUSH2 0x3370 JUMPI PUSH2 0x3370 PUSH2 0x3281 JUMP JUMPDEST POP PUSH1 0x0 NOT ADD SWAP1 JUMP JUMPDEST DUP1 DUP3 MUL DUP2 ISZERO DUP3 DUP3 DIV DUP5 EQ OR PUSH2 0x16D4 JUMPI PUSH2 0x16D4 PUSH2 0x3281 JUMP JUMPDEST PUSH1 0x0 DUP3 PUSH2 0x339E JUMPI PUSH2 0x339E PUSH2 0x32C9 JUMP JUMPDEST POP MOD SWAP1 JUMP JUMPDEST PUSH1 0x0 JUMPDEST DUP4 DUP2 LT ISZERO PUSH2 0x33BE JUMPI DUP2 DUP2 ADD MLOAD DUP4 DUP3 ADD MSTORE PUSH1 0x20 ADD PUSH2 0x33A6 JUMP JUMPDEST POP POP PUSH1 0x0 SWAP2 ADD MSTORE JUMP JUMPDEST PUSH1 0x0 DUP2 MLOAD DUP1 DUP5 MSTORE PUSH2 0x33DF DUP2 PUSH1 0x20 DUP7 ADD PUSH1 0x20 DUP7 ADD PUSH2 0x33A3 JUMP JUMPDEST PUSH1 0x1F ADD PUSH1 0x1F NOT AND SWAP3 SWAP1 SWAP3 ADD PUSH1 0x20 ADD SWAP3 SWAP2 POP POP JUMP JUMPDEST PUSH1 0x40 DUP2 MSTORE PUSH1 0x0 PUSH2 0x3406 PUSH1 0x40 DUP4 ADD DUP6 PUSH2 0x33C7 JUMP JUMPDEST SWAP1 POP DUP3 PUSH1 0x20 DUP4 ADD MSTORE SWAP4 SWAP3 POP POP POP JUMP JUMPDEST PUSH5 0x2430B7321 PUSH1 0xDD SHL DUP2 MSTORE PUSH1 0x0 DUP3 MLOAD PUSH2 0x3435 DUP2 PUSH1 0x5 DUP6 ADD PUSH1 0x20 DUP8 ADD PUSH2 0x33A3 JUMP JUMPDEST PUSH14 0x3A20506C61796572204275737473 PUSH1 0x90 SHL PUSH1 0x5 SWAP4 SWAP1 SWAP2 ADD SWAP3 DUP4 ADD MSTORE POP PUSH1 0x13 ADD SWAP2 SWAP1 POP JUMP JUMPDEST PUSH5 0x2430B7321 PUSH1 0xDD SHL DUP2 MSTORE PUSH1 0x0 DUP3 MLOAD PUSH2 0x347A DUP2 PUSH1 0x5 DUP6 ADD PUSH1 0x20 DUP8 ADD PUSH2 0x33A3 JUMP JUMPDEST PUSH32 0x3A204465616C65722042757374732120596F752057696E210000000000000000 PUSH1 0x5 SWAP4 SWAP1 SWAP2 ADD SWAP3 DUP4 ADD MSTORE POP PUSH1 0x1D ADD SWAP2 SWAP1 POP JUMP JUMPDEST PUSH5 0x2430B7321 PUSH1 0xDD SHL DUP2 MSTORE PUSH1 0x0 DUP3 MLOAD PUSH2 0x34CE DUP2 PUSH1 0x5 DUP6 ADD PUSH1 0x20 DUP8 ADD PUSH2 0x33A3 JUMP JUMPDEST PUSH10 0x3A20596F752057696E21 PUSH1 0xB0 SHL PUSH1 0x5 SWAP4 SWAP1 SWAP2 ADD SWAP3 DUP4 ADD MSTORE POP PUSH1 0xF ADD SWAP2 SWAP1 POP JUMP JUMPDEST PUSH5 0x2430B7321 PUSH1 0xDD SHL DUP2 MSTORE PUSH1 0x0 DUP3 MLOAD PUSH2 0x350F DUP2 PUSH1 0x5 DUP6 ADD PUSH1 0x20 DUP8 ADD PUSH2 0x33A3 JUMP JUMPDEST PUSH13 0x3A204465616C65722057696E73 PUSH1 0x98 SHL PUSH1 0x5 SWAP4 SWAP1 SWAP2 ADD SWAP3 DUP4 ADD MSTORE POP PUSH1 0x12 ADD SWAP2 SWAP1 POP JUMP JUMPDEST PUSH5 0x2430B7321 PUSH1 0xDD SHL DUP2 MSTORE PUSH1 0x0 DUP3 MLOAD PUSH2 0x3553 DUP2 PUSH1 0x5 DUP6 ADD PUSH1 0x20 DUP8 ADD PUSH2 0x33A3 JUMP JUMPDEST PUSH19 0x3A205075736820284974277320612054696529 PUSH1 0x68 SHL PUSH1 0x5 SWAP4 SWAP1 SWAP2 ADD SWAP3 DUP4 ADD MSTORE POP PUSH1 0x18 ADD SWAP2 SWAP1 POP JUMP JUMPDEST PUSH32 0x4661696C656420746F2073656E6420457468657220666F722048616E64200000 DUP2 MSTORE PUSH1 0x0 DUP3 MLOAD PUSH2 0x35B5 DUP2 PUSH1 0x1E DUP6 ADD PUSH1 0x20 DUP8 ADD PUSH2 0x33A3 JUMP JUMPDEST SWAP2 SWAP1 SWAP2 ADD PUSH1 0x1E ADD SWAP3 SWAP2 POP POP JUMP JUMPDEST PUSH1 0x20 DUP2 MSTORE PUSH1 0x0 PUSH2 0x300E PUSH1 0x20 DUP4 ADD DUP5 PUSH2 0x33C7 JUMP INVALID 0xCF SWAP5 SWAP2 0xC5 MULMOD MSTORE 0xC1 DUP2 XOR PUSH31 0x767C568B4A5BA558D5B1D35F47D6307FA1D7709C5110A26469706673582212 KECCAK256 ADDRESS LOG3 PUSH23 0x30D3E4DEC8DA273580AFC2487C7B5C7DEA56D8AC4E36AD PUSH26 0xF37826F3F964736F6C6343000814003300000000000000000000 "
        },
        "methodIdentifiers": {
          "dealInitialCards()": "f58bb0c9",
          "doubleDown(uint8)": "720d984e",
          "getDealerHand(address)": "35d17c61",
          "getGameState(address)": "d9d60b52",
          "getHandValue(address,bool)": "b0ca5962",
          "getHandValue2(address)": "d06e5c06",
          "getPlayerHand(address)": "cece2fa0",
          "getPlayerHand2(address)": "b9ad583d",
          "hitMultiple(uint8,uint8)": "1949e58b",
          "owner()": "8da5cb5b",
          "placeBet()": "f90f4560",
          "playerGames(address)": "40056505",
          "resetGame()": "bb472219",
          "split()": "f7654176",
          "stand(uint8)": "0a2d343a",
          "takeInsurance()": "963661db",
          "withdrawAll()": "853828b6"
        }
      }
    }
  }
}